{
  "_format": "hh-sol-artifact-1",
  "contractName": "RandomRewardEngine",
  "sourceName": "contracts/RandomRewardEngine.sol",
  "abi": [
    {
      "inputs": [
        {
          "internalType": "address",
          "name": "_gifterraSBT",
          "type": "address"
        },
        {
          "internalType": "address",
          "name": "_rewardNFT",
          "type": "address"
        },
        {
          "internalType": "address",
          "name": "_rewardToken",
          "type": "address"
        },
        {
          "internalType": "address",
          "name": "_owner",
          "type": "address"
        }
      ],
      "stateMutability": "nonpayable",
      "type": "constructor"
    },
    {
      "anonymous": false,
      "inputs": [
        {
          "indexed": true,
          "internalType": "uint256",
          "name": "milestoneId",
          "type": "uint256"
        },
        {
          "indexed": false,
          "internalType": "uint256",
          "name": "threshold",
          "type": "uint256"
        }
      ],
      "name": "MilestoneAdded",
      "type": "event"
    },
    {
      "anonymous": false,
      "inputs": [
        {
          "indexed": true,
          "internalType": "address",
          "name": "user",
          "type": "address"
        },
        {
          "indexed": true,
          "internalType": "uint256",
          "name": "milestoneId",
          "type": "uint256"
        }
      ],
      "name": "MilestoneDrawn",
      "type": "event"
    },
    {
      "anonymous": false,
      "inputs": [
        {
          "indexed": false,
          "internalType": "address",
          "name": "account",
          "type": "address"
        }
      ],
      "name": "Paused",
      "type": "event"
    },
    {
      "anonymous": false,
      "inputs": [
        {
          "indexed": true,
          "internalType": "address",
          "name": "user",
          "type": "address"
        },
        {
          "indexed": false,
          "internalType": "enum RandomRewardEngine.TriggerType",
          "name": "triggerType",
          "type": "uint8"
        },
        {
          "indexed": false,
          "internalType": "enum RandomRewardEngine.Rarity",
          "name": "rarity",
          "type": "uint8"
        },
        {
          "indexed": false,
          "internalType": "enum RandomRewardEngine.RewardType",
          "name": "rewardType",
          "type": "uint8"
        },
        {
          "indexed": false,
          "internalType": "uint256",
          "name": "rewardAmount",
          "type": "uint256"
        },
        {
          "indexed": false,
          "internalType": "uint256",
          "name": "nftTokenId",
          "type": "uint256"
        },
        {
          "indexed": false,
          "internalType": "uint256",
          "name": "userRank",
          "type": "uint256"
        }
      ],
      "name": "RewardDrawn",
      "type": "event"
    },
    {
      "anonymous": false,
      "inputs": [
        {
          "indexed": false,
          "internalType": "enum RandomRewardEngine.TriggerType",
          "name": "triggerType",
          "type": "uint8"
        },
        {
          "indexed": false,
          "internalType": "uint256",
          "name": "rank",
          "type": "uint256"
        }
      ],
      "name": "RewardPoolUpdated",
      "type": "event"
    },
    {
      "anonymous": false,
      "inputs": [
        {
          "indexed": true,
          "internalType": "bytes32",
          "name": "role",
          "type": "bytes32"
        },
        {
          "indexed": true,
          "internalType": "bytes32",
          "name": "previousAdminRole",
          "type": "bytes32"
        },
        {
          "indexed": true,
          "internalType": "bytes32",
          "name": "newAdminRole",
          "type": "bytes32"
        }
      ],
      "name": "RoleAdminChanged",
      "type": "event"
    },
    {
      "anonymous": false,
      "inputs": [
        {
          "indexed": true,
          "internalType": "bytes32",
          "name": "role",
          "type": "bytes32"
        },
        {
          "indexed": true,
          "internalType": "address",
          "name": "account",
          "type": "address"
        },
        {
          "indexed": true,
          "internalType": "address",
          "name": "sender",
          "type": "address"
        }
      ],
      "name": "RoleGranted",
      "type": "event"
    },
    {
      "anonymous": false,
      "inputs": [
        {
          "indexed": true,
          "internalType": "bytes32",
          "name": "role",
          "type": "bytes32"
        },
        {
          "indexed": true,
          "internalType": "address",
          "name": "account",
          "type": "address"
        },
        {
          "indexed": true,
          "internalType": "address",
          "name": "sender",
          "type": "address"
        }
      ],
      "name": "RoleRevoked",
      "type": "event"
    },
    {
      "anonymous": false,
      "inputs": [
        {
          "indexed": true,
          "internalType": "address",
          "name": "operator",
          "type": "address"
        },
        {
          "indexed": false,
          "internalType": "bytes32",
          "name": "seedHash",
          "type": "bytes32"
        },
        {
          "indexed": false,
          "internalType": "uint256",
          "name": "timestamp",
          "type": "uint256"
        }
      ],
      "name": "SeedCommitted",
      "type": "event"
    },
    {
      "anonymous": false,
      "inputs": [
        {
          "indexed": false,
          "internalType": "enum RandomRewardEngine.TriggerType",
          "name": "triggerType",
          "type": "uint8"
        },
        {
          "indexed": false,
          "internalType": "bool",
          "name": "enabled",
          "type": "bool"
        }
      ],
      "name": "TriggerConfigUpdated",
      "type": "event"
    },
    {
      "anonymous": false,
      "inputs": [
        {
          "indexed": false,
          "internalType": "address",
          "name": "account",
          "type": "address"
        }
      ],
      "name": "Unpaused",
      "type": "event"
    },
    {
      "inputs": [],
      "name": "CONFIG_ROLE",
      "outputs": [
        {
          "internalType": "bytes32",
          "name": "",
          "type": "bytes32"
        }
      ],
      "stateMutability": "view",
      "type": "function"
    },
    {
      "inputs": [],
      "name": "DEFAULT_ADMIN_ROLE",
      "outputs": [
        {
          "internalType": "bytes32",
          "name": "",
          "type": "bytes32"
        }
      ],
      "stateMutability": "view",
      "type": "function"
    },
    {
      "inputs": [],
      "name": "OPERATOR_ROLE",
      "outputs": [
        {
          "internalType": "bytes32",
          "name": "",
          "type": "bytes32"
        }
      ],
      "stateMutability": "view",
      "type": "function"
    },
    {
      "inputs": [
        {
          "internalType": "uint256",
          "name": "tipThreshold",
          "type": "uint256"
        }
      ],
      "name": "addMilestone",
      "outputs": [],
      "stateMutability": "nonpayable",
      "type": "function"
    },
    {
      "inputs": [
        {
          "internalType": "address",
          "name": "user",
          "type": "address"
        }
      ],
      "name": "canDrawDaily",
      "outputs": [
        {
          "internalType": "bool",
          "name": "",
          "type": "bool"
        }
      ],
      "stateMutability": "view",
      "type": "function"
    },
    {
      "inputs": [
        {
          "internalType": "address",
          "name": "user",
          "type": "address"
        },
        {
          "internalType": "uint256",
          "name": "milestoneId",
          "type": "uint256"
        }
      ],
      "name": "canDrawMilestone",
      "outputs": [
        {
          "internalType": "bool",
          "name": "",
          "type": "bool"
        }
      ],
      "stateMutability": "view",
      "type": "function"
    },
    {
      "inputs": [
        {
          "internalType": "bytes32",
          "name": "seedHash",
          "type": "bytes32"
        }
      ],
      "name": "commitSeed",
      "outputs": [],
      "stateMutability": "nonpayable",
      "type": "function"
    },
    {
      "inputs": [
        {
          "internalType": "address",
          "name": "",
          "type": "address"
        }
      ],
      "name": "commitTimestamp",
      "outputs": [
        {
          "internalType": "uint256",
          "name": "",
          "type": "uint256"
        }
      ],
      "stateMutability": "view",
      "type": "function"
    },
    {
      "inputs": [
        {
          "internalType": "bytes32",
          "name": "seed",
          "type": "bytes32"
        },
        {
          "internalType": "address",
          "name": "operator",
          "type": "address"
        }
      ],
      "name": "drawDailyReward",
      "outputs": [],
      "stateMutability": "nonpayable",
      "type": "function"
    },
    {
      "inputs": [
        {
          "internalType": "uint256",
          "name": "",
          "type": "uint256"
        }
      ],
      "name": "drawHistory",
      "outputs": [
        {
          "internalType": "address",
          "name": "user",
          "type": "address"
        },
        {
          "internalType": "enum RandomRewardEngine.TriggerType",
          "name": "triggerType",
          "type": "uint8"
        },
        {
          "internalType": "enum RandomRewardEngine.Rarity",
          "name": "rarity",
          "type": "uint8"
        },
        {
          "internalType": "enum RandomRewardEngine.RewardType",
          "name": "rewardType",
          "type": "uint8"
        },
        {
          "internalType": "uint256",
          "name": "rewardAmount",
          "type": "uint256"
        },
        {
          "internalType": "uint256",
          "name": "nftTokenId",
          "type": "uint256"
        },
        {
          "internalType": "bytes32",
          "name": "seed",
          "type": "bytes32"
        },
        {
          "internalType": "uint256",
          "name": "timestamp",
          "type": "uint256"
        },
        {
          "internalType": "uint256",
          "name": "userRank",
          "type": "uint256"
        }
      ],
      "stateMutability": "view",
      "type": "function"
    },
    {
      "inputs": [
        {
          "internalType": "bytes32",
          "name": "seed",
          "type": "bytes32"
        },
        {
          "internalType": "address",
          "name": "operator",
          "type": "address"
        }
      ],
      "name": "drawManualGacha",
      "outputs": [],
      "stateMutability": "nonpayable",
      "type": "function"
    },
    {
      "inputs": [
        {
          "internalType": "uint256",
          "name": "milestoneId",
          "type": "uint256"
        },
        {
          "internalType": "bytes32",
          "name": "seed",
          "type": "bytes32"
        },
        {
          "internalType": "address",
          "name": "operator",
          "type": "address"
        }
      ],
      "name": "drawTipMilestone",
      "outputs": [],
      "stateMutability": "nonpayable",
      "type": "function"
    },
    {
      "inputs": [
        {
          "internalType": "enum RandomRewardEngine.Rarity",
          "name": "",
          "type": "uint8"
        }
      ],
      "name": "drawsByRarity",
      "outputs": [
        {
          "internalType": "uint256",
          "name": "",
          "type": "uint256"
        }
      ],
      "stateMutability": "view",
      "type": "function"
    },
    {
      "inputs": [
        {
          "internalType": "enum RandomRewardEngine.TriggerType",
          "name": "",
          "type": "uint8"
        }
      ],
      "name": "drawsByTrigger",
      "outputs": [
        {
          "internalType": "uint256",
          "name": "",
          "type": "uint256"
        }
      ],
      "stateMutability": "view",
      "type": "function"
    },
    {
      "inputs": [
        {
          "internalType": "uint256",
          "name": "index",
          "type": "uint256"
        }
      ],
      "name": "getDrawHistoryDetail",
      "outputs": [
        {
          "components": [
            {
              "internalType": "address",
              "name": "user",
              "type": "address"
            },
            {
              "internalType": "enum RandomRewardEngine.TriggerType",
              "name": "triggerType",
              "type": "uint8"
            },
            {
              "internalType": "enum RandomRewardEngine.Rarity",
              "name": "rarity",
              "type": "uint8"
            },
            {
              "internalType": "enum RandomRewardEngine.RewardType",
              "name": "rewardType",
              "type": "uint8"
            },
            {
              "internalType": "uint256",
              "name": "rewardAmount",
              "type": "uint256"
            },
            {
              "internalType": "uint256",
              "name": "nftTokenId",
              "type": "uint256"
            },
            {
              "internalType": "bytes32",
              "name": "seed",
              "type": "bytes32"
            },
            {
              "internalType": "uint256",
              "name": "timestamp",
              "type": "uint256"
            },
            {
              "internalType": "uint256",
              "name": "userRank",
              "type": "uint256"
            }
          ],
          "internalType": "struct RandomRewardEngine.DrawHistory",
          "name": "",
          "type": "tuple"
        }
      ],
      "stateMutability": "view",
      "type": "function"
    },
    {
      "inputs": [
        {
          "internalType": "bytes32",
          "name": "role",
          "type": "bytes32"
        }
      ],
      "name": "getRoleAdmin",
      "outputs": [
        {
          "internalType": "bytes32",
          "name": "",
          "type": "bytes32"
        }
      ],
      "stateMutability": "view",
      "type": "function"
    },
    {
      "inputs": [],
      "name": "getStats",
      "outputs": [
        {
          "internalType": "uint256",
          "name": "total",
          "type": "uint256"
        },
        {
          "internalType": "uint256",
          "name": "daily",
          "type": "uint256"
        },
        {
          "internalType": "uint256",
          "name": "milestone",
          "type": "uint256"
        },
        {
          "internalType": "uint256",
          "name": "manual",
          "type": "uint256"
        },
        {
          "internalType": "uint256",
          "name": "common",
          "type": "uint256"
        },
        {
          "internalType": "uint256",
          "name": "rare",
          "type": "uint256"
        },
        {
          "internalType": "uint256",
          "name": "sr",
          "type": "uint256"
        },
        {
          "internalType": "uint256",
          "name": "ssr",
          "type": "uint256"
        }
      ],
      "stateMutability": "view",
      "type": "function"
    },
    {
      "inputs": [
        {
          "internalType": "address",
          "name": "user",
          "type": "address"
        }
      ],
      "name": "getUserDrawHistory",
      "outputs": [
        {
          "internalType": "uint256[]",
          "name": "",
          "type": "uint256[]"
        }
      ],
      "stateMutability": "view",
      "type": "function"
    },
    {
      "inputs": [],
      "name": "gifterraSBT",
      "outputs": [
        {
          "internalType": "contract IGifterra",
          "name": "",
          "type": "address"
        }
      ],
      "stateMutability": "view",
      "type": "function"
    },
    {
      "inputs": [
        {
          "internalType": "bytes32",
          "name": "role",
          "type": "bytes32"
        },
        {
          "internalType": "address",
          "name": "account",
          "type": "address"
        }
      ],
      "name": "grantRole",
      "outputs": [],
      "stateMutability": "nonpayable",
      "type": "function"
    },
    {
      "inputs": [
        {
          "internalType": "bytes32",
          "name": "role",
          "type": "bytes32"
        },
        {
          "internalType": "address",
          "name": "account",
          "type": "address"
        }
      ],
      "name": "hasRole",
      "outputs": [
        {
          "internalType": "bool",
          "name": "",
          "type": "bool"
        }
      ],
      "stateMutability": "view",
      "type": "function"
    },
    {
      "inputs": [
        {
          "internalType": "address",
          "name": "",
          "type": "address"
        },
        {
          "internalType": "enum RandomRewardEngine.TriggerType",
          "name": "",
          "type": "uint8"
        }
      ],
      "name": "lastDrawTime",
      "outputs": [
        {
          "internalType": "uint256",
          "name": "",
          "type": "uint256"
        }
      ],
      "stateMutability": "view",
      "type": "function"
    },
    {
      "inputs": [],
      "name": "milestoneCount",
      "outputs": [
        {
          "internalType": "uint256",
          "name": "",
          "type": "uint256"
        }
      ],
      "stateMutability": "view",
      "type": "function"
    },
    {
      "inputs": [
        {
          "internalType": "address",
          "name": "",
          "type": "address"
        },
        {
          "internalType": "uint256",
          "name": "",
          "type": "uint256"
        }
      ],
      "name": "milestoneDrawn",
      "outputs": [
        {
          "internalType": "bool",
          "name": "",
          "type": "bool"
        }
      ],
      "stateMutability": "view",
      "type": "function"
    },
    {
      "inputs": [
        {
          "internalType": "uint256",
          "name": "",
          "type": "uint256"
        }
      ],
      "name": "milestones",
      "outputs": [
        {
          "internalType": "uint256",
          "name": "tipThreshold",
          "type": "uint256"
        },
        {
          "internalType": "bool",
          "name": "enabled",
          "type": "bool"
        }
      ],
      "stateMutability": "view",
      "type": "function"
    },
    {
      "inputs": [
        {
          "internalType": "address",
          "name": "",
          "type": "address"
        }
      ],
      "name": "operatorSeedCommit",
      "outputs": [
        {
          "internalType": "bytes32",
          "name": "",
          "type": "bytes32"
        }
      ],
      "stateMutability": "view",
      "type": "function"
    },
    {
      "inputs": [],
      "name": "pause",
      "outputs": [],
      "stateMutability": "nonpayable",
      "type": "function"
    },
    {
      "inputs": [],
      "name": "paused",
      "outputs": [
        {
          "internalType": "bool",
          "name": "",
          "type": "bool"
        }
      ],
      "stateMutability": "view",
      "type": "function"
    },
    {
      "inputs": [
        {
          "internalType": "bytes32",
          "name": "role",
          "type": "bytes32"
        },
        {
          "internalType": "address",
          "name": "account",
          "type": "address"
        }
      ],
      "name": "renounceRole",
      "outputs": [],
      "stateMutability": "nonpayable",
      "type": "function"
    },
    {
      "inputs": [
        {
          "internalType": "bytes32",
          "name": "role",
          "type": "bytes32"
        },
        {
          "internalType": "address",
          "name": "account",
          "type": "address"
        }
      ],
      "name": "revokeRole",
      "outputs": [],
      "stateMutability": "nonpayable",
      "type": "function"
    },
    {
      "inputs": [
        {
          "internalType": "enum RandomRewardEngine.TriggerType",
          "name": "",
          "type": "uint8"
        },
        {
          "internalType": "uint256",
          "name": "",
          "type": "uint256"
        },
        {
          "internalType": "enum RandomRewardEngine.Rarity",
          "name": "",
          "type": "uint8"
        }
      ],
      "name": "rewardAmounts",
      "outputs": [
        {
          "internalType": "uint256",
          "name": "tokenAmount",
          "type": "uint256"
        },
        {
          "internalType": "bytes32",
          "name": "nftSku",
          "type": "bytes32"
        }
      ],
      "stateMutability": "view",
      "type": "function"
    },
    {
      "inputs": [],
      "name": "rewardNFT",
      "outputs": [
        {
          "internalType": "contract IRewardNFT",
          "name": "",
          "type": "address"
        }
      ],
      "stateMutability": "view",
      "type": "function"
    },
    {
      "inputs": [
        {
          "internalType": "enum RandomRewardEngine.TriggerType",
          "name": "",
          "type": "uint8"
        },
        {
          "internalType": "uint256",
          "name": "",
          "type": "uint256"
        }
      ],
      "name": "rewardPools",
      "outputs": [
        {
          "internalType": "uint256",
          "name": "commonWeight",
          "type": "uint256"
        },
        {
          "internalType": "uint256",
          "name": "rareWeight",
          "type": "uint256"
        },
        {
          "internalType": "uint256",
          "name": "srWeight",
          "type": "uint256"
        },
        {
          "internalType": "uint256",
          "name": "ssrWeight",
          "type": "uint256"
        },
        {
          "internalType": "bool",
          "name": "isActive",
          "type": "bool"
        }
      ],
      "stateMutability": "view",
      "type": "function"
    },
    {
      "inputs": [],
      "name": "rewardToken",
      "outputs": [
        {
          "internalType": "contract IERC20",
          "name": "",
          "type": "address"
        }
      ],
      "stateMutability": "view",
      "type": "function"
    },
    {
      "inputs": [
        {
          "internalType": "uint256",
          "name": "milestoneId",
          "type": "uint256"
        },
        {
          "internalType": "bool",
          "name": "enabled",
          "type": "bool"
        }
      ],
      "name": "setMilestoneEnabled",
      "outputs": [],
      "stateMutability": "nonpayable",
      "type": "function"
    },
    {
      "inputs": [
        {
          "internalType": "enum RandomRewardEngine.TriggerType",
          "name": "triggerType",
          "type": "uint8"
        },
        {
          "internalType": "uint256",
          "name": "rank",
          "type": "uint256"
        },
        {
          "internalType": "enum RandomRewardEngine.Rarity",
          "name": "rarity",
          "type": "uint8"
        },
        {
          "internalType": "uint256",
          "name": "tokenAmount",
          "type": "uint256"
        },
        {
          "internalType": "bytes32",
          "name": "nftSku",
          "type": "bytes32"
        }
      ],
      "name": "setRewardAmount",
      "outputs": [],
      "stateMutability": "nonpayable",
      "type": "function"
    },
    {
      "inputs": [
        {
          "internalType": "enum RandomRewardEngine.TriggerType",
          "name": "triggerType",
          "type": "uint8"
        },
        {
          "internalType": "uint256",
          "name": "rank",
          "type": "uint256"
        },
        {
          "internalType": "uint256",
          "name": "commonWeight",
          "type": "uint256"
        },
        {
          "internalType": "uint256",
          "name": "rareWeight",
          "type": "uint256"
        },
        {
          "internalType": "uint256",
          "name": "srWeight",
          "type": "uint256"
        },
        {
          "internalType": "uint256",
          "name": "ssrWeight",
          "type": "uint256"
        }
      ],
      "name": "setRewardPool",
      "outputs": [],
      "stateMutability": "nonpayable",
      "type": "function"
    },
    {
      "inputs": [
        {
          "internalType": "enum RandomRewardEngine.TriggerType",
          "name": "triggerType",
          "type": "uint8"
        },
        {
          "internalType": "bool",
          "name": "enabled",
          "type": "bool"
        },
        {
          "internalType": "uint256",
          "name": "cooldown",
          "type": "uint256"
        },
        {
          "internalType": "uint256",
          "name": "costAmount",
          "type": "uint256"
        }
      ],
      "name": "setTriggerConfig",
      "outputs": [],
      "stateMutability": "nonpayable",
      "type": "function"
    },
    {
      "inputs": [
        {
          "internalType": "bytes4",
          "name": "interfaceId",
          "type": "bytes4"
        }
      ],
      "name": "supportsInterface",
      "outputs": [
        {
          "internalType": "bool",
          "name": "",
          "type": "bool"
        }
      ],
      "stateMutability": "view",
      "type": "function"
    },
    {
      "inputs": [],
      "name": "totalDraws",
      "outputs": [
        {
          "internalType": "uint256",
          "name": "",
          "type": "uint256"
        }
      ],
      "stateMutability": "view",
      "type": "function"
    },
    {
      "inputs": [
        {
          "internalType": "enum RandomRewardEngine.TriggerType",
          "name": "",
          "type": "uint8"
        }
      ],
      "name": "triggerConfigs",
      "outputs": [
        {
          "internalType": "bool",
          "name": "enabled",
          "type": "bool"
        },
        {
          "internalType": "uint256",
          "name": "cooldown",
          "type": "uint256"
        },
        {
          "internalType": "uint256",
          "name": "costAmount",
          "type": "uint256"
        },
        {
          "internalType": "bool",
          "name": "isActive",
          "type": "bool"
        }
      ],
      "stateMutability": "view",
      "type": "function"
    },
    {
      "inputs": [],
      "name": "unpause",
      "outputs": [],
      "stateMutability": "nonpayable",
      "type": "function"
    },
    {
      "inputs": [
        {
          "internalType": "bytes32",
          "name": "",
          "type": "bytes32"
        }
      ],
      "name": "usedSeeds",
      "outputs": [
        {
          "internalType": "bool",
          "name": "",
          "type": "bool"
        }
      ],
      "stateMutability": "view",
      "type": "function"
    },
    {
      "inputs": [
        {
          "internalType": "address",
          "name": "",
          "type": "address"
        },
        {
          "internalType": "uint256",
          "name": "",
          "type": "uint256"
        }
      ],
      "name": "userDrawHistory",
      "outputs": [
        {
          "internalType": "uint256",
          "name": "",
          "type": "uint256"
        }
      ],
      "stateMutability": "view",
      "type": "function"
    },
    {
      "inputs": [],
      "name": "version",
      "outputs": [
        {
          "internalType": "string",
          "name": "",
          "type": "string"
        }
      ],
      "stateMutability": "pure",
      "type": "function"
    },
    {
      "inputs": [],
      "name": "vrfEnabled",
      "outputs": [
        {
          "internalType": "bool",
          "name": "",
          "type": "bool"
        }
      ],
      "stateMutability": "view",
      "type": "function"
    },
    {
      "inputs": [],
      "name": "vrfThreshold",
      "outputs": [
        {
          "internalType": "uint256",
          "name": "",
          "type": "uint256"
        }
      ],
      "stateMutability": "view",
      "type": "function"
    },
    {
      "inputs": [
        {
          "internalType": "address",
          "name": "recipient",
          "type": "address"
        },
        {
          "internalType": "uint256",
          "name": "amount",
          "type": "uint256"
        }
      ],
      "name": "withdrawToken",
      "outputs": [],
      "stateMutability": "nonpayable",
      "type": "function"
    }
  ],
  "bytecode": "0x60806040526014805460ff191690553480156200001b57600080fd5b50604051620038be380380620038be8339810160408190526200003e91620005ad565b600180556002805460ff191690556001600160a01b038416620000a85760405162461bcd60e51b815260206004820152601860248201527f496e76616c69642047696674657272612061646472657373000000000000000060448201526064015b60405180910390fd5b6001600160a01b038316620001005760405162461bcd60e51b815260206004820152601960248201527f496e76616c6964205265776172644e465420616464726573730000000000000060448201526064016200009f565b6001600160a01b038216620001585760405162461bcd60e51b815260206004820152601560248201527f496e76616c696420746f6b656e2061646472657373000000000000000000000060448201526064016200009f565b6001600160a01b038116620001b05760405162461bcd60e51b815260206004820152601560248201527f496e76616c6964206f776e65722061646472657373000000000000000000000060448201526064016200009f565b600280546001600160a01b0380871661010002610100600160a81b031990921691909117909155600380548583166001600160a01b03199182161790915560048054928516929091169190911790556200020c600082620004ef565b620002387f97667070c54ef182b0f5858b034beac1b6f3089aa2d3188bb1e8929f4fa9b92982620004ef565b620002647f82db594318110a04b6349ce48645aa69f0892751bc893d15e61d9e2b9c4630f582620004ef565b620004e56040805160808082018352600180835262015180602080850191825260008587018181526060808801868152838052600580865298517f05b8ccbb9d4d8fb16ea74ce3c29a41f1b461fbdaff4714a0d9a8eb05499746bc805460ff1990811692151592909217905595517f05b8ccbb9d4d8fb16ea74ce3c29a41f1b461fbdaff4714a0d9a8eb05499746bd5591517f05b8ccbb9d4d8fb16ea74ce3c29a41f1b461fbdaff4714a0d9a8eb05499746be5590517f05b8ccbb9d4d8fb16ea74ce3c29a41f1b461fbdaff4714a0d9a8eb05499746bf8054861691151591909117905587518087018952858152808401838152818a018481528284018881528886528a875292517f1471eb6eb2c5e789fc3de43f8ce62938c7d1836ec861730447e2ada8fd81017b8054891691151591909117905590517f1471eb6eb2c5e789fc3de43f8ce62938c7d1836ec861730447e2ada8fd81017c55517f1471eb6eb2c5e789fc3de43f8ce62938c7d1836ec861730447e2ada8fd81017d55517f1471eb6eb2c5e789fc3de43f8ce62938c7d1836ec861730447e2ada8fd81017e805486169115159190911790558751958601885284865285830182815268056bc75e2d63100000988701988952908601948552600290915294905291517f89832631fb3c3307a103ba2c84ab569c64d6182a18893dcd163f0f1c2090733a8054841691151591909117905591517f89832631fb3c3307a103ba2c84ab569c64d6182a18893dcd163f0f1c2090733b5591517f89832631fb3c3307a103ba2c84ab569c64d6182a18893dcd163f0f1c2090733c55517f89832631fb3c3307a103ba2c84ab569c64d6182a18893dcd163f0f1c2090733d8054909216901515179055565b505050506200060a565b6000828152602081815260408083206001600160a01b038516845290915290205460ff166200058c576000828152602081815260408083206001600160a01b03851684529091529020805460ff191660011790556200054b3390565b6001600160a01b0316816001600160a01b0316837f2f8788117e7eff1d82e926ec794901d17c78024a50270940304540a733656f0d60405160405180910390a45b5050565b80516001600160a01b0381168114620005a857600080fd5b919050565b60008060008060808587031215620005c457600080fd5b620005cf8562000590565b9350620005df6020860162000590565b9250620005ef6040860162000590565b9150620005ff6060860162000590565b905092959194509250565b6132a4806200061a6000396000f3fe608060405234801561001057600080fd5b50600436106102a05760003560e01c806391d1485411610167578063d5f60620116100ce578063ebab6d9b11610087578063ebab6d9b14610778578063ef44deb2146107a6578063f5b541a6146107b9578063f7c618c1146107e0578063f92e0559146107f3578063fc46925f1461081357600080fd5b8063d5f60620146106cd578063dca5d5c4146106e0578063e36cbbd1146106f3578063e6760dbc14610713578063e89e4ed614610726578063e9811abd1461076557600080fd5b8063be884a0311610120578063be884a03146105e4578063c59d484714610604578063c8ea4dd614610647578063cc98886b1461065a578063d1000337146106a7578063d547741f146106ba57600080fd5b806391d14854146105755780639ada7807146105885780639e281a98146105ab578063a217fddf146105be578063a4d19feb146105c6578063a91ca357146105db57600080fd5b80633f4ba83a1161020b5780635c55b927116101c45780635c55b927146104955780635c975abb146104a2578063739b3cb9146104ad5780638456cb59146104d8578063882322ab146104e05780638df02f0d1461050057600080fd5b80633f4ba83a1461041f5780633ffc6f9c1461042757806344171d171461043a5780634a38577b1461045a578063537d024e1461046d57806354fd4d501461048057600080fd5b80632994a0521161025d5780632994a052146103385780632b4e016c146103965780632f2ff15d146103b657806336568abe146103c9578063389f0025146103dc57806338a887c91461040c57600080fd5b806301ffc9a7146102a5578063053d2d17146102cd5780630681ca55146102e25780630c8d3e68146102f9578063137ef0491461030c578063248a9ca314610315575b600080fd5b6102b86102b3366004612b09565b61083b565b60405190151581526020015b60405180910390f35b6102e06102db366004612b4f565b610872565b005b6102eb60095481565b6040519081526020016102c4565b6102e0610307366004612b4f565b61089e565b6102eb60115481565b6102eb610323366004612b7b565b60009081526020819052604090206001015490565b610372610346366004612ba3565b600560205260009081526040902080546001820154600283015460039093015460ff9283169391921684565b604080519415158552602085019390935291830152151560608201526080016102c4565b6102eb6103a4366004612bbe565b600c6020526000908152604090205481565b6102e06103c4366004612b4f565b610a50565b6102e06103d7366004612b4f565b610a7a565b6002546103f49061010090046001600160a01b031681565b6040516001600160a01b0390911681526020016102c4565b6102e061041a366004612bd9565b610af4565b6102e0610ce8565b6102e0610435366004612b7b565b610cfe565b6102eb610448366004612bbe565b600d6020526000908152604090205481565b6102eb610468366004612c0e565b610dc3565b6102e061047b366004612c47565b610df4565b610488610efe565b6040516102c49190612cb9565b6014546102b89060ff1681565b60025460ff166102b8565b6102eb6104bb366004612cec565b600a60209081526000928352604080842090915290825290205481565b6102e0610f1e565b6102eb6104ee366004612ba3565b60126020526000908152604090205481565b61054b61050e366004612d16565b6006602090815260009283526040808420909152908252902080546001820154600283015460038401546004909401549293919290919060ff1685565b6040805195865260208601949094529284019190915260608301521515608082015260a0016102c4565b6102b8610583366004612b4f565b610f31565b6102b8610596366004612b7b565b600e6020526000908152604090205460ff1681565b6102e06105b9366004612c0e565b610f5a565b6102eb600081565b6102eb60008051602061320683398151915281565b6102eb60155481565b6105f76105f2366004612b7b565b611066565b6040516102c49190612d7c565b61060c611215565b604080519889526020890197909752958701949094526060860192909252608085015260a084015260c083015260e0820152610100016102c4565b6003546103f4906001600160a01b031681565b610692610668366004612e02565b60076020908152600093845260408085208252928452828420905282529020805460019091015482565b604080519283526020830191909152016102c4565b6102b86106b5366004612bbe565b6113bb565b6102e06106c8366004612b4f565b6114d4565b6102e06106db366004612e35565b6114f9565b6102b86106ee366004612c0e565b611646565b6102eb610701366004612e7f565b60136020526000908152604090205481565b6102e0610721366004612ea8565b61173c565b610750610734366004612b7b565b6008602052600090815260409020805460019091015460ff1682565b604080519283529015156020830152016102c4565b6102e0610773366004612b7b565b6117c0565b6102b8610786366004612c0e565b600b60209081526000928352604080842090915290825290205460ff1681565b6102e06107b4366004612ed8565b611862565b6102eb7f97667070c54ef182b0f5858b034beac1b6f3089aa2d3188bb1e8929f4fa9b92981565b6004546103f4906001600160a01b031681565b610806610801366004612bbe565b6119d5565b6040516102c49190612f1c565b610826610821366004612b7b565b611a41565b6040516102c499989796959493929190612f60565b60006001600160e01b03198216637965db0b60e01b148061086c57506301ffc9a760e01b6001600160e01b03198316145b92915050565b61087a611ab0565b610882611af8565b61089133600084846000611b51565b61089a60018055565b5050565b6108a6611ab0565b6108ae611af8565b600260005260056020908152604080516080810182527f89832631fb3c3307a103ba2c84ab569c64d6182a18893dcd163f0f1c2090733a5460ff908116151582527f89832631fb3c3307a103ba2c84ab569c64d6182a18893dcd163f0f1c2090733b54938201939093527f89832631fb3c3307a103ba2c84ab569c64d6182a18893dcd163f0f1c2090733c549181018290527f89832631fb3c3307a103ba2c84ab569c64d6182a18893dcd163f0f1c2090733d549092161515606083015215610a37576004805460408381015190516323b872dd60e01b8152339381019390935230602484015260448301526001600160a01b0316906323b872dd906064016020604051808303816000875af11580156109cc573d6000803e3d6000fd5b505050506040513d601f19601f820116820180604052508101906109f09190612fc4565b610a375760405162461bcd60e51b815260206004820152601360248201527210dbdcdd081c185e5b595b9d0819985a5b1959606a1b60448201526064015b60405180910390fd5b610a4633600285856000611b51565b5061089a60018055565b600082815260208190526040902060010154610a6b81612257565b610a758383612261565b505050565b6001600160a01b0381163314610aea5760405162461bcd60e51b815260206004820152602f60248201527f416363657373436f6e74726f6c3a2063616e206f6e6c792072656e6f756e636560448201526e103937b632b9903337b91039b2b63360891b6064820152608401610a2e565b61089a82826122e5565b610afc611ab0565b610b04611af8565b60008381526008602052604090206001015460ff16610b5d5760405162461bcd60e51b8152602060048201526015602482015274135a5b195cdd1bdb99481b9bdd08195b98589b1959605a1b6044820152606401610a2e565b336000908152600b6020908152604080832086845290915290205460ff1615610bb85760405162461bcd60e51b815260206004820152600d60248201526c20b63932b0b23c90323930bbb760991b6044820152606401610a2e565b600254604051631cfc1f7560e01b815233600482015260009161010090046001600160a01b031690631cfc1f7590602401602060405180830381865afa158015610c06573d6000803e3d6000fd5b505050506040513d601f19601f82011682018060405250810190610c2a9190612fe1565b600085815260086020526040902054909150811015610c835760405162461bcd60e51b8152602060048201526015602482015274151a1c995cda1bdb19081b9bdd081c995858da1959605a1b6044820152606401610a2e565b336000818152600b60209081526040808320888452909152808220805460ff19166001179055518692917fc7615fd2a9e5ca011a9060de16ea863ad925a2c5d7d208e638e2666bd66e609b91a3610cde336001858588611b51565b50610a7560018055565b6000610cf381612257565b610cfb61234a565b50565b7f97667070c54ef182b0f5858b034beac1b6f3089aa2d3188bb1e8929f4fa9b929610d2881612257565b81610d695760405162461bcd60e51b8152602060048201526011602482015270092dcecc2d8d2c840e6cacac840d0c2e6d607b1b6044820152606401610a2e565b336000818152600c60209081526040808320869055600d82529182902042908190558251868152918201527f20cadb8a891c89a2f74ec69535f426b8708d7a79bd08f98fb94e88e7f10ba5d4910160405180910390a25050565b60106020528160005260406000208181548110610ddf57600080fd5b90600052602060002001600091509150505481565b600080516020613206833981519152610e0c81612257565b600085118015610e1d575060048511155b610e585760405162461bcd60e51b815260206004820152600c60248201526b496e76616c69642072616e6b60a01b6044820152606401610a2e565b60405180604001604052808481526020018381525060076000886002811115610e8357610e83612d32565b6002811115610e9457610e94612d32565b815260200190815260200160002060008781526020019081526020016000206000866003811115610ec757610ec7612d32565b6003811115610ed857610ed8612d32565b815260208082019290925260400160002082518155910151600190910155505050505050565b606060405180608001604052806049815260200161322660499139905090565b6000610f2981612257565b610cfb61239c565b6000918252602082815260408084206001600160a01b0393909316845291905290205460ff1690565b6000610f6581612257565b6001600160a01b038316610faf5760405162461bcd60e51b8152602060048201526011602482015270125b9d985b1a59081c9958da5c1a595b9d607a1b6044820152606401610a2e565b6004805460405163a9059cbb60e01b81526001600160a01b03868116938201939093526024810185905291169063a9059cbb906044016020604051808303816000875af1158015611004573d6000803e3d6000fd5b505050506040513d601f19601f820116820180604052508101906110289190612fc4565b610a755760405162461bcd60e51b815260206004820152600f60248201526e151c985b9cd9995c8819985a5b1959608a1b6044820152606401610a2e565b6110b9604080516101208101909152600080825260208201908152602001600081526020016000815260200160008152602001600081526020016000801916815260200160008152602001600081525090565b600f5482106110fa5760405162461bcd60e51b815260206004820152600d60248201526c092dcecc2d8d2c840d2dcc8caf609b1b6044820152606401610a2e565b600f828154811061110d5761110d612ffa565b600091825260209182902060408051610120810190915260069092020180546001600160a01b0381168352919290919083019060ff600160a01b90910416600281111561115c5761115c612d32565b600281111561116d5761116d612d32565b81528154602090910190600160a81b900460ff16600381111561119257611192612d32565b60038111156111a3576111a3612d32565b81528154602090910190600160b01b900460ff1660018111156111c8576111c8612d32565b60018111156111d9576111d9612d32565b81526001820154602082015260028201546040820152600382015460608201526004820154608082015260059091015460a09091015292915050565b6000806000806000806000806011546012600080600281111561123a5761123a612d32565b600281111561124b5761124b612d32565b815260200190815260200160002054601260006001600281111561127157611271612d32565b600281111561128257611282612d32565b815260200190815260200160002054601260006002808111156112a7576112a7612d32565b60028111156112b8576112b8612d32565b815260200190815260200160002054601360008060038111156112dd576112dd612d32565b60038111156112ee576112ee612d32565b815260200190815260200160002054601360006001600381111561131457611314612d32565b600381111561132557611325612d32565b815260200190815260200160002054601360006002600381111561134b5761134b612d32565b600381111561135c5761135c612d32565b8152602001908152602001600020546013600060038081111561138157611381612d32565b600381111561139257611392612d32565b815260200190815260200160002054975097509750975097509750975097509091929394959697565b600080805260056020908152604080516080810182527f05b8ccbb9d4d8fb16ea74ce3c29a41f1b461fbdaff4714a0d9a8eb05499746bc5460ff90811615801583527f05b8ccbb9d4d8fb16ea74ce3c29a41f1b461fbdaff4714a0d9a8eb05499746bd54948301949094527f05b8ccbb9d4d8fb16ea74ce3c29a41f1b461fbdaff4714a0d9a8eb05499746be54928201929092527f05b8ccbb9d4d8fb16ea74ce3c29a41f1b461fbdaff4714a0d9a8eb05499746bf5490911615156060820152908061148957508060600151155b156114975750600092915050565b6020818101516001600160a01b0385166000908152600a83526040808220828052909352918220546114c99190613026565b421015949350505050565b6000828152602081905260409020600101546114ef81612257565b610a7583836122e5565b60008051602061320683398151915261151181612257565b600086118015611522575060048611155b61155d5760405162461bcd60e51b815260206004820152600c60248201526b496e76616c69642072616e6b60a01b6044820152606401610a2e565b6040518060a00160405280868152602001858152602001848152602001838152602001600115158152506006600089600281111561159d5761159d612d32565b60028111156115ae576115ae612d32565b8152602080820192909252604090810160009081208a8252835281902083518155918301516001830155828101516002830155606083015160038301556080909201516004909101805460ff1916911515919091179055517fbd2369ae27e68e55481bc47f632366f456136b58f5c8ae73ac89da9ee38b081e906116359089908990613039565b60405180910390a150505050505050565b600060095482106116595750600061086c565b60008281526008602052604090206001015460ff1661167a5750600061086c565b6001600160a01b0383166000908152600b6020908152604080832085845290915290205460ff16156116ae5750600061086c565b600254604051631cfc1f7560e01b81526001600160a01b03858116600483015260009261010090041690631cfc1f7590602401602060405180830381865afa1580156116fe573d6000803e3d6000fd5b505050506040513d601f19601f820116820180604052508101906117229190612fe1565b600084815260086020526040902054111591505092915050565b60008051602061320683398151915261175481612257565b600954831061179c5760405162461bcd60e51b8152602060048201526014602482015273125b9d985b1a59081b5a5b195cdd1bdb9948125160621b6044820152606401610a2e565b50600091825260086020526040909120600101805460ff1916911515919091179055565b6000805160206132068339815191526117d881612257565b60098054600091826117e983613054565b9091555060408051808201825285815260016020808301828152600086815260088352859020935184555192909101805460ff191692151592909217909155905185815291925082917feb0a448faf1db18876f6c843c35c660823db4038188aedad797bd3ef46ada371910160405180910390a2505050565b60008051602061320683398151915261187a81612257565b836005600087600281111561189157611891612d32565b60028111156118a2576118a2612d32565b815260200190815260200160002060000160006101000a81548160ff02191690831515021790555082600560008760028111156118e1576118e1612d32565b60028111156118f2576118f2612d32565b815260200190815260200160002060010181905550816005600087600281111561191e5761191e612d32565b600281111561192f5761192f612d32565b81526020019081526020016000206002018190555060016005600087600281111561195c5761195c612d32565b600281111561196d5761196d612d32565b815260200190815260200160002060030160006101000a81548160ff0219169083151502179055507fcbd2e027adfb5781f0f0c8f3a8e347aa5b0e3871f8f7c729215e87fdc08fd1bf85856040516119c692919061306d565b60405180910390a15050505050565b6001600160a01b038116600090815260106020908152604091829020805483518184028101840190945280845260609392830182828015611a3557602002820191906000526020600020905b815481526020019060010190808311611a21575b50505050509050919050565b600f8181548110611a5157600080fd5b60009182526020909120600690910201805460018201546002830154600384015460048501546005909501546001600160a01b038516965060ff600160a01b8604811696600160a81b8704821696600160b01b90049091169493929189565b60025460ff1615611af65760405162461bcd60e51b815260206004820152601060248201526f14185d5cd8589b194e881c185d5cd95960821b6044820152606401610a2e565b565b600260015403611b4a5760405162461bcd60e51b815260206004820152601f60248201527f5265656e7472616e637947756172643a207265656e7472616e742063616c6c006044820152606401610a2e565b6002600155565b600060056000866002811115611b6957611b69612d32565b6002811115611b7a57611b7a612d32565b815260208082019290925260409081016000208151608081018352815460ff908116151582526001830154948201949094526002820154928101929092526003015490911615801560608301819052919250611bd4575080515b611c155760405162461bcd60e51b815260206004820152601260248201527154726967676572206e6f742061637469766560701b6044820152606401610a2e565b602081015115611cc1576020808201516001600160a01b0388166000908152600a909252604082209091876002811115611c5157611c51612d32565b6002811115611c6257611c62612d32565b815260200190815260200160002054611c7b9190613026565b421015611cc15760405162461bcd60e51b815260206004820152601460248201527310dbdbdb191bdddb881b9bdd08195b185c1cd95960621b6044820152606401610a2e565b611ccb84846123d9565b611d065760405162461bcd60e51b815260206004820152600c60248201526b125b9d985b1a59081cd9595960a21b6044820152606401610a2e565b6000848152600e602052604090205460ff1615611d595760405162461bcd60e51b815260206004820152601160248201527014d9595908185b1c9958591e481d5cd959607a1b6044820152606401610a2e565b6000848152600e6020526040808220805460ff191660011790556002549051631f72ef2960e21b81526001600160a01b03898116600483015261010090920490911690637dcbbca490602401602060405180830381865afa158015611dc2573d6000803e3d6000fd5b505050506040513d601f19601f82011682018060405250810190611de69190612fe1565b905060008111611e2b5760405162461bcd60e51b815260206004820152601060248201526f5573657220686173206e6f2072616e6b60801b6044820152606401610a2e565b600060066000886002811115611e4357611e43612d32565b6002811115611e5457611e54612d32565b8152602080820192909252604090810160009081208582528352819020815160a08101835281548152600182015493810193909352600281015491830191909152600381015460608301526004015460ff16151560808201819052909150611ef75760405162461bcd60e51b815260206004820152601660248201527552657761726420706f6f6c206e6f742061637469766560501b6044820152606401610a2e565b6000611f04878a84612428565b90506000806000611f188c8c88878c61257e565b6001600160a01b038f166000908152600a6020526040812093965091945092504291908d6002811115611f4d57611f4d612d32565b6002811115611f5e57611f5e612d32565b81526020019081526020016000208190555060116000815480929190611f8390613054565b9190505550601260008c6002811115611f9e57611f9e612d32565b6002811115611faf57611faf612d32565b81526020019081526020016000206000815480929190611fce90613054565b919050555060136000856003811115611fe957611fe9612d32565b6003811115611ffa57611ffa612d32565b8152602001908152602001600020600081548092919061201990613054565b919050555060006040518061012001604052808e6001600160a01b031681526020018d600281111561204d5761204d612d32565b815260200186600381111561206457612064612d32565b815260200185600181111561207b5761207b612d32565b8152602080820186905260408201859052606082018e905242608083015260a0909101899052600f8054600181018255600091909152825160069091027f8d1108e10bcb7c27dddfc02ed9d693a074039d026cf4ea4240b40f7d581ac8020180546001600160a01b039092166001600160a01b03198316811782559284015193945084939092909183916001600160a81b031990911617600160a01b83600281111561212957612129612d32565b021790555060408201518154829060ff60a81b1916600160a81b83600381111561215557612155612d32565b021790555060608201518154829060ff60b01b1916600160b01b83600181111561218157612181612d32565b0217905550608082015160018083019190915560a0830151600283015560c0830151600383015560e08301516004830155610100909201516005909101556001600160a01b038e166000908152601060205260409020600f5490916121e59161308a565b815460018101835560009283526020909220909101556040516001600160a01b038e16907f4ff1e863d8eac27ff40385c8e26794883036d4a7b7f1551df7456f465b2f15a590612240908f9089908990899089908f9061309d565b60405180910390a250505050505050505050505050565b610cfb81336128b9565b61226b8282610f31565b61089a576000828152602081815260408083206001600160a01b03851684529091529020805460ff191660011790556122a13390565b6001600160a01b0316816001600160a01b0316837f2f8788117e7eff1d82e926ec794901d17c78024a50270940304540a733656f0d60405160405180910390a45050565b6122ef8282610f31565b1561089a576000828152602081815260408083206001600160a01b0385168085529252808320805460ff1916905551339285917ff6391f5c32d9c69d2a47ea670b442974b53935d1edc7fd64eb21e047a839171b9190a45050565b612352612912565b6002805460ff191690557f5db9ee0a495bf2e6ff9c91a7834c1ba4fdd244a5e8aa4e537bd38aeae4b073aa335b6040516001600160a01b03909116815260200160405180910390a1565b6123a4611ab0565b6002805460ff191660011790557f62e78cea01bee320cd4e420270b5ea74000d11b0c9f74754ebdbfc544b05a25861237f3390565b600080836040516020016123ef91815260200190565b60408051601f1981840301815291815281516020928301206001600160a01b0386166000908152600c9093529120541491505092915050565b60008082606001518360400151846020015185600001516124499190613026565b6124539190613026565b61245d9190613026565b9050600081116124a75760405162461bcd60e51b8152602060048201526015602482015274139bc81dd95a59da1d1cc818dbdb999a59dd5c9959605a1b6044820152606401610a2e565b60408051602081018790526bffffffffffffffffffffffff19606087901b169181019190915242605482015243607482015260009082906094016040516020818303038152906040528051906020012060001c61250491906130e2565b845190915081101561251b57600092505050612577565b6020840151845161252c9190613026565b81101561253e57600192505050612577565b6040840151602085015185516125549190613026565b61255e9190613026565b81101561257057600292505050612577565b6003925050505b9392505050565b6000806000806007600089600281111561259a5761259a612d32565b60028111156125ab576125ab612d32565b8152602001908152602001600020600088815260200190815260200160002060008760038111156125de576125de612d32565b60038111156125ef576125ef612d32565b815260208082019290925260409081016000208151808301909252805480835260019091015492820183905290925015801591151590829061262e5750805b156126a25760006002428d60405160200161266592919091825260601b6bffffffffffffffffffffffff1916602082015260340190565b6040516020818303038152906040528051906020012060001c61268891906130e2565b90508060000361269b57600091506126a0565b600092505b505b80156127985760008b8b89426040516020016126c19493929190613104565b6040516020818303038152906040528051906020012090506000600360009054906101000a90046001600160a01b03166001600160a01b0316638dc78efa8e8760200151856040518463ffffffff1660e01b8152600401612740939291906001600160a01b039390931683526020830191909152604082015260600190565b6020604051808303816000875af115801561275f573d6000803e3d6000fd5b505050506040513d601f19601f820116820180604052508101906127839190612fe1565b600198506000975095506128ae945050505050565b811561286f5760048054845160405163a9059cbb60e01b81526001600160a01b038f811694820194909452602481019190915291169063a9059cbb906044016020604051808303816000875af11580156127f6573d6000803e3d6000fd5b505050506040513d601f19601f8201168201806040525081019061281a9190612fc4565b61285e5760405162461bcd60e51b8152602060048201526015602482015274151bdad95b881d1c985b9cd9995c8819985a5b1959605a1b6044820152606401610a2e565b5050516000935091508290506128ae565b60405162461bcd60e51b8152602060048201526014602482015273139bc81c995dd85c990818dbdb999a59dd5c995960621b6044820152606401610a2e565b955095509592505050565b6128c38282610f31565b61089a576128d08161295b565b6128db83602061296d565b6040516020016128ec92919061314c565b60408051601f198184030181529082905262461bcd60e51b8252610a2e91600401612cb9565b60025460ff16611af65760405162461bcd60e51b815260206004820152601460248201527314185d5cd8589b194e881b9bdd081c185d5cd95960621b6044820152606401610a2e565b606061086c6001600160a01b03831660145b6060600061297c8360026131c1565b612987906002613026565b67ffffffffffffffff81111561299f5761299f6131d8565b6040519080825280601f01601f1916602001820160405280156129c9576020820181803683370190505b509050600360fc1b816000815181106129e4576129e4612ffa565b60200101906001600160f81b031916908160001a905350600f60fb1b81600181518110612a1357612a13612ffa565b60200101906001600160f81b031916908160001a9053506000612a378460026131c1565b612a42906001613026565b90505b6001811115612aba576f181899199a1a9b1b9c1cb0b131b232b360811b85600f1660108110612a7657612a76612ffa565b1a60f81b828281518110612a8c57612a8c612ffa565b60200101906001600160f81b031916908160001a90535060049490941c93612ab3816131ee565b9050612a45565b5083156125775760405162461bcd60e51b815260206004820181905260248201527f537472696e67733a20686578206c656e67746820696e73756666696369656e746044820152606401610a2e565b600060208284031215612b1b57600080fd5b81356001600160e01b03198116811461257757600080fd5b80356001600160a01b0381168114612b4a57600080fd5b919050565b60008060408385031215612b6257600080fd5b82359150612b7260208401612b33565b90509250929050565b600060208284031215612b8d57600080fd5b5035919050565b803560038110612b4a57600080fd5b600060208284031215612bb557600080fd5b61257782612b94565b600060208284031215612bd057600080fd5b61257782612b33565b600080600060608486031215612bee57600080fd5b8335925060208401359150612c0560408501612b33565b90509250925092565b60008060408385031215612c2157600080fd5b612c2a83612b33565b946020939093013593505050565b803560048110612b4a57600080fd5b600080600080600060a08688031215612c5f57600080fd5b612c6886612b94565b945060208601359350612c7d60408701612c38565b94979396509394606081013594506080013592915050565b60005b83811015612cb0578181015183820152602001612c98565b50506000910152565b6020815260008251806020840152612cd8816040850160208701612c95565b601f01601f19169190910160400192915050565b60008060408385031215612cff57600080fd5b612d0883612b33565b9150612b7260208401612b94565b60008060408385031215612d2957600080fd5b612c2a83612b94565b634e487b7160e01b600052602160045260246000fd5b60038110612d5857612d58612d32565b9052565b60048110612d5857612d58612d32565b60028110612d5857612d58612d32565b81516001600160a01b03168152602080830151610120830191612da190840182612d48565b506040830151612db46040840182612d5c565b506060830151612dc76060840182612d6c565b506080830151608083015260a083015160a083015260c083015160c083015260e083015160e083015261010080840151818401525092915050565b600080600060608486031215612e1757600080fd5b612e2084612b94565b925060208401359150612c0560408501612c38565b60008060008060008060c08789031215612e4e57600080fd5b612e5787612b94565b9860208801359850604088013597606081013597506080810135965060a00135945092505050565b600060208284031215612e9157600080fd5b61257782612c38565b8015158114610cfb57600080fd5b60008060408385031215612ebb57600080fd5b823591506020830135612ecd81612e9a565b809150509250929050565b60008060008060808587031215612eee57600080fd5b612ef785612b94565b93506020850135612f0781612e9a565b93969395505050506040820135916060013590565b6020808252825182820181905260009190848201906040850190845b81811015612f5457835183529284019291840191600101612f38565b50909695505050505050565b6001600160a01b038a1681526101208101612f7e602083018b612d48565b612f8b604083018a612d5c565b612f986060830189612d6c565b608082019690965260a081019490945260c084019290925260e083015261010090910152949350505050565b600060208284031215612fd657600080fd5b815161257781612e9a565b600060208284031215612ff357600080fd5b5051919050565b634e487b7160e01b600052603260045260246000fd5b634e487b7160e01b600052601160045260246000fd5b8082018082111561086c5761086c613010565b604081016130478285612d48565b8260208301529392505050565b60006001820161306657613066613010565b5060010190565b6040810161307b8285612d48565b82151560208301529392505050565b8181038181111561086c5761086c613010565b60c081016130ab8289612d48565b6130b86020830188612d5c565b6130c56040830187612d6c565b8460608301528360808301528260a0830152979650505050505050565b6000826130ff57634e487b7160e01b600052601260045260246000fd5b500690565b6bffffffffffffffffffffffff198560601b16815260006003851061312b5761312b612d32565b5060f89390931b601484015260158301919091526035820152605501919050565b7f416363657373436f6e74726f6c3a206163636f756e7420000000000000000000815260008351613184816017850160208801612c95565b7001034b99036b4b9b9b4b733903937b6329607d1b60179184019182015283516131b5816028840160208801612c95565b01602801949350505050565b808202811582820484141761086c5761086c613010565b634e487b7160e01b600052604160045260246000fd5b6000816131fd576131fd613010565b50600019019056fe82db594318110a04b6349ce48645aa69f0892751bc893d15e61d9e2b9c4630f552616e646f6d526577617264456e67696e652076312e302e30202d20436f6d6d69746d656e742d6261736564204f66662d636861696e2052616e646f6d20285652462d726561647929a26469706673582212207fd41eddea07717c3218935204ba3c3934887db5f6c6d4551736cbcf85f07e4e64736f6c63430008140033",
  "linkReferences": {},
  "deployedLinkReferences": {}
}