{
  "_format": "hh-sol-artifact-1",
  "contractName": "PaymentGatewayWithPermit",
  "sourceName": "contracts/PaymentGatewayWithPermit.sol",
  "abi": [
    {
      "inputs": [
        {
          "internalType": "address",
          "name": "_jpycAddress",
          "type": "address"
        },
        {
          "internalType": "address",
          "name": "_platformFeeRecipient",
          "type": "address"
        }
      ],
      "stateMutability": "nonpayable",
      "type": "constructor"
    },
    {
      "anonymous": false,
      "inputs": [
        {
          "indexed": true,
          "internalType": "address",
          "name": "previousOwner",
          "type": "address"
        },
        {
          "indexed": true,
          "internalType": "address",
          "name": "newOwner",
          "type": "address"
        }
      ],
      "name": "OwnershipTransferred",
      "type": "event"
    },
    {
      "anonymous": false,
      "inputs": [
        {
          "indexed": false,
          "internalType": "address",
          "name": "account",
          "type": "address"
        }
      ],
      "name": "Paused",
      "type": "event"
    },
    {
      "anonymous": false,
      "inputs": [
        {
          "indexed": true,
          "internalType": "bytes32",
          "name": "requestId",
          "type": "bytes32"
        },
        {
          "indexed": true,
          "internalType": "address",
          "name": "payer",
          "type": "address"
        },
        {
          "indexed": true,
          "internalType": "address",
          "name": "merchant",
          "type": "address"
        },
        {
          "indexed": false,
          "internalType": "uint256",
          "name": "amount",
          "type": "uint256"
        },
        {
          "indexed": false,
          "internalType": "uint256",
          "name": "platformFee",
          "type": "uint256"
        },
        {
          "indexed": false,
          "internalType": "uint256",
          "name": "timestamp",
          "type": "uint256"
        }
      ],
      "name": "PaymentExecuted",
      "type": "event"
    },
    {
      "anonymous": false,
      "inputs": [
        {
          "indexed": false,
          "internalType": "uint256",
          "name": "oldRate",
          "type": "uint256"
        },
        {
          "indexed": false,
          "internalType": "uint256",
          "name": "newRate",
          "type": "uint256"
        }
      ],
      "name": "PlatformFeeRateUpdated",
      "type": "event"
    },
    {
      "anonymous": false,
      "inputs": [
        {
          "indexed": false,
          "internalType": "address",
          "name": "oldRecipient",
          "type": "address"
        },
        {
          "indexed": false,
          "internalType": "address",
          "name": "newRecipient",
          "type": "address"
        }
      ],
      "name": "PlatformFeeRecipientUpdated",
      "type": "event"
    },
    {
      "anonymous": false,
      "inputs": [
        {
          "indexed": false,
          "internalType": "address",
          "name": "account",
          "type": "address"
        }
      ],
      "name": "Unpaused",
      "type": "event"
    },
    {
      "inputs": [
        {
          "internalType": "bytes32",
          "name": "requestId",
          "type": "bytes32"
        },
        {
          "internalType": "address",
          "name": "merchant",
          "type": "address"
        },
        {
          "internalType": "uint256",
          "name": "amount",
          "type": "uint256"
        },
        {
          "internalType": "uint256",
          "name": "deadline",
          "type": "uint256"
        },
        {
          "internalType": "uint8",
          "name": "v",
          "type": "uint8"
        },
        {
          "internalType": "bytes32",
          "name": "r",
          "type": "bytes32"
        },
        {
          "internalType": "bytes32",
          "name": "s",
          "type": "bytes32"
        }
      ],
      "name": "executePaymentWithPermit",
      "outputs": [],
      "stateMutability": "nonpayable",
      "type": "function"
    },
    {
      "inputs": [
        {
          "internalType": "bytes32",
          "name": "requestId",
          "type": "bytes32"
        }
      ],
      "name": "isRequestProcessed",
      "outputs": [
        {
          "internalType": "bool",
          "name": "",
          "type": "bool"
        }
      ],
      "stateMutability": "view",
      "type": "function"
    },
    {
      "inputs": [],
      "name": "jpyc",
      "outputs": [
        {
          "internalType": "contract IERC2612",
          "name": "",
          "type": "address"
        }
      ],
      "stateMutability": "view",
      "type": "function"
    },
    {
      "inputs": [],
      "name": "owner",
      "outputs": [
        {
          "internalType": "address",
          "name": "",
          "type": "address"
        }
      ],
      "stateMutability": "view",
      "type": "function"
    },
    {
      "inputs": [],
      "name": "pause",
      "outputs": [],
      "stateMutability": "nonpayable",
      "type": "function"
    },
    {
      "inputs": [],
      "name": "paused",
      "outputs": [
        {
          "internalType": "bool",
          "name": "",
          "type": "bool"
        }
      ],
      "stateMutability": "view",
      "type": "function"
    },
    {
      "inputs": [],
      "name": "platformFeeRate",
      "outputs": [
        {
          "internalType": "uint256",
          "name": "",
          "type": "uint256"
        }
      ],
      "stateMutability": "view",
      "type": "function"
    },
    {
      "inputs": [],
      "name": "platformFeeRecipient",
      "outputs": [
        {
          "internalType": "address",
          "name": "",
          "type": "address"
        }
      ],
      "stateMutability": "view",
      "type": "function"
    },
    {
      "inputs": [
        {
          "internalType": "bytes32",
          "name": "",
          "type": "bytes32"
        }
      ],
      "name": "processedRequests",
      "outputs": [
        {
          "internalType": "bool",
          "name": "",
          "type": "bool"
        }
      ],
      "stateMutability": "view",
      "type": "function"
    },
    {
      "inputs": [],
      "name": "renounceOwnership",
      "outputs": [],
      "stateMutability": "nonpayable",
      "type": "function"
    },
    {
      "inputs": [
        {
          "internalType": "uint256",
          "name": "newFeeRate",
          "type": "uint256"
        }
      ],
      "name": "setPlatformFeeRate",
      "outputs": [],
      "stateMutability": "nonpayable",
      "type": "function"
    },
    {
      "inputs": [
        {
          "internalType": "address",
          "name": "newRecipient",
          "type": "address"
        }
      ],
      "name": "setPlatformFeeRecipient",
      "outputs": [],
      "stateMutability": "nonpayable",
      "type": "function"
    },
    {
      "inputs": [
        {
          "internalType": "address",
          "name": "newOwner",
          "type": "address"
        }
      ],
      "name": "transferOwnership",
      "outputs": [],
      "stateMutability": "nonpayable",
      "type": "function"
    },
    {
      "inputs": [],
      "name": "unpause",
      "outputs": [],
      "stateMutability": "nonpayable",
      "type": "function"
    }
  ],
  "bytecode": "0x6080604052600060035534801561001557600080fd5b50604051610eb2380380610eb2833981016040819052610034916101a3565b61003d33610137565b600180556002805460ff191690556001600160a01b0382166100a65760405162461bcd60e51b815260206004820152601460248201527f496e76616c6964204a505943206164647265737300000000000000000000000060448201526064015b60405180910390fd5b6001600160a01b0381166100fc5760405162461bcd60e51b815260206004820152601560248201527f496e76616c69642066656520726563697069656e740000000000000000000000604482015260640161009d565b60028054610100600160a81b0319166101006001600160a01b0394851602179055600480546001600160a01b031916919092161790556101d6565b600080546001600160a01b038381166001600160a01b0319831681178455604051919092169283917f8be0079c531659141344cd1fd0a4f28419497f9722a3daafe3b4186f6b6457e09190a35050565b80516001600160a01b038116811461019e57600080fd5b919050565b600080604083850312156101b657600080fd5b6101bf83610187565b91506101cd60208401610187565b90509250929050565b610ccd806101e56000396000f3fe608060405234801561001057600080fd5b50600436106100ea5760003560e01c80638456cb591161008c578063ce0fa5a911610066578063ce0fa5a9146101c2578063eb13554f146101e5578063eeca08f0146101f8578063f2fde38b1461020f57600080fd5b80638456cb59146101965780638da5cb5b1461019e578063927fef2e146101af57600080fd5b8063550ed61b116100c8578063550ed61b1461011f5780635c975abb146101545780636da398b31461016b578063715018a61461018e57600080fd5b80631871e243146100ef57806318ba468d146101045780633f4ba83a14610117575b600080fd5b6101026100fd366004610b4d565b610222565b005b610102610112366004610b6f565b6102db565b6101026107cb565b6002546101379061010090046001600160a01b031681565b6040516001600160a01b0390911681526020015b60405180910390f35b60025460ff165b604051901515815260200161014b565b61015b610179366004610bdb565b60009081526005602052604090205460ff1690565b6101026107dd565b6101026107ef565b6000546001600160a01b0316610137565b6101026101bd366004610bdb565b6107ff565b61015b6101d0366004610bdb565b60056020526000908152604090205460ff1681565b600454610137906001600160a01b031681565b61020160035481565b60405190815260200161014b565b61010261021d366004610b4d565b610897565b61022a610910565b6001600160a01b0381166102795760405162461bcd60e51b8152602060048201526011602482015270125b9d985b1a59081c9958da5c1a595b9d607a1b60448201526064015b60405180910390fd5b600480546001600160a01b038381166001600160a01b031983168117909355604080519190921680825260208201939093527faf04973bb8004e313cfd09017b963bee1e6f6ffb9be88c07a0c5ce5fafe9340391015b60405180910390a15050565b6102e361096a565b6102eb6109c3565b60008781526005602052604090205460ff161561034a5760405162461bcd60e51b815260206004820152601960248201527f5265717565737420616c72656164792070726f636573736564000000000000006044820152606401610270565b6001600160a01b0386166103a05760405162461bcd60e51b815260206004820152601860248201527f496e76616c6964206d65726368616e74206164647265737300000000000000006044820152606401610270565b600085116103f05760405162461bcd60e51b815260206004820152601d60248201527f416d6f756e74206d7573742062652067726561746572207468616e20300000006044820152606401610270565b834211156104315760405162461bcd60e51b815260206004820152600e60248201526d14195c9b5a5d08195e1c1a5c995960921b6044820152606401610270565b600087815260056020526040908190208054600160ff19909116179055600254905163d505accf60e01b8152326004820152306024820152604481018790526064810186905260ff8516608482015260a4810184905260c481018390526101009091046001600160a01b03169063d505accf9060e401600060405180830381600087803b1580156104c157600080fd5b505af11580156104d5573d6000803e3d6000fd5b505050506000612710600354876104ec9190610c0a565b6104f69190610c27565b905060006105048288610c49565b6002546040516370a0823160e01b815232600482015291925088916101009091046001600160a01b0316906370a0823190602401602060405180830381865afa158015610555573d6000803e3d6000fd5b505050506040513d601f19601f820116820180604052508101906105799190610c5c565b10156105be5760405162461bcd60e51b8152602060048201526014602482015273496e73756666696369656e742062616c616e636560601b6044820152606401610270565b6002546040516323b872dd60e01b81523260048201526001600160a01b038a8116602483015260448201849052610100909204909116906323b872dd906064016020604051808303816000875af115801561061d573d6000803e3d6000fd5b505050506040513d601f19601f820116820180604052508101906106419190610c75565b61068d5760405162461bcd60e51b815260206004820152601b60248201527f5472616e7366657220746f206d65726368616e74206661696c656400000000006044820152606401610270565b811561076857600254600480546040516323b872dd60e01b815232928101929092526001600160a01b03908116602483015260448201859052610100909204909116906323b872dd906064016020604051808303816000875af11580156106f8573d6000803e3d6000fd5b505050506040513d601f19601f8201168201806040525081019061071c9190610c75565b6107685760405162461bcd60e51b815260206004820152601c60248201527f5472616e7366657220706c6174666f726d20666565206661696c6564000000006044820152606401610270565b6040805188815260208101849052428183015290516001600160a01b038a169132918c917f0337c8899ae6da9151bed41fb6095f025c15df0db386d4afa548d47c83d35c72919081900360600190a450506107c260018055565b50505050505050565b6107d3610910565b6107db610a09565b565b6107e5610910565b6107db6000610a5b565b6107f7610910565b6107db610aab565b610807610910565b6103e88111156108595760405162461bcd60e51b815260206004820152601b60248201527f466565207261746520746f6f206869676820286d6178203130252900000000006044820152606401610270565b600380549082905560408051828152602081018490527fa82b850e6100ae23c7e82adbdcf4da8a3740c1540a6241792521a80179a892dc91016102cf565b61089f610910565b6001600160a01b0381166109045760405162461bcd60e51b815260206004820152602660248201527f4f776e61626c653a206e6577206f776e657220697320746865207a65726f206160448201526564647265737360d01b6064820152608401610270565b61090d81610a5b565b50565b6000546001600160a01b031633146107db5760405162461bcd60e51b815260206004820181905260248201527f4f776e61626c653a2063616c6c6572206973206e6f7420746865206f776e65726044820152606401610270565b6002600154036109bc5760405162461bcd60e51b815260206004820152601f60248201527f5265656e7472616e637947756172643a207265656e7472616e742063616c6c006044820152606401610270565b6002600155565b60025460ff16156107db5760405162461bcd60e51b815260206004820152601060248201526f14185d5cd8589b194e881c185d5cd95960821b6044820152606401610270565b610a11610ae8565b6002805460ff191690557f5db9ee0a495bf2e6ff9c91a7834c1ba4fdd244a5e8aa4e537bd38aeae4b073aa335b6040516001600160a01b03909116815260200160405180910390a1565b600080546001600160a01b038381166001600160a01b0319831681178455604051919092169283917f8be0079c531659141344cd1fd0a4f28419497f9722a3daafe3b4186f6b6457e09190a35050565b610ab36109c3565b6002805460ff191660011790557f62e78cea01bee320cd4e420270b5ea74000d11b0c9f74754ebdbfc544b05a258610a3e3390565b60025460ff166107db5760405162461bcd60e51b815260206004820152601460248201527314185d5cd8589b194e881b9bdd081c185d5cd95960621b6044820152606401610270565b80356001600160a01b0381168114610b4857600080fd5b919050565b600060208284031215610b5f57600080fd5b610b6882610b31565b9392505050565b600080600080600080600060e0888a031215610b8a57600080fd5b87359650610b9a60208901610b31565b95506040880135945060608801359350608088013560ff81168114610bbe57600080fd5b9699959850939692959460a0840135945060c09093013592915050565b600060208284031215610bed57600080fd5b5035919050565b634e487b7160e01b600052601160045260246000fd5b8082028115828204841417610c2157610c21610bf4565b92915050565b600082610c4457634e487b7160e01b600052601260045260246000fd5b500490565b81810381811115610c2157610c21610bf4565b600060208284031215610c6e57600080fd5b5051919050565b600060208284031215610c8757600080fd5b81518015158114610b6857600080fdfea264697066735822122092bc9aefeb67e8be2783ec91aad34ba3995dd9374f7718a01e04f7b7af7018e364736f6c63430008140033",
  "linkReferences": {},
  "deployedLinkReferences": {}
}