{
  "_format": "hh-sol-artifact-1",
  "contractName": "PaymentGatewayWithPermit",
  "sourceName": "contracts/PaymentGatewayWithPermit.sol",
  "abi": [
    {
      "inputs": [
        {
          "internalType": "address",
          "name": "_jpycAddress",
          "type": "address"
        },
        {
          "internalType": "address",
          "name": "_platformFeeRecipient",
          "type": "address"
        }
      ],
      "stateMutability": "nonpayable",
      "type": "constructor"
    },
    {
      "anonymous": false,
      "inputs": [
        {
          "indexed": true,
          "internalType": "address",
          "name": "previousOwner",
          "type": "address"
        },
        {
          "indexed": true,
          "internalType": "address",
          "name": "newOwner",
          "type": "address"
        }
      ],
      "name": "OwnershipTransferred",
      "type": "event"
    },
    {
      "anonymous": false,
      "inputs": [
        {
          "indexed": false,
          "internalType": "address",
          "name": "account",
          "type": "address"
        }
      ],
      "name": "Paused",
      "type": "event"
    },
    {
      "anonymous": false,
      "inputs": [
        {
          "indexed": true,
          "internalType": "bytes32",
          "name": "requestId",
          "type": "bytes32"
        },
        {
          "indexed": true,
          "internalType": "address",
          "name": "payer",
          "type": "address"
        },
        {
          "indexed": true,
          "internalType": "address",
          "name": "merchant",
          "type": "address"
        },
        {
          "indexed": false,
          "internalType": "uint256",
          "name": "amount",
          "type": "uint256"
        },
        {
          "indexed": false,
          "internalType": "uint256",
          "name": "platformFee",
          "type": "uint256"
        },
        {
          "indexed": false,
          "internalType": "uint256",
          "name": "timestamp",
          "type": "uint256"
        }
      ],
      "name": "PaymentExecuted",
      "type": "event"
    },
    {
      "anonymous": false,
      "inputs": [
        {
          "indexed": false,
          "internalType": "uint256",
          "name": "oldRate",
          "type": "uint256"
        },
        {
          "indexed": false,
          "internalType": "uint256",
          "name": "newRate",
          "type": "uint256"
        }
      ],
      "name": "PlatformFeeRateUpdated",
      "type": "event"
    },
    {
      "anonymous": false,
      "inputs": [
        {
          "indexed": false,
          "internalType": "address",
          "name": "oldRecipient",
          "type": "address"
        },
        {
          "indexed": false,
          "internalType": "address",
          "name": "newRecipient",
          "type": "address"
        }
      ],
      "name": "PlatformFeeRecipientUpdated",
      "type": "event"
    },
    {
      "anonymous": false,
      "inputs": [
        {
          "indexed": false,
          "internalType": "address",
          "name": "account",
          "type": "address"
        }
      ],
      "name": "Unpaused",
      "type": "event"
    },
    {
      "inputs": [
        {
          "internalType": "bytes32",
          "name": "requestId",
          "type": "bytes32"
        },
        {
          "internalType": "address",
          "name": "payer",
          "type": "address"
        },
        {
          "internalType": "address",
          "name": "merchant",
          "type": "address"
        },
        {
          "internalType": "uint256",
          "name": "amount",
          "type": "uint256"
        },
        {
          "internalType": "uint256",
          "name": "deadline",
          "type": "uint256"
        },
        {
          "internalType": "uint8",
          "name": "v",
          "type": "uint8"
        },
        {
          "internalType": "bytes32",
          "name": "r",
          "type": "bytes32"
        },
        {
          "internalType": "bytes32",
          "name": "s",
          "type": "bytes32"
        }
      ],
      "name": "executePaymentWithPermit",
      "outputs": [],
      "stateMutability": "nonpayable",
      "type": "function"
    },
    {
      "inputs": [
        {
          "internalType": "bytes32",
          "name": "requestId",
          "type": "bytes32"
        }
      ],
      "name": "isRequestProcessed",
      "outputs": [
        {
          "internalType": "bool",
          "name": "",
          "type": "bool"
        }
      ],
      "stateMutability": "view",
      "type": "function"
    },
    {
      "inputs": [],
      "name": "jpyc",
      "outputs": [
        {
          "internalType": "contract IERC2612",
          "name": "",
          "type": "address"
        }
      ],
      "stateMutability": "view",
      "type": "function"
    },
    {
      "inputs": [],
      "name": "owner",
      "outputs": [
        {
          "internalType": "address",
          "name": "",
          "type": "address"
        }
      ],
      "stateMutability": "view",
      "type": "function"
    },
    {
      "inputs": [],
      "name": "pause",
      "outputs": [],
      "stateMutability": "nonpayable",
      "type": "function"
    },
    {
      "inputs": [],
      "name": "paused",
      "outputs": [
        {
          "internalType": "bool",
          "name": "",
          "type": "bool"
        }
      ],
      "stateMutability": "view",
      "type": "function"
    },
    {
      "inputs": [],
      "name": "platformFeeRate",
      "outputs": [
        {
          "internalType": "uint256",
          "name": "",
          "type": "uint256"
        }
      ],
      "stateMutability": "view",
      "type": "function"
    },
    {
      "inputs": [],
      "name": "platformFeeRecipient",
      "outputs": [
        {
          "internalType": "address",
          "name": "",
          "type": "address"
        }
      ],
      "stateMutability": "view",
      "type": "function"
    },
    {
      "inputs": [
        {
          "internalType": "bytes32",
          "name": "",
          "type": "bytes32"
        }
      ],
      "name": "processedRequests",
      "outputs": [
        {
          "internalType": "bool",
          "name": "",
          "type": "bool"
        }
      ],
      "stateMutability": "view",
      "type": "function"
    },
    {
      "inputs": [],
      "name": "renounceOwnership",
      "outputs": [],
      "stateMutability": "nonpayable",
      "type": "function"
    },
    {
      "inputs": [
        {
          "internalType": "uint256",
          "name": "newFeeRate",
          "type": "uint256"
        }
      ],
      "name": "setPlatformFeeRate",
      "outputs": [],
      "stateMutability": "nonpayable",
      "type": "function"
    },
    {
      "inputs": [
        {
          "internalType": "address",
          "name": "newRecipient",
          "type": "address"
        }
      ],
      "name": "setPlatformFeeRecipient",
      "outputs": [],
      "stateMutability": "nonpayable",
      "type": "function"
    },
    {
      "inputs": [
        {
          "internalType": "address",
          "name": "newOwner",
          "type": "address"
        }
      ],
      "name": "transferOwnership",
      "outputs": [],
      "stateMutability": "nonpayable",
      "type": "function"
    },
    {
      "inputs": [],
      "name": "unpause",
      "outputs": [],
      "stateMutability": "nonpayable",
      "type": "function"
    }
  ],
  "bytecode": "0x6080604052600060035534801561001557600080fd5b50604051610f2b380380610f2b833981016040819052610034916101a3565b61003d33610137565b600180556002805460ff191690556001600160a01b0382166100a65760405162461bcd60e51b815260206004820152601460248201527f496e76616c6964204a505943206164647265737300000000000000000000000060448201526064015b60405180910390fd5b6001600160a01b0381166100fc5760405162461bcd60e51b815260206004820152601560248201527f496e76616c69642066656520726563697069656e740000000000000000000000604482015260640161009d565b60028054610100600160a81b0319166101006001600160a01b0394851602179055600480546001600160a01b031916919092161790556101d6565b600080546001600160a01b038381166001600160a01b0319831681178455604051919092169283917f8be0079c531659141344cd1fd0a4f28419497f9722a3daafe3b4186f6b6457e09190a35050565b80516001600160a01b038116811461019e57600080fd5b919050565b600080604083850312156101b657600080fd5b6101bf83610187565b91506101cd60208401610187565b90509250929050565b610d46806101e56000396000f3fe608060405234801561001057600080fd5b50600436106100ea5760003560e01c80638456cb591161008c578063ce0fa5a911610066578063ce0fa5a9146101c2578063eb13554f146101e5578063eeca08f0146101f8578063f2fde38b1461020f57600080fd5b80638456cb59146101965780638da5cb5b1461019e578063927fef2e146101af57600080fd5b8063550ed61b116100c8578063550ed61b1461011f5780635c975abb146101545780636da398b31461016b578063715018a61461018e57600080fd5b80631871e243146100ef5780631e7bc655146101045780633f4ba83a14610117575b600080fd5b6101026100fd366004610bb6565b610222565b005b610102610112366004610bd8565b6102db565b610102610834565b6002546101379061010090046001600160a01b031681565b6040516001600160a01b0390911681526020015b60405180910390f35b60025460ff165b604051901515815260200161014b565b61015b610179366004610c54565b60009081526005602052604090205460ff1690565b610102610846565b610102610858565b6000546001600160a01b0316610137565b6101026101bd366004610c54565b610868565b61015b6101d0366004610c54565b60056020526000908152604090205460ff1681565b600454610137906001600160a01b031681565b61020160035481565b60405190815260200161014b565b61010261021d366004610bb6565b610900565b61022a610979565b6001600160a01b0381166102795760405162461bcd60e51b8152602060048201526011602482015270125b9d985b1a59081c9958da5c1a595b9d607a1b60448201526064015b60405180910390fd5b600480546001600160a01b038381166001600160a01b031983168117909355604080519190921680825260208201939093527faf04973bb8004e313cfd09017b963bee1e6f6ffb9be88c07a0c5ce5fafe9340391015b60405180910390a15050565b6102e36109d3565b6102eb610a2c565b60008881526005602052604090205460ff161561034a5760405162461bcd60e51b815260206004820152601960248201527f5265717565737420616c72656164792070726f636573736564000000000000006044820152606401610270565b6001600160a01b0387166103985760405162461bcd60e51b8152602060048201526015602482015274496e76616c6964207061796572206164647265737360581b6044820152606401610270565b6001600160a01b0386166103ee5760405162461bcd60e51b815260206004820152601860248201527f496e76616c6964206d65726368616e74206164647265737300000000000000006044820152606401610270565b6000851161043e5760405162461bcd60e51b815260206004820152601d60248201527f416d6f756e74206d7573742062652067726561746572207468616e20300000006044820152606401610270565b8342111561047f5760405162461bcd60e51b815260206004820152600e60248201526d14195c9b5a5d08195e1c1a5c995960921b6044820152606401610270565b60008881526005602052604090819020805460ff19166001179055600254905163d505accf60e01b81526001600160a01b038981166004830152306024830152604482018890526064820187905260ff8616608483015260a4820185905260c482018490526101009092049091169063d505accf9060e401600060405180830381600087803b15801561051157600080fd5b505af1158015610525573d6000803e3d6000fd5b5050505060006127106003548761053c9190610c83565b6105469190610ca0565b905060006105548288610cc2565b6002546040516370a0823160e01b81526001600160a01b038c811660048301529293508992610100909204909116906370a0823190602401602060405180830381865afa1580156105a9573d6000803e3d6000fd5b505050506040513d601f19601f820116820180604052508101906105cd9190610cd5565b10156106125760405162461bcd60e51b8152602060048201526014602482015273496e73756666696369656e742062616c616e636560601b6044820152606401610270565b6002546040516323b872dd60e01b81526001600160a01b038b811660048301528a8116602483015260448201849052610100909204909116906323b872dd906064016020604051808303816000875af1158015610673573d6000803e3d6000fd5b505050506040513d601f19601f820116820180604052508101906106979190610cee565b6106e35760405162461bcd60e51b815260206004820152601b60248201527f5472616e7366657220746f206d65726368616e74206661696c656400000000006044820152606401610270565b81156107be57600254600480546040516323b872dd60e01b81526001600160a01b038d81169382019390935290821660248201526044810185905261010090920416906323b872dd906064016020604051808303816000875af115801561074e573d6000803e3d6000fd5b505050506040513d601f19601f820116820180604052508101906107729190610cee565b6107be5760405162461bcd60e51b815260206004820152601c60248201527f5472616e7366657220706c6174666f726d20666565206661696c6564000000006044820152606401610270565b876001600160a01b0316896001600160a01b03168b7f0337c8899ae6da9151bed41fb6095f025c15df0db386d4afa548d47c83d35c728a8642604051610817939291909283526020830191909152604082015260600190565b60405180910390a4505061082a60018055565b5050505050505050565b61083c610979565b610844610a72565b565b61084e610979565b6108446000610ac4565b610860610979565b610844610b14565b610870610979565b6103e88111156108c25760405162461bcd60e51b815260206004820152601b60248201527f466565207261746520746f6f206869676820286d6178203130252900000000006044820152606401610270565b600380549082905560408051828152602081018490527fa82b850e6100ae23c7e82adbdcf4da8a3740c1540a6241792521a80179a892dc91016102cf565b610908610979565b6001600160a01b03811661096d5760405162461bcd60e51b815260206004820152602660248201527f4f776e61626c653a206e6577206f776e657220697320746865207a65726f206160448201526564647265737360d01b6064820152608401610270565b61097681610ac4565b50565b6000546001600160a01b031633146108445760405162461bcd60e51b815260206004820181905260248201527f4f776e61626c653a2063616c6c6572206973206e6f7420746865206f776e65726044820152606401610270565b600260015403610a255760405162461bcd60e51b815260206004820152601f60248201527f5265656e7472616e637947756172643a207265656e7472616e742063616c6c006044820152606401610270565b6002600155565b60025460ff16156108445760405162461bcd60e51b815260206004820152601060248201526f14185d5cd8589b194e881c185d5cd95960821b6044820152606401610270565b610a7a610b51565b6002805460ff191690557f5db9ee0a495bf2e6ff9c91a7834c1ba4fdd244a5e8aa4e537bd38aeae4b073aa335b6040516001600160a01b03909116815260200160405180910390a1565b600080546001600160a01b038381166001600160a01b0319831681178455604051919092169283917f8be0079c531659141344cd1fd0a4f28419497f9722a3daafe3b4186f6b6457e09190a35050565b610b1c610a2c565b6002805460ff191660011790557f62e78cea01bee320cd4e420270b5ea74000d11b0c9f74754ebdbfc544b05a258610aa73390565b60025460ff166108445760405162461bcd60e51b815260206004820152601460248201527314185d5cd8589b194e881b9bdd081c185d5cd95960621b6044820152606401610270565b80356001600160a01b0381168114610bb157600080fd5b919050565b600060208284031215610bc857600080fd5b610bd182610b9a565b9392505050565b600080600080600080600080610100898b031215610bf557600080fd5b88359750610c0560208a01610b9a565b9650610c1360408a01610b9a565b9550606089013594506080890135935060a089013560ff81168114610c3757600080fd5b979a969950949793969295929450505060c08201359160e0013590565b600060208284031215610c6657600080fd5b5035919050565b634e487b7160e01b600052601160045260246000fd5b8082028115828204841417610c9a57610c9a610c6d565b92915050565b600082610cbd57634e487b7160e01b600052601260045260246000fd5b500490565b81810381811115610c9a57610c9a610c6d565b600060208284031215610ce757600080fd5b5051919050565b600060208284031215610d0057600080fd5b81518015158114610bd157600080fdfea2646970667358221220c522507e579fddbc97926eeaf0de152c262c1d6de9c0e8af7c903f635457f7d164736f6c63430008140033",
  "linkReferences": {},
  "deployedLinkReferences": {}
}