{
  "_format": "hh-sol-artifact-1",
  "contractName": "FlagNFT",
  "sourceName": "contracts/FlagNFT.sol",
  "abi": [
    {
      "inputs": [
        {
          "internalType": "string",
          "name": "name",
          "type": "string"
        },
        {
          "internalType": "string",
          "name": "symbol",
          "type": "string"
        },
        {
          "internalType": "string",
          "name": "baseURI",
          "type": "string"
        },
        {
          "internalType": "address",
          "name": "owner",
          "type": "address"
        },
        {
          "internalType": "uint256",
          "name": "_maxSupply",
          "type": "uint256"
        }
      ],
      "stateMutability": "nonpayable",
      "type": "constructor"
    },
    {
      "anonymous": false,
      "inputs": [
        {
          "indexed": true,
          "internalType": "address",
          "name": "owner",
          "type": "address"
        },
        {
          "indexed": true,
          "internalType": "address",
          "name": "approved",
          "type": "address"
        },
        {
          "indexed": true,
          "internalType": "uint256",
          "name": "tokenId",
          "type": "uint256"
        }
      ],
      "name": "Approval",
      "type": "event"
    },
    {
      "anonymous": false,
      "inputs": [
        {
          "indexed": true,
          "internalType": "address",
          "name": "owner",
          "type": "address"
        },
        {
          "indexed": true,
          "internalType": "address",
          "name": "operator",
          "type": "address"
        },
        {
          "indexed": false,
          "internalType": "bool",
          "name": "approved",
          "type": "bool"
        }
      ],
      "name": "ApprovalForAll",
      "type": "event"
    },
    {
      "anonymous": false,
      "inputs": [
        {
          "indexed": false,
          "internalType": "uint256",
          "name": "_fromTokenId",
          "type": "uint256"
        },
        {
          "indexed": false,
          "internalType": "uint256",
          "name": "_toTokenId",
          "type": "uint256"
        }
      ],
      "name": "BatchMetadataUpdate",
      "type": "event"
    },
    {
      "anonymous": false,
      "inputs": [
        {
          "indexed": true,
          "internalType": "enum FlagNFT.Category",
          "name": "category",
          "type": "uint8"
        },
        {
          "indexed": false,
          "internalType": "uint8",
          "name": "usageLimit",
          "type": "uint8"
        },
        {
          "indexed": false,
          "internalType": "uint64",
          "name": "validFrom",
          "type": "uint64"
        },
        {
          "indexed": false,
          "internalType": "uint64",
          "name": "validUntil",
          "type": "uint64"
        },
        {
          "indexed": false,
          "internalType": "bool",
          "name": "isTransferable",
          "type": "bool"
        },
        {
          "indexed": false,
          "internalType": "string",
          "name": "metadataURI",
          "type": "string"
        }
      ],
      "name": "CategoryConfigured",
      "type": "event"
    },
    {
      "anonymous": false,
      "inputs": [
        {
          "indexed": true,
          "internalType": "enum FlagNFT.Category",
          "name": "category",
          "type": "uint8"
        },
        {
          "indexed": false,
          "internalType": "uint256",
          "name": "maxSupply",
          "type": "uint256"
        }
      ],
      "name": "CategoryMaxSupplySet",
      "type": "event"
    },
    {
      "anonymous": false,
      "inputs": [
        {
          "indexed": true,
          "internalType": "address",
          "name": "to",
          "type": "address"
        },
        {
          "indexed": true,
          "internalType": "uint256",
          "name": "tokenId",
          "type": "uint256"
        },
        {
          "indexed": true,
          "internalType": "enum FlagNFT.Category",
          "name": "category",
          "type": "uint8"
        }
      ],
      "name": "FlagNFTMinted",
      "type": "event"
    },
    {
      "anonymous": false,
      "inputs": [
        {
          "indexed": true,
          "internalType": "uint256",
          "name": "tokenId",
          "type": "uint256"
        },
        {
          "indexed": true,
          "internalType": "address",
          "name": "user",
          "type": "address"
        },
        {
          "indexed": false,
          "internalType": "uint8",
          "name": "newUsedCount",
          "type": "uint8"
        },
        {
          "indexed": false,
          "internalType": "uint64",
          "name": "usedAt",
          "type": "uint64"
        }
      ],
      "name": "FlagNFTUsed",
      "type": "event"
    },
    {
      "anonymous": false,
      "inputs": [
        {
          "indexed": true,
          "internalType": "uint256",
          "name": "tokenId",
          "type": "uint256"
        },
        {
          "indexed": true,
          "internalType": "uint8",
          "name": "bit",
          "type": "uint8"
        },
        {
          "indexed": false,
          "internalType": "bool",
          "name": "value",
          "type": "bool"
        },
        {
          "indexed": true,
          "internalType": "address",
          "name": "operator",
          "type": "address"
        },
        {
          "indexed": false,
          "internalType": "bytes32",
          "name": "traceId",
          "type": "bytes32"
        }
      ],
      "name": "FlagUpdated",
      "type": "event"
    },
    {
      "anonymous": false,
      "inputs": [
        {
          "indexed": true,
          "internalType": "uint256",
          "name": "tokenId",
          "type": "uint256"
        },
        {
          "indexed": false,
          "internalType": "uint256",
          "name": "setMask",
          "type": "uint256"
        },
        {
          "indexed": false,
          "internalType": "uint256",
          "name": "clearMask",
          "type": "uint256"
        },
        {
          "indexed": true,
          "internalType": "address",
          "name": "operator",
          "type": "address"
        },
        {
          "indexed": false,
          "internalType": "bytes32",
          "name": "traceId",
          "type": "bytes32"
        }
      ],
      "name": "FlagsBatchUpdated",
      "type": "event"
    },
    {
      "anonymous": false,
      "inputs": [
        {
          "indexed": false,
          "internalType": "uint256",
          "name": "newMaxSupply",
          "type": "uint256"
        }
      ],
      "name": "MaxSupplyUpdated",
      "type": "event"
    },
    {
      "anonymous": false,
      "inputs": [
        {
          "indexed": false,
          "internalType": "uint256",
          "name": "_tokenId",
          "type": "uint256"
        }
      ],
      "name": "MetadataUpdate",
      "type": "event"
    },
    {
      "anonymous": false,
      "inputs": [
        {
          "indexed": false,
          "internalType": "address",
          "name": "account",
          "type": "address"
        }
      ],
      "name": "Paused",
      "type": "event"
    },
    {
      "anonymous": false,
      "inputs": [
        {
          "indexed": true,
          "internalType": "bytes32",
          "name": "role",
          "type": "bytes32"
        },
        {
          "indexed": true,
          "internalType": "bytes32",
          "name": "previousAdminRole",
          "type": "bytes32"
        },
        {
          "indexed": true,
          "internalType": "bytes32",
          "name": "newAdminRole",
          "type": "bytes32"
        }
      ],
      "name": "RoleAdminChanged",
      "type": "event"
    },
    {
      "anonymous": false,
      "inputs": [
        {
          "indexed": true,
          "internalType": "bytes32",
          "name": "role",
          "type": "bytes32"
        },
        {
          "indexed": true,
          "internalType": "address",
          "name": "account",
          "type": "address"
        },
        {
          "indexed": true,
          "internalType": "address",
          "name": "sender",
          "type": "address"
        }
      ],
      "name": "RoleGranted",
      "type": "event"
    },
    {
      "anonymous": false,
      "inputs": [
        {
          "indexed": true,
          "internalType": "bytes32",
          "name": "role",
          "type": "bytes32"
        },
        {
          "indexed": true,
          "internalType": "address",
          "name": "account",
          "type": "address"
        },
        {
          "indexed": true,
          "internalType": "address",
          "name": "sender",
          "type": "address"
        }
      ],
      "name": "RoleRevoked",
      "type": "event"
    },
    {
      "anonymous": false,
      "inputs": [
        {
          "indexed": true,
          "internalType": "address",
          "name": "from",
          "type": "address"
        },
        {
          "indexed": true,
          "internalType": "address",
          "name": "to",
          "type": "address"
        },
        {
          "indexed": true,
          "internalType": "uint256",
          "name": "tokenId",
          "type": "uint256"
        }
      ],
      "name": "Transfer",
      "type": "event"
    },
    {
      "anonymous": false,
      "inputs": [
        {
          "indexed": false,
          "internalType": "address",
          "name": "account",
          "type": "address"
        }
      ],
      "name": "Unpaused",
      "type": "event"
    },
    {
      "inputs": [],
      "name": "DEFAULT_ADMIN_ROLE",
      "outputs": [
        {
          "internalType": "bytes32",
          "name": "",
          "type": "bytes32"
        }
      ],
      "stateMutability": "view",
      "type": "function"
    },
    {
      "inputs": [],
      "name": "FLAG_SETTER_ROLE",
      "outputs": [
        {
          "internalType": "bytes32",
          "name": "",
          "type": "bytes32"
        }
      ],
      "stateMutability": "view",
      "type": "function"
    },
    {
      "inputs": [],
      "name": "MINTER_ROLE",
      "outputs": [
        {
          "internalType": "bytes32",
          "name": "",
          "type": "bytes32"
        }
      ],
      "stateMutability": "view",
      "type": "function"
    },
    {
      "inputs": [],
      "name": "PAUSER_ROLE",
      "outputs": [
        {
          "internalType": "bytes32",
          "name": "",
          "type": "bytes32"
        }
      ],
      "stateMutability": "view",
      "type": "function"
    },
    {
      "inputs": [
        {
          "internalType": "address",
          "name": "to",
          "type": "address"
        },
        {
          "internalType": "uint256",
          "name": "tokenId",
          "type": "uint256"
        }
      ],
      "name": "approve",
      "outputs": [],
      "stateMutability": "nonpayable",
      "type": "function"
    },
    {
      "inputs": [
        {
          "internalType": "address",
          "name": "owner",
          "type": "address"
        }
      ],
      "name": "balanceOf",
      "outputs": [
        {
          "internalType": "uint256",
          "name": "",
          "type": "uint256"
        }
      ],
      "stateMutability": "view",
      "type": "function"
    },
    {
      "inputs": [
        {
          "internalType": "uint256",
          "name": "tokenId",
          "type": "uint256"
        }
      ],
      "name": "canUse",
      "outputs": [
        {
          "internalType": "bool",
          "name": "",
          "type": "bool"
        }
      ],
      "stateMutability": "view",
      "type": "function"
    },
    {
      "inputs": [
        {
          "internalType": "enum FlagNFT.Category",
          "name": "",
          "type": "uint8"
        }
      ],
      "name": "categoryConfig",
      "outputs": [
        {
          "internalType": "enum FlagNFT.Category",
          "name": "category",
          "type": "uint8"
        },
        {
          "internalType": "uint8",
          "name": "usageLimit",
          "type": "uint8"
        },
        {
          "internalType": "uint64",
          "name": "validFrom",
          "type": "uint64"
        },
        {
          "internalType": "uint64",
          "name": "validUntil",
          "type": "uint64"
        },
        {
          "internalType": "bool",
          "name": "isTransferable",
          "type": "bool"
        },
        {
          "internalType": "string",
          "name": "metadataURI",
          "type": "string"
        }
      ],
      "stateMutability": "view",
      "type": "function"
    },
    {
      "inputs": [
        {
          "internalType": "enum FlagNFT.Category",
          "name": "",
          "type": "uint8"
        }
      ],
      "name": "categoryMaxSupply",
      "outputs": [
        {
          "internalType": "uint256",
          "name": "",
          "type": "uint256"
        }
      ],
      "stateMutability": "view",
      "type": "function"
    },
    {
      "inputs": [
        {
          "internalType": "enum FlagNFT.Category",
          "name": "",
          "type": "uint8"
        }
      ],
      "name": "categoryMintedCount",
      "outputs": [
        {
          "internalType": "uint256",
          "name": "",
          "type": "uint256"
        }
      ],
      "stateMutability": "view",
      "type": "function"
    },
    {
      "inputs": [
        {
          "internalType": "enum FlagNFT.Category",
          "name": "category",
          "type": "uint8"
        },
        {
          "internalType": "uint8",
          "name": "usageLimit",
          "type": "uint8"
        },
        {
          "internalType": "uint64",
          "name": "validFrom",
          "type": "uint64"
        },
        {
          "internalType": "uint64",
          "name": "validUntil",
          "type": "uint64"
        },
        {
          "internalType": "bool",
          "name": "isTransferable",
          "type": "bool"
        },
        {
          "internalType": "string",
          "name": "metadataURI",
          "type": "string"
        }
      ],
      "name": "configureCategory",
      "outputs": [],
      "stateMutability": "nonpayable",
      "type": "function"
    },
    {
      "inputs": [
        {
          "internalType": "uint256",
          "name": "tokenId",
          "type": "uint256"
        }
      ],
      "name": "flagsOf",
      "outputs": [
        {
          "internalType": "uint256",
          "name": "",
          "type": "uint256"
        }
      ],
      "stateMutability": "view",
      "type": "function"
    },
    {
      "inputs": [
        {
          "internalType": "uint256",
          "name": "tokenId",
          "type": "uint256"
        }
      ],
      "name": "getApproved",
      "outputs": [
        {
          "internalType": "address",
          "name": "",
          "type": "address"
        }
      ],
      "stateMutability": "view",
      "type": "function"
    },
    {
      "inputs": [
        {
          "internalType": "uint256",
          "name": "tokenId",
          "type": "uint256"
        }
      ],
      "name": "getCategoryOf",
      "outputs": [
        {
          "internalType": "enum FlagNFT.Category",
          "name": "",
          "type": "uint8"
        }
      ],
      "stateMutability": "view",
      "type": "function"
    },
    {
      "inputs": [
        {
          "internalType": "bytes32",
          "name": "role",
          "type": "bytes32"
        }
      ],
      "name": "getRoleAdmin",
      "outputs": [
        {
          "internalType": "bytes32",
          "name": "",
          "type": "bytes32"
        }
      ],
      "stateMutability": "view",
      "type": "function"
    },
    {
      "inputs": [
        {
          "internalType": "uint256",
          "name": "tokenId",
          "type": "uint256"
        }
      ],
      "name": "getUsageOf",
      "outputs": [
        {
          "internalType": "uint8",
          "name": "usedCount",
          "type": "uint8"
        },
        {
          "internalType": "uint64",
          "name": "lastUsedAt",
          "type": "uint64"
        }
      ],
      "stateMutability": "view",
      "type": "function"
    },
    {
      "inputs": [
        {
          "internalType": "bytes32",
          "name": "role",
          "type": "bytes32"
        },
        {
          "internalType": "address",
          "name": "account",
          "type": "address"
        }
      ],
      "name": "grantRole",
      "outputs": [],
      "stateMutability": "nonpayable",
      "type": "function"
    },
    {
      "inputs": [
        {
          "internalType": "uint256",
          "name": "tokenId",
          "type": "uint256"
        },
        {
          "internalType": "uint8",
          "name": "bit",
          "type": "uint8"
        }
      ],
      "name": "hasFlag",
      "outputs": [
        {
          "internalType": "bool",
          "name": "",
          "type": "bool"
        }
      ],
      "stateMutability": "view",
      "type": "function"
    },
    {
      "inputs": [
        {
          "internalType": "bytes32",
          "name": "role",
          "type": "bytes32"
        },
        {
          "internalType": "address",
          "name": "account",
          "type": "address"
        }
      ],
      "name": "hasRole",
      "outputs": [
        {
          "internalType": "bool",
          "name": "",
          "type": "bool"
        }
      ],
      "stateMutability": "view",
      "type": "function"
    },
    {
      "inputs": [
        {
          "internalType": "address",
          "name": "owner",
          "type": "address"
        },
        {
          "internalType": "address",
          "name": "operator",
          "type": "address"
        }
      ],
      "name": "isApprovedForAll",
      "outputs": [
        {
          "internalType": "bool",
          "name": "",
          "type": "bool"
        }
      ],
      "stateMutability": "view",
      "type": "function"
    },
    {
      "inputs": [
        {
          "internalType": "uint256",
          "name": "tokenId",
          "type": "uint256"
        }
      ],
      "name": "isCompleted",
      "outputs": [
        {
          "internalType": "bool",
          "name": "",
          "type": "bool"
        }
      ],
      "stateMutability": "view",
      "type": "function"
    },
    {
      "inputs": [
        {
          "internalType": "uint256",
          "name": "tokenId",
          "type": "uint256"
        }
      ],
      "name": "isValid",
      "outputs": [
        {
          "internalType": "bool",
          "name": "",
          "type": "bool"
        }
      ],
      "stateMutability": "view",
      "type": "function"
    },
    {
      "inputs": [],
      "name": "maxSupply",
      "outputs": [
        {
          "internalType": "uint256",
          "name": "",
          "type": "uint256"
        }
      ],
      "stateMutability": "view",
      "type": "function"
    },
    {
      "inputs": [
        {
          "internalType": "address[]",
          "name": "recipients",
          "type": "address[]"
        },
        {
          "internalType": "enum FlagNFT.Category",
          "name": "category",
          "type": "uint8"
        }
      ],
      "name": "mintBatchWithCategory",
      "outputs": [
        {
          "internalType": "uint256[]",
          "name": "tokenIds",
          "type": "uint256[]"
        }
      ],
      "stateMutability": "nonpayable",
      "type": "function"
    },
    {
      "inputs": [
        {
          "internalType": "address",
          "name": "to",
          "type": "address"
        },
        {
          "internalType": "enum FlagNFT.Category",
          "name": "category",
          "type": "uint8"
        }
      ],
      "name": "mintWithCategory",
      "outputs": [
        {
          "internalType": "uint256",
          "name": "",
          "type": "uint256"
        }
      ],
      "stateMutability": "nonpayable",
      "type": "function"
    },
    {
      "inputs": [],
      "name": "name",
      "outputs": [
        {
          "internalType": "string",
          "name": "",
          "type": "string"
        }
      ],
      "stateMutability": "view",
      "type": "function"
    },
    {
      "inputs": [
        {
          "internalType": "uint256",
          "name": "",
          "type": "uint256"
        }
      ],
      "name": "nftUsage",
      "outputs": [
        {
          "internalType": "uint8",
          "name": "usedCount",
          "type": "uint8"
        },
        {
          "internalType": "uint64",
          "name": "lastUsedAt",
          "type": "uint64"
        }
      ],
      "stateMutability": "view",
      "type": "function"
    },
    {
      "inputs": [
        {
          "internalType": "uint256",
          "name": "tokenId",
          "type": "uint256"
        }
      ],
      "name": "ownerOf",
      "outputs": [
        {
          "internalType": "address",
          "name": "",
          "type": "address"
        }
      ],
      "stateMutability": "view",
      "type": "function"
    },
    {
      "inputs": [],
      "name": "pause",
      "outputs": [],
      "stateMutability": "nonpayable",
      "type": "function"
    },
    {
      "inputs": [],
      "name": "paused",
      "outputs": [
        {
          "internalType": "bool",
          "name": "",
          "type": "bool"
        }
      ],
      "stateMutability": "view",
      "type": "function"
    },
    {
      "inputs": [
        {
          "internalType": "uint256",
          "name": "tokenId",
          "type": "uint256"
        }
      ],
      "name": "progressOf",
      "outputs": [
        {
          "internalType": "uint256",
          "name": "setBits",
          "type": "uint256"
        },
        {
          "internalType": "uint256",
          "name": "totalBits",
          "type": "uint256"
        }
      ],
      "stateMutability": "view",
      "type": "function"
    },
    {
      "inputs": [
        {
          "internalType": "bytes32",
          "name": "role",
          "type": "bytes32"
        },
        {
          "internalType": "address",
          "name": "account",
          "type": "address"
        }
      ],
      "name": "renounceRole",
      "outputs": [],
      "stateMutability": "nonpayable",
      "type": "function"
    },
    {
      "inputs": [],
      "name": "requiredFlagsMask",
      "outputs": [
        {
          "internalType": "uint256",
          "name": "",
          "type": "uint256"
        }
      ],
      "stateMutability": "view",
      "type": "function"
    },
    {
      "inputs": [
        {
          "internalType": "bytes32",
          "name": "role",
          "type": "bytes32"
        },
        {
          "internalType": "address",
          "name": "account",
          "type": "address"
        }
      ],
      "name": "revokeRole",
      "outputs": [],
      "stateMutability": "nonpayable",
      "type": "function"
    },
    {
      "inputs": [
        {
          "internalType": "address",
          "name": "from",
          "type": "address"
        },
        {
          "internalType": "address",
          "name": "to",
          "type": "address"
        },
        {
          "internalType": "uint256",
          "name": "tokenId",
          "type": "uint256"
        }
      ],
      "name": "safeTransferFrom",
      "outputs": [],
      "stateMutability": "nonpayable",
      "type": "function"
    },
    {
      "inputs": [
        {
          "internalType": "address",
          "name": "from",
          "type": "address"
        },
        {
          "internalType": "address",
          "name": "to",
          "type": "address"
        },
        {
          "internalType": "uint256",
          "name": "tokenId",
          "type": "uint256"
        },
        {
          "internalType": "bytes",
          "name": "data",
          "type": "bytes"
        }
      ],
      "name": "safeTransferFrom",
      "outputs": [],
      "stateMutability": "nonpayable",
      "type": "function"
    },
    {
      "inputs": [
        {
          "internalType": "address",
          "name": "operator",
          "type": "address"
        },
        {
          "internalType": "bool",
          "name": "approved",
          "type": "bool"
        }
      ],
      "name": "setApprovalForAll",
      "outputs": [],
      "stateMutability": "nonpayable",
      "type": "function"
    },
    {
      "inputs": [
        {
          "internalType": "string",
          "name": "newBaseURI",
          "type": "string"
        }
      ],
      "name": "setBaseURI",
      "outputs": [],
      "stateMutability": "nonpayable",
      "type": "function"
    },
    {
      "inputs": [
        {
          "internalType": "enum FlagNFT.Category",
          "name": "category",
          "type": "uint8"
        },
        {
          "internalType": "uint256",
          "name": "_maxSupply",
          "type": "uint256"
        }
      ],
      "name": "setCategoryMaxSupply",
      "outputs": [],
      "stateMutability": "nonpayable",
      "type": "function"
    },
    {
      "inputs": [
        {
          "internalType": "uint256",
          "name": "tokenId",
          "type": "uint256"
        },
        {
          "internalType": "uint8",
          "name": "bit",
          "type": "uint8"
        },
        {
          "internalType": "bool",
          "name": "value",
          "type": "bool"
        },
        {
          "internalType": "bytes32",
          "name": "traceId",
          "type": "bytes32"
        }
      ],
      "name": "setFlag",
      "outputs": [],
      "stateMutability": "nonpayable",
      "type": "function"
    },
    {
      "inputs": [
        {
          "internalType": "uint256",
          "name": "tokenId",
          "type": "uint256"
        },
        {
          "internalType": "uint256",
          "name": "setMask",
          "type": "uint256"
        },
        {
          "internalType": "uint256",
          "name": "clearMask",
          "type": "uint256"
        },
        {
          "internalType": "bytes32",
          "name": "traceId",
          "type": "bytes32"
        }
      ],
      "name": "setFlagsByMask",
      "outputs": [],
      "stateMutability": "nonpayable",
      "type": "function"
    },
    {
      "inputs": [
        {
          "internalType": "uint256",
          "name": "newMaxSupply",
          "type": "uint256"
        }
      ],
      "name": "setMaxSupply",
      "outputs": [],
      "stateMutability": "nonpayable",
      "type": "function"
    },
    {
      "inputs": [
        {
          "internalType": "uint256",
          "name": "mask",
          "type": "uint256"
        }
      ],
      "name": "setRequiredFlagsMask",
      "outputs": [],
      "stateMutability": "nonpayable",
      "type": "function"
    },
    {
      "inputs": [
        {
          "internalType": "bytes4",
          "name": "interfaceId",
          "type": "bytes4"
        }
      ],
      "name": "supportsInterface",
      "outputs": [
        {
          "internalType": "bool",
          "name": "",
          "type": "bool"
        }
      ],
      "stateMutability": "view",
      "type": "function"
    },
    {
      "inputs": [],
      "name": "symbol",
      "outputs": [
        {
          "internalType": "string",
          "name": "",
          "type": "string"
        }
      ],
      "stateMutability": "view",
      "type": "function"
    },
    {
      "inputs": [
        {
          "internalType": "uint256",
          "name": "",
          "type": "uint256"
        }
      ],
      "name": "tokenCategory",
      "outputs": [
        {
          "internalType": "enum FlagNFT.Category",
          "name": "",
          "type": "uint8"
        }
      ],
      "stateMutability": "view",
      "type": "function"
    },
    {
      "inputs": [
        {
          "internalType": "uint256",
          "name": "tokenId",
          "type": "uint256"
        }
      ],
      "name": "tokenURI",
      "outputs": [
        {
          "internalType": "string",
          "name": "",
          "type": "string"
        }
      ],
      "stateMutability": "view",
      "type": "function"
    },
    {
      "inputs": [],
      "name": "totalSupply",
      "outputs": [
        {
          "internalType": "uint256",
          "name": "",
          "type": "uint256"
        }
      ],
      "stateMutability": "view",
      "type": "function"
    },
    {
      "inputs": [
        {
          "internalType": "enum FlagNFT.Category",
          "name": "category",
          "type": "uint8"
        }
      ],
      "name": "totalSupplyByCategory",
      "outputs": [
        {
          "internalType": "uint256",
          "name": "",
          "type": "uint256"
        }
      ],
      "stateMutability": "view",
      "type": "function"
    },
    {
      "inputs": [
        {
          "internalType": "address",
          "name": "from",
          "type": "address"
        },
        {
          "internalType": "address",
          "name": "to",
          "type": "address"
        },
        {
          "internalType": "uint256",
          "name": "tokenId",
          "type": "uint256"
        }
      ],
      "name": "transferFrom",
      "outputs": [],
      "stateMutability": "nonpayable",
      "type": "function"
    },
    {
      "inputs": [],
      "name": "unpause",
      "outputs": [],
      "stateMutability": "nonpayable",
      "type": "function"
    },
    {
      "inputs": [
        {
          "internalType": "uint256",
          "name": "tokenId",
          "type": "uint256"
        }
      ],
      "name": "useNFT",
      "outputs": [],
      "stateMutability": "nonpayable",
      "type": "function"
    },
    {
      "inputs": [],
      "name": "version",
      "outputs": [
        {
          "internalType": "string",
          "name": "",
          "type": "string"
        }
      ],
      "stateMutability": "pure",
      "type": "function"
    }
  ],
  "bytecode": "0x60806040526001600b55600019600d553480156200001c57600080fd5b50604051620046d9380380620046d98339810160408190526200003f91620002e5565b848460006200004f838262000433565b5060016200005e828262000433565b50506007805460ff191690555060016008556001600160a01b038216620000cb5760405162461bcd60e51b815260206004820152601c60248201527f4f776e65722063616e6e6f74206265207a65726f206164647265737300000000604482015260640160405180910390fd5b600c620000d9848262000433565b50600a819055620000ec6000836200017b565b620001187f9f2df0fed2c77648de5860a4cc508cd0818c85b8b8a1ab4ceeef8d981c8956a6836200017b565b620001447f49832a61ffc5fda62992d5c20ff587008f7050ad5d7dfea93a1a39fe47360d25836200017b565b620001707f65d7a28e3265b37a6474929f336521b332c1681b933f6cb9f3376673440d862a836200017b565b5050505050620004ff565b60008281526006602090815260408083206001600160a01b038516845290915290205460ff166200021c5760008281526006602090815260408083206001600160a01b03851684529091529020805460ff19166001179055620001db3390565b6001600160a01b0316816001600160a01b0316837f2f8788117e7eff1d82e926ec794901d17c78024a50270940304540a733656f0d60405160405180910390a45b5050565b634e487b7160e01b600052604160045260246000fd5b600082601f8301126200024857600080fd5b81516001600160401b038082111562000265576200026562000220565b604051601f8301601f19908116603f0116810190828211818310171562000290576200029062000220565b81604052838152602092508683858801011115620002ad57600080fd5b600091505b83821015620002d15785820183015181830184015290820190620002b2565b600093810190920192909252949350505050565b600080600080600060a08688031215620002fe57600080fd5b85516001600160401b03808211156200031657600080fd5b6200032489838a0162000236565b965060208801519150808211156200033b57600080fd5b6200034989838a0162000236565b955060408801519150808211156200036057600080fd5b506200036f8882890162000236565b606088015190945090506001600160a01b03811681146200038f57600080fd5b80925050608086015190509295509295909350565b600181811c90821680620003b957607f821691505b602082108103620003da57634e487b7160e01b600052602260045260246000fd5b50919050565b601f8211156200042e57600081815260208120601f850160051c81016020861015620004095750805b601f850160051c820191505b818110156200042a5782815560010162000415565b5050505b505050565b81516001600160401b038111156200044f576200044f62000220565b6200046781620004608454620003a4565b84620003e0565b602080601f8311600181146200049f5760008415620004865750858301515b600019600386901b1c1916600185901b1785556200042a565b600085815260208120601f198616915b82811015620004d057888601518255948401946001909101908401620004af565b5085821015620004ef5787850151600019600388901b60f8161c191681555b5050505050600190811b01905550565b6141ca806200050f6000396000f3fe608060405234801561001057600080fd5b50600436106103275760003560e01c80636f8b44b0116101b8578063b88d4fde11610104578063d5abeb01116100a2578063e80ffec51161007c578063e80ffec514610794578063e985e9c5146107a9578063f577a500146107e5578063f5fc20c6146107f857600080fd5b8063d5abeb011461073c578063deb9d58914610745578063e63ab1e91461076d57600080fd5b8063c87b56dd116100de578063c87b56dd146106dc578063c9a3632e146106ef578063d539139314610702578063d547741f1461072957600080fd5b8063b88d4fde146106a3578063bcd2b882146106b6578063c37c583a146106c957600080fd5b806391e2ee0c11610171578063a22cb4651161014b578063a22cb46514610645578063ae7125e614610658578063b30df3471461066b578063b60e221e1461067e57600080fd5b806391e2ee0c1461061557806395d89b4114610635578063a217fddf1461063d57600080fd5b80636f8b44b0146105ae57806370a08231146105c15780637a41984b146105d45780638456cb59146105e75780638562481e146105ef57806391d148541461060257600080fd5b806335e1f85c116102775780634f76b4711161023057806355b9d4431161020a57806355b9d4431461056a57806355f804b31461057d5780635c975abb146105905780636352211e1461059b57600080fd5b80634f76b471146104ee578063500a46841461050e57806354fd4d501461056257600080fd5b806335e1f85c1461047457806336568abe146104875780633a215f461461049a5780633f4ba83a146104ca57806342842e0e146104d257806345731723146104e557600080fd5b806315a86e97116102e4578063248a9ca3116102be578063248a9ca31461041857806325b80c341461043b5780632e89fc811461044e5780632f2ff15d1461046157600080fd5b806315a86e97146103ea57806318160ddd146103fd57806323b872dd1461040557600080fd5b806301ffc9a71461032c57806306fdde0314610354578063081812fc14610369578063095ea7b314610394578063098fc14f146103a95780630c5ae57f146103ca575b600080fd5b61033f61033a3660046136eb565b61080b565b60405190151581526020015b60405180910390f35b61035c61082e565b60405161034b9190613758565b61037c61037736600461376b565b6108c0565b6040516001600160a01b03909116815260200161034b565b6103a76103a236600461379b565b6108e7565b005b6103bc6103b73660046137d4565b610a01565b60405190815260200161034b565b6103bc6103d83660046137d4565b60126020526000908152604090205481565b61033f6103f8366004613800565b610a40565b6103bc610a6b565b6103a761041336600461382c565b610a81565b6103bc61042636600461376b565b60009081526006602052604090206001015490565b6103a761044936600461376b565b610ab2565b6103a761045c366004613868565b610ac3565b6103a761046f36600461389a565b610be6565b6103a76104823660046138bd565b610c0b565b6103a761049536600461389a565b610d27565b6104bd6104a836600461376b565b60106020526000908152604090205460ff1681565b60405161034b9190613911565b6103a7610da5565b6103a76104e036600461382c565b610dda565b6103bc600d5481565b6105016104fc36600461391f565b610df5565b60405161034b91906139a2565b61054161051c36600461376b565b600f6020526000908152604090205460ff81169061010090046001600160401b031682565b6040805160ff90931683526001600160401b0390911660208301520161034b565b61035c61132f565b6103a761057836600461376b565b61134f565b6103a761058b366004613a91565b6116b3565b60075460ff1661033f565b61037c6105a936600461376b565b6116ca565b6103a76105bc36600461376b565b61172a565b6103bc6105cf366004613ac5565b6117d8565b61033f6105e236600461376b565b61185e565b6103a7611883565b6103a76105fd366004613af0565b6118b5565b61033f61061036600461389a565b61199b565b6103bc6106233660046137d4565b60116020526000908152604090205481565b61035c6119c6565b6103bc600081565b6103a7610653366004613b34565b6119d5565b6103bc61066636600461376b565b6119e0565b61054161067936600461376b565b6119fe565b61069161068c3660046137d4565b611a47565b60405161034b96959493929190613b5e565b6103a76106b1366004613bb4565b611b20565b6103bc6106c4366004613c2f565b611b58565b6104bd6106d736600461376b565b611ed1565b61035c6106ea36600461376b565b611ef2565b6103a76106fd366004613c70565b612081565b6103bc7f9f2df0fed2c77648de5860a4cc508cd0818c85b8b8a1ab4ceeef8d981c8956a681565b6103a761073736600461389a565b6122f7565b6103bc600a5481565b61075861075336600461376b565b61231c565b6040805192835260208301919091520161034b565b6103bc7f65d7a28e3265b37a6474929f336521b332c1681b933f6cb9f3376673440d862a81565b6103bc60008051602061414a83398151915281565b61033f6107b7366004613cfe565b6001600160a01b03918216600090815260056020908152604080832093909416825291909152205460ff1690565b61033f6107f336600461376b565b61234c565b61033f61080636600461376b565b612512565b60006001600160e01b031982161580610828575061082882612743565b92915050565b60606000805461083d90613d28565b80601f016020809104026020016040519081016040528092919081815260200182805461086990613d28565b80156108b65780601f1061088b576101008083540402835291602001916108b6565b820191906000526020600020905b81548152906001019060200180831161089957829003601f168201915b5050505050905090565b60006108cb82612768565b506000908152600460205260409020546001600160a01b031690565b60006108f2826116ca565b9050806001600160a01b0316836001600160a01b0316036109645760405162461bcd60e51b815260206004820152602160248201527f4552433732313a20617070726f76616c20746f2063757272656e74206f776e656044820152603960f91b60648201526084015b60405180910390fd5b336001600160a01b0382161480610980575061098081336107b7565b6109f25760405162461bcd60e51b815260206004820152603d60248201527f4552433732313a20617070726f76652063616c6c6572206973206e6f7420746f60448201527f6b656e206f776e6572206f7220617070726f76656420666f7220616c6c000000606482015260840161095b565b6109fc83836127c7565b505050565b600060116000836005811115610a1957610a196138d9565b6005811115610a2a57610a2a6138d9565b8152602001908152602001600020549050919050565b6000610a4b83612835565b50600082815260096020526040902054600160ff83161b16151592915050565b60006001600b54610a7c9190613d78565b905090565b610a8b338261283e565b610aa75760405162461bcd60e51b815260040161095b90613d8b565b6109fc8383836128bc565b6000610abd81612a2d565b50600d55565b60008051602061414a833981519152610adb81612a2d565b610ae3612a37565b610aeb612a7f565b610af485612835565b83831615610b445760405162461bcd60e51b815260206004820152601b60248201527f53657420616e6420636c656172206d61736b73206f7665726c61700000000000604482015260640161095b565b6000858152600960209081526040918290208054871786191690558151868152908101859052908101839052339086907f1653575ccdb4b9570196927a79d844db04a62033eaceba3f8d95470c9c3059dc9060600160405180910390a36040518581527ff8e1a15aba9398e019f0b49df1a4fde98ee17ae345cb5f6b5e2c27f5033e8ce7906020015b60405180910390a1610bdf6001600855565b5050505050565b600082815260066020526040902060010154610c0181612a2d565b6109fc8383612ad8565b6000610c1681612a2d565b811580610c58575060116000846005811115610c3457610c346138d9565b6005811115610c4557610c456138d9565b8152602001908152602001600020548210155b610ca45760405162461bcd60e51b815260206004820152601f60248201527f43616e6e6f74207365742062656c6f772063757272656e7420737570706c7900604482015260640161095b565b8160126000856005811115610cbb57610cbb6138d9565b6005811115610ccc57610ccc6138d9565b8152602081019190915260400160002055826005811115610cef57610cef6138d9565b6040518381527f3297384e893c8a1458614aaf2b7905b5df13241a12a1fd36f9501d2e44d6a1969060200160405180910390a2505050565b6001600160a01b0381163314610d975760405162461bcd60e51b815260206004820152602f60248201527f416363657373436f6e74726f6c3a2063616e206f6e6c792072656e6f756e636560448201526e103937b632b9903337b91039b2b63360891b606482015260840161095b565b610da18282612b5e565b5050565b7f65d7a28e3265b37a6474929f336521b332c1681b933f6cb9f3376673440d862a610dcf81612a2d565b610dd7612bc5565b50565b6109fc83838360405180602001604052806000815250611b20565b60607f9f2df0fed2c77648de5860a4cc508cd0818c85b8b8a1ab4ceeef8d981c8956a6610e2181612a2d565b610e29612a37565b610e31612a7f565b83610e6c5760405162461bcd60e51b815260206004820152600b60248201526a08adae0e8f240c4c2e8c6d60ab1b604482015260640161095b565b6032841115610eb45760405162461bcd60e51b815260206004820152601460248201527342617463682073697a6520746f6f206c6172676560601b604482015260640161095b565b6000600e6000856005811115610ecc57610ecc6138d9565b6005811115610edd57610edd6138d9565b81526020810191909152604001600020546201000090046001600160401b031611610f445760405162461bcd60e51b815260206004820152601760248201527610d85d1959dbdc9e481b9bdd0818dbdb999a59dd5c9959604a1b604482015260640161095b565b600060126000856005811115610f5c57610f5c6138d9565b6005811115610f6d57610f6d6138d9565b8152602001908152602001600020549050600081111561102157808560116000876005811115610f9f57610f9f6138d9565b6005811115610fb057610fb06138d9565b815260200190815260200160002054610fc99190613dd8565b11156110215760405162461bcd60e51b815260206004820152602160248201527f426174636820657863656564732063617465676f7279206d617820737570706c6044820152607960f81b606482015260840161095b565b600a54158061104c5750600a54600b5460019061103f908890613dd8565b6110499190613d78565b11155b6110985760405162461bcd60e51b815260206004820152601860248201527f42617463682065786365656473206d617820737570706c790000000000000000604482015260640161095b565b846001600160401b038111156110b0576110b06139e6565b6040519080825280602002602001820160405280156110d9578160200160208202803683370190505b50925060005b8581101561131b5760008787838181106110fb576110fb613deb565b90506020020160208101906111109190613ac5565b6001600160a01b0316036111665760405162461bcd60e51b815260206004820152601b60248201527f43616e6e6f74206d696e7420746f207a65726f20616464726573730000000000604482015260640161095b565b600b80546000918261117783613e01565b9190505590506111ad88888481811061119257611192613deb565b90506020020160208101906111a79190613ac5565b82612c17565b6000818152601060205260409020805487919060ff191660018360058111156111d8576111d86138d9565b0217905550601160008760058111156111f3576111f36138d9565b6005811115611204576112046138d9565b8152602001908152602001600020600081548092919061122390613e01565b909155505060408051808201825260008082526020808301828152858352600f9091529290209051815492516001600160401b03166101000268ffffffffffffffffff1990931660ff91909116179190911790558451819086908490811061128d5761128d613deb565b6020026020010181815250508560058111156112ab576112ab6138d9565b818989858181106112be576112be613deb565b90506020020160208101906112d39190613ac5565b6001600160a01b03167f1e18a8369fdc2befacdc93ee5db35df55661064e39e5d0cac863a7a383f978bd60405160405180910390a4508061131381613e01565b9150506110df565b50506113276001600855565b509392505050565b60606040518060600160405280602b815260200161416a602b9139905090565b60008051602061414a83398151915261136781612a2d565b61136f612a37565b611377612a7f565b61138082612835565b60008281526010602052604081205460ff1690600e818360058111156113a8576113a86138d9565b60058111156113b9576113b96138d9565b815260208101919091526040908101600020815160c081019092528054829060ff1660058111156113ec576113ec6138d9565b60058111156113fd576113fd6138d9565b8152815460ff6101008204811660208401526001600160401b0362010000830481166040850152600160501b8304166060840152600160901b909104161515608082015260018201805460a09092019161145690613d28565b80601f016020809104026020016040519081016040528092919081815260200182805461148290613d28565b80156114cf5780601f106114a4576101008083540402835291602001916114cf565b820191906000526020600020905b8154815290600101906020018083116114b257829003601f168201915b505050919092525050506000858152600f60205260409081902090820151919250906001600160401b031642101561153d5760405162461bcd60e51b8152602060048201526011602482015270139195081b9bdd081e595d081d985b1a59607a1b604482015260640161095b565b60608201516001600160401b03161561159b5781606001516001600160401b031642111561159b5760405162461bcd60e51b815260206004820152600b60248201526a13919508195e1c1a5c995960aa1b604482015260640161095b565b60ff826020015160ff1610156115fd576020820151815460ff9182169116106115fd5760405162461bcd60e51b8152602060048201526014602482015273155cd859d9481b1a5b5a5d08195e18d95959195960621b604482015260640161095b565b805460ff1681600061160e83613e1a565b825460ff91821661010093840a908102920219161790915582546001600160401b03421690910268ffffffffffffffff001990911617825550611650856116ca565b81546040805160ff90921682526001600160401b03421660208301526001600160a01b03929092169187917f751dc070b347e62918b11f763c6b7f1e08195cf12dff7a31c6638c681e18be12910160405180910390a3505050610da16001600855565b60006116be81612a2d565b600c6109fc8382613e7f565b6000818152600260205260408120546001600160a01b0316806108285760405162461bcd60e51b8152602060048201526018602482015277115490cdcc8c4e881a5b9d985b1a59081d1bdad95b88125160421b604482015260640161095b565b600061173581612a2d565b81158061175057506001600b5461174c9190613d78565b8210155b61179c5760405162461bcd60e51b815260206004820152601f60248201527f43616e6e6f74207365742062656c6f772063757272656e7420737570706c7900604482015260640161095b565b600a8290556040518281527f7810bd47de260c3e9ee10061cf438099dd12256c79485f12f94dbccc981e806c9060200160405180910390a15050565b60006001600160a01b0382166118425760405162461bcd60e51b815260206004820152602960248201527f4552433732313a2061646472657373207a65726f206973206e6f7420612076616044820152683634b21037bbb732b960b91b606482015260840161095b565b506001600160a01b031660009081526003602052604090205490565b600061186982612835565b50600d546000918252600960205260409091205481161490565b7f65d7a28e3265b37a6474929f336521b332c1681b933f6cb9f3376673440d862a6118ad81612a2d565b610dd7612c31565b60008051602061414a8339815191526118cd81612a2d565b6118d5612a37565b6118dd612a7f565b6118e685612835565b821561190b5760008581526009602052604090208054600160ff87161b179055611927565b60008581526009602052604090208054600160ff87161b191690555b60408051841515815260208101849052339160ff87169188917f404d7fa6f8ab91d60b5ba38f860ecf366fc775efaf947db605af0d20104765cc910160405180910390a46040518581527ff8e1a15aba9398e019f0b49df1a4fde98ee17ae345cb5f6b5e2c27f5033e8ce790602001610bcd565b60009182526006602090815260408084206001600160a01b0393909316845291905290205460ff1690565b60606001805461083d90613d28565b610da1338383612c6e565b60006119eb82612835565b5060009081526009602052604090205490565b600080611a0a83612835565b50506000908152600f602090815260409182902082518084019093525460ff81168084526101009091046001600160401b03169290910182905291565b600e602052600090815260409020805460018201805460ff8084169461010085048216946001600160401b03620100008204811695600160501b830490911694600160901b9092049093169290611a9d90613d28565b80601f0160208091040260200160405190810160405280929190818152602001828054611ac990613d28565b8015611b165780601f10611aeb57610100808354040283529160200191611b16565b820191906000526020600020905b815481529060010190602001808311611af957829003601f168201915b5050505050905086565b611b2a338361283e565b611b465760405162461bcd60e51b815260040161095b90613d8b565b611b5284848484612d3c565b50505050565b60007f9f2df0fed2c77648de5860a4cc508cd0818c85b8b8a1ab4ceeef8d981c8956a6611b8481612a2d565b611b8c612a37565b611b94612a7f565b6001600160a01b038416611bea5760405162461bcd60e51b815260206004820152601b60248201527f43616e6e6f74206d696e7420746f207a65726f20616464726573730000000000604482015260640161095b565b611bf2612d6f565b611c335760405162461bcd60e51b815260206004820152601260248201527113585e081cdd5c1c1b1e481c995858da195960721b604482015260640161095b565b6000600e6000856005811115611c4b57611c4b6138d9565b6005811115611c5c57611c5c6138d9565b81526020810191909152604001600020546201000090046001600160401b031611611cc35760405162461bcd60e51b815260206004820152601760248201527610d85d1959dbdc9e481b9bdd0818dbdb999a59dd5c9959604a1b604482015260640161095b565b600060126000856005811115611cdb57611cdb6138d9565b6005811115611cec57611cec6138d9565b81526020019081526020016000205490506000811115611d8a578060116000866005811115611d1d57611d1d6138d9565b6005811115611d2e57611d2e6138d9565b81526020019081526020016000205410611d8a5760405162461bcd60e51b815260206004820152601b60248201527f43617465676f7279206d617820737570706c7920726561636865640000000000604482015260640161095b565b600b805460009182611d9b83613e01565b919050559050611dab8682612c17565b6000818152601060205260409020805486919060ff19166001836005811115611dd657611dd66138d9565b021790555060116000866005811115611df157611df16138d9565b6005811115611e0257611e026138d9565b81526020019081526020016000206000815480929190611e2190613e01565b909155505060408051808201825260008082526020808301828152858352600f9091529290209051815492516001600160401b03166101000268ffffffffffffffffff1990931660ff9190911617919091179055846005811115611e8757611e876138d9565b60405182906001600160a01b038916907f1e18a8369fdc2befacdc93ee5db35df55661064e39e5d0cac863a7a383f978bd90600090a4925050611eca6001600855565b5092915050565b6000611edc82612835565b5060009081526010602052604090205460ff1690565b6060611efd82612835565b60008281526010602052604081205460ff1690600e81836005811115611f2557611f256138d9565b6005811115611f3657611f366138d9565b815260208101919091526040908101600020815160c081019092528054829060ff166005811115611f6957611f696138d9565b6005811115611f7a57611f7a6138d9565b8152815460ff6101008204811660208401526001600160401b0362010000830481166040850152600160501b8304166060840152600160901b909104161515608082015260018201805460a090920191611fd390613d28565b80601f0160208091040260200160405190810160405280929190818152602001828054611fff90613d28565b801561204c5780601f106120215761010080835404028352916020019161204c565b820191906000526020600020905b81548152906001019060200180831161202f57829003601f168201915b505050505081525050905060008160a001515111156120705760a001519392505050565b61207984612d89565b949350505050565b600061208c81612a2d565b6000856001600160401b0316116120dd5760405162461bcd60e51b81526020600482015260156024820152741d985b1a59119c9bdb481b5d5cdd081899481cd95d605a1b604482015260640161095b565b6001600160401b0384161561215857846001600160401b0316846001600160401b0316116121585760405162461bcd60e51b815260206004820152602260248201527f76616c6964556e74696c206d7573742062652061667465722076616c696446726044820152616f6d60f01b606482015260840161095b565b6040518060c00160405280886005811115612175576121756138d9565b815260ff881660208201526001600160401b03808816604083015286166060820152841515608082015260a001839052600e60008960058111156121bb576121bb6138d9565b60058111156121cc576121cc6138d9565b8152602081019190915260400160002081518154829060ff191660018360058111156121fa576121fa6138d9565b02179055506020820151815460408401516060850151608086015169ffffffffffffffffff001990931661010060ff9095169490940269ffffffffffffffff0000191693909317620100006001600160401b03928316021768ffffffffffffffffff60501b1916600160501b919093160260ff60901b191691909117600160901b9115159190910217815560a082015160018201906122999082613e7f565b509050508660058111156122af576122af6138d9565b7f9d1370e3f53e4797635dd7b1804925bedcec137bb145bb941011d10aeb6499fe87878787876040516122e6959493929190613f3e565b60405180910390a250505050505050565b60008281526006602052604090206001015461231281612a2d565b6109fc8383612b5e565b60008061232883612835565b506000828152600960205260409020546101009061234590612df0565b9150915091565b600061235782612835565b60008281526010602052604081205460ff1690600e8183600581111561237f5761237f6138d9565b6005811115612390576123906138d9565b815260208101919091526040908101600020815160c081019092528054829060ff1660058111156123c3576123c36138d9565b60058111156123d4576123d46138d9565b8152815460ff6101008204811660208401526001600160401b0362010000830481166040850152600160501b8304166060840152600160901b909104161515608082015260018201805460a09092019161242d90613d28565b80601f016020809104026020016040519081016040528092919081815260200182805461245990613d28565b80156124a65780601f1061247b576101008083540402835291602001916124a6565b820191906000526020600020905b81548152906001019060200180831161248957829003601f168201915b505050505081525050905080604001516001600160401b03164210156124d0575060009392505050565b600081606001516001600160401b03161180156124f9575080606001516001600160401b031642115b15612508575060009392505050565b5060019392505050565b600061251d82612835565b60008281526010602052604081205460ff1690600e81836005811115612545576125456138d9565b6005811115612556576125566138d9565b815260208101919091526040908101600020815160c081019092528054829060ff166005811115612589576125896138d9565b600581111561259a5761259a6138d9565b8152815460ff6101008204811660208401526001600160401b0362010000830481166040850152600160501b8304166060840152600160901b909104161515608082015260018201805460a0909201916125f390613d28565b80601f016020809104026020016040519081016040528092919081815260200182805461261f90613d28565b801561266c5780601f106126415761010080835404028352916020019161266c565b820191906000526020600020905b81548152906001019060200180831161264f57829003601f168201915b505050919092525050506000858152600f602090815260409182902082518084018452905460ff811682526001600160401b03610100909104811692820192909252918301519293509091164210156126ca57506000949350505050565b600082606001516001600160401b03161180156126f3575081606001516001600160401b031642115b1561270357506000949350505050565b60ff826020015160ff161080156127285750816020015160ff16816000015160ff1610155b1561273857506000949350505050565b506001949350505050565b60006001600160e01b03198216637965db0b60e01b1480610828575061082882612e19565b6000818152600260205260409020546001600160a01b0316610dd75760405162461bcd60e51b8152602060048201526018602482015277115490cdcc8c4e881a5b9d985b1a59081d1bdad95b88125160421b604482015260640161095b565b600081815260046020526040902080546001600160a01b0319166001600160a01b03841690811790915581906127fc826116ca565b6001600160a01b03167f8c5be1e5ebec7d5bd14f71427d1e84f3dd0314c0f7b2291e5b200ac8c7c3b92560405160405180910390a45050565b610da1816116ca565b60008061284a836116ca565b9050806001600160a01b0316846001600160a01b0316148061289157506001600160a01b0380821660009081526005602090815260408083209388168352929052205460ff165b806120795750836001600160a01b03166128aa846108c0565b6001600160a01b031614949350505050565b826001600160a01b03166128cf826116ca565b6001600160a01b0316146128f55760405162461bcd60e51b815260040161095b90613f86565b6001600160a01b0382166129575760405162461bcd60e51b8152602060048201526024808201527f4552433732313a207472616e7366657220746f20746865207a65726f206164646044820152637265737360e01b606482015260840161095b565b6129648383836001612e69565b826001600160a01b0316612977826116ca565b6001600160a01b03161461299d5760405162461bcd60e51b815260040161095b90613f86565b600081815260046020908152604080832080546001600160a01b03199081169091556001600160a01b0387811680865260038552838620805460001901905590871680865283862080546001019055868652600290945282852080549092168417909155905184937fddf252ad1be2c89b69c2b068fc378daa952ba7f163c4a11628f55a4df523b3ef91a4505050565b610dd7813361304b565b60075460ff1615612a7d5760405162461bcd60e51b815260206004820152601060248201526f14185d5cd8589b194e881c185d5cd95960821b604482015260640161095b565b565b600260085403612ad15760405162461bcd60e51b815260206004820152601f60248201527f5265656e7472616e637947756172643a207265656e7472616e742063616c6c00604482015260640161095b565b6002600855565b612ae2828261199b565b610da15760008281526006602090815260408083206001600160a01b03851684529091529020805460ff19166001179055612b1a3390565b6001600160a01b0316816001600160a01b0316837f2f8788117e7eff1d82e926ec794901d17c78024a50270940304540a733656f0d60405160405180910390a45050565b612b68828261199b565b15610da15760008281526006602090815260408083206001600160a01b0385168085529252808320805460ff1916905551339285917ff6391f5c32d9c69d2a47ea670b442974b53935d1edc7fd64eb21e047a839171b9190a45050565b612bcd6130a4565b6007805460ff191690557f5db9ee0a495bf2e6ff9c91a7834c1ba4fdd244a5e8aa4e537bd38aeae4b073aa335b6040516001600160a01b03909116815260200160405180910390a1565b610da18282604051806020016040528060008152506130ed565b612c39612a37565b6007805460ff191660011790557f62e78cea01bee320cd4e420270b5ea74000d11b0c9f74754ebdbfc544b05a258612bfa3390565b816001600160a01b0316836001600160a01b031603612ccf5760405162461bcd60e51b815260206004820152601960248201527f4552433732313a20617070726f766520746f2063616c6c657200000000000000604482015260640161095b565b6001600160a01b03838116600081815260056020908152604080832094871680845294825291829020805460ff191686151590811790915591519182527f17307eab39ab6107e8899845ad3d59bd9653f200f220920489ca2b5937696c31910160405180910390a3505050565b612d478484846128bc565b612d5384848484613120565b611b525760405162461bcd60e51b815260040161095b90613fcb565b6000600a5460001480610a7c575050600a54600b54111590565b6060612d9482612768565b6000612d9e613216565b90506000815111612dbe5760405180602001604052806000815250612de9565b80612dc884613225565b604051602001612dd992919061401d565b6040516020818303038152906040525b9392505050565b60005b8115612e1457612e066001831682613dd8565b9050600182901c9150612df3565b919050565b60006001600160e01b031982166380ac58cd60e01b1480612e4a57506001600160e01b03198216635b5e139f60e01b145b8061082857506301ffc9a760e01b6001600160e01b0319831614610828565b6001600160a01b0384161580612e8657506001600160a01b038316155b611b525760008281526010602052604081205460ff1690600e81836005811115612eb257612eb26138d9565b6005811115612ec357612ec36138d9565b815260208101919091526040908101600020815160c081019092528054829060ff166005811115612ef657612ef66138d9565b6005811115612f0757612f076138d9565b8152815460ff6101008204811660208401526001600160401b0362010000830481166040850152600160501b8304166060840152600160901b909104161515608082015260018201805460a090920191612f6090613d28565b80601f0160208091040260200160405190810160405280929190818152602001828054612f8c90613d28565b8015612fd95780601f10612fae57610100808354040283529160200191612fd9565b820191906000526020600020905b815481529060010190602001808311612fbc57829003601f168201915b505050505081525050905080608001516130435760405162461bcd60e51b815260206004820152602560248201527f54686973204e46542063617465676f7279206973206e6f74207472616e7366656044820152647261626c6560d81b606482015260840161095b565b505050505050565b613055828261199b565b610da157613062816132b7565b61306d8360206132c9565b60405160200161307e92919061404c565b60408051601f198184030181529082905262461bcd60e51b825261095b91600401613758565b60075460ff16612a7d5760405162461bcd60e51b815260206004820152601460248201527314185d5cd8589b194e881b9bdd081c185d5cd95960621b604482015260640161095b565b6130f78383613464565b6131046000848484613120565b6109fc5760405162461bcd60e51b815260040161095b90613fcb565b60006001600160a01b0384163b1561273857604051630a85bd0160e11b81526001600160a01b0385169063150b7a02906131649033908990889088906004016140c1565b6020604051808303816000875af192505050801561319f575060408051601f3d908101601f1916820190925261319c918101906140fe565b60015b6131fc573d8080156131cd576040519150601f19603f3d011682016040523d82523d6000602084013e6131d2565b606091505b5080516000036131f45760405162461bcd60e51b815260040161095b90613fcb565b805181602001fd5b6001600160e01b031916630a85bd0160e11b149050612079565b6060600c805461083d90613d28565b60606000613232836135fd565b60010190506000816001600160401b03811115613251576132516139e6565b6040519080825280601f01601f19166020018201604052801561327b576020820181803683370190505b5090508181016020015b600019016f181899199a1a9b1b9c1cb0b131b232b360811b600a86061a8153600a850494508461328557509392505050565b60606108286001600160a01b03831660145b606060006132d883600261411b565b6132e3906002613dd8565b6001600160401b038111156132fa576132fa6139e6565b6040519080825280601f01601f191660200182016040528015613324576020820181803683370190505b509050600360fc1b8160008151811061333f5761333f613deb565b60200101906001600160f81b031916908160001a905350600f60fb1b8160018151811061336e5761336e613deb565b60200101906001600160f81b031916908160001a905350600061339284600261411b565b61339d906001613dd8565b90505b6001811115613415576f181899199a1a9b1b9c1cb0b131b232b360811b85600f16601081106133d1576133d1613deb565b1a60f81b8282815181106133e7576133e7613deb565b60200101906001600160f81b031916908160001a90535060049490941c9361340e81614132565b90506133a0565b508315612de95760405162461bcd60e51b815260206004820181905260248201527f537472696e67733a20686578206c656e67746820696e73756666696369656e74604482015260640161095b565b6001600160a01b0382166134ba5760405162461bcd60e51b815260206004820181905260248201527f4552433732313a206d696e7420746f20746865207a65726f2061646472657373604482015260640161095b565b6000818152600260205260409020546001600160a01b03161561351f5760405162461bcd60e51b815260206004820152601c60248201527f4552433732313a20746f6b656e20616c7265616479206d696e74656400000000604482015260640161095b565b61352d600083836001612e69565b6000818152600260205260409020546001600160a01b0316156135925760405162461bcd60e51b815260206004820152601c60248201527f4552433732313a20746f6b656e20616c7265616479206d696e74656400000000604482015260640161095b565b6001600160a01b038216600081815260036020908152604080832080546001019055848352600290915280822080546001600160a01b0319168417905551839291907fddf252ad1be2c89b69c2b068fc378daa952ba7f163c4a11628f55a4df523b3ef908290a45050565b60008072184f03e93ff9f4daa797ed6e38ed64bf6a1f0160401b831061363c5772184f03e93ff9f4daa797ed6e38ed64bf6a1f0160401b830492506040015b6d04ee2d6d415b85acef81000000008310613668576d04ee2d6d415b85acef8100000000830492506020015b662386f26fc10000831061368657662386f26fc10000830492506010015b6305f5e100831061369e576305f5e100830492506008015b61271083106136b257612710830492506004015b606483106136c4576064830492506002015b600a83106108285760010192915050565b6001600160e01b031981168114610dd757600080fd5b6000602082840312156136fd57600080fd5b8135612de9816136d5565b60005b8381101561372357818101518382015260200161370b565b50506000910152565b60008151808452613744816020860160208601613708565b601f01601f19169290920160200192915050565b602081526000612de9602083018461372c565b60006020828403121561377d57600080fd5b5035919050565b80356001600160a01b0381168114612e1457600080fd5b600080604083850312156137ae57600080fd5b6137b783613784565b946020939093013593505050565b803560068110612e1457600080fd5b6000602082840312156137e657600080fd5b612de9826137c5565b803560ff81168114612e1457600080fd5b6000806040838503121561381357600080fd5b82359150613823602084016137ef565b90509250929050565b60008060006060848603121561384157600080fd5b61384a84613784565b925061385860208501613784565b9150604084013590509250925092565b6000806000806080858703121561387e57600080fd5b5050823594602084013594506040840135936060013592509050565b600080604083850312156138ad57600080fd5b8235915061382360208401613784565b600080604083850312156138d057600080fd5b6137b7836137c5565b634e487b7160e01b600052602160045260246000fd5b6006811061390d57634e487b7160e01b600052602160045260246000fd5b9052565b6020810161082882846138ef565b60008060006040848603121561393457600080fd5b83356001600160401b038082111561394b57600080fd5b818601915086601f83011261395f57600080fd5b81358181111561396e57600080fd5b8760208260051b850101111561398357600080fd5b60209283019550935061399991860190506137c5565b90509250925092565b6020808252825182820181905260009190848201906040850190845b818110156139da578351835292840192918401916001016139be565b50909695505050505050565b634e487b7160e01b600052604160045260246000fd5b60006001600160401b0380841115613a1657613a166139e6565b604051601f8501601f19908116603f01168101908282118183101715613a3e57613a3e6139e6565b81604052809350858152868686011115613a5757600080fd5b858560208301376000602087830101525050509392505050565b600082601f830112613a8257600080fd5b612de9838335602085016139fc565b600060208284031215613aa357600080fd5b81356001600160401b03811115613ab957600080fd5b61207984828501613a71565b600060208284031215613ad757600080fd5b612de982613784565b80358015158114612e1457600080fd5b60008060008060808587031215613b0657600080fd5b84359350613b16602086016137ef565b9250613b2460408601613ae0565b9396929550929360600135925050565b60008060408385031215613b4757600080fd5b613b5083613784565b915061382360208401613ae0565b613b6881886138ef565b60ff8616602082015260006001600160401b038087166040840152808616606084015250831515608083015260c060a0830152613ba860c083018461372c565b98975050505050505050565b60008060008060808587031215613bca57600080fd5b613bd385613784565b9350613be160208601613784565b92506040850135915060608501356001600160401b03811115613c0357600080fd5b8501601f81018713613c1457600080fd5b613c23878235602084016139fc565b91505092959194509250565b60008060408385031215613c4257600080fd5b613c4b83613784565b9150613823602084016137c5565b80356001600160401b0381168114612e1457600080fd5b60008060008060008060c08789031215613c8957600080fd5b613c92876137c5565b9550613ca0602088016137ef565b9450613cae60408801613c59565b9350613cbc60608801613c59565b9250613cca60808801613ae0565b915060a08701356001600160401b03811115613ce557600080fd5b613cf189828a01613a71565b9150509295509295509295565b60008060408385031215613d1157600080fd5b613d1a83613784565b915061382360208401613784565b600181811c90821680613d3c57607f821691505b602082108103613d5c57634e487b7160e01b600052602260045260246000fd5b50919050565b634e487b7160e01b600052601160045260246000fd5b8181038181111561082857610828613d62565b6020808252602d908201527f4552433732313a2063616c6c6572206973206e6f7420746f6b656e206f776e6560408201526c1c881bdc88185c1c1c9bdd9959609a1b606082015260800190565b8082018082111561082857610828613d62565b634e487b7160e01b600052603260045260246000fd5b600060018201613e1357613e13613d62565b5060010190565b600060ff821660ff8103613e3057613e30613d62565b60010192915050565b601f8211156109fc57600081815260208120601f850160051c81016020861015613e605750805b601f850160051c820191505b8181101561304357828155600101613e6c565b81516001600160401b03811115613e9857613e986139e6565b613eac81613ea68454613d28565b84613e39565b602080601f831160018114613ee15760008415613ec95750858301515b600019600386901b1c1916600185901b178555613043565b600085815260208120601f198616915b82811015613f1057888601518255948401946001909101908401613ef1565b5085821015613f2e5787850151600019600388901b60f8161c191681555b5050505050600190811b01905550565b60ff8616815260006001600160401b038087166020840152808616604084015250831515606083015260a06080830152613f7b60a083018461372c565b979650505050505050565b60208082526025908201527f4552433732313a207472616e736665722066726f6d20696e636f72726563742060408201526437bbb732b960d91b606082015260800190565b60208082526032908201527f4552433732313a207472616e7366657220746f206e6f6e20455243373231526560408201527131b2b4bb32b91034b6b83632b6b2b73a32b960711b606082015260800190565b6000835161402f818460208801613708565b835190830190614043818360208801613708565b01949350505050565b7f416363657373436f6e74726f6c3a206163636f756e7420000000000000000000815260008351614084816017850160208801613708565b7001034b99036b4b9b9b4b733903937b6329607d1b60179184019182015283516140b5816028840160208801613708565b01602801949350505050565b6001600160a01b03858116825284166020820152604081018390526080606082018190526000906140f49083018461372c565b9695505050505050565b60006020828403121561411057600080fd5b8151612de9816136d5565b808202811582820484141761082857610828613d62565b60008161414157614141613d62565b50600019019056fe49832a61ffc5fda62992d5c20ff587008f7050ad5d7dfea93a1a39fe47360d25466c61674e46542076312e302e30202d2043617465676f72792d626173656420466c6167676564204e4654a2646970667358221220390a8102c7dd9f6d106f72f5ecbba15da78fc82a73c5b7b6e7c8a7ec0f13567464736f6c63430008140033",
  "linkReferences": {},
  "deployedLinkReferences": {}
}