{
  "_format": "hh-sol-artifact-1",
  "contractName": "GifterraPaySplitter",
  "sourceName": "contracts/GifterraPaySplitter.sol",
  "abi": [
    {
      "inputs": [
        {
          "internalType": "address[]",
          "name": "payees_",
          "type": "address[]"
        },
        {
          "internalType": "uint256[]",
          "name": "shares_",
          "type": "uint256[]"
        }
      ],
      "stateMutability": "nonpayable",
      "type": "constructor"
    },
    {
      "anonymous": false,
      "inputs": [
        {
          "indexed": true,
          "internalType": "address",
          "name": "payer",
          "type": "address"
        },
        {
          "indexed": true,
          "internalType": "address",
          "name": "token",
          "type": "address"
        },
        {
          "indexed": false,
          "internalType": "uint256",
          "name": "amount",
          "type": "uint256"
        },
        {
          "indexed": true,
          "internalType": "bytes32",
          "name": "sku",
          "type": "bytes32"
        },
        {
          "indexed": false,
          "internalType": "bytes32",
          "name": "traceId",
          "type": "bytes32"
        }
      ],
      "name": "DonationReceived",
      "type": "event"
    },
    {
      "anonymous": false,
      "inputs": [
        {
          "indexed": true,
          "internalType": "contract IERC20",
          "name": "token",
          "type": "address"
        },
        {
          "indexed": false,
          "internalType": "address",
          "name": "to",
          "type": "address"
        },
        {
          "indexed": false,
          "internalType": "uint256",
          "name": "amount",
          "type": "uint256"
        }
      ],
      "name": "ERC20PaymentReleased",
      "type": "event"
    },
    {
      "anonymous": false,
      "inputs": [
        {
          "indexed": true,
          "internalType": "address",
          "name": "previousOwner",
          "type": "address"
        },
        {
          "indexed": true,
          "internalType": "address",
          "name": "newOwner",
          "type": "address"
        }
      ],
      "name": "OwnershipTransferred",
      "type": "event"
    },
    {
      "anonymous": false,
      "inputs": [
        {
          "indexed": false,
          "internalType": "address",
          "name": "account",
          "type": "address"
        }
      ],
      "name": "Paused",
      "type": "event"
    },
    {
      "anonymous": false,
      "inputs": [
        {
          "indexed": false,
          "internalType": "address",
          "name": "account",
          "type": "address"
        },
        {
          "indexed": false,
          "internalType": "uint256",
          "name": "shares",
          "type": "uint256"
        }
      ],
      "name": "PayeeAdded",
      "type": "event"
    },
    {
      "anonymous": false,
      "inputs": [
        {
          "indexed": false,
          "internalType": "address",
          "name": "from",
          "type": "address"
        },
        {
          "indexed": false,
          "internalType": "uint256",
          "name": "amount",
          "type": "uint256"
        }
      ],
      "name": "PaymentReceived",
      "type": "event"
    },
    {
      "anonymous": false,
      "inputs": [
        {
          "indexed": false,
          "internalType": "address",
          "name": "to",
          "type": "address"
        },
        {
          "indexed": false,
          "internalType": "uint256",
          "name": "amount",
          "type": "uint256"
        }
      ],
      "name": "PaymentReleased",
      "type": "event"
    },
    {
      "anonymous": false,
      "inputs": [
        {
          "indexed": false,
          "internalType": "address",
          "name": "account",
          "type": "address"
        }
      ],
      "name": "Unpaused",
      "type": "event"
    },
    {
      "inputs": [
        {
          "internalType": "address",
          "name": "token",
          "type": "address"
        },
        {
          "internalType": "uint256",
          "name": "amount",
          "type": "uint256"
        },
        {
          "internalType": "bytes32",
          "name": "sku",
          "type": "bytes32"
        },
        {
          "internalType": "bytes32",
          "name": "traceId",
          "type": "bytes32"
        }
      ],
      "name": "donateERC20",
      "outputs": [],
      "stateMutability": "nonpayable",
      "type": "function"
    },
    {
      "inputs": [
        {
          "internalType": "bytes32",
          "name": "sku",
          "type": "bytes32"
        },
        {
          "internalType": "bytes32",
          "name": "traceId",
          "type": "bytes32"
        }
      ],
      "name": "donateNative",
      "outputs": [],
      "stateMutability": "payable",
      "type": "function"
    },
    {
      "inputs": [
        {
          "internalType": "contract IERC20",
          "name": "token",
          "type": "address"
        }
      ],
      "name": "getERC20Stats",
      "outputs": [
        {
          "internalType": "uint256",
          "name": "tokenBalance",
          "type": "uint256"
        },
        {
          "internalType": "uint256",
          "name": "totalTokenReleased",
          "type": "uint256"
        }
      ],
      "stateMutability": "view",
      "type": "function"
    },
    {
      "inputs": [
        {
          "internalType": "contract IERC20",
          "name": "token",
          "type": "address"
        },
        {
          "internalType": "address",
          "name": "account",
          "type": "address"
        }
      ],
      "name": "getReleasableERC20",
      "outputs": [
        {
          "internalType": "uint256",
          "name": "releasableAmount",
          "type": "uint256"
        }
      ],
      "stateMutability": "view",
      "type": "function"
    },
    {
      "inputs": [
        {
          "internalType": "address",
          "name": "account",
          "type": "address"
        }
      ],
      "name": "getReleasableNative",
      "outputs": [
        {
          "internalType": "uint256",
          "name": "releasableAmount",
          "type": "uint256"
        }
      ],
      "stateMutability": "view",
      "type": "function"
    },
    {
      "inputs": [],
      "name": "getStats",
      "outputs": [
        {
          "internalType": "uint256",
          "name": "payeeCount",
          "type": "uint256"
        },
        {
          "internalType": "uint256",
          "name": "totalShares_",
          "type": "uint256"
        },
        {
          "internalType": "uint256",
          "name": "nativeBalance",
          "type": "uint256"
        },
        {
          "internalType": "uint256",
          "name": "totalNativeReleased",
          "type": "uint256"
        },
        {
          "internalType": "bool",
          "name": "isPaused",
          "type": "bool"
        }
      ],
      "stateMutability": "view",
      "type": "function"
    },
    {
      "inputs": [],
      "name": "owner",
      "outputs": [
        {
          "internalType": "address",
          "name": "",
          "type": "address"
        }
      ],
      "stateMutability": "view",
      "type": "function"
    },
    {
      "inputs": [],
      "name": "pause",
      "outputs": [],
      "stateMutability": "nonpayable",
      "type": "function"
    },
    {
      "inputs": [],
      "name": "paused",
      "outputs": [
        {
          "internalType": "bool",
          "name": "",
          "type": "bool"
        }
      ],
      "stateMutability": "view",
      "type": "function"
    },
    {
      "inputs": [
        {
          "internalType": "uint256",
          "name": "index",
          "type": "uint256"
        }
      ],
      "name": "payee",
      "outputs": [
        {
          "internalType": "address",
          "name": "",
          "type": "address"
        }
      ],
      "stateMutability": "view",
      "type": "function"
    },
    {
      "inputs": [
        {
          "internalType": "address",
          "name": "account",
          "type": "address"
        }
      ],
      "name": "releasable",
      "outputs": [
        {
          "internalType": "uint256",
          "name": "",
          "type": "uint256"
        }
      ],
      "stateMutability": "view",
      "type": "function"
    },
    {
      "inputs": [
        {
          "internalType": "contract IERC20",
          "name": "token",
          "type": "address"
        },
        {
          "internalType": "address",
          "name": "account",
          "type": "address"
        }
      ],
      "name": "releasable",
      "outputs": [
        {
          "internalType": "uint256",
          "name": "",
          "type": "uint256"
        }
      ],
      "stateMutability": "view",
      "type": "function"
    },
    {
      "inputs": [
        {
          "internalType": "address payable",
          "name": "account",
          "type": "address"
        }
      ],
      "name": "release",
      "outputs": [],
      "stateMutability": "nonpayable",
      "type": "function"
    },
    {
      "inputs": [
        {
          "internalType": "contract IERC20",
          "name": "token",
          "type": "address"
        },
        {
          "internalType": "address",
          "name": "account",
          "type": "address"
        }
      ],
      "name": "release",
      "outputs": [],
      "stateMutability": "nonpayable",
      "type": "function"
    },
    {
      "inputs": [],
      "name": "releaseAll",
      "outputs": [],
      "stateMutability": "nonpayable",
      "type": "function"
    },
    {
      "inputs": [
        {
          "internalType": "contract IERC20",
          "name": "token",
          "type": "address"
        }
      ],
      "name": "releaseAllERC20",
      "outputs": [],
      "stateMutability": "nonpayable",
      "type": "function"
    },
    {
      "inputs": [
        {
          "internalType": "contract IERC20",
          "name": "token",
          "type": "address"
        },
        {
          "internalType": "address",
          "name": "account",
          "type": "address"
        }
      ],
      "name": "released",
      "outputs": [
        {
          "internalType": "uint256",
          "name": "",
          "type": "uint256"
        }
      ],
      "stateMutability": "view",
      "type": "function"
    },
    {
      "inputs": [
        {
          "internalType": "address",
          "name": "account",
          "type": "address"
        }
      ],
      "name": "released",
      "outputs": [
        {
          "internalType": "uint256",
          "name": "",
          "type": "uint256"
        }
      ],
      "stateMutability": "view",
      "type": "function"
    },
    {
      "inputs": [],
      "name": "renounceOwnership",
      "outputs": [],
      "stateMutability": "nonpayable",
      "type": "function"
    },
    {
      "inputs": [
        {
          "internalType": "address",
          "name": "account",
          "type": "address"
        }
      ],
      "name": "shares",
      "outputs": [
        {
          "internalType": "uint256",
          "name": "",
          "type": "uint256"
        }
      ],
      "stateMutability": "view",
      "type": "function"
    },
    {
      "inputs": [
        {
          "internalType": "contract IERC20",
          "name": "token",
          "type": "address"
        }
      ],
      "name": "totalReleased",
      "outputs": [
        {
          "internalType": "uint256",
          "name": "",
          "type": "uint256"
        }
      ],
      "stateMutability": "view",
      "type": "function"
    },
    {
      "inputs": [],
      "name": "totalReleased",
      "outputs": [
        {
          "internalType": "uint256",
          "name": "",
          "type": "uint256"
        }
      ],
      "stateMutability": "view",
      "type": "function"
    },
    {
      "inputs": [],
      "name": "totalShares",
      "outputs": [
        {
          "internalType": "uint256",
          "name": "",
          "type": "uint256"
        }
      ],
      "stateMutability": "view",
      "type": "function"
    },
    {
      "inputs": [
        {
          "internalType": "address",
          "name": "newOwner",
          "type": "address"
        }
      ],
      "name": "transferOwnership",
      "outputs": [],
      "stateMutability": "nonpayable",
      "type": "function"
    },
    {
      "inputs": [],
      "name": "unpause",
      "outputs": [],
      "stateMutability": "nonpayable",
      "type": "function"
    },
    {
      "inputs": [],
      "name": "version",
      "outputs": [
        {
          "internalType": "string",
          "name": "",
          "type": "string"
        }
      ],
      "stateMutability": "pure",
      "type": "function"
    },
    {
      "stateMutability": "payable",
      "type": "receive"
    }
  ],
  "bytecode": "0x60806040523480156200001157600080fd5b506040516200208b3803806200208b833981016040819052620000349162000551565b81818051825114620000a85760405162461bcd60e51b815260206004820152603260248201527f5061796d656e7453706c69747465723a2070617965657320616e6420736861726044820152710cae640d8cadccee8d040dad2e6dac2e8c6d60731b60648201526084015b60405180910390fd5b6000825111620000fb5760405162461bcd60e51b815260206004820152601a60248201527f5061796d656e7453706c69747465723a206e6f2070617965657300000000000060448201526064016200009f565b60005b82518110156200016757620001528382815181106200012157620001216200062f565b60200260200101518383815181106200013e576200013e6200062f565b60200260200101516200023160201b60201c565b806200015e816200065b565b915050620000fe565b50506007805460ff1916905550600160085562000184336200041d565b6000825111620001cc5760405162461bcd60e51b8152602060048201526012602482015271139bc81c185e59595cc81c1c9bdd9a59195960721b60448201526064016200009f565b8051825114620002295760405162461bcd60e51b815260206004820152602160248201527f50617965657320616e6420736861726573206c656e677468206d69736d6174636044820152600d60fb1b60648201526084016200009f565b505062000693565b6001600160a01b0382166200029e5760405162461bcd60e51b815260206004820152602c60248201527f5061796d656e7453706c69747465723a206163636f756e74206973207468652060448201526b7a65726f206164647265737360a01b60648201526084016200009f565b60008111620002f05760405162461bcd60e51b815260206004820152601d60248201527f5061796d656e7453706c69747465723a2073686172657320617265203000000060448201526064016200009f565b6001600160a01b038216600090815260026020526040902054156200036c5760405162461bcd60e51b815260206004820152602b60248201527f5061796d656e7453706c69747465723a206163636f756e7420616c726561647960448201526a206861732073686172657360a81b60648201526084016200009f565b60048054600181019091557f8a35acfbc15ff81a39ae7d344fd709f28e8600b4aa8c65c6b64bfe7fe36bd19b0180546001600160a01b0319166001600160a01b038416908117909155600090815260026020526040812082905554620003d490829062000677565b600055604080516001600160a01b0384168152602081018390527f40c340f65e17194d14ddddb073d3c9f888e3cb52b5aae0c6c7706b4fbc905fac910160405180910390a15050565b600980546001600160a01b038381166001600160a01b0319831681179093556040519116919082907f8be0079c531659141344cd1fd0a4f28419497f9722a3daafe3b4186f6b6457e090600090a35050565b634e487b7160e01b600052604160045260246000fd5b604051601f8201601f191681016001600160401b0381118282101715620004b057620004b06200046f565b604052919050565b60006001600160401b03821115620004d457620004d46200046f565b5060051b60200190565b600082601f830112620004f057600080fd5b81516020620005096200050383620004b8565b62000485565b82815260059290921b840181019181810190868411156200052957600080fd5b8286015b848110156200054657805183529183019183016200052d565b509695505050505050565b600080604083850312156200056557600080fd5b82516001600160401b03808211156200057d57600080fd5b818501915085601f8301126200059257600080fd5b81516020620005a56200050383620004b8565b82815260059290921b84018101918181019089841115620005c557600080fd5b948201945b83861015620005fc5785516001600160a01b0381168114620005ec5760008081fd5b82529482019490820190620005ca565b918801519196509093505050808211156200061657600080fd5b506200062585828601620004de565b9150509250929050565b634e487b7160e01b600052603260045260246000fd5b634e487b7160e01b600052601160045260246000fd5b60006001820162000670576200067062000645565b5060010190565b808201808211156200068d576200068d62000645565b92915050565b6119e880620006a36000396000f3fe6080604052600436106101855760003560e01c80638da5cb5b116100d1578063ce7c2ac21161008a578063e33b7de311610064578063e33b7de31461051f578063f1a8c96814610534578063f2fde38b14610569578063fa68fdb41461058957600080fd5b8063ce7c2ac214610493578063d79779b2146104c9578063df2c49c6146104ff57600080fd5b80638da5cb5b146103ad5780639852595c146103cb578063a261ca9514610401578063a3f8eace14610414578063c45ac05014610434578063c59d48471461045457600080fd5b806348b750441161013e5780635c975abb116101185780635c975abb14610328578063715018a61461034b5780638456cb59146103605780638b83209b1461037557600080fd5b806348b75044146102d157806354fd4d50146102f15780635be7fde81461031357600080fd5b806319165587146102145780632b09acf3146102345780633a98ef39146102675780633f4ba83a1461027c578063406072a91461029157806342fa171f146102b157600080fd5b3661020f576101926105a9565b61019a6105f1565b600034116101c35760405162461bcd60e51b81526004016101ba906115f3565b60405180910390fd5b6040805134815260006020820181905291829133917f8fa4d3293ac90aa2a8dc4c04a0a873a36a4c4b73ace8ce0679c11e15c2f1b84e910160405180910390a461020d6001600855565b005b600080fd5b34801561022057600080fd5b5061020d61022f36600461164e565b61064a565b34801561024057600080fd5b5061025461024f36600461166b565b610731565b6040519081526020015b60405180910390f35b34801561027357600080fd5b50600054610254565b34801561028857600080fd5b5061020d610746565b34801561029d57600080fd5b506102546102ac36600461166b565b610756565b3480156102bd57600080fd5b5061020d6102cc36600461164e565b610781565b3480156102dd57600080fd5b5061020d6102ec36600461166b565b610858565b3480156102fd57600080fd5b50610306610969565b60405161025e91906116c8565b34801561031f57600080fd5b5061020d610989565b34801561033457600080fd5b5060075460ff16604051901515815260200161025e565b34801561035757600080fd5b5061020d610a35565b34801561036c57600080fd5b5061020d610a47565b34801561038157600080fd5b506103956103903660046116fb565b610a57565b6040516001600160a01b03909116815260200161025e565b3480156103b957600080fd5b506009546001600160a01b0316610395565b3480156103d757600080fd5b506102546103e636600461164e565b6001600160a01b031660009081526003602052604090205490565b61020d61040f366004611714565b610a87565b34801561042057600080fd5b5061025461042f36600461164e565b610b05565b34801561044057600080fd5b5061025461044f36600461166b565b610b4d565b34801561046057600080fd5b50610469610bf3565b6040805195865260208601949094529284019190915260608301521515608082015260a00161025e565b34801561049f57600080fd5b506102546104ae36600461164e565b6001600160a01b031660009081526002602052604090205490565b3480156104d557600080fd5b506102546104e436600461164e565b6001600160a01b031660009081526005602052604090205490565b34801561050b57600080fd5b5061025461051a36600461164e565b610c33565b34801561052b57600080fd5b50600154610254565b34801561054057600080fd5b5061055461054f36600461164e565b610c3e565b6040805192835260208301919091520161025e565b34801561057557600080fd5b5061020d61058436600461164e565b610cf7565b34801561059557600080fd5b5061020d6105a4366004611736565b610d6d565b60075460ff16156105ef5760405162461bcd60e51b815260206004820152601060248201526f14185d5cd8589b194e881c185d5cd95960821b60448201526064016101ba565b565b6002600854036106435760405162461bcd60e51b815260206004820152601f60248201527f5265656e7472616e637947756172643a207265656e7472616e742063616c6c0060448201526064016101ba565b6002600855565b6001600160a01b03811660009081526002602052604090205461067f5760405162461bcd60e51b81526004016101ba90611771565b600061068a82610b05565b9050806000036106ac5760405162461bcd60e51b81526004016101ba906117b7565b80600160008282546106be9190611818565b90915550506001600160a01b03821660009081526003602052604090208054820190556106eb8282610e88565b604080516001600160a01b0384168152602081018390527fdf20fd1e76bc69d672e4814fafb2c449bba3a5369d8359adf9e05e6fde87b056910160405180910390a15050565b600061073d8383610fa6565b90505b92915050565b61074e61109b565b6105ef6110f5565b6001600160a01b03918216600090815260066020908152604080832093909416825291909152205490565b6107896105f1565b6001600160a01b0381166107af5760405162461bcd60e51b81526004016101ba9061182b565b60006107b9611147565b9050600081116108025760405162461bcd60e51b81526020600482015260146024820152734e6f2070617965657320746f2072656c6561736560601b60448201526064016101ba565b60005b81811015610849576000610818826111c0565b905060006108268583610fa6565b1115610836576108368482610858565b50806108418161185a565b915050610805565b50506108556001600855565b50565b6001600160a01b03811660009081526002602052604090205461088d5760405162461bcd60e51b81526004016101ba90611771565b60006108998383610b4d565b9050806000036108bb5760405162461bcd60e51b81526004016101ba906117b7565b6001600160a01b038316600090815260056020526040812080548392906108e3908490611818565b90915550506001600160a01b03808416600090815260066020908152604080832093861683529290522080548201905561091e8383836111cb565b604080516001600160a01b038481168252602082018490528516917f3be5b7a71e84ed12875d241991c70855ac5817d847039e17a9d895c1ceb0f18a910160405180910390a2505050565b60606040518060a001604052806069815260200161194a60699139905090565b6109916105f1565b600061099b611147565b9050600081116109e45760405162461bcd60e51b81526020600482015260146024820152734e6f2070617965657320746f2072656c6561736560601b60448201526064016101ba565b60005b81811015610a295760006109fa826111c0565b90506000610a078261122e565b1115610a1657610a168161064a565b5080610a218161185a565b9150506109e7565b50506105ef6001600855565b610a3d61109b565b6105ef60006112c0565b610a4f61109b565b6105ef611312565b600060048281548110610a6c57610a6c611873565b6000918252602090912001546001600160a01b031692915050565b610a8f6105a9565b610a976105f1565b60003411610ab75760405162461bcd60e51b81526004016101ba906115f3565b6040805134815260208101839052839160009133917f8fa4d3293ac90aa2a8dc4c04a0a873a36a4c4b73ace8ce0679c11e15c2f1b84e910160405180910390a4610b016001600855565b5050565b600080610b1160015490565b610b1b9047611818565b9050610b468382610b41866001600160a01b031660009081526003602052604090205490565b61134f565b9392505050565b6001600160a01b03821660009081526005602052604081205481906040516370a0823160e01b81523060048201526001600160a01b038616906370a0823190602401602060405180830381865afa158015610bac573d6000803e3d6000fd5b505050506040513d601f19601f82011682018060405250810190610bd09190611889565b610bda9190611818565b9050610beb8382610b418787610756565b949350505050565b6000806000806000610c03611147565b9450610c0e60005490565b9350479250610c1c60015490565b9150610c2a60075460ff1690565b90509091929394565b60006107408261122e565b6000806001600160a01b038316610c675760405162461bcd60e51b81526004016101ba9061182b565b6040516370a0823160e01b81523060048201526001600160a01b038416906370a0823190602401602060405180830381865afa158015610cab573d6000803e3d6000fd5b505050506040513d601f19601f82011682018060405250810190610ccf9190611889565b9150610cf0836001600160a01b031660009081526005602052604090205490565b9050915091565b610cff61109b565b6001600160a01b038116610d645760405162461bcd60e51b815260206004820152602660248201527f4f776e61626c653a206e6577206f776e657220697320746865207a65726f206160448201526564647265737360d01b60648201526084016101ba565b610855816112c0565b610d756105a9565b610d7d6105f1565b6001600160a01b038416610da35760405162461bcd60e51b81526004016101ba9061182b565b60008311610dc35760405162461bcd60e51b81526004016101ba906115f3565b306001600160a01b03851603610e1b5760405162461bcd60e51b815260206004820152601d60248201527f43616e6e6f7420646f6e61746520636f6e747261637420697473656c6600000060448201526064016101ba565b610e306001600160a01b03851633308661138a565b604080518481526020810183905283916001600160a01b0387169133917f8fa4d3293ac90aa2a8dc4c04a0a873a36a4c4b73ace8ce0679c11e15c2f1b84e910160405180910390a4610e826001600855565b50505050565b80471015610ed85760405162461bcd60e51b815260206004820152601d60248201527f416464726573733a20696e73756666696369656e742062616c616e636500000060448201526064016101ba565b6000826001600160a01b03168260405160006040518083038185875af1925050503d8060008114610f25576040519150601f19603f3d011682016040523d82523d6000602084013e610f2a565b606091505b5050905080610fa15760405162461bcd60e51b815260206004820152603a60248201527f416464726573733a20756e61626c6520746f2073656e642076616c75652c207260448201527f6563697069656e74206d6179206861766520726576657274656400000000000060648201526084016101ba565b505050565b6001600160a01b03821660009081526005602052604081205481906040516370a0823160e01b81523060048201526001600160a01b038616906370a0823190602401602060405180830381865afa158015611005573d6000803e3d6000fd5b505050506040513d601f19601f820116820180604052508101906110299190611889565b6110339190611818565b90506000611056846001600160a01b031660009081526002602052604090205490565b9050600061106360005490565b905060006110718787610756565b8261107c85876118a2565b61108691906118b9565b61109091906118db565b979650505050505050565b6009546001600160a01b031633146105ef5760405162461bcd60e51b815260206004820181905260248201527f4f776e61626c653a2063616c6c6572206973206e6f7420746865206f776e657260448201526064016101ba565b6110fd6113c2565b6007805460ff191690557f5db9ee0a495bf2e6ff9c91a7834c1ba4fdd244a5e8aa4e537bd38aeae4b073aa335b6040516001600160a01b03909116815260200160405180910390a1565b6000805b604051638b83209b60e01b8152600481018290523090638b83209b90602401602060405180830381865afa9250505080156111a3575060408051601f3d908101601f191682019092526111a0918101906118ee565b60015b156111bb57816111b28161185a565b9250505061114b565b919050565b600061074082610a57565b6040516001600160a01b038316602482015260448101829052610fa190849063a9059cbb60e01b906064015b60408051601f198184030181529190526020810180516001600160e01b03166001600160e01b03199093169290921790915261140b565b60008061123a60015490565b6112449047611818565b90506000611267846001600160a01b031660009081526002602052604090205490565b9050600061127460005490565b90506000611297866001600160a01b031660009081526003602052604090205490565b826112a285876118a2565b6112ac91906118b9565b6112b691906118db565b9695505050505050565b600980546001600160a01b038381166001600160a01b0319831681179093556040519116919082907f8be0079c531659141344cd1fd0a4f28419497f9722a3daafe3b4186f6b6457e090600090a35050565b61131a6105a9565b6007805460ff191660011790557f62e78cea01bee320cd4e420270b5ea74000d11b0c9f74754ebdbfc544b05a25861112a3390565b600080546001600160a01b03851682526002602052604082205483919061137690866118a2565b61138091906118b9565b610beb91906118db565b6040516001600160a01b0380851660248301528316604482015260648101829052610e829085906323b872dd60e01b906084016111f7565b60075460ff166105ef5760405162461bcd60e51b815260206004820152601460248201527314185d5cd8589b194e881b9bdd081c185d5cd95960621b60448201526064016101ba565b6000611460826040518060400160405280602081526020017f5361666545524332303a206c6f772d6c6576656c2063616c6c206661696c6564815250856001600160a01b03166114e09092919063ffffffff16565b9050805160001480611481575080806020019051810190611481919061190b565b610fa15760405162461bcd60e51b815260206004820152602a60248201527f5361666545524332303a204552433230206f7065726174696f6e20646964206e6044820152691bdd081cdd58d8d9595960b21b60648201526084016101ba565b6060610beb848460008585600080866001600160a01b03168587604051611507919061192d565b60006040518083038185875af1925050503d8060008114611544576040519150601f19603f3d011682016040523d82523d6000602084013e611549565b606091505b509150915061109087838387606083156115c45782516000036115bd576001600160a01b0385163b6115bd5760405162461bcd60e51b815260206004820152601d60248201527f416464726573733a2063616c6c20746f206e6f6e2d636f6e747261637400000060448201526064016101ba565b5081610beb565b610beb83838151156115d95781518083602001fd5b8060405162461bcd60e51b81526004016101ba91906116c8565b60208082526026908201527f446f6e6174696f6e20616d6f756e74206d75737420626520677265617465722060408201526507468616e20360d41b606082015260800190565b6001600160a01b038116811461085557600080fd5b60006020828403121561166057600080fd5b8135610b4681611639565b6000806040838503121561167e57600080fd5b823561168981611639565b9150602083013561169981611639565b809150509250929050565b60005b838110156116bf5781810151838201526020016116a7565b50506000910152565b60208152600082518060208401526116e78160408501602087016116a4565b601f01601f19169190910160400192915050565b60006020828403121561170d57600080fd5b5035919050565b6000806040838503121561172757600080fd5b50508035926020909101359150565b6000806000806080858703121561174c57600080fd5b843561175781611639565b966020860135965060408601359560600135945092505050565b60208082526026908201527f5061796d656e7453706c69747465723a206163636f756e7420686173206e6f2060408201526573686172657360d01b606082015260800190565b6020808252602b908201527f5061796d656e7453706c69747465723a206163636f756e74206973206e6f742060408201526a191d59481c185e5b595b9d60aa1b606082015260800190565b634e487b7160e01b600052601160045260246000fd5b8082018082111561074057610740611802565b602080825260159082015274496e76616c696420746f6b656e206164647265737360581b604082015260600190565b60006001820161186c5761186c611802565b5060010190565b634e487b7160e01b600052603260045260246000fd5b60006020828403121561189b57600080fd5b5051919050565b808202811582820484141761074057610740611802565b6000826118d657634e487b7160e01b600052601260045260246000fd5b500490565b8181038181111561074057610740611802565b60006020828403121561190057600080fd5b8151610b4681611639565b60006020828403121561191d57600080fd5b81518015158114610b4657600080fd5b6000825161193f8184602087016116a4565b919091019291505056fe476966746572726150617953706c69747465722076312e302e31202d205061796d656e74205265636569766572202b20446973747269627574696f6e202b204576656e7420456d69747465722028536f6c696469747920436f6d706c69616e63652055706461746529a2646970667358221220f79dbad01b66a5585edd9cdfa9b475c276b5906abbb942a8a2e6eb7ff4c67dc264736f6c63430008140033",
  "linkReferences": {},
  "deployedLinkReferences": {}
}