{
  "_format": "hh-sol-artifact-1",
  "contractName": "RewardNFT_v2",
  "sourceName": "contracts/RewardNFT_v2.sol",
  "abi": [
    {
      "inputs": [
        {
          "internalType": "string",
          "name": "name",
          "type": "string"
        },
        {
          "internalType": "string",
          "name": "symbol",
          "type": "string"
        },
        {
          "internalType": "string",
          "name": "baseURI",
          "type": "string"
        },
        {
          "internalType": "address",
          "name": "owner",
          "type": "address"
        },
        {
          "internalType": "address",
          "name": "_distributorAddress",
          "type": "address"
        },
        {
          "internalType": "uint256",
          "name": "_maxSupply",
          "type": "uint256"
        },
        {
          "internalType": "uint256",
          "name": "_mintPrice",
          "type": "uint256"
        }
      ],
      "stateMutability": "nonpayable",
      "type": "constructor"
    },
    {
      "anonymous": false,
      "inputs": [
        {
          "indexed": true,
          "internalType": "address",
          "name": "owner",
          "type": "address"
        },
        {
          "indexed": true,
          "internalType": "address",
          "name": "approved",
          "type": "address"
        },
        {
          "indexed": true,
          "internalType": "uint256",
          "name": "tokenId",
          "type": "uint256"
        }
      ],
      "name": "Approval",
      "type": "event"
    },
    {
      "anonymous": false,
      "inputs": [
        {
          "indexed": true,
          "internalType": "address",
          "name": "owner",
          "type": "address"
        },
        {
          "indexed": true,
          "internalType": "address",
          "name": "operator",
          "type": "address"
        },
        {
          "indexed": false,
          "internalType": "bool",
          "name": "approved",
          "type": "bool"
        }
      ],
      "name": "ApprovalForAll",
      "type": "event"
    },
    {
      "anonymous": false,
      "inputs": [
        {
          "indexed": true,
          "internalType": "address",
          "name": "distributor",
          "type": "address"
        },
        {
          "indexed": true,
          "internalType": "address",
          "name": "recipient",
          "type": "address"
        },
        {
          "indexed": true,
          "internalType": "uint256",
          "name": "tokenId",
          "type": "uint256"
        },
        {
          "indexed": false,
          "internalType": "bytes32",
          "name": "triggerId",
          "type": "bytes32"
        }
      ],
      "name": "AutomaticDistribution",
      "type": "event"
    },
    {
      "anonymous": false,
      "inputs": [
        {
          "indexed": false,
          "internalType": "bool",
          "name": "enabled",
          "type": "bool"
        }
      ],
      "name": "BaseURICompositionModeChanged",
      "type": "event"
    },
    {
      "anonymous": false,
      "inputs": [
        {
          "indexed": false,
          "internalType": "uint256",
          "name": "_fromTokenId",
          "type": "uint256"
        },
        {
          "indexed": false,
          "internalType": "uint256",
          "name": "_toTokenId",
          "type": "uint256"
        }
      ],
      "name": "BatchMetadataUpdate",
      "type": "event"
    },
    {
      "anonymous": false,
      "inputs": [
        {
          "indexed": true,
          "internalType": "address",
          "name": "oldDistributor",
          "type": "address"
        },
        {
          "indexed": true,
          "internalType": "address",
          "name": "newDistributor",
          "type": "address"
        }
      ],
      "name": "DistributorUpdated",
      "type": "event"
    },
    {
      "anonymous": false,
      "inputs": [
        {
          "indexed": false,
          "internalType": "uint256",
          "name": "newMaxSupply",
          "type": "uint256"
        }
      ],
      "name": "MaxSupplyUpdated",
      "type": "event"
    },
    {
      "anonymous": false,
      "inputs": [
        {
          "indexed": false,
          "internalType": "uint256",
          "name": "_tokenId",
          "type": "uint256"
        }
      ],
      "name": "MetadataUpdate",
      "type": "event"
    },
    {
      "anonymous": false,
      "inputs": [
        {
          "indexed": false,
          "internalType": "uint256",
          "name": "newPrice",
          "type": "uint256"
        }
      ],
      "name": "MintPriceUpdated",
      "type": "event"
    },
    {
      "anonymous": false,
      "inputs": [
        {
          "indexed": false,
          "internalType": "address",
          "name": "account",
          "type": "address"
        }
      ],
      "name": "Paused",
      "type": "event"
    },
    {
      "anonymous": false,
      "inputs": [
        {
          "indexed": false,
          "internalType": "bool",
          "name": "enabled",
          "type": "bool"
        }
      ],
      "name": "PublicMintStatusChanged",
      "type": "event"
    },
    {
      "anonymous": false,
      "inputs": [
        {
          "indexed": false,
          "internalType": "address",
          "name": "recipient",
          "type": "address"
        },
        {
          "indexed": false,
          "internalType": "uint256",
          "name": "amount",
          "type": "uint256"
        }
      ],
      "name": "RevenueWithdrawn",
      "type": "event"
    },
    {
      "anonymous": false,
      "inputs": [
        {
          "indexed": true,
          "internalType": "bytes32",
          "name": "role",
          "type": "bytes32"
        },
        {
          "indexed": true,
          "internalType": "bytes32",
          "name": "previousAdminRole",
          "type": "bytes32"
        },
        {
          "indexed": true,
          "internalType": "bytes32",
          "name": "newAdminRole",
          "type": "bytes32"
        }
      ],
      "name": "RoleAdminChanged",
      "type": "event"
    },
    {
      "anonymous": false,
      "inputs": [
        {
          "indexed": true,
          "internalType": "bytes32",
          "name": "role",
          "type": "bytes32"
        },
        {
          "indexed": true,
          "internalType": "address",
          "name": "account",
          "type": "address"
        },
        {
          "indexed": true,
          "internalType": "address",
          "name": "sender",
          "type": "address"
        }
      ],
      "name": "RoleGranted",
      "type": "event"
    },
    {
      "anonymous": false,
      "inputs": [
        {
          "indexed": true,
          "internalType": "bytes32",
          "name": "role",
          "type": "bytes32"
        },
        {
          "indexed": true,
          "internalType": "address",
          "name": "account",
          "type": "address"
        },
        {
          "indexed": true,
          "internalType": "address",
          "name": "sender",
          "type": "address"
        }
      ],
      "name": "RoleRevoked",
      "type": "event"
    },
    {
      "anonymous": false,
      "inputs": [
        {
          "indexed": true,
          "internalType": "address",
          "name": "to",
          "type": "address"
        },
        {
          "indexed": true,
          "internalType": "uint256",
          "name": "tokenId",
          "type": "uint256"
        },
        {
          "indexed": false,
          "internalType": "string",
          "name": "tokenURI",
          "type": "string"
        },
        {
          "indexed": false,
          "internalType": "enum RewardNFT_v2.DistributionType",
          "name": "distributionType",
          "type": "uint8"
        }
      ],
      "name": "TokenMinted",
      "type": "event"
    },
    {
      "anonymous": false,
      "inputs": [
        {
          "indexed": true,
          "internalType": "uint256",
          "name": "tokenId",
          "type": "uint256"
        },
        {
          "indexed": false,
          "internalType": "string",
          "name": "newURI",
          "type": "string"
        }
      ],
      "name": "TokenRevealed",
      "type": "event"
    },
    {
      "anonymous": false,
      "inputs": [
        {
          "indexed": true,
          "internalType": "address",
          "name": "from",
          "type": "address"
        },
        {
          "indexed": true,
          "internalType": "address",
          "name": "to",
          "type": "address"
        },
        {
          "indexed": true,
          "internalType": "uint256",
          "name": "tokenId",
          "type": "uint256"
        }
      ],
      "name": "Transfer",
      "type": "event"
    },
    {
      "anonymous": false,
      "inputs": [
        {
          "indexed": false,
          "internalType": "address",
          "name": "account",
          "type": "address"
        }
      ],
      "name": "Unpaused",
      "type": "event"
    },
    {
      "inputs": [],
      "name": "DEFAULT_ADMIN_ROLE",
      "outputs": [
        {
          "internalType": "bytes32",
          "name": "",
          "type": "bytes32"
        }
      ],
      "stateMutability": "view",
      "type": "function"
    },
    {
      "inputs": [],
      "name": "DISTRIBUTOR_ROLE",
      "outputs": [
        {
          "internalType": "bytes32",
          "name": "",
          "type": "bytes32"
        }
      ],
      "stateMutability": "view",
      "type": "function"
    },
    {
      "inputs": [],
      "name": "MINTER_ROLE",
      "outputs": [
        {
          "internalType": "bytes32",
          "name": "",
          "type": "bytes32"
        }
      ],
      "stateMutability": "view",
      "type": "function"
    },
    {
      "inputs": [],
      "name": "PAUSER_ROLE",
      "outputs": [
        {
          "internalType": "bytes32",
          "name": "",
          "type": "bytes32"
        }
      ],
      "stateMutability": "view",
      "type": "function"
    },
    {
      "inputs": [],
      "name": "REVEALER_ROLE",
      "outputs": [
        {
          "internalType": "bytes32",
          "name": "",
          "type": "bytes32"
        }
      ],
      "stateMutability": "view",
      "type": "function"
    },
    {
      "inputs": [
        {
          "internalType": "address",
          "name": "to",
          "type": "address"
        },
        {
          "internalType": "uint256",
          "name": "tokenId",
          "type": "uint256"
        }
      ],
      "name": "approve",
      "outputs": [],
      "stateMutability": "nonpayable",
      "type": "function"
    },
    {
      "inputs": [],
      "name": "automaticDistributionCount",
      "outputs": [
        {
          "internalType": "uint256",
          "name": "",
          "type": "uint256"
        }
      ],
      "stateMutability": "view",
      "type": "function"
    },
    {
      "inputs": [
        {
          "internalType": "address",
          "name": "owner",
          "type": "address"
        }
      ],
      "name": "balanceOf",
      "outputs": [
        {
          "internalType": "uint256",
          "name": "",
          "type": "uint256"
        }
      ],
      "stateMutability": "view",
      "type": "function"
    },
    {
      "inputs": [
        {
          "internalType": "address",
          "name": "to",
          "type": "address"
        },
        {
          "internalType": "string",
          "name": "tokenURI",
          "type": "string"
        },
        {
          "internalType": "bytes32",
          "name": "triggerId",
          "type": "bytes32"
        }
      ],
      "name": "distributeMint",
      "outputs": [
        {
          "internalType": "uint256",
          "name": "",
          "type": "uint256"
        }
      ],
      "stateMutability": "nonpayable",
      "type": "function"
    },
    {
      "inputs": [
        {
          "internalType": "address[]",
          "name": "recipients",
          "type": "address[]"
        },
        {
          "internalType": "string[]",
          "name": "tokenURIs",
          "type": "string[]"
        },
        {
          "internalType": "bytes32",
          "name": "triggerId",
          "type": "bytes32"
        }
      ],
      "name": "distributeMintBatch",
      "outputs": [
        {
          "internalType": "uint256[]",
          "name": "",
          "type": "uint256[]"
        }
      ],
      "stateMutability": "nonpayable",
      "type": "function"
    },
    {
      "inputs": [
        {
          "internalType": "address[]",
          "name": "recipients",
          "type": "address[]"
        },
        {
          "internalType": "bytes32",
          "name": "sku",
          "type": "bytes32"
        },
        {
          "internalType": "bytes32",
          "name": "triggerId",
          "type": "bytes32"
        }
      ],
      "name": "distributeMintBatchBySku",
      "outputs": [
        {
          "internalType": "uint256[]",
          "name": "",
          "type": "uint256[]"
        }
      ],
      "stateMutability": "nonpayable",
      "type": "function"
    },
    {
      "inputs": [
        {
          "internalType": "address",
          "name": "to",
          "type": "address"
        },
        {
          "internalType": "bytes32",
          "name": "sku",
          "type": "bytes32"
        },
        {
          "internalType": "bytes32",
          "name": "triggerId",
          "type": "bytes32"
        }
      ],
      "name": "distributeMintBySku",
      "outputs": [
        {
          "internalType": "uint256",
          "name": "",
          "type": "uint256"
        }
      ],
      "stateMutability": "nonpayable",
      "type": "function"
    },
    {
      "inputs": [
        {
          "internalType": "uint256",
          "name": "",
          "type": "uint256"
        }
      ],
      "name": "distributionRecords",
      "outputs": [
        {
          "internalType": "address",
          "name": "recipient",
          "type": "address"
        },
        {
          "internalType": "uint256",
          "name": "tokenId",
          "type": "uint256"
        },
        {
          "internalType": "uint256",
          "name": "timestamp",
          "type": "uint256"
        },
        {
          "internalType": "enum RewardNFT_v2.DistributionType",
          "name": "distributionType",
          "type": "uint8"
        },
        {
          "internalType": "bytes32",
          "name": "triggerId",
          "type": "bytes32"
        }
      ],
      "stateMutability": "view",
      "type": "function"
    },
    {
      "inputs": [],
      "name": "distributorAddress",
      "outputs": [
        {
          "internalType": "address",
          "name": "",
          "type": "address"
        }
      ],
      "stateMutability": "view",
      "type": "function"
    },
    {
      "inputs": [
        {
          "internalType": "uint256",
          "name": "tokenId",
          "type": "uint256"
        }
      ],
      "name": "getApproved",
      "outputs": [
        {
          "internalType": "address",
          "name": "",
          "type": "address"
        }
      ],
      "stateMutability": "view",
      "type": "function"
    },
    {
      "inputs": [
        {
          "internalType": "uint256",
          "name": "tokenId",
          "type": "uint256"
        }
      ],
      "name": "getDistributionRecord",
      "outputs": [
        {
          "components": [
            {
              "internalType": "address",
              "name": "recipient",
              "type": "address"
            },
            {
              "internalType": "uint256",
              "name": "tokenId",
              "type": "uint256"
            },
            {
              "internalType": "uint256",
              "name": "timestamp",
              "type": "uint256"
            },
            {
              "internalType": "enum RewardNFT_v2.DistributionType",
              "name": "distributionType",
              "type": "uint8"
            },
            {
              "internalType": "bytes32",
              "name": "triggerId",
              "type": "bytes32"
            }
          ],
          "internalType": "struct RewardNFT_v2.DistributionRecord",
          "name": "",
          "type": "tuple"
        }
      ],
      "stateMutability": "view",
      "type": "function"
    },
    {
      "inputs": [],
      "name": "getDistributionStats",
      "outputs": [
        {
          "internalType": "uint256",
          "name": "total",
          "type": "uint256"
        },
        {
          "internalType": "uint256",
          "name": "automatic",
          "type": "uint256"
        },
        {
          "internalType": "uint256",
          "name": "manual",
          "type": "uint256"
        },
        {
          "internalType": "uint256",
          "name": "currentSupply",
          "type": "uint256"
        }
      ],
      "stateMutability": "view",
      "type": "function"
    },
    {
      "inputs": [
        {
          "internalType": "bytes32",
          "name": "role",
          "type": "bytes32"
        }
      ],
      "name": "getRoleAdmin",
      "outputs": [
        {
          "internalType": "bytes32",
          "name": "",
          "type": "bytes32"
        }
      ],
      "stateMutability": "view",
      "type": "function"
    },
    {
      "inputs": [],
      "name": "getStats",
      "outputs": [
        {
          "internalType": "uint256",
          "name": "totalSupply",
          "type": "uint256"
        },
        {
          "internalType": "uint256",
          "name": "currentMaxSupply",
          "type": "uint256"
        },
        {
          "internalType": "uint256",
          "name": "currentMintPrice",
          "type": "uint256"
        },
        {
          "internalType": "uint256",
          "name": "revenue",
          "type": "uint256"
        },
        {
          "internalType": "bool",
          "name": "isPublicMintEnabled",
          "type": "bool"
        },
        {
          "internalType": "bool",
          "name": "isPaused",
          "type": "bool"
        },
        {
          "internalType": "address",
          "name": "currentDistributor",
          "type": "address"
        }
      ],
      "stateMutability": "view",
      "type": "function"
    },
    {
      "inputs": [
        {
          "internalType": "bytes32",
          "name": "role",
          "type": "bytes32"
        },
        {
          "internalType": "address",
          "name": "account",
          "type": "address"
        }
      ],
      "name": "grantRole",
      "outputs": [],
      "stateMutability": "nonpayable",
      "type": "function"
    },
    {
      "inputs": [
        {
          "internalType": "bytes32",
          "name": "role",
          "type": "bytes32"
        },
        {
          "internalType": "address",
          "name": "account",
          "type": "address"
        }
      ],
      "name": "hasRole",
      "outputs": [
        {
          "internalType": "bool",
          "name": "",
          "type": "bool"
        }
      ],
      "stateMutability": "view",
      "type": "function"
    },
    {
      "inputs": [
        {
          "internalType": "address",
          "name": "owner",
          "type": "address"
        },
        {
          "internalType": "address",
          "name": "operator",
          "type": "address"
        }
      ],
      "name": "isApprovedForAll",
      "outputs": [
        {
          "internalType": "bool",
          "name": "",
          "type": "bool"
        }
      ],
      "stateMutability": "view",
      "type": "function"
    },
    {
      "inputs": [
        {
          "internalType": "uint256",
          "name": "",
          "type": "uint256"
        }
      ],
      "name": "isRevealed",
      "outputs": [
        {
          "internalType": "bool",
          "name": "",
          "type": "bool"
        }
      ],
      "stateMutability": "view",
      "type": "function"
    },
    {
      "inputs": [],
      "name": "manualDistributionCount",
      "outputs": [
        {
          "internalType": "uint256",
          "name": "",
          "type": "uint256"
        }
      ],
      "stateMutability": "view",
      "type": "function"
    },
    {
      "inputs": [],
      "name": "maxMintPerAddress",
      "outputs": [
        {
          "internalType": "uint256",
          "name": "",
          "type": "uint256"
        }
      ],
      "stateMutability": "view",
      "type": "function"
    },
    {
      "inputs": [],
      "name": "maxSupply",
      "outputs": [
        {
          "internalType": "uint256",
          "name": "",
          "type": "uint256"
        }
      ],
      "stateMutability": "view",
      "type": "function"
    },
    {
      "inputs": [
        {
          "internalType": "address",
          "name": "to",
          "type": "address"
        },
        {
          "internalType": "string",
          "name": "tokenURI",
          "type": "string"
        }
      ],
      "name": "mint",
      "outputs": [
        {
          "internalType": "uint256",
          "name": "",
          "type": "uint256"
        }
      ],
      "stateMutability": "nonpayable",
      "type": "function"
    },
    {
      "inputs": [
        {
          "internalType": "address[]",
          "name": "recipients",
          "type": "address[]"
        },
        {
          "internalType": "string[]",
          "name": "tokenURIs",
          "type": "string[]"
        }
      ],
      "name": "mintBatch",
      "outputs": [],
      "stateMutability": "nonpayable",
      "type": "function"
    },
    {
      "inputs": [],
      "name": "mintPrice",
      "outputs": [
        {
          "internalType": "uint256",
          "name": "",
          "type": "uint256"
        }
      ],
      "stateMutability": "view",
      "type": "function"
    },
    {
      "inputs": [
        {
          "internalType": "address",
          "name": "",
          "type": "address"
        }
      ],
      "name": "mintedCount",
      "outputs": [
        {
          "internalType": "uint256",
          "name": "",
          "type": "uint256"
        }
      ],
      "stateMutability": "view",
      "type": "function"
    },
    {
      "inputs": [],
      "name": "name",
      "outputs": [
        {
          "internalType": "string",
          "name": "",
          "type": "string"
        }
      ],
      "stateMutability": "view",
      "type": "function"
    },
    {
      "inputs": [
        {
          "internalType": "uint256",
          "name": "tokenId",
          "type": "uint256"
        }
      ],
      "name": "ownerOf",
      "outputs": [
        {
          "internalType": "address",
          "name": "",
          "type": "address"
        }
      ],
      "stateMutability": "view",
      "type": "function"
    },
    {
      "inputs": [],
      "name": "pause",
      "outputs": [],
      "stateMutability": "nonpayable",
      "type": "function"
    },
    {
      "inputs": [],
      "name": "paused",
      "outputs": [
        {
          "internalType": "bool",
          "name": "",
          "type": "bool"
        }
      ],
      "stateMutability": "view",
      "type": "function"
    },
    {
      "inputs": [],
      "name": "preRevealURI",
      "outputs": [
        {
          "internalType": "string",
          "name": "",
          "type": "string"
        }
      ],
      "stateMutability": "view",
      "type": "function"
    },
    {
      "inputs": [
        {
          "internalType": "string",
          "name": "tokenURI",
          "type": "string"
        }
      ],
      "name": "publicMint",
      "outputs": [],
      "stateMutability": "payable",
      "type": "function"
    },
    {
      "inputs": [],
      "name": "publicMintEnabled",
      "outputs": [
        {
          "internalType": "bool",
          "name": "",
          "type": "bool"
        }
      ],
      "stateMutability": "view",
      "type": "function"
    },
    {
      "inputs": [
        {
          "internalType": "uint256",
          "name": "amount",
          "type": "uint256"
        },
        {
          "internalType": "bytes32",
          "name": "sku",
          "type": "bytes32"
        }
      ],
      "name": "publicMintV2",
      "outputs": [],
      "stateMutability": "payable",
      "type": "function"
    },
    {
      "inputs": [
        {
          "internalType": "bytes32",
          "name": "role",
          "type": "bytes32"
        },
        {
          "internalType": "address",
          "name": "account",
          "type": "address"
        }
      ],
      "name": "renounceRole",
      "outputs": [],
      "stateMutability": "nonpayable",
      "type": "function"
    },
    {
      "inputs": [
        {
          "internalType": "uint256",
          "name": "tokenId",
          "type": "uint256"
        },
        {
          "internalType": "string",
          "name": "newURI",
          "type": "string"
        }
      ],
      "name": "reveal",
      "outputs": [],
      "stateMutability": "nonpayable",
      "type": "function"
    },
    {
      "inputs": [
        {
          "internalType": "uint256[]",
          "name": "tokenIds",
          "type": "uint256[]"
        },
        {
          "internalType": "string[]",
          "name": "newURIs",
          "type": "string[]"
        }
      ],
      "name": "revealBatch",
      "outputs": [],
      "stateMutability": "nonpayable",
      "type": "function"
    },
    {
      "inputs": [
        {
          "internalType": "bytes32",
          "name": "role",
          "type": "bytes32"
        },
        {
          "internalType": "address",
          "name": "account",
          "type": "address"
        }
      ],
      "name": "revokeRole",
      "outputs": [],
      "stateMutability": "nonpayable",
      "type": "function"
    },
    {
      "inputs": [
        {
          "internalType": "uint256",
          "name": "tokenId",
          "type": "uint256"
        },
        {
          "internalType": "uint256",
          "name": "salePrice",
          "type": "uint256"
        }
      ],
      "name": "royaltyInfo",
      "outputs": [
        {
          "internalType": "address",
          "name": "",
          "type": "address"
        },
        {
          "internalType": "uint256",
          "name": "",
          "type": "uint256"
        }
      ],
      "stateMutability": "view",
      "type": "function"
    },
    {
      "inputs": [
        {
          "internalType": "address",
          "name": "from",
          "type": "address"
        },
        {
          "internalType": "address",
          "name": "to",
          "type": "address"
        },
        {
          "internalType": "uint256",
          "name": "tokenId",
          "type": "uint256"
        }
      ],
      "name": "safeTransferFrom",
      "outputs": [],
      "stateMutability": "nonpayable",
      "type": "function"
    },
    {
      "inputs": [
        {
          "internalType": "address",
          "name": "from",
          "type": "address"
        },
        {
          "internalType": "address",
          "name": "to",
          "type": "address"
        },
        {
          "internalType": "uint256",
          "name": "tokenId",
          "type": "uint256"
        },
        {
          "internalType": "bytes",
          "name": "data",
          "type": "bytes"
        }
      ],
      "name": "safeTransferFrom",
      "outputs": [],
      "stateMutability": "nonpayable",
      "type": "function"
    },
    {
      "inputs": [
        {
          "internalType": "address",
          "name": "operator",
          "type": "address"
        },
        {
          "internalType": "bool",
          "name": "approved",
          "type": "bool"
        }
      ],
      "name": "setApprovalForAll",
      "outputs": [],
      "stateMutability": "nonpayable",
      "type": "function"
    },
    {
      "inputs": [
        {
          "internalType": "string",
          "name": "newBaseURI",
          "type": "string"
        }
      ],
      "name": "setBaseURI",
      "outputs": [],
      "stateMutability": "nonpayable",
      "type": "function"
    },
    {
      "inputs": [
        {
          "internalType": "bool",
          "name": "enabled",
          "type": "bool"
        }
      ],
      "name": "setBaseURICompositionMode",
      "outputs": [],
      "stateMutability": "nonpayable",
      "type": "function"
    },
    {
      "inputs": [
        {
          "internalType": "address",
          "name": "recipient",
          "type": "address"
        },
        {
          "internalType": "uint96",
          "name": "feeNumerator",
          "type": "uint96"
        }
      ],
      "name": "setDefaultRoyalty",
      "outputs": [],
      "stateMutability": "nonpayable",
      "type": "function"
    },
    {
      "inputs": [
        {
          "internalType": "address",
          "name": "newDistributor",
          "type": "address"
        }
      ],
      "name": "setDistributor",
      "outputs": [],
      "stateMutability": "nonpayable",
      "type": "function"
    },
    {
      "inputs": [
        {
          "internalType": "uint256",
          "name": "newLimit",
          "type": "uint256"
        }
      ],
      "name": "setMaxMintPerAddress",
      "outputs": [],
      "stateMutability": "nonpayable",
      "type": "function"
    },
    {
      "inputs": [
        {
          "internalType": "uint256",
          "name": "newMaxSupply",
          "type": "uint256"
        }
      ],
      "name": "setMaxSupply",
      "outputs": [],
      "stateMutability": "nonpayable",
      "type": "function"
    },
    {
      "inputs": [
        {
          "internalType": "uint256",
          "name": "newPrice",
          "type": "uint256"
        }
      ],
      "name": "setMintPrice",
      "outputs": [],
      "stateMutability": "nonpayable",
      "type": "function"
    },
    {
      "inputs": [
        {
          "internalType": "string",
          "name": "newPreRevealURI",
          "type": "string"
        }
      ],
      "name": "setPreRevealURI",
      "outputs": [],
      "stateMutability": "nonpayable",
      "type": "function"
    },
    {
      "inputs": [
        {
          "internalType": "bool",
          "name": "enabled",
          "type": "bool"
        }
      ],
      "name": "setPublicMintEnabled",
      "outputs": [],
      "stateMutability": "nonpayable",
      "type": "function"
    },
    {
      "inputs": [
        {
          "internalType": "uint256",
          "name": "tokenId",
          "type": "uint256"
        },
        {
          "internalType": "address",
          "name": "recipient",
          "type": "address"
        },
        {
          "internalType": "uint96",
          "name": "feeNumerator",
          "type": "uint96"
        }
      ],
      "name": "setTokenRoyalty",
      "outputs": [],
      "stateMutability": "nonpayable",
      "type": "function"
    },
    {
      "inputs": [
        {
          "internalType": "bytes4",
          "name": "interfaceId",
          "type": "bytes4"
        }
      ],
      "name": "supportsInterface",
      "outputs": [
        {
          "internalType": "bool",
          "name": "",
          "type": "bool"
        }
      ],
      "stateMutability": "view",
      "type": "function"
    },
    {
      "inputs": [],
      "name": "symbol",
      "outputs": [
        {
          "internalType": "string",
          "name": "",
          "type": "string"
        }
      ],
      "stateMutability": "view",
      "type": "function"
    },
    {
      "inputs": [
        {
          "internalType": "uint256",
          "name": "",
          "type": "uint256"
        }
      ],
      "name": "tokenSku",
      "outputs": [
        {
          "internalType": "bytes32",
          "name": "",
          "type": "bytes32"
        }
      ],
      "stateMutability": "view",
      "type": "function"
    },
    {
      "inputs": [
        {
          "internalType": "uint256",
          "name": "tokenId",
          "type": "uint256"
        }
      ],
      "name": "tokenURI",
      "outputs": [
        {
          "internalType": "string",
          "name": "",
          "type": "string"
        }
      ],
      "stateMutability": "view",
      "type": "function"
    },
    {
      "inputs": [],
      "name": "totalDistributions",
      "outputs": [
        {
          "internalType": "uint256",
          "name": "",
          "type": "uint256"
        }
      ],
      "stateMutability": "view",
      "type": "function"
    },
    {
      "inputs": [],
      "name": "totalRevenue",
      "outputs": [
        {
          "internalType": "uint256",
          "name": "",
          "type": "uint256"
        }
      ],
      "stateMutability": "view",
      "type": "function"
    },
    {
      "inputs": [],
      "name": "totalSupply",
      "outputs": [
        {
          "internalType": "uint256",
          "name": "",
          "type": "uint256"
        }
      ],
      "stateMutability": "view",
      "type": "function"
    },
    {
      "inputs": [
        {
          "internalType": "address",
          "name": "from",
          "type": "address"
        },
        {
          "internalType": "address",
          "name": "to",
          "type": "address"
        },
        {
          "internalType": "uint256",
          "name": "tokenId",
          "type": "uint256"
        }
      ],
      "name": "transferFrom",
      "outputs": [],
      "stateMutability": "nonpayable",
      "type": "function"
    },
    {
      "inputs": [],
      "name": "unpause",
      "outputs": [],
      "stateMutability": "nonpayable",
      "type": "function"
    },
    {
      "inputs": [],
      "name": "useBaseURIComposition",
      "outputs": [
        {
          "internalType": "bool",
          "name": "",
          "type": "bool"
        }
      ],
      "stateMutability": "view",
      "type": "function"
    },
    {
      "inputs": [],
      "name": "version",
      "outputs": [
        {
          "internalType": "string",
          "name": "",
          "type": "string"
        }
      ],
      "stateMutability": "pure",
      "type": "function"
    },
    {
      "inputs": [
        {
          "internalType": "address",
          "name": "recipient",
          "type": "address"
        }
      ],
      "name": "withdraw",
      "outputs": [],
      "stateMutability": "nonpayable",
      "type": "function"
    }
  ],
  "bytecode": "0x60806040526001600d556010805461ffff191690553480156200002157600080fd5b50604051620062d9380380620062d9833981016040819052620000449162000479565b86866000620000548382620005d2565b506001620000638282620005d2565b50506001600855506009805460ff191690556001600160a01b038416620000d15760405162461bcd60e51b815260206004820152601c60248201527f4f776e65722063616e6e6f74206265207a65726f20616464726573730000000060448201526064015b60405180910390fd5b600c620000df8682620005d2565b50601280546001600160a01b0319166001600160a01b038516179055600e829055600f819055600a60165562000117600085620001f1565b620001437f9f2df0fed2c77648de5860a4cc508cd0818c85b8b8a1ab4ceeef8d981c8956a685620001f1565b6200016f7f7eedb2e31886aee6b48ad5b19b07b41f829d56c86a5c8a5cc10a185aeed9290485620001f1565b6200019b7f65d7a28e3265b37a6474929f336521b332c1681b933f6cb9f3376673440d862a85620001f1565b6001600160a01b03831615620001d757620001d77ffbd454f36a7e1a388bd6fc3ab10d434aa4578f811acbbcf33afb1c697486313c84620001f1565b620001e48460fa62000296565b505050505050506200069e565b60008281526007602090815260408083206001600160a01b038516845290915290205460ff16620002925760008281526007602090815260408083206001600160a01b03851684529091529020805460ff19166001179055620002513390565b6001600160a01b0316816001600160a01b0316837f2f8788117e7eff1d82e926ec794901d17c78024a50270940304540a733656f0d60405160405180910390a45b5050565b6127106001600160601b0382161115620003065760405162461bcd60e51b815260206004820152602a60248201527f455243323938313a20726f79616c7479206665652077696c6c206578636565646044820152692073616c65507269636560b01b6064820152608401620000c8565b6001600160a01b0382166200035e5760405162461bcd60e51b815260206004820152601960248201527f455243323938313a20696e76616c6964207265636569766572000000000000006044820152606401620000c8565b604080518082019091526001600160a01b039092168083526001600160601b039091166020909201829052600160a01b90910217600a55565b634e487b7160e01b600052604160045260246000fd5b600082601f830112620003bf57600080fd5b81516001600160401b0380821115620003dc57620003dc62000397565b604051601f8301601f19908116603f0116810190828211818310171562000407576200040762000397565b816040528381526020925086838588010111156200042457600080fd5b600091505b8382101562000448578582018301518183018401529082019062000429565b600093810190920192909252949350505050565b80516001600160a01b03811681146200047457600080fd5b919050565b600080600080600080600060e0888a0312156200049557600080fd5b87516001600160401b0380821115620004ad57600080fd5b620004bb8b838c01620003ad565b985060208a0151915080821115620004d257600080fd5b620004e08b838c01620003ad565b975060408a0151915080821115620004f757600080fd5b50620005068a828b01620003ad565b95505062000517606089016200045c565b935062000527608089016200045c565b925060a0880151915060c0880151905092959891949750929550565b600181811c908216806200055857607f821691505b6020821081036200057957634e487b7160e01b600052602260045260246000fd5b50919050565b601f821115620005cd57600081815260208120601f850160051c81016020861015620005a85750805b601f850160051c820191505b81811015620005c957828155600101620005b4565b5050505b505050565b81516001600160401b03811115620005ee57620005ee62000397565b6200060681620005ff845462000543565b846200057f565b602080601f8311600181146200063e5760008415620006255750858301515b600019600386901b1c1916600185901b178555620005c9565b600085815260208120601f198616915b828110156200066f578886015182559484019460019091019084016200064e565b50858210156200068e5787850151600019600388901b60f8161c191681555b5050505050600190811b01905550565b615c2b80620006ae6000396000f3fe6080604052600436106103ef5760003560e01c80636f65d36711610208578063b88d4fde11610118578063d0def521116100ab578063e63ab1e91161007a578063e63ab1e914610c79578063e985e9c514610cad578063f0bd87cc14610cf6578063f4a0a52814610d18578063fddcb5ea14610d3857600080fd5b8063d0def52114610bef578063d539139314610c0f578063d547741f14610c43578063d5abeb0114610c6357600080fd5b8063c59d4847116100e7578063c59d484714610b38578063c5d6455814610b8f578063c87b56dd14610baf578063cb9d63d114610bcf57600080fd5b8063b88d4fde14610ac2578063bf2d9e0b14610ae2578063c0e07dd614610af8578063c33a94a214610b0b57600080fd5b806391d148541161019b578063a217fddf1161016a578063a217fddf14610a26578063a22cb46514610a3b578063a51af4c514610a5b578063ab9ea1f814610a7b578063b3d7acf914610aaf57600080fd5b806391d14854146109bb578063924cff6d146109db57806395d89b41146109fb57806398d84aa014610a1057600080fd5b806379b6ed36116101d757806379b6ed3614610951578063818668d7146109665780638456cb59146109865780638dc78efa1461099b57600080fd5b80636f65d367146108d15780636f8b44b0146108f157806370a082311461091157806375619ab51461093157600080fd5b80632fa4548b1161030357806351cff8d9116102965780635944c753116102655780635944c753146108435780635c975abb14610863578063613af2931461087b5780636352211e1461089b5780636817c76c146108bb57600080fd5b806351cff8d9146107d857806354fd4d50146107f857806355f804b31461080d578063572849c41461082d57600080fd5b80633f4ba83a116102d25780633f4ba83a1461070b57806342842e0e146107205780634d8be3ab146107405780635055fbc3146107a857600080fd5b80632fa4548b1461067f57806336568abe1461069f5780633a926def146106bf5780633c42406b146106de57600080fd5b806318160ddd1161038657806324b97c461161035557806324b97c46146105b55780632a55205a146105ea5780632a85db55146106295780632ca6ec38146106495780632f2ff15d1461065f57600080fd5b806318160ddd146105305780631e14d44b1461054557806323b872dd14610565578063248a9ca31461058557600080fd5b8063095ea7b3116103c2578063095ea7b3146104a55780630f4161aa146104c557806312baa1ad146104df578063163db71b1461050c57600080fd5b806301ffc9a7146103f457806304634d8d1461042957806306fdde031461044b578063081812fc1461046d575b600080fd5b34801561040057600080fd5b5061041461040f366004614cb7565b610d65565b60405190151581526020015b60405180910390f35b34801561043557600080fd5b50610449610444366004614d07565b610d76565b005b34801561045757600080fd5b50610460610d90565b6040516104209190614d8a565b34801561047957600080fd5b5061048d610488366004614d9d565b610e22565b6040516001600160a01b039091168152602001610420565b3480156104b157600080fd5b506104496104c0366004614db6565b610e49565b3480156104d157600080fd5b506010546104149060ff1681565b3480156104eb57600080fd5b506104ff6104fa366004614d9d565b610f5e565b6040516104209190614e18565b34801561051857600080fd5b5061052260185481565b604051908152602001610420565b34801561053c57600080fd5b50610522611046565b34801561055157600080fd5b50610449610560366004614d9d565b61105c565b34801561057157600080fd5b50610449610580366004614e5f565b61106d565b34801561059157600080fd5b506105226105a0366004614d9d565b60009081526007602052604090206001015490565b3480156105c157600080fd5b506105ca61109e565b604080519485526020850193909352918301526060820152608001610420565b3480156105f657600080fd5b5061060a610605366004614e9b565b6110ca565b604080516001600160a01b039093168352602083019190915201610420565b34801561063557600080fd5b50610449610644366004614f68565b611178565b34801561065557600080fd5b50610522601b5481565b34801561066b57600080fd5b5061044961067a366004614f9c565b61118f565b34801561068b57600080fd5b5061044961069a366004614fbf565b6111b4565b3480156106ab57600080fd5b506104496106ba366004614f9c565b611307565b3480156106cb57600080fd5b5060105461041490610100900460ff1681565b3480156106ea57600080fd5b506106fe6106f9366004615049565b611385565b6040516104209190615099565b34801561071757600080fd5b50610449611799565b34801561072c57600080fd5b5061044961073b366004614e5f565b6117ce565b34801561074c57600080fd5b5061079761075b366004614d9d565b601760205260009081526040902080546001820154600283015460038401546004909401546001600160a01b03909316939192909160ff169085565b6040516104209594939291906150dd565b3480156107b457600080fd5b506104146107c3366004614d9d565b60136020526000908152604090205460ff1681565b3480156107e457600080fd5b506104496107f3366004615118565b6117e9565b34801561080457600080fd5b50610460611970565b34801561081957600080fd5b50610449610828366004614f68565b611990565b34801561083957600080fd5b5061052260165481565b34801561084f57600080fd5b5061044961085e366004615133565b6119a7565b34801561086f57600080fd5b5060095460ff16610414565b34801561088757600080fd5b5061052261089636600461516f565b6119c3565b3480156108a757600080fd5b5061048d6108b6366004614d9d565b611bf1565b3480156108c757600080fd5b50610522600f5481565b3480156108dd57600080fd5b506104496108ec3660046151d5565b611c51565b3480156108fd57600080fd5b5061044961090c366004614d9d565b611cb1565b34801561091d57600080fd5b5061052261092c366004615118565b611d58565b34801561093d57600080fd5b5061044961094c366004615118565b611dde565b34801561095d57600080fd5b50610460611ee1565b34801561097257600080fd5b506104496109813660046151d5565b611f6f565b34801561099257600080fd5b50610449611fbb565b3480156109a757600080fd5b506105226109b63660046151f0565b611fed565b3480156109c757600080fd5b506104146109d6366004614f9c565b61224f565b3480156109e757600080fd5b506104496109f6366004615223565b61227a565b348015610a0757600080fd5b5061046061262b565b348015610a1c57600080fd5b50610522601a5481565b348015610a3257600080fd5b50610522600081565b348015610a4757600080fd5b50610449610a5636600461528e565b61263a565b348015610a6757600080fd5b5060125461048d906001600160a01b031681565b348015610a8757600080fd5b506105227f7eedb2e31886aee6b48ad5b19b07b41f829d56c86a5c8a5cc10a185aeed9290481565b610449610abd366004614f68565b612645565b348015610ace57600080fd5b50610449610add3660046152b8565b612939565b348015610aee57600080fd5b5061052260195481565b610449610b06366004614e9b565b61296b565b348015610b1757600080fd5b50610522610b26366004614d9d565b60116020526000908152604090205481565b348015610b4457600080fd5b50610b4d612d5c565b60408051978852602088019690965294860193909352606085019190915215156080840152151560a08301526001600160a01b031660c082015260e001610420565b348015610b9b57600080fd5b50610449610baa366004615223565b612dbb565b348015610bbb57600080fd5b50610460610bca366004614d9d565b6130ea565b348015610bdb57600080fd5b506106fe610bea366004615333565b613260565b348015610bfb57600080fd5b50610522610c0a3660046153a6565b613680565b348015610c1b57600080fd5b506105227f9f2df0fed2c77648de5860a4cc508cd0818c85b8b8a1ab4ceeef8d981c8956a681565b348015610c4f57600080fd5b50610449610c5e366004614f9c565b613883565b348015610c6f57600080fd5b50610522600e5481565b348015610c8557600080fd5b506105227f65d7a28e3265b37a6474929f336521b332c1681b933f6cb9f3376673440d862a81565b348015610cb957600080fd5b50610414610cc83660046153dd565b6001600160a01b03918216600090815260056020908152604080832093909416825291909152205460ff1690565b348015610d0257600080fd5b50610522600080516020615b5683398151915281565b348015610d2457600080fd5b50610449610d33366004614d9d565b6138a8565b348015610d4457600080fd5b50610522610d53366004615118565b60156020526000908152604090205481565b6000610d70826138e8565b92915050565b6000610d818161390d565b610d8b8383613917565b505050565b606060008054610d9f90615407565b80601f0160208091040260200160405190810160405280929190818152602001828054610dcb90615407565b8015610e185780601f10610ded57610100808354040283529160200191610e18565b820191906000526020600020905b815481529060010190602001808311610dfb57829003601f168201915b5050505050905090565b6000610e2d826139d1565b506000908152600460205260409020546001600160a01b031690565b6000610e5482611bf1565b9050806001600160a01b0316836001600160a01b031603610ec65760405162461bcd60e51b815260206004820152602160248201527f4552433732313a20617070726f76616c20746f2063757272656e74206f776e656044820152603960f91b60648201526084015b60405180910390fd5b336001600160a01b0382161480610ee25750610ee28133610cc8565b610f545760405162461bcd60e51b815260206004820152603d60248201527f4552433732313a20617070726f76652063616c6c6572206973206e6f7420746f60448201527f6b656e206f776e6572206f7220617070726f76656420666f7220616c6c0000006064820152608401610ebd565b610d8b8383613a30565b6040805160a0810182526000808252602082018190529181018290526060810182905260808101919091526000828152600260205260409020546001600160a01b0316610fbd5760405162461bcd60e51b8152600401610ebd90615441565b600082815260176020908152604091829020825160a08101845281546001600160a01b0316815260018201549281019290925260028082015493830193909352600381015491929091606084019160ff9091169081111561102057611020614de0565b600281111561103157611031614de0565b81526020016004820154815250509050919050565b60006001600d546110579190615485565b905090565b60006110678161390d565b50601655565b6110773382613a9e565b6110935760405162461bcd60e51b8152600401610ebd90615498565b610d8b838383613b1d565b600080600080601854601a54601b546001600d546110bc9190615485565b935093509350935090919293565b6000828152600b602090815260408083208151808301909252546001600160a01b038116808352600160a01b9091046001600160601b031692820192909252829161113f575060408051808201909152600a546001600160a01b0381168252600160a01b90046001600160601b031660208201525b60208101516000906127109061115e906001600160601b0316876154e5565b6111689190615512565b91519350909150505b9250929050565b60006111838161390d565b6014610d8b8382615574565b6000828152600760205260409020600101546111aa8161390d565b610d8b8383613c81565b7f7eedb2e31886aee6b48ad5b19b07b41f829d56c86a5c8a5cc10a185aeed929046111de8161390d565b6111e6613d07565b6000838152600260205260409020546001600160a01b031661121a5760405162461bcd60e51b8152600401610ebd90615441565b60008381526013602052604090205460ff16156112725760405162461bcd60e51b8152602060048201526016602482015275151bdad95b88185b1c9958591e481c995d99585b195960521b6044820152606401610ebd565b61127c8383613d4f565b60008381526013602052604090819020805460ff191660011790555183907faaa3596bf0189d953a8f8d17cab13556b9f570f5cbe554aea85b987c0ac3e281906112c7908590614d8a565b60405180910390a26040518381527ff8e1a15aba9398e019f0b49df1a4fde98ee17ae345cb5f6b5e2c27f5033e8ce79060200160405180910390a1505050565b6001600160a01b03811633146113775760405162461bcd60e51b815260206004820152602f60248201527f416363657373436f6e74726f6c3a2063616e206f6e6c792072656e6f756e636560448201526e103937b632b9903337b91039b2b63360891b6064820152608401610ebd565b6113818282613e13565b5050565b6060600080516020615b5683398151915261139f8161390d565b6113a7613d07565b6113af613e7a565b60328511156113d05760405162461bcd60e51b8152600401610ebd90615633565b846113ed5760405162461bcd60e51b8152600401610ebd90615661565b8361140a5760405162461bcd60e51b8152600401610ebd90615686565b600e5415806114355750600e54600d546001906114289088906156ab565b6114329190615485565b11155b6114515760405162461bcd60e51b8152600401610ebd906156be565b6000856001600160401b0381111561146b5761146b614ebd565b604051908082528060200260200182016040528015611494578160200160208202803683370190505b50905060005b868110156117835760008888838181106114b6576114b66156f5565b90506020020160208101906114cb9190615118565b6001600160a01b0316036114f15760405162461bcd60e51b8152600401610ebd9061570b565b600d80546000918261150283615742565b91905055905061153889898481811061151d5761151d6156f5565b90506020020160208101906115329190615118565b82613ed3565b6000818152601160205260409020879055601054610100900460ff16611573576000818152601360205260409020805460ff1916905561158d565b6000818152601360205260409020805460ff191660011790555b6040518060a001604052808a8a858181106115aa576115aa6156f5565b90506020020160208101906115bf9190615118565b6001600160a01b0316815260208101839052426040820152606001600081526020908101889052600083815260178252604090819020835181546001600160a01b0319166001600160a01b03909116178155918301516001808401919091559083015160028084019190915560608401516003840180549193909260ff1990921691849081111561165257611652614de0565b02179055506080820151816004015590505080838381518110611677576116776156f5565b60209081029190910101526018805490600061169283615742565b9091555050601a80549060006116a783615742565b9190505550808989848181106116bf576116bf6156f5565b90506020020160208101906116d49190615118565b6001600160a01b0316336001600160a01b0316600080516020615bd68339815191528960405161170691815260200190565b60405180910390a480898984818110611721576117216156f5565b90506020020160208101906117369190615118565b6001600160a01b0316600080516020615bb68339815191526117588a85613eed565b600060405161176892919061575b565b60405180910390a3508061177b81615742565b91505061149a565b5091506117906001600855565b50949350505050565b7f65d7a28e3265b37a6474929f336521b332c1681b933f6cb9f3376673440d862a6117c38161390d565b6117cb613f51565b50565b610d8b83838360405180602001604052806000815250612939565b60006117f48161390d565b6117fc613e7a565b6001600160a01b0382166118465760405162461bcd60e51b8152602060048201526011602482015270125b9d985b1a59081c9958da5c1a595b9d607a1b6044820152606401610ebd565b478061188b5760405162461bcd60e51b81526020600482015260146024820152734e6f2066756e647320746f20776974686472617760601b6044820152606401610ebd565b6000836001600160a01b03168260405160006040518083038185875af1925050503d80600081146118d8576040519150601f19603f3d011682016040523d82523d6000602084013e6118dd565b606091505b50509050806119225760405162461bcd60e51b815260206004820152601160248201527015da5d1a191c985dd85b0819985a5b1959607a1b6044820152606401610ebd565b604080516001600160a01b0386168152602081018490527f86a5cc8fe9af9ae68fb50f62885307a7755a30cbd290131644377f0bd94a7181910160405180910390a150506113816001600855565b6060604051806060016040528060408152602001615b7660409139905090565b600061199b8161390d565b600c610d8b8382615574565b60006119b28161390d565b6119bd848484613fa3565b50505050565b6000600080516020615b568339815191526119dd8161390d565b6119e5613d07565b6119ed613e7a565b6001600160a01b038516611a135760405162461bcd60e51b8152600401610ebd9061570b565b611a1b61406e565b611a375760405162461bcd60e51b8152600401610ebd9061577d565b600d805460009182611a4883615742565b919050559050611a588682613ed3565b845115611a8357611a698186613d4f565b6000818152601360205260409020805460ff191660011790555b6040518060a00160405280876001600160a01b0316815260200182815260200142815260200160006002811115611abc57611abc614de0565b81526020908101869052600083815260178252604090819020835181546001600160a01b0319166001600160a01b03909116178155918301516001808401919091559083015160028084019190915560608401516003840180549193909260ff19909216918490811115611b3257611b32614de0565b02179055506080919091015160049091015560188054906000611b5483615742565b9091555050601a8054906000611b6983615742565b919050555080866001600160a01b0316336001600160a01b0316600080516020615bd683398151915287604051611ba291815260200190565b60405180910390a480866001600160a01b0316600080516020615bb6833981519152876000604051611bd592919061575b565b60405180910390a39150611be96001600855565b509392505050565b6000818152600260205260408120546001600160a01b031680610d705760405162461bcd60e51b8152602060048201526018602482015277115490cdcc8c4e881a5b9d985b1a59081d1bdad95b88125160421b6044820152606401610ebd565b6000611c5c8161390d565b601080548315156101000261ff00199091161790556040517f49ca3d37ccea7d3345da2d48d371d212dedf8a8478c4a8a0555ba3ef1d23b8e790611ca590841515815260200190565b60405180910390a15050565b6000611cbc8161390d565b811580611cd757506001600d54611cd39190615485565b8210155b611d235760405162461bcd60e51b815260206004820152601f60248201527f43616e6e6f74207365742062656c6f772063757272656e7420737570706c79006044820152606401610ebd565b600e8290556040518281527f7810bd47de260c3e9ee10061cf438099dd12256c79485f12f94dbccc981e806c90602001611ca5565b60006001600160a01b038216611dc25760405162461bcd60e51b815260206004820152602960248201527f4552433732313a2061646472657373207a65726f206973206e6f7420612076616044820152683634b21037bbb732b960b91b6064820152608401610ebd565b506001600160a01b031660009081526003602052604090205490565b6000611de98161390d565b6001600160a01b038216611e3f5760405162461bcd60e51b815260206004820152601b60248201527f496e76616c6964206469737472696275746f72206164647265737300000000006044820152606401610ebd565b6012546001600160a01b03168015611e6957611e69600080516020615b5683398151915282613e13565b601280546001600160a01b0319166001600160a01b038516179055611e9c600080516020615b5683398151915284613c81565b826001600160a01b0316816001600160a01b03167f111a961d91cf441fe07e7bfddc128b30ab56974d1a76851e969e0642fdb2dd5060405160405180910390a3505050565b60148054611eee90615407565b80601f0160208091040260200160405190810160405280929190818152602001828054611f1a90615407565b8015611f675780601f10611f3c57610100808354040283529160200191611f67565b820191906000526020600020905b815481529060010190602001808311611f4a57829003601f168201915b505050505081565b6000611f7a8161390d565b6010805460ff19168315159081179091556040519081527f696ca93f2d646dcbf31ca7a85da7f825bd3796a6d7baa7321166e324bd25f4db90602001611ca5565b7f65d7a28e3265b37a6474929f336521b332c1681b933f6cb9f3376673440d862a611fe58161390d565b6117cb614088565b6000600080516020615b568339815191526120078161390d565b61200f613d07565b612017613e7a565b6001600160a01b03851661203d5760405162461bcd60e51b8152600401610ebd9061570b565b61204561406e565b6120615760405162461bcd60e51b8152600401610ebd9061577d565b8361207e5760405162461bcd60e51b8152600401610ebd90615686565b600d80546000918261208f83615742565b91905055905061209f8682613ed3565b6000818152601160205260409020859055601054610100900460ff166120da576000818152601360205260409020805460ff191690556120f4565b6000818152601360205260409020805460ff191660011790555b6040518060a00160405280876001600160a01b031681526020018281526020014281526020016000600281111561212d5761212d614de0565b81526020908101869052600083815260178252604090819020835181546001600160a01b0319166001600160a01b03909116178155918301516001808401919091559083015160028084019190915560608401516003840180549193909260ff199092169184908111156121a3576121a3614de0565b021790555060809190910151600490910155601880549060006121c583615742565b9091555050601a80549060006121da83615742565b919050555080866001600160a01b0316336001600160a01b0316600080516020615bd68339815191528760405161221391815260200190565b60405180910390a480866001600160a01b0316600080516020615bb683398151915261223f8885613eed565b6000604051611bd592919061575b565b60009182526007602090815260408084206001600160a01b0393909316845291905290205460ff1690565b7f9f2df0fed2c77648de5860a4cc508cd0818c85b8b8a1ab4ceeef8d981c8956a66122a48161390d565b6122ac613d07565b6122b4613e7a565b8382146122d35760405162461bcd60e51b8152600401610ebd906157a9565b60328411156122f45760405162461bcd60e51b8152600401610ebd90615633565b836123115760405162461bcd60e51b8152600401610ebd90615661565b600e54158061233c5750600e54600d5460019061232f9087906156ab565b6123399190615485565b11155b6123585760405162461bcd60e51b8152600401610ebd906156be565b60005b84811015612619576000868683818110612377576123776156f5565b905060200201602081019061238c9190615118565b6001600160a01b0316036123b25760405162461bcd60e51b8152600401610ebd9061570b565b600d8054600091826123c383615742565b9190505590506123de87878481811061151d5761151d6156f5565b60008585848181106123f2576123f26156f5565b905060200281019061240491906157d8565b905011156124885761246e81868685818110612422576124226156f5565b905060200281019061243491906157d8565b8080601f016020809104026020016040519081016040528093929190818152602001838380828437600092019190915250613d4f92505050565b6000818152601360205260409020805460ff191660011790555b6040518060a001604052808888858181106124a5576124a56156f5565b90506020020160208101906124ba9190615118565b6001600160a01b0316815260208101839052426040820152606001600181526000602091820181905283815260178252604090819020835181546001600160a01b0319166001600160a01b03909116178155918301516001808401919091559083015160028084019190915560608401516003840180549193909260ff1990921691849081111561254d5761254d614de0565b0217905550608091909101516004909101556018805490600061256f83615742565b9091555050601b805490600061258483615742565b91905055508087878481811061259c5761259c6156f5565b90506020020160208101906125b19190615118565b6001600160a01b0316600080516020615bb68339815191528787868181106125db576125db6156f5565b90506020028101906125ed91906157d8565b60016040516125fe93929190615847565b60405180910390a3508061261181615742565b91505061235b565b506126246001600855565b5050505050565b606060018054610d9f90615407565b6113813383836140c5565b61264d613d07565b612655613e7a565b60105460ff166126a15760405162461bcd60e51b8152602060048201526017602482015276141d589b1a58c81b5a5b9d081b9bdd08195b98589b1959604a1b6044820152606401610ebd565b6000600f54116126f35760405162461bcd60e51b815260206004820152601a60248201527f5075626c6963206d696e74206e6f7420636f6e666967757265640000000000006044820152606401610ebd565b600f5434101561273c5760405162461bcd60e51b8152602060048201526014602482015273125b9cdd59999a58da595b9d081c185e5b595b9d60621b6044820152606401610ebd565b61274461406e565b6127605760405162461bcd60e51b8152600401610ebd9061577d565b601654158061277f575060165433600090815260156020526040902054105b6127c15760405162461bcd60e51b8152602060048201526013602482015272135a5b9d081b1a5b5a5d08195e18d959591959606a1b6044820152606401610ebd565b600d8054600091826127d283615742565b9190505590506127e23382613ed3565b3360009081526015602052604081208054916127fd83615742565b9190505550346019600082825461281491906156ab565b90915550508151156128445761282a8183613d4f565b6000818152601360205260409020805460ff191660011790555b6040805160a081018252338152602080820184815242838501908152600260608501818152600060808701819052888152601790955295909320845181546001600160a01b0319166001600160a01b0390911617815591516001808401919091559051828401559351600382018054949592949193909260ff19909216919084908111156128d4576128d4614de0565b021790555060809190910151600490910155601880549060006128f683615742565b919050555080336001600160a01b0316600080516020615bb683398151915284600260405161292692919061575b565b60405180910390a3506117cb6001600855565b6129433383613a9e565b61295f5760405162461bcd60e51b8152600401610ebd90615498565b6119bd84848484614193565b612973613d07565b61297b613e7a565b60105460ff166129c75760405162461bcd60e51b8152602060048201526017602482015276141d589b1a58c81b5a5b9d081b9bdd08195b98589b1959604a1b6044820152606401610ebd565b6000600f5411612a195760405162461bcd60e51b815260206004820152601a60248201527f5075626c6963206d696e74206e6f7420636f6e666967757265640000000000006044820152606401610ebd565b600082118015612a2a5750600a8211155b612a675760405162461bcd60e51b815260206004820152600e60248201526d125b9d985b1a5908185b5bdd5b9d60921b6044820152606401610ebd565b81600f54612a7591906154e5565b341015612abb5760405162461bcd60e51b8152602060048201526014602482015273125b9cdd59999a58da595b9d081c185e5b595b9d60621b6044820152606401610ebd565b600e541580612ae55750600e54600183600d54612ad891906156ab565b612ae29190615485565b11155b612b265760405162461bcd60e51b815260206004820152601260248201527145786365656473206d617820737570706c7960701b6044820152606401610ebd565b6016541580612b51575060165433600090815260156020526040902054612b4e9084906156ab565b11155b612b935760405162461bcd60e51b8152602060048201526013602482015272135a5b9d081b1a5b5a5d08195e18d959591959606a1b6044820152606401610ebd565b80612bb05760405162461bcd60e51b8152600401610ebd90615686565b60005b82811015612d1557600d805460009182612bcc83615742565b919050559050612bdc3382613ed3565b6000818152601160205260409020839055601054610100900460ff1615612c17576000818152601360205260409020805460ff191660011790555b6040805160a081018252338152602080820184815242838501908152600260608501818152600060808701819052888152601790955295909320845181546001600160a01b0319166001600160a01b0390911617815591516001808401919091559051828401559351600382018054949592949193909260ff1990921691908490811115612ca757612ca7614de0565b02179055506080919091015160049091015560188054906000612cc983615742565b9091555081905033600080516020615bb6833981519152612cea8684613eed565b6002604051612cfa92919061575b565b60405180910390a35080612d0d81615742565b915050612bb3565b503360009081526015602052604081208054849290612d359084906156ab565b925050819055503460196000828254612d4e91906156ab565b909155505060016008555050565b60008060008060008060006001600d54612d769190615485565b600e54600f54601954601054939a509198509650945060ff169250612d9d60095460ff1690565b6012549798969795969495939490936001600160a01b031692509050565b7f7eedb2e31886aee6b48ad5b19b07b41f829d56c86a5c8a5cc10a185aeed92904612de58161390d565b612ded613d07565b838214612e0c5760405162461bcd60e51b8152600401610ebd906157a9565b6064841115612e2d5760405162461bcd60e51b8152600401610ebd90615633565b60005b84811015613059576000612e71878784818110612e4f57612e4f6156f5565b905060200201356000908152600260205260409020546001600160a01b031690565b6001600160a01b031603612e975760405162461bcd60e51b8152600401610ebd90615441565b60136000878784818110612ead57612ead6156f5565b602090810292909201358352508101919091526040016000205460ff1615612f105760405162461bcd60e51b8152602060048201526016602482015275151bdad95b88185b1c9958591e481c995d99585b195960521b6044820152606401610ebd565b612f3e868683818110612f2557612f256156f5565b90506020020135858584818110612422576124226156f5565b600160136000888885818110612f5657612f566156f5565b90506020020135815260200190815260200160002060006101000a81548160ff021916908315150217905550858582818110612f9457612f946156f5565b905060200201357faaa3596bf0189d953a8f8d17cab13556b9f570f5cbe554aea85b987c0ac3e281858584818110612fce57612fce6156f5565b9050602002810190612fe091906157d8565b604051612fee92919061586a565b60405180910390a27ff8e1a15aba9398e019f0b49df1a4fde98ee17ae345cb5f6b5e2c27f5033e8ce7868683818110613029576130296156f5565b9050602002013560405161303f91815260200190565b60405180910390a18061305181615742565b915050612e30565b506001841115612624577f6bd5c950a8d8df17f772f5af37cb3655737899cbf903264b9795592da439661c85856000818110613097576130976156f5565b6020029190910135905086866130ae600182615485565b8181106130bd576130bd6156f5565b905060200201356040516130db929190918252602082015260400190565b60405180910390a15050505050565b6000818152600260205260409020546060906001600160a01b03166131515760405162461bcd60e51b815260206004820152601f60248201527f55524920717565727920666f72206e6f6e6578697374656e7420746f6b656e006044820152606401610ebd565b60008281526013602052604090205460ff1615801561317e575060006014805461317a90615407565b9050115b15613215576014805461319090615407565b80601f01602080910402602001604051908101604052809291908181526020018280546131bc90615407565b80156132095780601f106131de57610100808354040283529160200191613209565b820191906000526020600020905b8154815290600101906020018083116131ec57829003601f168201915b50505050509050919050565b601054610100900460ff168015613239575060008281526011602052604090205415155b1561325757600082815260116020526040902054610d709083613eed565b610d70826141c6565b6060600080516020615b5683398151915261327a8161390d565b613282613d07565b61328a613e7a565b8584146132a95760405162461bcd60e51b8152600401610ebd906157a9565b60328611156132ca5760405162461bcd60e51b8152600401610ebd90615633565b856132e75760405162461bcd60e51b8152600401610ebd90615661565b600e5415806133125750600e54600d546001906133059089906156ab565b61330f9190615485565b11155b61332e5760405162461bcd60e51b8152600401610ebd906156be565b6000866001600160401b0381111561334857613348614ebd565b604051908082528060200260200182016040528015613371578160200160208202803683370190505b50905060005b87811015613669576000898983818110613393576133936156f5565b90506020020160208101906133a89190615118565b6001600160a01b0316036133ce5760405162461bcd60e51b8152600401610ebd9061570b565b600d8054600091826133df83615742565b9190505590506133fa8a8a8481811061151d5761151d6156f5565b600088888481811061340e5761340e6156f5565b905060200281019061342091906157d8565b905011156134585761343e81898985818110612422576124226156f5565b6000818152601360205260409020805460ff191660011790555b6040518060a001604052808b8b85818110613475576134756156f5565b905060200201602081019061348a9190615118565b6001600160a01b0316815260208101839052426040820152606001600081526020908101889052600083815260178252604090819020835181546001600160a01b0319166001600160a01b03909116178155918301516001808401919091559083015160028084019190915560608401516003840180549193909260ff1990921691849081111561351d5761351d614de0565b02179055506080820151816004015590505080838381518110613542576135426156f5565b60209081029190910101526018805490600061355d83615742565b9091555050601a805490600061357283615742565b9190505550808a8a8481811061358a5761358a6156f5565b905060200201602081019061359f9190615118565b6001600160a01b0316336001600160a01b0316600080516020615bd6833981519152896040516135d191815260200190565b60405180910390a4808a8a848181106135ec576135ec6156f5565b90506020020160208101906136019190615118565b6001600160a01b0316600080516020615bb68339815191528a8a8681811061362b5761362b6156f5565b905060200281019061363d91906157d8565b600060405161364e93929190615847565b60405180910390a3508061366181615742565b915050613377565b5091506136766001600855565b5095945050505050565b60007f9f2df0fed2c77648de5860a4cc508cd0818c85b8b8a1ab4ceeef8d981c8956a66136ac8161390d565b6136b4613d07565b6136bc613e7a565b6001600160a01b0384166136e25760405162461bcd60e51b8152600401610ebd9061570b565b6136ea61406e565b6137065760405162461bcd60e51b8152600401610ebd9061577d565b600d80546000918261371783615742565b9190505590506137278582613ed3565b835115613752576137388185613d4f565b6000818152601360205260409020805460ff191660011790555b6040518060a00160405280866001600160a01b031681526020018281526020014281526020016001600281111561378b5761378b614de0565b81526000602091820181905283815260178252604090819020835181546001600160a01b0319166001600160a01b03909116178155918301516001808401919091559083015160028084019190915560608401516003840180549193909260ff1990921691849081111561380157613801614de0565b0217905550608091909101516004909101556018805490600061382383615742565b9091555050601b805490600061383883615742565b919050555080856001600160a01b0316600080516020615bb683398151915286600160405161386892919061575b565b60405180910390a3915061387c6001600855565b5092915050565b60008281526007602052604090206001015461389e8161390d565b610d8b8383613e13565b60006138b38161390d565b600f8290556040518281527f525b762709cc2a983aec5ccdfd807a061f993c91090b5bcd7da92ca254976aaa90602001611ca5565b60006001600160e01b0319821663152a902d60e11b1480610d705750610d70826142c1565b6117cb81336142e6565b6127106001600160601b03821611156139425760405162461bcd60e51b8152600401610ebd9061587e565b6001600160a01b0382166139985760405162461bcd60e51b815260206004820152601960248201527f455243323938313a20696e76616c6964207265636569766572000000000000006044820152606401610ebd565b604080518082019091526001600160a01b039092168083526001600160601b039091166020909201829052600160a01b90910217600a55565b6000818152600260205260409020546001600160a01b03166117cb5760405162461bcd60e51b8152602060048201526018602482015277115490cdcc8c4e881a5b9d985b1a59081d1bdad95b88125160421b6044820152606401610ebd565b600081815260046020526040902080546001600160a01b0319166001600160a01b0384169081179091558190613a6582611bf1565b6001600160a01b03167f8c5be1e5ebec7d5bd14f71427d1e84f3dd0314c0f7b2291e5b200ac8c7c3b92560405160405180910390a45050565b600080613aaa83611bf1565b9050806001600160a01b0316846001600160a01b03161480613af157506001600160a01b0380821660009081526005602090815260408083209388168352929052205460ff165b80613b155750836001600160a01b0316613b0a84610e22565b6001600160a01b0316145b949350505050565b826001600160a01b0316613b3082611bf1565b6001600160a01b031614613b565760405162461bcd60e51b8152600401610ebd906158c8565b6001600160a01b038216613bb85760405162461bcd60e51b8152602060048201526024808201527f4552433732313a207472616e7366657220746f20746865207a65726f206164646044820152637265737360e01b6064820152608401610ebd565b826001600160a01b0316613bcb82611bf1565b6001600160a01b031614613bf15760405162461bcd60e51b8152600401610ebd906158c8565b600081815260046020908152604080832080546001600160a01b03199081169091556001600160a01b0387811680865260038552838620805460001901905590871680865283862080546001019055868652600290945282852080549092168417909155905184937fddf252ad1be2c89b69c2b068fc378daa952ba7f163c4a11628f55a4df523b3ef91a4505050565b613c8b828261224f565b6113815760008281526007602090815260408083206001600160a01b03851684529091529020805460ff19166001179055613cc33390565b6001600160a01b0316816001600160a01b0316837f2f8788117e7eff1d82e926ec794901d17c78024a50270940304540a733656f0d60405160405180910390a45050565b60095460ff1615613d4d5760405162461bcd60e51b815260206004820152601060248201526f14185d5cd8589b194e881c185d5cd95960821b6044820152606401610ebd565b565b6000828152600260205260409020546001600160a01b0316613dca5760405162461bcd60e51b815260206004820152602e60248201527f45524337323155524953746f726167653a2055524920736574206f66206e6f6e60448201526d32bc34b9ba32b73a103a37b5b2b760911b6064820152608401610ebd565b6000828152600660205260409020613de28282615574565b506040518281527ff8e1a15aba9398e019f0b49df1a4fde98ee17ae345cb5f6b5e2c27f5033e8ce790602001611ca5565b613e1d828261224f565b156113815760008281526007602090815260408083206001600160a01b0385168085529252808320805460ff1916905551339285917ff6391f5c32d9c69d2a47ea670b442974b53935d1edc7fd64eb21e047a839171b9190a45050565b600260085403613ecc5760405162461bcd60e51b815260206004820152601f60248201527f5265656e7472616e637947756172643a207265656e7472616e742063616c6c006044820152606401610ebd565b6002600855565b61138182826040518060200160405280600081525061433f565b601054606090610100900460ff16613f145750604080516020810190915260008152610d70565b600c613f1f84614372565b613f28846144ca565b604051602001613f3a93929190615929565b604051602081830303815290604052905092915050565b613f596145ca565b6009805460ff191690557f5db9ee0a495bf2e6ff9c91a7834c1ba4fdd244a5e8aa4e537bd38aeae4b073aa335b6040516001600160a01b03909116815260200160405180910390a1565b6127106001600160601b0382161115613fce5760405162461bcd60e51b8152600401610ebd9061587e565b6001600160a01b0382166140245760405162461bcd60e51b815260206004820152601b60248201527f455243323938313a20496e76616c696420706172616d657465727300000000006044820152606401610ebd565b6040805180820182526001600160a01b0393841681526001600160601b0392831660208083019182526000968752600b90529190942093519051909116600160a01b029116179055565b6000600e5460001480611057575050600e54600d54111590565b614090613d07565b6009805460ff191660011790557f62e78cea01bee320cd4e420270b5ea74000d11b0c9f74754ebdbfc544b05a258613f863390565b816001600160a01b0316836001600160a01b0316036141265760405162461bcd60e51b815260206004820152601960248201527f4552433732313a20617070726f766520746f2063616c6c6572000000000000006044820152606401610ebd565b6001600160a01b03838116600081815260056020908152604080832094871680845294825291829020805460ff191686151590811790915591519182527f17307eab39ab6107e8899845ad3d59bd9653f200f220920489ca2b5937696c31910160405180910390a3505050565b61419e848484613b1d565b6141aa84848484614613565b6119bd5760405162461bcd60e51b8152600401610ebd906159da565b60606141d1826139d1565b600082815260066020526040812080546141ea90615407565b80601f016020809104026020016040519081016040528092919081815260200182805461421690615407565b80156142635780601f1061423857610100808354040283529160200191614263565b820191906000526020600020905b81548152906001019060200180831161424657829003601f168201915b505050505090506000614274614714565b90508051600003614286575092915050565b8151156142b85780826040516020016142a0929190615a2c565b60405160208183030381529060405292505050919050565b613b1584614723565b60006001600160e01b03198216637965db0b60e01b1480610d705750610d708261478a565b6142f0828261224f565b611381576142fd816147af565b6143088360206147c1565b604051602001614319929190615a5b565b60408051601f198184030181529082905262461bcd60e51b8252610ebd91600401614d8a565b614349838361495c565b6143566000848484614613565b610d8b5760405162461bcd60e51b8152600401610ebd906159da565b604080518082018252601081526f181899199a1a9b1b9c1cb0b131b232b360811b6020820152815182815260608181018452926000919060208201818036833701905050905060005b6020811015611be9578260048683602081106143d9576143d96156f5565b1a60f81b6001600160f81b031916901c60f81c60ff16815181106143ff576143ff6156f5565b01602001516001600160f81b0319168261441a8360026154e5565b8151811061442a5761442a6156f5565b60200101906001600160f81b031916908160001a90535082858260208110614454576144546156f5565b825191901a600f1690811061446b5761446b6156f5565b01602001516001600160f81b031916826144868360026154e5565b6144919060016156ab565b815181106144a1576144a16156f5565b60200101906001600160f81b031916908160001a905350806144c281615742565b9150506143bb565b6060816000036144f15750506040805180820190915260018152600360fc1b602082015290565b8160005b811561451b578061450581615742565b91506145149050600a83615512565b91506144f5565b6000816001600160401b0381111561453557614535614ebd565b6040519080825280601f01601f19166020018201604052801561455f576020820181803683370190505b5090505b8415613b1557614574600183615485565b9150614581600a86615ad0565b61458c9060306156ab565b60f81b8183815181106145a1576145a16156f5565b60200101906001600160f81b031916908160001a9053506145c3600a86615512565b9450614563565b60095460ff16613d4d5760405162461bcd60e51b815260206004820152601460248201527314185d5cd8589b194e881b9bdd081c185d5cd95960621b6044820152606401610ebd565b60006001600160a01b0384163b1561470957604051630a85bd0160e11b81526001600160a01b0385169063150b7a0290614657903390899088908890600401615ae4565b6020604051808303816000875af1925050508015614692575060408051601f3d908101601f1916820190925261468f91810190615b21565b60015b6146ef573d8080156146c0576040519150601f19603f3d011682016040523d82523d6000602084013e6146c5565b606091505b5080516000036146e75760405162461bcd60e51b8152600401610ebd906159da565b805181602001fd5b6001600160e01b031916630a85bd0160e11b149050613b15565b506001949350505050565b6060600c8054610d9f90615407565b606061472e826139d1565b6000614738614714565b905060008151116147585760405180602001604052806000815250614783565b8061476284614ae7565b604051602001614773929190615a2c565b6040516020818303038152906040525b9392505050565b60006001600160e01b03198216632483248360e11b1480610d705750610d7082614b79565b6060610d706001600160a01b03831660145b606060006147d08360026154e5565b6147db9060026156ab565b6001600160401b038111156147f2576147f2614ebd565b6040519080825280601f01601f19166020018201604052801561481c576020820181803683370190505b509050600360fc1b81600081518110614837576148376156f5565b60200101906001600160f81b031916908160001a905350600f60fb1b81600181518110614866576148666156f5565b60200101906001600160f81b031916908160001a905350600061488a8460026154e5565b6148959060016156ab565b90505b600181111561490d576f181899199a1a9b1b9c1cb0b131b232b360811b85600f16601081106148c9576148c96156f5565b1a60f81b8282815181106148df576148df6156f5565b60200101906001600160f81b031916908160001a90535060049490941c9361490681615b3e565b9050614898565b5083156147835760405162461bcd60e51b815260206004820181905260248201527f537472696e67733a20686578206c656e67746820696e73756666696369656e746044820152606401610ebd565b6001600160a01b0382166149b25760405162461bcd60e51b815260206004820181905260248201527f4552433732313a206d696e7420746f20746865207a65726f20616464726573736044820152606401610ebd565b6000818152600260205260409020546001600160a01b031615614a175760405162461bcd60e51b815260206004820152601c60248201527f4552433732313a20746f6b656e20616c7265616479206d696e746564000000006044820152606401610ebd565b6000818152600260205260409020546001600160a01b031615614a7c5760405162461bcd60e51b815260206004820152601c60248201527f4552433732313a20746f6b656e20616c7265616479206d696e746564000000006044820152606401610ebd565b6001600160a01b038216600081815260036020908152604080832080546001019055848352600290915280822080546001600160a01b0319168417905551839291907fddf252ad1be2c89b69c2b068fc378daa952ba7f163c4a11628f55a4df523b3ef908290a45050565b60606000614af483614bc9565b60010190506000816001600160401b03811115614b1357614b13614ebd565b6040519080825280601f01601f191660200182016040528015614b3d576020820181803683370190505b5090508181016020015b600019016f181899199a1a9b1b9c1cb0b131b232b360811b600a86061a8153600a8504945084614b4757509392505050565b60006001600160e01b031982166380ac58cd60e01b1480614baa57506001600160e01b03198216635b5e139f60e01b145b80610d7057506301ffc9a760e01b6001600160e01b0319831614610d70565b60008072184f03e93ff9f4daa797ed6e38ed64bf6a1f0160401b8310614c085772184f03e93ff9f4daa797ed6e38ed64bf6a1f0160401b830492506040015b6d04ee2d6d415b85acef81000000008310614c34576d04ee2d6d415b85acef8100000000830492506020015b662386f26fc100008310614c5257662386f26fc10000830492506010015b6305f5e1008310614c6a576305f5e100830492506008015b6127108310614c7e57612710830492506004015b60648310614c90576064830492506002015b600a8310610d705760010192915050565b6001600160e01b0319811681146117cb57600080fd5b600060208284031215614cc957600080fd5b813561478381614ca1565b80356001600160a01b0381168114614ceb57600080fd5b919050565b80356001600160601b0381168114614ceb57600080fd5b60008060408385031215614d1a57600080fd5b614d2383614cd4565b9150614d3160208401614cf0565b90509250929050565b60005b83811015614d55578181015183820152602001614d3d565b50506000910152565b60008151808452614d76816020860160208601614d3a565b601f01601f19169290920160200192915050565b6020815260006147836020830184614d5e565b600060208284031215614daf57600080fd5b5035919050565b60008060408385031215614dc957600080fd5b614dd283614cd4565b946020939093013593505050565b634e487b7160e01b600052602160045260246000fd5b60038110614e1457634e487b7160e01b600052602160045260246000fd5b9052565b81516001600160a01b03168152602080830151908201526040808301519082015260608083015160a0830191614e5090840182614df6565b50608092830151919092015290565b600080600060608486031215614e7457600080fd5b614e7d84614cd4565b9250614e8b60208501614cd4565b9150604084013590509250925092565b60008060408385031215614eae57600080fd5b50508035926020909101359150565b634e487b7160e01b600052604160045260246000fd5b60006001600160401b0380841115614eed57614eed614ebd565b604051601f8501601f19908116603f01168101908282118183101715614f1557614f15614ebd565b81604052809350858152868686011115614f2e57600080fd5b858560208301376000602087830101525050509392505050565b600082601f830112614f5957600080fd5b61478383833560208501614ed3565b600060208284031215614f7a57600080fd5b81356001600160401b03811115614f9057600080fd5b613b1584828501614f48565b60008060408385031215614faf57600080fd5b82359150614d3160208401614cd4565b60008060408385031215614fd257600080fd5b8235915060208301356001600160401b03811115614fef57600080fd5b614ffb85828601614f48565b9150509250929050565b60008083601f84011261501757600080fd5b5081356001600160401b0381111561502e57600080fd5b6020830191508360208260051b850101111561117157600080fd5b6000806000806060858703121561505f57600080fd5b84356001600160401b0381111561507557600080fd5b61508187828801615005565b90989097506020870135966040013595509350505050565b6020808252825182820181905260009190848201906040850190845b818110156150d1578351835292840192918401916001016150b5565b50909695505050505050565b6001600160a01b0386168152602081018590526040810184905260a081016151086060830185614df6565b8260808301529695505050505050565b60006020828403121561512a57600080fd5b61478382614cd4565b60008060006060848603121561514857600080fd5b8335925061515860208501614cd4565b915061516660408501614cf0565b90509250925092565b60008060006060848603121561518457600080fd5b61518d84614cd4565b925060208401356001600160401b038111156151a857600080fd5b6151b486828701614f48565b925050604084013590509250925092565b80358015158114614ceb57600080fd5b6000602082840312156151e757600080fd5b614783826151c5565b60008060006060848603121561520557600080fd5b61520e84614cd4565b95602085013595506040909401359392505050565b6000806000806040858703121561523957600080fd5b84356001600160401b038082111561525057600080fd5b61525c88838901615005565b9096509450602087013591508082111561527557600080fd5b5061528287828801615005565b95989497509550505050565b600080604083850312156152a157600080fd5b6152aa83614cd4565b9150614d31602084016151c5565b600080600080608085870312156152ce57600080fd5b6152d785614cd4565b93506152e560208601614cd4565b92506040850135915060608501356001600160401b0381111561530757600080fd5b8501601f8101871361531857600080fd5b61532787823560208401614ed3565b91505092959194509250565b60008060008060006060868803121561534b57600080fd5b85356001600160401b038082111561536257600080fd5b61536e89838a01615005565b9097509550602088013591508082111561538757600080fd5b5061539488828901615005565b96999598509660400135949350505050565b600080604083850312156153b957600080fd5b6153c283614cd4565b915060208301356001600160401b03811115614fef57600080fd5b600080604083850312156153f057600080fd5b6153f983614cd4565b9150614d3160208401614cd4565b600181811c9082168061541b57607f821691505b60208210810361543b57634e487b7160e01b600052602260045260246000fd5b50919050565b602080825260149082015273151bdad95b88191bd95cc81b9bdd08195e1a5cdd60621b604082015260600190565b634e487b7160e01b600052601160045260246000fd5b81810381811115610d7057610d7061546f565b6020808252602d908201527f4552433732313a2063616c6c6572206973206e6f7420746f6b656e206f776e6560408201526c1c881bdc88185c1c1c9bdd9959609a1b606082015260800190565b8082028115828204841417610d7057610d7061546f565b634e487b7160e01b600052601260045260246000fd5b600082615521576155216154fc565b500490565b601f821115610d8b57600081815260208120601f850160051c8101602086101561554d5750805b601f850160051c820191505b8181101561556c57828155600101615559565b505050505050565b81516001600160401b0381111561558d5761558d614ebd565b6155a18161559b8454615407565b84615526565b602080601f8311600181146155d657600084156155be5750858301515b600019600386901b1c1916600185901b17855561556c565b600085815260208120601f198616915b82811015615605578886015182559484019460019091019084016155e6565b50858210156156235787850151600019600388901b60f8161c191681555b5050505050600190811b01905550565b60208082526014908201527342617463682073697a6520746f6f206c6172676560601b604082015260600190565b6020808252600b908201526a08adae0e8f240c4c2e8c6d60ab1b604082015260600190565b6020808252600b908201526a496e76616c696420534b5560a81b604082015260600190565b80820180821115610d7057610d7061546f565b60208082526018908201527f42617463682065786365656473206d617820737570706c790000000000000000604082015260600190565b634e487b7160e01b600052603260045260246000fd5b6020808252601b908201527f43616e6e6f74206d696e7420746f207a65726f20616464726573730000000000604082015260600190565b6000600182016157545761575461546f565b5060010190565b60408152600061576e6040830185614d5e565b90506147836020830184614df6565b60208082526012908201527113585e081cdd5c1c1b1e481c995858da195960721b604082015260600190565b602080825260159082015274082e4e4c2f240d8cadccee8d040dad2e6dac2e8c6d605b1b604082015260600190565b6000808335601e198436030181126157ef57600080fd5b8301803591506001600160401b0382111561580957600080fd5b60200191503681900382131561117157600080fd5b81835281816020850137506000828201602090810191909152601f909101601f19169091010190565b60408152600061585b60408301858761581e565b9050613b156020830184614df6565b602081526000613b1560208301848661581e565b6020808252602a908201527f455243323938313a20726f79616c7479206665652077696c6c206578636565646040820152692073616c65507269636560b01b606082015260800190565b60208082526025908201527f4552433732313a207472616e736665722066726f6d20696e636f72726563742060408201526437bbb732b960d91b606082015260800190565b6000815161591f818560208601614d3a565b9290920192915050565b600080855461593781615407565b6001828116801561594f576001811461596457615993565b60ff1984168752821515830287019450615993565b8960005260208060002060005b8581101561598a5781548a820152908401908201615971565b50505082870194505b50602f60f81b8452875192506159af8382860160208b01614d3a565b6159cd6159c78285870101602f60f81b815260010190565b8861590d565b9998505050505050505050565b60208082526032908201527f4552433732313a207472616e7366657220746f206e6f6e20455243373231526560408201527131b2b4bb32b91034b6b83632b6b2b73a32b960711b606082015260800190565b60008351615a3e818460208801614d3a565b835190830190615a52818360208801614d3a565b01949350505050565b7f416363657373436f6e74726f6c3a206163636f756e7420000000000000000000815260008351615a93816017850160208801614d3a565b7001034b99036b4b9b9b4b733903937b6329607d1b6017918401918201528351615ac4816028840160208801614d3a565b01602801949350505050565b600082615adf57615adf6154fc565b500690565b6001600160a01b0385811682528416602082015260408101839052608060608201819052600090615b1790830184614d5e565b9695505050505050565b600060208284031215615b3357600080fd5b815161478381614ca1565b600081615b4d57615b4d61546f565b50600019019056fefbd454f36a7e1a388bd6fc3ab10d434aa4578f811acbbcf33afb1c697486313c5265776172644e46542076322e302e30202d20506174656e7420436f6d706c69616e742044657369676e20284261636b7761726420436f6d70617469626c652976596d54fd9affd3f9aa2c127c5284f32b22dce98708fb9ed5e908462cfe6b5d095dac4de71eca0bb3878365b7bf8e64aca44e8a6a3cbd7e12a35e68337e8453a2646970667358221220ea20ea6cf114cddd17a8227db22eb8b6d0861ba00ec9666d4df3883e2d085eff64736f6c63430008140033",
  "linkReferences": {},
  "deployedLinkReferences": {}
}