{
  "_format": "hh-sol-artifact-1",
  "contractName": "RewardNFT_v2",
  "sourceName": "contracts/RewardNFT_v2.sol",
  "abi": [
    {
      "inputs": [
        {
          "internalType": "string",
          "name": "name",
          "type": "string"
        },
        {
          "internalType": "string",
          "name": "symbol",
          "type": "string"
        },
        {
          "internalType": "string",
          "name": "baseURI",
          "type": "string"
        },
        {
          "internalType": "address",
          "name": "owner",
          "type": "address"
        },
        {
          "internalType": "address",
          "name": "_distributorAddress",
          "type": "address"
        },
        {
          "internalType": "uint256",
          "name": "_maxSupply",
          "type": "uint256"
        },
        {
          "internalType": "uint256",
          "name": "_mintPrice",
          "type": "uint256"
        }
      ],
      "stateMutability": "nonpayable",
      "type": "constructor"
    },
    {
      "anonymous": false,
      "inputs": [
        {
          "indexed": true,
          "internalType": "address",
          "name": "owner",
          "type": "address"
        },
        {
          "indexed": true,
          "internalType": "address",
          "name": "approved",
          "type": "address"
        },
        {
          "indexed": true,
          "internalType": "uint256",
          "name": "tokenId",
          "type": "uint256"
        }
      ],
      "name": "Approval",
      "type": "event"
    },
    {
      "anonymous": false,
      "inputs": [
        {
          "indexed": true,
          "internalType": "address",
          "name": "owner",
          "type": "address"
        },
        {
          "indexed": true,
          "internalType": "address",
          "name": "operator",
          "type": "address"
        },
        {
          "indexed": false,
          "internalType": "bool",
          "name": "approved",
          "type": "bool"
        }
      ],
      "name": "ApprovalForAll",
      "type": "event"
    },
    {
      "anonymous": false,
      "inputs": [
        {
          "indexed": true,
          "internalType": "address",
          "name": "distributor",
          "type": "address"
        },
        {
          "indexed": true,
          "internalType": "address",
          "name": "recipient",
          "type": "address"
        },
        {
          "indexed": true,
          "internalType": "uint256",
          "name": "tokenId",
          "type": "uint256"
        },
        {
          "indexed": false,
          "internalType": "bytes32",
          "name": "triggerId",
          "type": "bytes32"
        }
      ],
      "name": "AutomaticDistribution",
      "type": "event"
    },
    {
      "anonymous": false,
      "inputs": [
        {
          "indexed": false,
          "internalType": "bool",
          "name": "enabled",
          "type": "bool"
        }
      ],
      "name": "BaseURICompositionModeChanged",
      "type": "event"
    },
    {
      "anonymous": false,
      "inputs": [
        {
          "indexed": false,
          "internalType": "uint256",
          "name": "_fromTokenId",
          "type": "uint256"
        },
        {
          "indexed": false,
          "internalType": "uint256",
          "name": "_toTokenId",
          "type": "uint256"
        }
      ],
      "name": "BatchMetadataUpdate",
      "type": "event"
    },
    {
      "anonymous": false,
      "inputs": [
        {
          "indexed": true,
          "internalType": "address",
          "name": "oldDistributor",
          "type": "address"
        },
        {
          "indexed": true,
          "internalType": "address",
          "name": "newDistributor",
          "type": "address"
        }
      ],
      "name": "DistributorUpdated",
      "type": "event"
    },
    {
      "anonymous": false,
      "inputs": [
        {
          "indexed": false,
          "internalType": "uint256",
          "name": "newMaxSupply",
          "type": "uint256"
        }
      ],
      "name": "MaxSupplyUpdated",
      "type": "event"
    },
    {
      "anonymous": false,
      "inputs": [
        {
          "indexed": false,
          "internalType": "uint256",
          "name": "_tokenId",
          "type": "uint256"
        }
      ],
      "name": "MetadataUpdate",
      "type": "event"
    },
    {
      "anonymous": false,
      "inputs": [
        {
          "indexed": false,
          "internalType": "uint256",
          "name": "newPrice",
          "type": "uint256"
        }
      ],
      "name": "MintPriceUpdated",
      "type": "event"
    },
    {
      "anonymous": false,
      "inputs": [
        {
          "indexed": false,
          "internalType": "address",
          "name": "account",
          "type": "address"
        }
      ],
      "name": "Paused",
      "type": "event"
    },
    {
      "anonymous": false,
      "inputs": [
        {
          "indexed": false,
          "internalType": "bool",
          "name": "enabled",
          "type": "bool"
        }
      ],
      "name": "PublicMintStatusChanged",
      "type": "event"
    },
    {
      "anonymous": false,
      "inputs": [
        {
          "indexed": false,
          "internalType": "address",
          "name": "recipient",
          "type": "address"
        },
        {
          "indexed": false,
          "internalType": "uint256",
          "name": "amount",
          "type": "uint256"
        }
      ],
      "name": "RevenueWithdrawn",
      "type": "event"
    },
    {
      "anonymous": false,
      "inputs": [
        {
          "indexed": true,
          "internalType": "bytes32",
          "name": "role",
          "type": "bytes32"
        },
        {
          "indexed": true,
          "internalType": "bytes32",
          "name": "previousAdminRole",
          "type": "bytes32"
        },
        {
          "indexed": true,
          "internalType": "bytes32",
          "name": "newAdminRole",
          "type": "bytes32"
        }
      ],
      "name": "RoleAdminChanged",
      "type": "event"
    },
    {
      "anonymous": false,
      "inputs": [
        {
          "indexed": true,
          "internalType": "bytes32",
          "name": "role",
          "type": "bytes32"
        },
        {
          "indexed": true,
          "internalType": "address",
          "name": "account",
          "type": "address"
        },
        {
          "indexed": true,
          "internalType": "address",
          "name": "sender",
          "type": "address"
        }
      ],
      "name": "RoleGranted",
      "type": "event"
    },
    {
      "anonymous": false,
      "inputs": [
        {
          "indexed": true,
          "internalType": "bytes32",
          "name": "role",
          "type": "bytes32"
        },
        {
          "indexed": true,
          "internalType": "address",
          "name": "account",
          "type": "address"
        },
        {
          "indexed": true,
          "internalType": "address",
          "name": "sender",
          "type": "address"
        }
      ],
      "name": "RoleRevoked",
      "type": "event"
    },
    {
      "anonymous": false,
      "inputs": [
        {
          "indexed": true,
          "internalType": "address",
          "name": "to",
          "type": "address"
        },
        {
          "indexed": true,
          "internalType": "uint256",
          "name": "tokenId",
          "type": "uint256"
        },
        {
          "indexed": false,
          "internalType": "string",
          "name": "tokenURI",
          "type": "string"
        },
        {
          "indexed": false,
          "internalType": "enum RewardNFT_v2.DistributionType",
          "name": "distributionType",
          "type": "uint8"
        }
      ],
      "name": "TokenMinted",
      "type": "event"
    },
    {
      "anonymous": false,
      "inputs": [
        {
          "indexed": true,
          "internalType": "uint256",
          "name": "tokenId",
          "type": "uint256"
        },
        {
          "indexed": false,
          "internalType": "string",
          "name": "newURI",
          "type": "string"
        }
      ],
      "name": "TokenRevealed",
      "type": "event"
    },
    {
      "anonymous": false,
      "inputs": [
        {
          "indexed": true,
          "internalType": "address",
          "name": "from",
          "type": "address"
        },
        {
          "indexed": true,
          "internalType": "address",
          "name": "to",
          "type": "address"
        },
        {
          "indexed": true,
          "internalType": "uint256",
          "name": "tokenId",
          "type": "uint256"
        }
      ],
      "name": "Transfer",
      "type": "event"
    },
    {
      "anonymous": false,
      "inputs": [
        {
          "indexed": false,
          "internalType": "address",
          "name": "account",
          "type": "address"
        }
      ],
      "name": "Unpaused",
      "type": "event"
    },
    {
      "inputs": [],
      "name": "DEFAULT_ADMIN_ROLE",
      "outputs": [
        {
          "internalType": "bytes32",
          "name": "",
          "type": "bytes32"
        }
      ],
      "stateMutability": "view",
      "type": "function"
    },
    {
      "inputs": [],
      "name": "DISTRIBUTOR_ROLE",
      "outputs": [
        {
          "internalType": "bytes32",
          "name": "",
          "type": "bytes32"
        }
      ],
      "stateMutability": "view",
      "type": "function"
    },
    {
      "inputs": [],
      "name": "MINTER_ROLE",
      "outputs": [
        {
          "internalType": "bytes32",
          "name": "",
          "type": "bytes32"
        }
      ],
      "stateMutability": "view",
      "type": "function"
    },
    {
      "inputs": [],
      "name": "PAUSER_ROLE",
      "outputs": [
        {
          "internalType": "bytes32",
          "name": "",
          "type": "bytes32"
        }
      ],
      "stateMutability": "view",
      "type": "function"
    },
    {
      "inputs": [],
      "name": "REVEALER_ROLE",
      "outputs": [
        {
          "internalType": "bytes32",
          "name": "",
          "type": "bytes32"
        }
      ],
      "stateMutability": "view",
      "type": "function"
    },
    {
      "inputs": [
        {
          "internalType": "address",
          "name": "to",
          "type": "address"
        },
        {
          "internalType": "uint256",
          "name": "tokenId",
          "type": "uint256"
        }
      ],
      "name": "approve",
      "outputs": [],
      "stateMutability": "nonpayable",
      "type": "function"
    },
    {
      "inputs": [],
      "name": "automaticDistributionCount",
      "outputs": [
        {
          "internalType": "uint256",
          "name": "",
          "type": "uint256"
        }
      ],
      "stateMutability": "view",
      "type": "function"
    },
    {
      "inputs": [
        {
          "internalType": "address",
          "name": "owner",
          "type": "address"
        }
      ],
      "name": "balanceOf",
      "outputs": [
        {
          "internalType": "uint256",
          "name": "",
          "type": "uint256"
        }
      ],
      "stateMutability": "view",
      "type": "function"
    },
    {
      "inputs": [
        {
          "internalType": "address",
          "name": "to",
          "type": "address"
        },
        {
          "internalType": "string",
          "name": "tokenURI",
          "type": "string"
        },
        {
          "internalType": "bytes32",
          "name": "triggerId",
          "type": "bytes32"
        }
      ],
      "name": "distributeMint",
      "outputs": [
        {
          "internalType": "uint256",
          "name": "",
          "type": "uint256"
        }
      ],
      "stateMutability": "nonpayable",
      "type": "function"
    },
    {
      "inputs": [
        {
          "internalType": "address[]",
          "name": "recipients",
          "type": "address[]"
        },
        {
          "internalType": "string[]",
          "name": "tokenURIs",
          "type": "string[]"
        },
        {
          "internalType": "bytes32",
          "name": "triggerId",
          "type": "bytes32"
        }
      ],
      "name": "distributeMintBatch",
      "outputs": [
        {
          "internalType": "uint256[]",
          "name": "",
          "type": "uint256[]"
        }
      ],
      "stateMutability": "nonpayable",
      "type": "function"
    },
    {
      "inputs": [
        {
          "internalType": "address[]",
          "name": "recipients",
          "type": "address[]"
        },
        {
          "internalType": "bytes32",
          "name": "sku",
          "type": "bytes32"
        },
        {
          "internalType": "bytes32",
          "name": "triggerId",
          "type": "bytes32"
        }
      ],
      "name": "distributeMintBatchBySku",
      "outputs": [
        {
          "internalType": "uint256[]",
          "name": "",
          "type": "uint256[]"
        }
      ],
      "stateMutability": "nonpayable",
      "type": "function"
    },
    {
      "inputs": [
        {
          "internalType": "address",
          "name": "to",
          "type": "address"
        },
        {
          "internalType": "bytes32",
          "name": "sku",
          "type": "bytes32"
        },
        {
          "internalType": "bytes32",
          "name": "triggerId",
          "type": "bytes32"
        }
      ],
      "name": "distributeMintBySku",
      "outputs": [
        {
          "internalType": "uint256",
          "name": "",
          "type": "uint256"
        }
      ],
      "stateMutability": "nonpayable",
      "type": "function"
    },
    {
      "inputs": [
        {
          "internalType": "uint256",
          "name": "",
          "type": "uint256"
        }
      ],
      "name": "distributionRecords",
      "outputs": [
        {
          "internalType": "address",
          "name": "recipient",
          "type": "address"
        },
        {
          "internalType": "uint256",
          "name": "tokenId",
          "type": "uint256"
        },
        {
          "internalType": "uint256",
          "name": "timestamp",
          "type": "uint256"
        },
        {
          "internalType": "enum RewardNFT_v2.DistributionType",
          "name": "distributionType",
          "type": "uint8"
        },
        {
          "internalType": "bytes32",
          "name": "triggerId",
          "type": "bytes32"
        }
      ],
      "stateMutability": "view",
      "type": "function"
    },
    {
      "inputs": [],
      "name": "distributorAddress",
      "outputs": [
        {
          "internalType": "address",
          "name": "",
          "type": "address"
        }
      ],
      "stateMutability": "view",
      "type": "function"
    },
    {
      "inputs": [
        {
          "internalType": "uint256",
          "name": "tokenId",
          "type": "uint256"
        }
      ],
      "name": "getApproved",
      "outputs": [
        {
          "internalType": "address",
          "name": "",
          "type": "address"
        }
      ],
      "stateMutability": "view",
      "type": "function"
    },
    {
      "inputs": [
        {
          "internalType": "uint256",
          "name": "tokenId",
          "type": "uint256"
        }
      ],
      "name": "getDistributionRecord",
      "outputs": [
        {
          "components": [
            {
              "internalType": "address",
              "name": "recipient",
              "type": "address"
            },
            {
              "internalType": "uint256",
              "name": "tokenId",
              "type": "uint256"
            },
            {
              "internalType": "uint256",
              "name": "timestamp",
              "type": "uint256"
            },
            {
              "internalType": "enum RewardNFT_v2.DistributionType",
              "name": "distributionType",
              "type": "uint8"
            },
            {
              "internalType": "bytes32",
              "name": "triggerId",
              "type": "bytes32"
            }
          ],
          "internalType": "struct RewardNFT_v2.DistributionRecord",
          "name": "",
          "type": "tuple"
        }
      ],
      "stateMutability": "view",
      "type": "function"
    },
    {
      "inputs": [],
      "name": "getDistributionStats",
      "outputs": [
        {
          "internalType": "uint256",
          "name": "total",
          "type": "uint256"
        },
        {
          "internalType": "uint256",
          "name": "automatic",
          "type": "uint256"
        },
        {
          "internalType": "uint256",
          "name": "manual",
          "type": "uint256"
        },
        {
          "internalType": "uint256",
          "name": "currentSupply",
          "type": "uint256"
        }
      ],
      "stateMutability": "view",
      "type": "function"
    },
    {
      "inputs": [
        {
          "internalType": "bytes32",
          "name": "role",
          "type": "bytes32"
        }
      ],
      "name": "getRoleAdmin",
      "outputs": [
        {
          "internalType": "bytes32",
          "name": "",
          "type": "bytes32"
        }
      ],
      "stateMutability": "view",
      "type": "function"
    },
    {
      "inputs": [],
      "name": "getStats",
      "outputs": [
        {
          "internalType": "uint256",
          "name": "totalSupply",
          "type": "uint256"
        },
        {
          "internalType": "uint256",
          "name": "currentMaxSupply",
          "type": "uint256"
        },
        {
          "internalType": "uint256",
          "name": "currentMintPrice",
          "type": "uint256"
        },
        {
          "internalType": "uint256",
          "name": "revenue",
          "type": "uint256"
        },
        {
          "internalType": "bool",
          "name": "isPublicMintEnabled",
          "type": "bool"
        },
        {
          "internalType": "bool",
          "name": "isPaused",
          "type": "bool"
        },
        {
          "internalType": "address",
          "name": "currentDistributor",
          "type": "address"
        }
      ],
      "stateMutability": "view",
      "type": "function"
    },
    {
      "inputs": [
        {
          "internalType": "bytes32",
          "name": "role",
          "type": "bytes32"
        },
        {
          "internalType": "address",
          "name": "account",
          "type": "address"
        }
      ],
      "name": "grantRole",
      "outputs": [],
      "stateMutability": "nonpayable",
      "type": "function"
    },
    {
      "inputs": [
        {
          "internalType": "bytes32",
          "name": "role",
          "type": "bytes32"
        },
        {
          "internalType": "address",
          "name": "account",
          "type": "address"
        }
      ],
      "name": "hasRole",
      "outputs": [
        {
          "internalType": "bool",
          "name": "",
          "type": "bool"
        }
      ],
      "stateMutability": "view",
      "type": "function"
    },
    {
      "inputs": [
        {
          "internalType": "address",
          "name": "owner",
          "type": "address"
        },
        {
          "internalType": "address",
          "name": "operator",
          "type": "address"
        }
      ],
      "name": "isApprovedForAll",
      "outputs": [
        {
          "internalType": "bool",
          "name": "",
          "type": "bool"
        }
      ],
      "stateMutability": "view",
      "type": "function"
    },
    {
      "inputs": [
        {
          "internalType": "uint256",
          "name": "",
          "type": "uint256"
        }
      ],
      "name": "isRevealed",
      "outputs": [
        {
          "internalType": "bool",
          "name": "",
          "type": "bool"
        }
      ],
      "stateMutability": "view",
      "type": "function"
    },
    {
      "inputs": [],
      "name": "manualDistributionCount",
      "outputs": [
        {
          "internalType": "uint256",
          "name": "",
          "type": "uint256"
        }
      ],
      "stateMutability": "view",
      "type": "function"
    },
    {
      "inputs": [],
      "name": "maxMintPerAddress",
      "outputs": [
        {
          "internalType": "uint256",
          "name": "",
          "type": "uint256"
        }
      ],
      "stateMutability": "view",
      "type": "function"
    },
    {
      "inputs": [],
      "name": "maxSupply",
      "outputs": [
        {
          "internalType": "uint256",
          "name": "",
          "type": "uint256"
        }
      ],
      "stateMutability": "view",
      "type": "function"
    },
    {
      "inputs": [
        {
          "internalType": "address",
          "name": "to",
          "type": "address"
        },
        {
          "internalType": "string",
          "name": "tokenURI",
          "type": "string"
        }
      ],
      "name": "mint",
      "outputs": [
        {
          "internalType": "uint256",
          "name": "",
          "type": "uint256"
        }
      ],
      "stateMutability": "nonpayable",
      "type": "function"
    },
    {
      "inputs": [
        {
          "internalType": "address[]",
          "name": "recipients",
          "type": "address[]"
        },
        {
          "internalType": "string[]",
          "name": "tokenURIs",
          "type": "string[]"
        }
      ],
      "name": "mintBatch",
      "outputs": [],
      "stateMutability": "nonpayable",
      "type": "function"
    },
    {
      "inputs": [],
      "name": "mintPrice",
      "outputs": [
        {
          "internalType": "uint256",
          "name": "",
          "type": "uint256"
        }
      ],
      "stateMutability": "view",
      "type": "function"
    },
    {
      "inputs": [
        {
          "internalType": "address",
          "name": "",
          "type": "address"
        }
      ],
      "name": "mintedCount",
      "outputs": [
        {
          "internalType": "uint256",
          "name": "",
          "type": "uint256"
        }
      ],
      "stateMutability": "view",
      "type": "function"
    },
    {
      "inputs": [],
      "name": "name",
      "outputs": [
        {
          "internalType": "string",
          "name": "",
          "type": "string"
        }
      ],
      "stateMutability": "view",
      "type": "function"
    },
    {
      "inputs": [
        {
          "internalType": "uint256",
          "name": "tokenId",
          "type": "uint256"
        }
      ],
      "name": "ownerOf",
      "outputs": [
        {
          "internalType": "address",
          "name": "",
          "type": "address"
        }
      ],
      "stateMutability": "view",
      "type": "function"
    },
    {
      "inputs": [],
      "name": "pause",
      "outputs": [],
      "stateMutability": "nonpayable",
      "type": "function"
    },
    {
      "inputs": [],
      "name": "paused",
      "outputs": [
        {
          "internalType": "bool",
          "name": "",
          "type": "bool"
        }
      ],
      "stateMutability": "view",
      "type": "function"
    },
    {
      "inputs": [],
      "name": "preRevealURI",
      "outputs": [
        {
          "internalType": "string",
          "name": "",
          "type": "string"
        }
      ],
      "stateMutability": "view",
      "type": "function"
    },
    {
      "inputs": [
        {
          "internalType": "string",
          "name": "tokenURI",
          "type": "string"
        }
      ],
      "name": "publicMint",
      "outputs": [],
      "stateMutability": "payable",
      "type": "function"
    },
    {
      "inputs": [],
      "name": "publicMintEnabled",
      "outputs": [
        {
          "internalType": "bool",
          "name": "",
          "type": "bool"
        }
      ],
      "stateMutability": "view",
      "type": "function"
    },
    {
      "inputs": [
        {
          "internalType": "uint256",
          "name": "amount",
          "type": "uint256"
        },
        {
          "internalType": "bytes32",
          "name": "sku",
          "type": "bytes32"
        }
      ],
      "name": "publicMintV2",
      "outputs": [],
      "stateMutability": "payable",
      "type": "function"
    },
    {
      "inputs": [
        {
          "internalType": "bytes32",
          "name": "role",
          "type": "bytes32"
        },
        {
          "internalType": "address",
          "name": "account",
          "type": "address"
        }
      ],
      "name": "renounceRole",
      "outputs": [],
      "stateMutability": "nonpayable",
      "type": "function"
    },
    {
      "inputs": [
        {
          "internalType": "uint256",
          "name": "tokenId",
          "type": "uint256"
        },
        {
          "internalType": "string",
          "name": "newURI",
          "type": "string"
        }
      ],
      "name": "reveal",
      "outputs": [],
      "stateMutability": "nonpayable",
      "type": "function"
    },
    {
      "inputs": [
        {
          "internalType": "uint256[]",
          "name": "tokenIds",
          "type": "uint256[]"
        },
        {
          "internalType": "string[]",
          "name": "newURIs",
          "type": "string[]"
        }
      ],
      "name": "revealBatch",
      "outputs": [],
      "stateMutability": "nonpayable",
      "type": "function"
    },
    {
      "inputs": [
        {
          "internalType": "bytes32",
          "name": "role",
          "type": "bytes32"
        },
        {
          "internalType": "address",
          "name": "account",
          "type": "address"
        }
      ],
      "name": "revokeRole",
      "outputs": [],
      "stateMutability": "nonpayable",
      "type": "function"
    },
    {
      "inputs": [
        {
          "internalType": "address",
          "name": "from",
          "type": "address"
        },
        {
          "internalType": "address",
          "name": "to",
          "type": "address"
        },
        {
          "internalType": "uint256",
          "name": "tokenId",
          "type": "uint256"
        }
      ],
      "name": "safeTransferFrom",
      "outputs": [],
      "stateMutability": "nonpayable",
      "type": "function"
    },
    {
      "inputs": [
        {
          "internalType": "address",
          "name": "from",
          "type": "address"
        },
        {
          "internalType": "address",
          "name": "to",
          "type": "address"
        },
        {
          "internalType": "uint256",
          "name": "tokenId",
          "type": "uint256"
        },
        {
          "internalType": "bytes",
          "name": "data",
          "type": "bytes"
        }
      ],
      "name": "safeTransferFrom",
      "outputs": [],
      "stateMutability": "nonpayable",
      "type": "function"
    },
    {
      "inputs": [
        {
          "internalType": "address",
          "name": "operator",
          "type": "address"
        },
        {
          "internalType": "bool",
          "name": "approved",
          "type": "bool"
        }
      ],
      "name": "setApprovalForAll",
      "outputs": [],
      "stateMutability": "nonpayable",
      "type": "function"
    },
    {
      "inputs": [
        {
          "internalType": "string",
          "name": "newBaseURI",
          "type": "string"
        }
      ],
      "name": "setBaseURI",
      "outputs": [],
      "stateMutability": "nonpayable",
      "type": "function"
    },
    {
      "inputs": [
        {
          "internalType": "bool",
          "name": "enabled",
          "type": "bool"
        }
      ],
      "name": "setBaseURICompositionMode",
      "outputs": [],
      "stateMutability": "nonpayable",
      "type": "function"
    },
    {
      "inputs": [
        {
          "internalType": "address",
          "name": "newDistributor",
          "type": "address"
        }
      ],
      "name": "setDistributor",
      "outputs": [],
      "stateMutability": "nonpayable",
      "type": "function"
    },
    {
      "inputs": [
        {
          "internalType": "uint256",
          "name": "newLimit",
          "type": "uint256"
        }
      ],
      "name": "setMaxMintPerAddress",
      "outputs": [],
      "stateMutability": "nonpayable",
      "type": "function"
    },
    {
      "inputs": [
        {
          "internalType": "uint256",
          "name": "newMaxSupply",
          "type": "uint256"
        }
      ],
      "name": "setMaxSupply",
      "outputs": [],
      "stateMutability": "nonpayable",
      "type": "function"
    },
    {
      "inputs": [
        {
          "internalType": "uint256",
          "name": "newPrice",
          "type": "uint256"
        }
      ],
      "name": "setMintPrice",
      "outputs": [],
      "stateMutability": "nonpayable",
      "type": "function"
    },
    {
      "inputs": [
        {
          "internalType": "string",
          "name": "newPreRevealURI",
          "type": "string"
        }
      ],
      "name": "setPreRevealURI",
      "outputs": [],
      "stateMutability": "nonpayable",
      "type": "function"
    },
    {
      "inputs": [
        {
          "internalType": "bool",
          "name": "enabled",
          "type": "bool"
        }
      ],
      "name": "setPublicMintEnabled",
      "outputs": [],
      "stateMutability": "nonpayable",
      "type": "function"
    },
    {
      "inputs": [
        {
          "internalType": "bytes4",
          "name": "interfaceId",
          "type": "bytes4"
        }
      ],
      "name": "supportsInterface",
      "outputs": [
        {
          "internalType": "bool",
          "name": "",
          "type": "bool"
        }
      ],
      "stateMutability": "view",
      "type": "function"
    },
    {
      "inputs": [],
      "name": "symbol",
      "outputs": [
        {
          "internalType": "string",
          "name": "",
          "type": "string"
        }
      ],
      "stateMutability": "view",
      "type": "function"
    },
    {
      "inputs": [
        {
          "internalType": "uint256",
          "name": "",
          "type": "uint256"
        }
      ],
      "name": "tokenSku",
      "outputs": [
        {
          "internalType": "bytes32",
          "name": "",
          "type": "bytes32"
        }
      ],
      "stateMutability": "view",
      "type": "function"
    },
    {
      "inputs": [
        {
          "internalType": "uint256",
          "name": "tokenId",
          "type": "uint256"
        }
      ],
      "name": "tokenURI",
      "outputs": [
        {
          "internalType": "string",
          "name": "",
          "type": "string"
        }
      ],
      "stateMutability": "view",
      "type": "function"
    },
    {
      "inputs": [],
      "name": "totalDistributions",
      "outputs": [
        {
          "internalType": "uint256",
          "name": "",
          "type": "uint256"
        }
      ],
      "stateMutability": "view",
      "type": "function"
    },
    {
      "inputs": [],
      "name": "totalRevenue",
      "outputs": [
        {
          "internalType": "uint256",
          "name": "",
          "type": "uint256"
        }
      ],
      "stateMutability": "view",
      "type": "function"
    },
    {
      "inputs": [],
      "name": "totalSupply",
      "outputs": [
        {
          "internalType": "uint256",
          "name": "",
          "type": "uint256"
        }
      ],
      "stateMutability": "view",
      "type": "function"
    },
    {
      "inputs": [
        {
          "internalType": "address",
          "name": "from",
          "type": "address"
        },
        {
          "internalType": "address",
          "name": "to",
          "type": "address"
        },
        {
          "internalType": "uint256",
          "name": "tokenId",
          "type": "uint256"
        }
      ],
      "name": "transferFrom",
      "outputs": [],
      "stateMutability": "nonpayable",
      "type": "function"
    },
    {
      "inputs": [],
      "name": "unpause",
      "outputs": [],
      "stateMutability": "nonpayable",
      "type": "function"
    },
    {
      "inputs": [],
      "name": "useBaseURIComposition",
      "outputs": [
        {
          "internalType": "bool",
          "name": "",
          "type": "bool"
        }
      ],
      "stateMutability": "view",
      "type": "function"
    },
    {
      "inputs": [],
      "name": "version",
      "outputs": [
        {
          "internalType": "string",
          "name": "",
          "type": "string"
        }
      ],
      "stateMutability": "pure",
      "type": "function"
    },
    {
      "inputs": [
        {
          "internalType": "address",
          "name": "recipient",
          "type": "address"
        }
      ],
      "name": "withdraw",
      "outputs": [],
      "stateMutability": "nonpayable",
      "type": "function"
    }
  ],
  "bytecode": "0x60806040526001600b55600e805461ffff191690553480156200002157600080fd5b5060405162005ba838038062005ba883398101604081905262000044916200036a565b86866000620000548382620004c3565b506001620000638282620004c3565b50506007805460ff191690555060016008556001600160a01b038416620000d05760405162461bcd60e51b815260206004820152601c60248201527f4f776e65722063616e6e6f74206265207a65726f206164647265737300000000604482015260640160405180910390fd5b600a620000de8682620004c3565b50601080546001600160a01b0319166001600160a01b038516179055600c829055600d819055600a60145562000116600085620001e3565b620001427f9f2df0fed2c77648de5860a4cc508cd0818c85b8b8a1ab4ceeef8d981c8956a685620001e3565b6200016e7f7eedb2e31886aee6b48ad5b19b07b41f829d56c86a5c8a5cc10a185aeed9290485620001e3565b6200019a7f65d7a28e3265b37a6474929f336521b332c1681b933f6cb9f3376673440d862a85620001e3565b6001600160a01b03831615620001d657620001d67ffbd454f36a7e1a388bd6fc3ab10d434aa4578f811acbbcf33afb1c697486313c84620001e3565b505050505050506200058f565b60008281526006602090815260408083206001600160a01b038516845290915290205460ff16620002845760008281526006602090815260408083206001600160a01b03851684529091529020805460ff19166001179055620002433390565b6001600160a01b0316816001600160a01b0316837f2f8788117e7eff1d82e926ec794901d17c78024a50270940304540a733656f0d60405160405180910390a45b5050565b634e487b7160e01b600052604160045260246000fd5b600082601f830112620002b057600080fd5b81516001600160401b0380821115620002cd57620002cd62000288565b604051601f8301601f19908116603f01168101908282118183101715620002f857620002f862000288565b816040528381526020925086838588010111156200031557600080fd5b600091505b838210156200033957858201830151818301840152908201906200031a565b600093810190920192909252949350505050565b80516001600160a01b03811681146200036557600080fd5b919050565b600080600080600080600060e0888a0312156200038657600080fd5b87516001600160401b03808211156200039e57600080fd5b620003ac8b838c016200029e565b985060208a0151915080821115620003c357600080fd5b620003d18b838c016200029e565b975060408a0151915080821115620003e857600080fd5b50620003f78a828b016200029e565b95505062000408606089016200034d565b935062000418608089016200034d565b925060a0880151915060c0880151905092959891949750929550565b600181811c908216806200044957607f821691505b6020821081036200046a57634e487b7160e01b600052602260045260246000fd5b50919050565b601f821115620004be57600081815260208120601f850160051c81016020861015620004995750805b601f850160051c820191505b81811015620004ba57828155600101620004a5565b5050505b505050565b81516001600160401b03811115620004df57620004df62000288565b620004f781620004f0845462000434565b8462000470565b602080601f8311600181146200052f5760008415620005165750858301515b600019600386901b1c1916600185901b178555620004ba565b600085815260208120601f198616915b8281101562000560578886015182559484019460019091019084016200053f565b50858210156200057f5787850151600019600388901b60f8161c191681555b5050505050600190811b01905550565b615609806200059f6000396000f3fe6080604052600436106103ce5760003560e01c80636f8b44b0116101fd578063b88d4fde11610118578063d0def521116100ab578063e63ab1e91161007a578063e63ab1e914610bd9578063e985e9c514610c0d578063f0bd87cc14610c56578063f4a0a52814610c78578063fddcb5ea14610c9857600080fd5b8063d0def52114610b4f578063d539139314610b6f578063d547741f14610ba3578063d5abeb0114610bc357600080fd5b8063c59d4847116100e7578063c59d484714610a98578063c5d6455814610aef578063c87b56dd14610b0f578063cb9d63d114610b2f57600080fd5b8063b88d4fde14610a22578063bf2d9e0b14610a42578063c0e07dd614610a58578063c33a94a214610a6b57600080fd5b8063924cff6d11610190578063a22cb4651161015f578063a22cb4651461099b578063a51af4c5146109bb578063ab9ea1f8146109db578063b3d7acf914610a0f57600080fd5b8063924cff6d1461093b57806395d89b411461095b57806398d84aa014610970578063a217fddf1461098657600080fd5b8063818668d7116101cc578063818668d7146108c65780638456cb59146108e65780638dc78efa146108fb57806391d148541461091b57600080fd5b80636f8b44b01461085157806370a082311461087157806375619ab51461089157806379b6ed36146108b157600080fd5b806336568abe116102ed57806354fd4d5011610280578063613af2931161024f578063613af293146107db5780636352211e146107fb5780636817c76c1461081b5780636f65d3671461083157600080fd5b806354fd4d501461077857806355f804b31461078d578063572849c4146107ad5780635c975abb146107c357600080fd5b806342842e0e116102bc57806342842e0e146106a05780634d8be3ab146106c05780635055fbc31461072857806351cff8d91461075857600080fd5b806336568abe1461061f5780633a926def1461063f5780633c42406b1461065e5780633f4ba83a1461068b57600080fd5b80631e14d44b116103655780632a85db55116103345780632a85db55146105a95780632ca6ec38146105c95780632f2ff15d146105df5780632fa4548b146105ff57600080fd5b80631e14d44b1461050457806323b872dd14610524578063248a9ca31461054457806324b97c461461057457600080fd5b80630f4161aa116103a15780630f4161aa1461048457806312baa1ad1461049e578063163db71b146104cb57806318160ddd146104ef57600080fd5b806301ffc9a7146103d357806306fdde0314610408578063081812fc1461042a578063095ea7b314610462575b600080fd5b3480156103df57600080fd5b506103f36103ee366004614755565b610cc5565b60405190151581526020015b60405180910390f35b34801561041457600080fd5b5061041d610ce8565b6040516103ff91906147c2565b34801561043657600080fd5b5061044a6104453660046147d5565b610d7a565b6040516001600160a01b0390911681526020016103ff565b34801561046e57600080fd5b5061048261047d36600461480a565b610da1565b005b34801561049057600080fd5b50600e546103f39060ff1681565b3480156104aa57600080fd5b506104be6104b93660046147d5565b610ebb565b6040516103ff919061486c565b3480156104d757600080fd5b506104e160165481565b6040519081526020016103ff565b3480156104fb57600080fd5b506104e1610f9e565b34801561051057600080fd5b5061048261051f3660046147d5565b610fb4565b34801561053057600080fd5b5061048261053f3660046148b3565b610fc5565b34801561055057600080fd5b506104e161055f3660046147d5565b60009081526006602052604090206001015490565b34801561058057600080fd5b50610589610ff6565b6040805194855260208501939093529183015260608201526080016103ff565b3480156105b557600080fd5b506104826105c436600461499a565b611022565b3480156105d557600080fd5b506104e160195481565b3480156105eb57600080fd5b506104826105fa3660046149ce565b611039565b34801561060b57600080fd5b5061048261061a3660046149fa565b61105e565b34801561062b57600080fd5b5061048261063a3660046149ce565b6111ae565b34801561064b57600080fd5b50600e546103f390610100900460ff1681565b34801561066a57600080fd5b5061067e610679366004614a8b565b61122c565b6040516103ff9190614adb565b34801561069757600080fd5b50610482611640565b3480156106ac57600080fd5b506104826106bb3660046148b3565b611675565b3480156106cc57600080fd5b506107176106db3660046147d5565b601560205260009081526040902080546001820154600283015460038401546004909401546001600160a01b03909316939192909160ff169085565b6040516103ff959493929190614b1f565b34801561073457600080fd5b506103f36107433660046147d5565b60116020526000908152604090205460ff1681565b34801561076457600080fd5b50610482610773366004614b5a565b611690565b34801561078457600080fd5b5061041d611817565b34801561079957600080fd5b506104826107a836600461499a565b611837565b3480156107b957600080fd5b506104e160145481565b3480156107cf57600080fd5b5060075460ff166103f3565b3480156107e757600080fd5b506104e16107f6366004614b75565b61184e565b34801561080757600080fd5b5061044a6108163660046147d5565b611a7c565b34801561082757600080fd5b506104e1600d5481565b34801561083d57600080fd5b5061048261084c366004614bdb565b611adb565b34801561085d57600080fd5b5061048261086c3660046147d5565b611b3b565b34801561087d57600080fd5b506104e161088c366004614b5a565b611be2565b34801561089d57600080fd5b506104826108ac366004614b5a565b611c68565b3480156108bd57600080fd5b5061041d611d6b565b3480156108d257600080fd5b506104826108e1366004614bdb565b611df9565b3480156108f257600080fd5b50610482611e45565b34801561090757600080fd5b506104e1610916366004614bf6565b611e77565b34801561092757600080fd5b506103f36109363660046149ce565b6120d9565b34801561094757600080fd5b50610482610956366004614c29565b612104565b34801561096757600080fd5b5061041d6124b5565b34801561097c57600080fd5b506104e160185481565b34801561099257600080fd5b506104e1600081565b3480156109a757600080fd5b506104826109b6366004614c94565b6124c4565b3480156109c757600080fd5b5060105461044a906001600160a01b031681565b3480156109e757600080fd5b506104e17f7eedb2e31886aee6b48ad5b19b07b41f829d56c86a5c8a5cc10a185aeed9290481565b610482610a1d36600461499a565b6124cf565b348015610a2e57600080fd5b50610482610a3d366004614cbe565b6127c3565b348015610a4e57600080fd5b506104e160175481565b610482610a66366004614d39565b6127fb565b348015610a7757600080fd5b506104e1610a863660046147d5565b600f6020526000908152604090205481565b348015610aa457600080fd5b50610aad612bec565b60408051978852602088019690965294860193909352606085019190915215156080840152151560a08301526001600160a01b031660c082015260e0016103ff565b348015610afb57600080fd5b50610482610b0a366004614c29565b612c4b565b348015610b1b57600080fd5b5061041d610b2a3660046147d5565b612f64565b348015610b3b57600080fd5b5061067e610b4a366004614d5b565b6131d3565b348015610b5b57600080fd5b506104e1610b6a366004614dce565b6135f3565b348015610b7b57600080fd5b506104e17f9f2df0fed2c77648de5860a4cc508cd0818c85b8b8a1ab4ceeef8d981c8956a681565b348015610baf57600080fd5b50610482610bbe3660046149ce565b6137f6565b348015610bcf57600080fd5b506104e1600c5481565b348015610be557600080fd5b506104e17f65d7a28e3265b37a6474929f336521b332c1681b933f6cb9f3376673440d862a81565b348015610c1957600080fd5b506103f3610c28366004614e05565b6001600160a01b03918216600090815260056020908152604080832093909416825291909152205460ff1690565b348015610c6257600080fd5b506104e160008051602061553483398151915281565b348015610c8457600080fd5b50610482610c933660046147d5565b61381b565b348015610ca457600080fd5b506104e1610cb3366004614b5a565b60136020526000908152604090205481565b60006001600160e01b031982161580610ce25750610ce28261385b565b92915050565b606060008054610cf790614e2f565b80601f0160208091040260200160405190810160405280929190818152602001828054610d2390614e2f565b8015610d705780601f10610d4557610100808354040283529160200191610d70565b820191906000526020600020905b815481529060010190602001808311610d5357829003601f168201915b5050505050905090565b6000610d8582613880565b506000908152600460205260409020546001600160a01b031690565b6000610dac82611a7c565b9050806001600160a01b0316836001600160a01b031603610e1e5760405162461bcd60e51b815260206004820152602160248201527f4552433732313a20617070726f76616c20746f2063757272656e74206f776e656044820152603960f91b60648201526084015b60405180910390fd5b336001600160a01b0382161480610e3a5750610e3a8133610c28565b610eac5760405162461bcd60e51b815260206004820152603d60248201527f4552433732313a20617070726f76652063616c6c6572206973206e6f7420746f60448201527f6b656e206f776e6572206f7220617070726f76656420666f7220616c6c0000006064820152608401610e15565b610eb683836138d0565b505050565b6040805160a081018252600080825260208201819052918101829052606081018290526080810182905290610eef8361393e565b6001600160a01b031603610f155760405162461bcd60e51b8152600401610e1590614e69565b600082815260156020908152604091829020825160a08101845281546001600160a01b0316815260018201549281019290925260028082015493830193909352600381015491929091606084019160ff90911690811115610f7857610f78614834565b6002811115610f8957610f89614834565b81526020016004820154815250509050919050565b60006001600b54610faf9190614ead565b905090565b6000610fbf81613959565b50601455565b610fcf3382613963565b610feb5760405162461bcd60e51b8152600401610e1590614ec0565b610eb68383836139e1565b6000806000806016546018546019546001600b546110149190614ead565b935093509350935090919293565b600061102d81613959565b6012610eb68382614f5b565b60008281526006602052604090206001015461105481613959565b610eb68383613b45565b7f7eedb2e31886aee6b48ad5b19b07b41f829d56c86a5c8a5cc10a185aeed9290461108881613959565b611090613bcb565b600061109b8461393e565b6001600160a01b0316036110c15760405162461bcd60e51b8152600401610e1590614e69565b60008381526011602052604090205460ff16156111195760405162461bcd60e51b8152602060048201526016602482015275151bdad95b88185b1c9958591e481c995d99585b195960521b6044820152606401610e15565b6111238383613c13565b60008381526011602052604090819020805460ff191660011790555183907faaa3596bf0189d953a8f8d17cab13556b9f570f5cbe554aea85b987c0ac3e2819061116e9085906147c2565b60405180910390a26040518381527ff8e1a15aba9398e019f0b49df1a4fde98ee17ae345cb5f6b5e2c27f5033e8ce79060200160405180910390a1505050565b6001600160a01b038116331461121e5760405162461bcd60e51b815260206004820152602f60248201527f416363657373436f6e74726f6c3a2063616e206f6e6c792072656e6f756e636560448201526e103937b632b9903337b91039b2b63360891b6064820152608401610e15565b6112288282613c8c565b5050565b606060008051602061553483398151915261124681613959565b61124e613bcb565b611256613cf3565b60328511156112775760405162461bcd60e51b8152600401610e159061501a565b846112945760405162461bcd60e51b8152600401610e1590615048565b836112b15760405162461bcd60e51b8152600401610e159061506d565b600c5415806112dc5750600c54600b546001906112cf908890615092565b6112d99190614ead565b11155b6112f85760405162461bcd60e51b8152600401610e15906150a5565b6000856001600160401b03811115611312576113126148ef565b60405190808252806020026020018201604052801561133b578160200160208202803683370190505b50905060005b8681101561162a57600088888381811061135d5761135d6150dc565b90506020020160208101906113729190614b5a565b6001600160a01b0316036113985760405162461bcd60e51b8152600401610e15906150f2565b600b8054600091826113a983615129565b9190505590506113df8989848181106113c4576113c46150dc565b90506020020160208101906113d99190614b5a565b82613d4c565b6000818152600f60205260409020879055600e54610100900460ff1661141a576000818152601160205260409020805460ff19169055611434565b6000818152601160205260409020805460ff191660011790555b6040518060a001604052808a8a85818110611451576114516150dc565b90506020020160208101906114669190614b5a565b6001600160a01b0316815260208101839052426040820152606001600081526020908101889052600083815260158252604090819020835181546001600160a01b0319166001600160a01b03909116178155918301516001808401919091559083015160028084019190915560608401516003840180549193909260ff199092169184908111156114f9576114f9614834565b0217905550608082015181600401559050508083838151811061151e5761151e6150dc565b60209081029190910101526016805490600061153983615129565b90915550506018805490600061154e83615129565b919050555080898984818110611566576115666150dc565b905060200201602081019061157b9190614b5a565b6001600160a01b0316336001600160a01b03166000805160206155b4833981519152896040516115ad91815260200190565b60405180910390a4808989848181106115c8576115c86150dc565b90506020020160208101906115dd9190614b5a565b6001600160a01b03166000805160206155948339815191526115ff8a85613d66565b600060405161160f929190615142565b60405180910390a3508061162281615129565b915050611341565b5091506116376001600855565b50949350505050565b7f65d7a28e3265b37a6474929f336521b332c1681b933f6cb9f3376673440d862a61166a81613959565b611672613dca565b50565b610eb6838383604051806020016040528060008152506127c3565b600061169b81613959565b6116a3613cf3565b6001600160a01b0382166116ed5760405162461bcd60e51b8152602060048201526011602482015270125b9d985b1a59081c9958da5c1a595b9d607a1b6044820152606401610e15565b47806117325760405162461bcd60e51b81526020600482015260146024820152734e6f2066756e647320746f20776974686472617760601b6044820152606401610e15565b6000836001600160a01b03168260405160006040518083038185875af1925050503d806000811461177f576040519150601f19603f3d011682016040523d82523d6000602084013e611784565b606091505b50509050806117c95760405162461bcd60e51b815260206004820152601160248201527015da5d1a191c985dd85b0819985a5b1959607a1b6044820152606401610e15565b604080516001600160a01b0386168152602081018490527f86a5cc8fe9af9ae68fb50f62885307a7755a30cbd290131644377f0bd94a7181910160405180910390a150506112286001600855565b606060405180606001604052806040815260200161555460409139905090565b600061184281613959565b600a610eb68382614f5b565b600060008051602061553483398151915261186881613959565b611870613bcb565b611878613cf3565b6001600160a01b03851661189e5760405162461bcd60e51b8152600401610e15906150f2565b6118a6613e1c565b6118c25760405162461bcd60e51b8152600401610e1590615164565b600b8054600091826118d383615129565b9190505590506118e38682613d4c565b84511561190e576118f48186613c13565b6000818152601160205260409020805460ff191660011790555b6040518060a00160405280876001600160a01b031681526020018281526020014281526020016000600281111561194757611947614834565b81526020908101869052600083815260158252604090819020835181546001600160a01b0319166001600160a01b03909116178155918301516001808401919091559083015160028084019190915560608401516003840180549193909260ff199092169184908111156119bd576119bd614834565b021790555060809190910151600490910155601680549060006119df83615129565b9091555050601880549060006119f483615129565b919050555080866001600160a01b0316336001600160a01b03166000805160206155b483398151915287604051611a2d91815260200190565b60405180910390a480866001600160a01b0316600080516020615594833981519152876000604051611a60929190615142565b60405180910390a39150611a746001600855565b509392505050565b600080611a888361393e565b90506001600160a01b038116610ce25760405162461bcd60e51b8152602060048201526018602482015277115490cdcc8c4e881a5b9d985b1a59081d1bdad95b88125160421b6044820152606401610e15565b6000611ae681613959565b600e80548315156101000261ff00199091161790556040517f49ca3d37ccea7d3345da2d48d371d212dedf8a8478c4a8a0555ba3ef1d23b8e790611b2f90841515815260200190565b60405180910390a15050565b6000611b4681613959565b811580611b6157506001600b54611b5d9190614ead565b8210155b611bad5760405162461bcd60e51b815260206004820152601f60248201527f43616e6e6f74207365742062656c6f772063757272656e7420737570706c79006044820152606401610e15565b600c8290556040518281527f7810bd47de260c3e9ee10061cf438099dd12256c79485f12f94dbccc981e806c90602001611b2f565b60006001600160a01b038216611c4c5760405162461bcd60e51b815260206004820152602960248201527f4552433732313a2061646472657373207a65726f206973206e6f7420612076616044820152683634b21037bbb732b960b91b6064820152608401610e15565b506001600160a01b031660009081526003602052604090205490565b6000611c7381613959565b6001600160a01b038216611cc95760405162461bcd60e51b815260206004820152601b60248201527f496e76616c6964206469737472696275746f72206164647265737300000000006044820152606401610e15565b6010546001600160a01b03168015611cf357611cf360008051602061553483398151915282613c8c565b601080546001600160a01b0319166001600160a01b038516179055611d2660008051602061553483398151915284613b45565b826001600160a01b0316816001600160a01b03167f111a961d91cf441fe07e7bfddc128b30ab56974d1a76851e969e0642fdb2dd5060405160405180910390a3505050565b60128054611d7890614e2f565b80601f0160208091040260200160405190810160405280929190818152602001828054611da490614e2f565b8015611df15780601f10611dc657610100808354040283529160200191611df1565b820191906000526020600020905b815481529060010190602001808311611dd457829003601f168201915b505050505081565b6000611e0481613959565b600e805460ff19168315159081179091556040519081527f696ca93f2d646dcbf31ca7a85da7f825bd3796a6d7baa7321166e324bd25f4db90602001611b2f565b7f65d7a28e3265b37a6474929f336521b332c1681b933f6cb9f3376673440d862a611e6f81613959565b611672613e36565b6000600080516020615534833981519152611e9181613959565b611e99613bcb565b611ea1613cf3565b6001600160a01b038516611ec75760405162461bcd60e51b8152600401610e15906150f2565b611ecf613e1c565b611eeb5760405162461bcd60e51b8152600401610e1590615164565b83611f085760405162461bcd60e51b8152600401610e159061506d565b600b805460009182611f1983615129565b919050559050611f298682613d4c565b6000818152600f60205260409020859055600e54610100900460ff16611f64576000818152601160205260409020805460ff19169055611f7e565b6000818152601160205260409020805460ff191660011790555b6040518060a00160405280876001600160a01b0316815260200182815260200142815260200160006002811115611fb757611fb7614834565b81526020908101869052600083815260158252604090819020835181546001600160a01b0319166001600160a01b03909116178155918301516001808401919091559083015160028084019190915560608401516003840180549193909260ff1990921691849081111561202d5761202d614834565b0217905550608091909101516004909101556016805490600061204f83615129565b90915550506018805490600061206483615129565b919050555080866001600160a01b0316336001600160a01b03166000805160206155b48339815191528760405161209d91815260200190565b60405180910390a480866001600160a01b03166000805160206155948339815191526120c98885613d66565b6000604051611a60929190615142565b60009182526006602090815260408084206001600160a01b0393909316845291905290205460ff1690565b7f9f2df0fed2c77648de5860a4cc508cd0818c85b8b8a1ab4ceeef8d981c8956a661212e81613959565b612136613bcb565b61213e613cf3565b83821461215d5760405162461bcd60e51b8152600401610e1590615190565b603284111561217e5760405162461bcd60e51b8152600401610e159061501a565b8361219b5760405162461bcd60e51b8152600401610e1590615048565b600c5415806121c65750600c54600b546001906121b9908790615092565b6121c39190614ead565b11155b6121e25760405162461bcd60e51b8152600401610e15906150a5565b60005b848110156124a3576000868683818110612201576122016150dc565b90506020020160208101906122169190614b5a565b6001600160a01b03160361223c5760405162461bcd60e51b8152600401610e15906150f2565b600b80546000918261224d83615129565b9190505590506122688787848181106113c4576113c46150dc565b600085858481811061227c5761227c6150dc565b905060200281019061228e91906151bf565b90501115612312576122f8818686858181106122ac576122ac6150dc565b90506020028101906122be91906151bf565b8080601f016020809104026020016040519081016040528093929190818152602001838380828437600092019190915250613c1392505050565b6000818152601160205260409020805460ff191660011790555b6040518060a0016040528088888581811061232f5761232f6150dc565b90506020020160208101906123449190614b5a565b6001600160a01b0316815260208101839052426040820152606001600181526000602091820181905283815260158252604090819020835181546001600160a01b0319166001600160a01b03909116178155918301516001808401919091559083015160028084019190915560608401516003840180549193909260ff199092169184908111156123d7576123d7614834565b021790555060809190910151600490910155601680549060006123f983615129565b90915550506019805490600061240e83615129565b919050555080878784818110612426576124266150dc565b905060200201602081019061243b9190614b5a565b6001600160a01b0316600080516020615594833981519152878786818110612465576124656150dc565b905060200281019061247791906151bf565b60016040516124889392919061522e565b60405180910390a3508061249b81615129565b9150506121e5565b506124ae6001600855565b5050505050565b606060018054610cf790614e2f565b611228338383613e73565b6124d7613bcb565b6124df613cf3565b600e5460ff1661252b5760405162461bcd60e51b8152602060048201526017602482015276141d589b1a58c81b5a5b9d081b9bdd08195b98589b1959604a1b6044820152606401610e15565b6000600d541161257d5760405162461bcd60e51b815260206004820152601a60248201527f5075626c6963206d696e74206e6f7420636f6e666967757265640000000000006044820152606401610e15565b600d543410156125c65760405162461bcd60e51b8152602060048201526014602482015273125b9cdd59999a58da595b9d081c185e5b595b9d60621b6044820152606401610e15565b6125ce613e1c565b6125ea5760405162461bcd60e51b8152600401610e1590615164565b6014541580612609575060145433600090815260136020526040902054105b61264b5760405162461bcd60e51b8152602060048201526013602482015272135a5b9d081b1a5b5a5d08195e18d959591959606a1b6044820152606401610e15565b600b80546000918261265c83615129565b91905055905061266c3382613d4c565b33600090815260136020526040812080549161268783615129565b9190505550346017600082825461269e9190615092565b90915550508151156126ce576126b48183613c13565b6000818152601160205260409020805460ff191660011790555b6040805160a081018252338152602080820184815242838501908152600260608501818152600060808701819052888152601590955295909320845181546001600160a01b0319166001600160a01b0390911617815591516001808401919091559051828401559351600382018054949592949193909260ff199092169190849081111561275e5761275e614834565b0217905550608091909101516004909101556016805490600061278083615129565b919050555080336001600160a01b03166000805160206155948339815191528460026040516127b0929190615142565b60405180910390a3506116726001600855565b6127cd3383613963565b6127e95760405162461bcd60e51b8152600401610e1590614ec0565b6127f584848484613f41565b50505050565b612803613bcb565b61280b613cf3565b600e5460ff166128575760405162461bcd60e51b8152602060048201526017602482015276141d589b1a58c81b5a5b9d081b9bdd08195b98589b1959604a1b6044820152606401610e15565b6000600d54116128a95760405162461bcd60e51b815260206004820152601a60248201527f5075626c6963206d696e74206e6f7420636f6e666967757265640000000000006044820152606401610e15565b6000821180156128ba5750600a8211155b6128f75760405162461bcd60e51b815260206004820152600e60248201526d125b9d985b1a5908185b5bdd5b9d60921b6044820152606401610e15565b81600d546129059190615251565b34101561294b5760405162461bcd60e51b8152602060048201526014602482015273125b9cdd59999a58da595b9d081c185e5b595b9d60621b6044820152606401610e15565b600c5415806129755750600c54600183600b546129689190615092565b6129729190614ead565b11155b6129b65760405162461bcd60e51b815260206004820152601260248201527145786365656473206d617820737570706c7960701b6044820152606401610e15565b60145415806129e15750601454336000908152601360205260409020546129de908490615092565b11155b612a235760405162461bcd60e51b8152602060048201526013602482015272135a5b9d081b1a5b5a5d08195e18d959591959606a1b6044820152606401610e15565b80612a405760405162461bcd60e51b8152600401610e159061506d565b60005b82811015612ba557600b805460009182612a5c83615129565b919050559050612a6c3382613d4c565b6000818152600f60205260409020839055600e54610100900460ff1615612aa7576000818152601160205260409020805460ff191660011790555b6040805160a081018252338152602080820184815242838501908152600260608501818152600060808701819052888152601590955295909320845181546001600160a01b0319166001600160a01b0390911617815591516001808401919091559051828401559351600382018054949592949193909260ff1990921691908490811115612b3757612b37614834565b02179055506080919091015160049091015560168054906000612b5983615129565b9091555081905033600080516020615594833981519152612b7a8684613d66565b6002604051612b8a929190615142565b60405180910390a35080612b9d81615129565b915050612a43565b503360009081526013602052604081208054849290612bc5908490615092565b925050819055503460176000828254612bde9190615092565b909155505060016008555050565b60008060008060008060006001600b54612c069190614ead565b600c54600d54601754600e54939a509198509650945060ff169250612c2d60075460ff1690565b6010549798969795969495939490936001600160a01b031692509050565b7f7eedb2e31886aee6b48ad5b19b07b41f829d56c86a5c8a5cc10a185aeed92904612c7581613959565b612c7d613bcb565b838214612c9c5760405162461bcd60e51b8152600401610e1590615190565b6064841115612cbd5760405162461bcd60e51b8152600401610e159061501a565b60005b84811015612ed3576000612ceb878784818110612cdf57612cdf6150dc565b9050602002013561393e565b6001600160a01b031603612d115760405162461bcd60e51b8152600401610e1590614e69565b60116000878784818110612d2757612d276150dc565b602090810292909201358352508101919091526040016000205460ff1615612d8a5760405162461bcd60e51b8152602060048201526016602482015275151bdad95b88185b1c9958591e481c995d99585b195960521b6044820152606401610e15565b612db8868683818110612d9f57612d9f6150dc565b905060200201358585848181106122ac576122ac6150dc565b600160116000888885818110612dd057612dd06150dc565b90506020020135815260200190815260200160002060006101000a81548160ff021916908315150217905550858582818110612e0e57612e0e6150dc565b905060200201357faaa3596bf0189d953a8f8d17cab13556b9f570f5cbe554aea85b987c0ac3e281858584818110612e4857612e486150dc565b9050602002810190612e5a91906151bf565b604051612e68929190615268565b60405180910390a27ff8e1a15aba9398e019f0b49df1a4fde98ee17ae345cb5f6b5e2c27f5033e8ce7868683818110612ea357612ea36150dc565b90506020020135604051612eb991815260200190565b60405180910390a180612ecb81615129565b915050612cc0565b5060018411156124ae577f6bd5c950a8d8df17f772f5af37cb3655737899cbf903264b9795592da439661c85856000818110612f1157612f116150dc565b602002919091013590508686612f28600182614ead565b818110612f3757612f376150dc565b90506020020135604051612f55929190918252602082015260400190565b60405180910390a15050505050565b60606000612f718361393e565b6001600160a01b031603612fc75760405162461bcd60e51b815260206004820152601f60248201527f55524920717565727920666f72206e6f6e6578697374656e7420746f6b656e006044820152606401610e15565b60008281526011602052604090205460ff16158015612ff45750600060128054612ff090614e2f565b9050115b1561308b576012805461300690614e2f565b80601f016020809104026020016040519081016040528092919081815260200182805461303290614e2f565b801561307f5780601f106130545761010080835404028352916020019161307f565b820191906000526020600020905b81548152906001019060200180831161306257829003601f168201915b50505050509050919050565b600e54610100900460ff1680156130af57506000828152600f602052604090205415155b156130cd576000828152600f6020526040902054610ce29083613d66565b600082815260096020526040812080546130e690614e2f565b80601f016020809104026020016040519081016040528092919081815260200182805461311290614e2f565b801561315f5780601f106131345761010080835404028352916020019161315f565b820191906000526020600020905b81548152906001019060200180831161314257829003601f168201915b505050505090506000815111156131765792915050565b6000613180613f74565b905060008151116131a057604051806020016040528060008152506131cb565b806131aa85613f83565b6040516020016131bb929190615298565b6040516020818303038152906040525b949350505050565b60606000805160206155348339815191526131ed81613959565b6131f5613bcb565b6131fd613cf3565b85841461321c5760405162461bcd60e51b8152600401610e1590615190565b603286111561323d5760405162461bcd60e51b8152600401610e159061501a565b8561325a5760405162461bcd60e51b8152600401610e1590615048565b600c5415806132855750600c54600b54600190613278908990615092565b6132829190614ead565b11155b6132a15760405162461bcd60e51b8152600401610e15906150a5565b6000866001600160401b038111156132bb576132bb6148ef565b6040519080825280602002602001820160405280156132e4578160200160208202803683370190505b50905060005b878110156135dc576000898983818110613306576133066150dc565b905060200201602081019061331b9190614b5a565b6001600160a01b0316036133415760405162461bcd60e51b8152600401610e15906150f2565b600b80546000918261335283615129565b91905055905061336d8a8a848181106113c4576113c46150dc565b6000888884818110613381576133816150dc565b905060200281019061339391906151bf565b905011156133cb576133b1818989858181106122ac576122ac6150dc565b6000818152601160205260409020805460ff191660011790555b6040518060a001604052808b8b858181106133e8576133e86150dc565b90506020020160208101906133fd9190614b5a565b6001600160a01b0316815260208101839052426040820152606001600081526020908101889052600083815260158252604090819020835181546001600160a01b0319166001600160a01b03909116178155918301516001808401919091559083015160028084019190915560608401516003840180549193909260ff1990921691849081111561349057613490614834565b021790555060808201518160040155905050808383815181106134b5576134b56150dc565b6020908102919091010152601680549060006134d083615129565b9091555050601880549060006134e583615129565b9190505550808a8a848181106134fd576134fd6150dc565b90506020020160208101906135129190614b5a565b6001600160a01b0316336001600160a01b03166000805160206155b48339815191528960405161354491815260200190565b60405180910390a4808a8a8481811061355f5761355f6150dc565b90506020020160208101906135749190614b5a565b6001600160a01b03166000805160206155948339815191528a8a8681811061359e5761359e6150dc565b90506020028101906135b091906151bf565b60006040516135c19392919061522e565b60405180910390a350806135d481615129565b9150506132ea565b5091506135e96001600855565b5095945050505050565b60007f9f2df0fed2c77648de5860a4cc508cd0818c85b8b8a1ab4ceeef8d981c8956a661361f81613959565b613627613bcb565b61362f613cf3565b6001600160a01b0384166136555760405162461bcd60e51b8152600401610e15906150f2565b61365d613e1c565b6136795760405162461bcd60e51b8152600401610e1590615164565b600b80546000918261368a83615129565b91905055905061369a8582613d4c565b8351156136c5576136ab8185613c13565b6000818152601160205260409020805460ff191660011790555b6040518060a00160405280866001600160a01b03168152602001828152602001428152602001600160028111156136fe576136fe614834565b81526000602091820181905283815260158252604090819020835181546001600160a01b0319166001600160a01b03909116178155918301516001808401919091559083015160028084019190915560608401516003840180549193909260ff1990921691849081111561377457613774614834565b0217905550608091909101516004909101556016805490600061379683615129565b9091555050601980549060006137ab83615129565b919050555080856001600160a01b03166000805160206155948339815191528660016040516137db929190615142565b60405180910390a391506137ef6001600855565b5092915050565b60008281526006602052604090206001015461381181613959565b610eb68383613c8c565b600061382681613959565b600d8290556040518281527f525b762709cc2a983aec5ccdfd807a061f993c91090b5bcd7da92ca254976aaa90602001611b2f565b60006001600160e01b03198216637965db0b60e01b1480610ce25750610ce282614083565b613889816140d3565b6116725760405162461bcd60e51b8152602060048201526018602482015277115490cdcc8c4e881a5b9d985b1a59081d1bdad95b88125160421b6044820152606401610e15565b600081815260046020526040902080546001600160a01b0319166001600160a01b038416908117909155819061390582611a7c565b6001600160a01b03167f8c5be1e5ebec7d5bd14f71427d1e84f3dd0314c0f7b2291e5b200ac8c7c3b92560405160405180910390a45050565b6000908152600260205260409020546001600160a01b031690565b61167281336140f0565b60008061396f83611a7c565b9050806001600160a01b0316846001600160a01b031614806139b657506001600160a01b0380821660009081526005602090815260408083209388168352929052205460ff165b806131cb5750836001600160a01b03166139cf84610d7a565b6001600160a01b031614949350505050565b826001600160a01b03166139f482611a7c565b6001600160a01b031614613a1a5760405162461bcd60e51b8152600401610e15906152c7565b6001600160a01b038216613a7c5760405162461bcd60e51b8152602060048201526024808201527f4552433732313a207472616e7366657220746f20746865207a65726f206164646044820152637265737360e01b6064820152608401610e15565b826001600160a01b0316613a8f82611a7c565b6001600160a01b031614613ab55760405162461bcd60e51b8152600401610e15906152c7565b600081815260046020908152604080832080546001600160a01b03199081169091556001600160a01b0387811680865260038552838620805460001901905590871680865283862080546001019055868652600290945282852080549092168417909155905184937fddf252ad1be2c89b69c2b068fc378daa952ba7f163c4a11628f55a4df523b3ef91a4505050565b613b4f82826120d9565b6112285760008281526006602090815260408083206001600160a01b03851684529091529020805460ff19166001179055613b873390565b6001600160a01b0316816001600160a01b0316837f2f8788117e7eff1d82e926ec794901d17c78024a50270940304540a733656f0d60405160405180910390a45050565b60075460ff1615613c115760405162461bcd60e51b815260206004820152601060248201526f14185d5cd8589b194e881c185d5cd95960821b6044820152606401610e15565b565b6000613c1e8361393e565b6001600160a01b031603613c745760405162461bcd60e51b815260206004820152601c60248201527f55524920736574206f66206e6f6e6578697374656e7420746f6b656e000000006044820152606401610e15565b6000828152600960205260409020610eb68282614f5b565b613c9682826120d9565b156112285760008281526006602090815260408083206001600160a01b0385168085529252808320805460ff1916905551339285917ff6391f5c32d9c69d2a47ea670b442974b53935d1edc7fd64eb21e047a839171b9190a45050565b600260085403613d455760405162461bcd60e51b815260206004820152601f60248201527f5265656e7472616e637947756172643a207265656e7472616e742063616c6c006044820152606401610e15565b6002600855565b611228828260405180602001604052806000815250614149565b600e54606090610100900460ff16613d8d5750604080516020810190915260008152610ce2565b600a613d988461417c565b613da184613f83565b604051602001613db39392919061530c565b604051602081830303815290604052905092915050565b613dd26142d4565b6007805460ff191690557f5db9ee0a495bf2e6ff9c91a7834c1ba4fdd244a5e8aa4e537bd38aeae4b073aa335b6040516001600160a01b03909116815260200160405180910390a1565b6000600c5460001480610faf575050600c54600b54111590565b613e3e613bcb565b6007805460ff191660011790557f62e78cea01bee320cd4e420270b5ea74000d11b0c9f74754ebdbfc544b05a258613dff3390565b816001600160a01b0316836001600160a01b031603613ed45760405162461bcd60e51b815260206004820152601960248201527f4552433732313a20617070726f766520746f2063616c6c6572000000000000006044820152606401610e15565b6001600160a01b03838116600081815260056020908152604080832094871680845294825291829020805460ff191686151590811790915591519182527f17307eab39ab6107e8899845ad3d59bd9653f200f220920489ca2b5937696c31910160405180910390a3505050565b613f4c8484846139e1565b613f588484848461431d565b6127f55760405162461bcd60e51b8152600401610e15906153bd565b6060600a8054610cf790614e2f565b606081600003613faa5750506040805180820190915260018152600360fc1b602082015290565b8160005b8115613fd45780613fbe81615129565b9150613fcd9050600a83615425565b9150613fae565b6000816001600160401b03811115613fee57613fee6148ef565b6040519080825280601f01601f191660200182016040528015614018576020820181803683370190505b5090505b84156131cb5761402d600183614ead565b915061403a600a86615439565b614045906030615092565b60f81b81838151811061405a5761405a6150dc565b60200101906001600160f81b031916908160001a90535061407c600a86615425565b945061401c565b60006001600160e01b031982166380ac58cd60e01b14806140b457506001600160e01b03198216635b5e139f60e01b145b80610ce257506301ffc9a760e01b6001600160e01b0319831614610ce2565b6000806140df8361393e565b6001600160a01b0316141592915050565b6140fa82826120d9565b611228576141078161441e565b614112836020614430565b60405160200161412392919061544d565b60408051601f198184030181529082905262461bcd60e51b8252610e15916004016147c2565b61415383836145d2565b614160600084848461431d565b610eb65760405162461bcd60e51b8152600401610e15906153bd565b604080518082018252601081526f181899199a1a9b1b9c1cb0b131b232b360811b6020820152815182815260608181018452926000919060208201818036833701905050905060005b6020811015611a74578260048683602081106141e3576141e36150dc565b1a60f81b6001600160f81b031916901c60f81c60ff1681518110614209576142096150dc565b01602001516001600160f81b03191682614224836002615251565b81518110614234576142346150dc565b60200101906001600160f81b031916908160001a9053508285826020811061425e5761425e6150dc565b825191901a600f16908110614275576142756150dc565b01602001516001600160f81b03191682614290836002615251565b61429b906001615092565b815181106142ab576142ab6150dc565b60200101906001600160f81b031916908160001a905350806142cc81615129565b9150506141c5565b60075460ff16613c115760405162461bcd60e51b815260206004820152601460248201527314185d5cd8589b194e881b9bdd081c185d5cd95960621b6044820152606401610e15565b60006001600160a01b0384163b1561441357604051630a85bd0160e11b81526001600160a01b0385169063150b7a02906143619033908990889088906004016154c2565b6020604051808303816000875af192505050801561439c575060408051601f3d908101601f19168201909252614399918101906154ff565b60015b6143f9573d8080156143ca576040519150601f19603f3d011682016040523d82523d6000602084013e6143cf565b606091505b5080516000036143f15760405162461bcd60e51b8152600401610e15906153bd565b805181602001fd5b6001600160e01b031916630a85bd0160e11b1490506131cb565b506001949350505050565b6060610ce26001600160a01b03831660145b6060600061443f836002615251565b61444a906002615092565b6001600160401b03811115614461576144616148ef565b6040519080825280601f01601f19166020018201604052801561448b576020820181803683370190505b509050600360fc1b816000815181106144a6576144a66150dc565b60200101906001600160f81b031916908160001a905350600f60fb1b816001815181106144d5576144d56150dc565b60200101906001600160f81b031916908160001a90535060006144f9846002615251565b614504906001615092565b90505b600181111561457c576f181899199a1a9b1b9c1cb0b131b232b360811b85600f1660108110614538576145386150dc565b1a60f81b82828151811061454e5761454e6150dc565b60200101906001600160f81b031916908160001a90535060049490941c936145758161551c565b9050614507565b5083156145cb5760405162461bcd60e51b815260206004820181905260248201527f537472696e67733a20686578206c656e67746820696e73756666696369656e746044820152606401610e15565b9392505050565b6001600160a01b0382166146285760405162461bcd60e51b815260206004820181905260248201527f4552433732313a206d696e7420746f20746865207a65726f20616464726573736044820152606401610e15565b614631816140d3565b1561467e5760405162461bcd60e51b815260206004820152601c60248201527f4552433732313a20746f6b656e20616c7265616479206d696e746564000000006044820152606401610e15565b614687816140d3565b156146d45760405162461bcd60e51b815260206004820152601c60248201527f4552433732313a20746f6b656e20616c7265616479206d696e746564000000006044820152606401610e15565b6001600160a01b038216600081815260036020908152604080832080546001019055848352600290915280822080546001600160a01b0319168417905551839291907fddf252ad1be2c89b69c2b068fc378daa952ba7f163c4a11628f55a4df523b3ef908290a45050565b6001600160e01b03198116811461167257600080fd5b60006020828403121561476757600080fd5b81356145cb8161473f565b60005b8381101561478d578181015183820152602001614775565b50506000910152565b600081518084526147ae816020860160208601614772565b601f01601f19169290920160200192915050565b6020815260006145cb6020830184614796565b6000602082840312156147e757600080fd5b5035919050565b80356001600160a01b038116811461480557600080fd5b919050565b6000806040838503121561481d57600080fd5b614826836147ee565b946020939093013593505050565b634e487b7160e01b600052602160045260246000fd5b6003811061486857634e487b7160e01b600052602160045260246000fd5b9052565b81516001600160a01b03168152602080830151908201526040808301519082015260608083015160a08301916148a49084018261484a565b50608092830151919092015290565b6000806000606084860312156148c857600080fd5b6148d1846147ee565b92506148df602085016147ee565b9150604084013590509250925092565b634e487b7160e01b600052604160045260246000fd5b60006001600160401b038084111561491f5761491f6148ef565b604051601f8501601f19908116603f01168101908282118183101715614947576149476148ef565b8160405280935085815286868601111561496057600080fd5b858560208301376000602087830101525050509392505050565b600082601f83011261498b57600080fd5b6145cb83833560208501614905565b6000602082840312156149ac57600080fd5b81356001600160401b038111156149c257600080fd5b6131cb8482850161497a565b600080604083850312156149e157600080fd5b823591506149f1602084016147ee565b90509250929050565b60008060408385031215614a0d57600080fd5b8235915060208301356001600160401b03811115614a2a57600080fd5b614a368582860161497a565b9150509250929050565b60008083601f840112614a5257600080fd5b5081356001600160401b03811115614a6957600080fd5b6020830191508360208260051b8501011115614a8457600080fd5b9250929050565b60008060008060608587031215614aa157600080fd5b84356001600160401b03811115614ab757600080fd5b614ac387828801614a40565b90989097506020870135966040013595509350505050565b6020808252825182820181905260009190848201906040850190845b81811015614b1357835183529284019291840191600101614af7565b50909695505050505050565b6001600160a01b0386168152602081018590526040810184905260a08101614b4a606083018561484a565b8260808301529695505050505050565b600060208284031215614b6c57600080fd5b6145cb826147ee565b600080600060608486031215614b8a57600080fd5b614b93846147ee565b925060208401356001600160401b03811115614bae57600080fd5b614bba8682870161497a565b925050604084013590509250925092565b8035801515811461480557600080fd5b600060208284031215614bed57600080fd5b6145cb82614bcb565b600080600060608486031215614c0b57600080fd5b614c14846147ee565b95602085013595506040909401359392505050565b60008060008060408587031215614c3f57600080fd5b84356001600160401b0380821115614c5657600080fd5b614c6288838901614a40565b90965094506020870135915080821115614c7b57600080fd5b50614c8887828801614a40565b95989497509550505050565b60008060408385031215614ca757600080fd5b614cb0836147ee565b91506149f160208401614bcb565b60008060008060808587031215614cd457600080fd5b614cdd856147ee565b9350614ceb602086016147ee565b92506040850135915060608501356001600160401b03811115614d0d57600080fd5b8501601f81018713614d1e57600080fd5b614d2d87823560208401614905565b91505092959194509250565b60008060408385031215614d4c57600080fd5b50508035926020909101359150565b600080600080600060608688031215614d7357600080fd5b85356001600160401b0380821115614d8a57600080fd5b614d9689838a01614a40565b90975095506020880135915080821115614daf57600080fd5b50614dbc88828901614a40565b96999598509660400135949350505050565b60008060408385031215614de157600080fd5b614dea836147ee565b915060208301356001600160401b03811115614a2a57600080fd5b60008060408385031215614e1857600080fd5b614e21836147ee565b91506149f1602084016147ee565b600181811c90821680614e4357607f821691505b602082108103614e6357634e487b7160e01b600052602260045260246000fd5b50919050565b602080825260149082015273151bdad95b88191bd95cc81b9bdd08195e1a5cdd60621b604082015260600190565b634e487b7160e01b600052601160045260246000fd5b81810381811115610ce257610ce2614e97565b6020808252602d908201527f4552433732313a2063616c6c6572206973206e6f7420746f6b656e206f776e6560408201526c1c881bdc88185c1c1c9bdd9959609a1b606082015260800190565b601f821115610eb657600081815260208120601f850160051c81016020861015614f345750805b601f850160051c820191505b81811015614f5357828155600101614f40565b505050505050565b81516001600160401b03811115614f7457614f746148ef565b614f8881614f828454614e2f565b84614f0d565b602080601f831160018114614fbd5760008415614fa55750858301515b600019600386901b1c1916600185901b178555614f53565b600085815260208120601f198616915b82811015614fec57888601518255948401946001909101908401614fcd565b508582101561500a5787850151600019600388901b60f8161c191681555b5050505050600190811b01905550565b60208082526014908201527342617463682073697a6520746f6f206c6172676560601b604082015260600190565b6020808252600b908201526a08adae0e8f240c4c2e8c6d60ab1b604082015260600190565b6020808252600b908201526a496e76616c696420534b5560a81b604082015260600190565b80820180821115610ce257610ce2614e97565b60208082526018908201527f42617463682065786365656473206d617820737570706c790000000000000000604082015260600190565b634e487b7160e01b600052603260045260246000fd5b6020808252601b908201527f43616e6e6f74206d696e7420746f207a65726f20616464726573730000000000604082015260600190565b60006001820161513b5761513b614e97565b5060010190565b6040815260006151556040830185614796565b90506145cb602083018461484a565b60208082526012908201527113585e081cdd5c1c1b1e481c995858da195960721b604082015260600190565b602080825260159082015274082e4e4c2f240d8cadccee8d040dad2e6dac2e8c6d605b1b604082015260600190565b6000808335601e198436030181126151d657600080fd5b8301803591506001600160401b038211156151f057600080fd5b602001915036819003821315614a8457600080fd5b81835281816020850137506000828201602090810191909152601f909101601f19169091010190565b604081526000615242604083018587615205565b90506131cb602083018461484a565b8082028115828204841417610ce257610ce2614e97565b6020815260006131cb602083018486615205565b6000815161528e818560208601614772565b9290920192915050565b600083516152aa818460208801614772565b8351908301906152be818360208801614772565b01949350505050565b60208082526025908201527f4552433732313a207472616e736665722066726f6d20696e636f72726563742060408201526437bbb732b960d91b606082015260800190565b600080855461531a81614e2f565b60018281168015615332576001811461534757615376565b60ff1984168752821515830287019450615376565b8960005260208060002060005b8581101561536d5781548a820152908401908201615354565b50505082870194505b50602f60f81b8452875192506153928382860160208b01614772565b6153b06153aa8285870101602f60f81b815260010190565b8861527c565b9998505050505050505050565b60208082526032908201527f4552433732313a207472616e7366657220746f206e6f6e20455243373231526560408201527131b2b4bb32b91034b6b83632b6b2b73a32b960711b606082015260800190565b634e487b7160e01b600052601260045260246000fd5b6000826154345761543461540f565b500490565b6000826154485761544861540f565b500690565b7f416363657373436f6e74726f6c3a206163636f756e7420000000000000000000815260008351615485816017850160208801614772565b7001034b99036b4b9b9b4b733903937b6329607d1b60179184019182015283516154b6816028840160208801614772565b01602801949350505050565b6001600160a01b03858116825284166020820152604081018390526080606082018190526000906154f590830184614796565b9695505050505050565b60006020828403121561551157600080fd5b81516145cb8161473f565b60008161552b5761552b614e97565b50600019019056fefbd454f36a7e1a388bd6fc3ab10d434aa4578f811acbbcf33afb1c697486313c5265776172644e46542076322e302e30202d20506174656e7420436f6d706c69616e742044657369676e20284261636b7761726420436f6d70617469626c652976596d54fd9affd3f9aa2c127c5284f32b22dce98708fb9ed5e908462cfe6b5d095dac4de71eca0bb3878365b7bf8e64aca44e8a6a3cbd7e12a35e68337e8453a2646970667358221220cc76cfd515d31e458022cd1375e82b3908b6102f9b2d0c501aef01228654240564736f6c63430008140033",
  "linkReferences": {},
  "deployedLinkReferences": {}
}