{
  "_format": "hh-sol-artifact-1",
  "contractName": "GifterraFactory",
  "sourceName": "contracts/GifterraFactory.sol",
  "abi": [
    {
      "inputs": [
        {
          "internalType": "address",
          "name": "_feeRecipient",
          "type": "address"
        },
        {
          "internalType": "uint256",
          "name": "_deploymentFee",
          "type": "uint256"
        },
        {
          "internalType": "address",
          "name": "_jpycToken",
          "type": "address"
        }
      ],
      "stateMutability": "nonpayable",
      "type": "constructor"
    },
    {
      "anonymous": false,
      "inputs": [
        {
          "indexed": false,
          "internalType": "uint256",
          "name": "oldFee",
          "type": "uint256"
        },
        {
          "indexed": false,
          "internalType": "uint256",
          "name": "newFee",
          "type": "uint256"
        }
      ],
      "name": "DeploymentFeeUpdated",
      "type": "event"
    },
    {
      "anonymous": false,
      "inputs": [
        {
          "indexed": false,
          "internalType": "address",
          "name": "recipient",
          "type": "address"
        },
        {
          "indexed": false,
          "internalType": "uint256",
          "name": "amount",
          "type": "uint256"
        }
      ],
      "name": "FeesWithdrawn",
      "type": "event"
    },
    {
      "anonymous": false,
      "inputs": [
        {
          "indexed": false,
          "internalType": "address",
          "name": "account",
          "type": "address"
        }
      ],
      "name": "Paused",
      "type": "event"
    },
    {
      "anonymous": false,
      "inputs": [
        {
          "indexed": true,
          "internalType": "bytes32",
          "name": "role",
          "type": "bytes32"
        },
        {
          "indexed": true,
          "internalType": "bytes32",
          "name": "previousAdminRole",
          "type": "bytes32"
        },
        {
          "indexed": true,
          "internalType": "bytes32",
          "name": "newAdminRole",
          "type": "bytes32"
        }
      ],
      "name": "RoleAdminChanged",
      "type": "event"
    },
    {
      "anonymous": false,
      "inputs": [
        {
          "indexed": true,
          "internalType": "bytes32",
          "name": "role",
          "type": "bytes32"
        },
        {
          "indexed": true,
          "internalType": "address",
          "name": "account",
          "type": "address"
        },
        {
          "indexed": true,
          "internalType": "address",
          "name": "sender",
          "type": "address"
        }
      ],
      "name": "RoleGranted",
      "type": "event"
    },
    {
      "anonymous": false,
      "inputs": [
        {
          "indexed": true,
          "internalType": "bytes32",
          "name": "role",
          "type": "bytes32"
        },
        {
          "indexed": true,
          "internalType": "address",
          "name": "account",
          "type": "address"
        },
        {
          "indexed": true,
          "internalType": "address",
          "name": "sender",
          "type": "address"
        }
      ],
      "name": "RoleRevoked",
      "type": "event"
    },
    {
      "anonymous": false,
      "inputs": [
        {
          "indexed": true,
          "internalType": "uint256",
          "name": "tenantId",
          "type": "uint256"
        },
        {
          "indexed": true,
          "internalType": "address",
          "name": "oldAdmin",
          "type": "address"
        },
        {
          "indexed": true,
          "internalType": "address",
          "name": "newAdmin",
          "type": "address"
        }
      ],
      "name": "TenantAdminTransferred",
      "type": "event"
    },
    {
      "anonymous": false,
      "inputs": [
        {
          "indexed": true,
          "internalType": "uint256",
          "name": "tenantId",
          "type": "uint256"
        },
        {
          "indexed": true,
          "internalType": "address",
          "name": "admin",
          "type": "address"
        },
        {
          "indexed": false,
          "internalType": "string",
          "name": "tenantName",
          "type": "string"
        },
        {
          "indexed": false,
          "internalType": "address",
          "name": "gifterra",
          "type": "address"
        },
        {
          "indexed": false,
          "internalType": "address",
          "name": "rewardNFT",
          "type": "address"
        },
        {
          "indexed": false,
          "internalType": "address",
          "name": "payLitter",
          "type": "address"
        },
        {
          "indexed": false,
          "internalType": "address",
          "name": "flagNFT",
          "type": "address"
        },
        {
          "indexed": false,
          "internalType": "address",
          "name": "paymentGateway",
          "type": "address"
        }
      ],
      "name": "TenantCreated",
      "type": "event"
    },
    {
      "anonymous": false,
      "inputs": [
        {
          "indexed": true,
          "internalType": "uint256",
          "name": "tenantId",
          "type": "uint256"
        },
        {
          "indexed": false,
          "internalType": "bool",
          "name": "isActive",
          "type": "bool"
        },
        {
          "indexed": false,
          "internalType": "bool",
          "name": "isPaused",
          "type": "bool"
        }
      ],
      "name": "TenantStatusUpdated",
      "type": "event"
    },
    {
      "anonymous": false,
      "inputs": [
        {
          "indexed": false,
          "internalType": "address",
          "name": "account",
          "type": "address"
        }
      ],
      "name": "Unpaused",
      "type": "event"
    },
    {
      "inputs": [],
      "name": "DEFAULT_ADMIN_ROLE",
      "outputs": [
        {
          "internalType": "bytes32",
          "name": "",
          "type": "bytes32"
        }
      ],
      "stateMutability": "view",
      "type": "function"
    },
    {
      "inputs": [],
      "name": "OPERATOR_ROLE",
      "outputs": [
        {
          "internalType": "bytes32",
          "name": "",
          "type": "bytes32"
        }
      ],
      "stateMutability": "view",
      "type": "function"
    },
    {
      "inputs": [],
      "name": "SUPER_ADMIN_ROLE",
      "outputs": [
        {
          "internalType": "bytes32",
          "name": "",
          "type": "bytes32"
        }
      ],
      "stateMutability": "view",
      "type": "function"
    },
    {
      "inputs": [],
      "name": "activeTenants",
      "outputs": [
        {
          "internalType": "uint256",
          "name": "",
          "type": "uint256"
        }
      ],
      "stateMutability": "view",
      "type": "function"
    },
    {
      "inputs": [
        {
          "internalType": "address",
          "name": "",
          "type": "address"
        }
      ],
      "name": "adminToTenantId",
      "outputs": [
        {
          "internalType": "uint256",
          "name": "",
          "type": "uint256"
        }
      ],
      "stateMutability": "view",
      "type": "function"
    },
    {
      "inputs": [
        {
          "internalType": "string",
          "name": "tenantName",
          "type": "string"
        },
        {
          "internalType": "address",
          "name": "admin",
          "type": "address"
        },
        {
          "internalType": "address",
          "name": "rewardTokenAddress",
          "type": "address"
        },
        {
          "internalType": "address",
          "name": "tipWalletAddress",
          "type": "address"
        },
        {
          "internalType": "enum RankPlanRegistry.PlanType",
          "name": "rankPlan",
          "type": "uint8"
        }
      ],
      "name": "createTenant",
      "outputs": [
        {
          "internalType": "uint256",
          "name": "",
          "type": "uint256"
        }
      ],
      "stateMutability": "payable",
      "type": "function"
    },
    {
      "inputs": [],
      "name": "defaultDailyRewardAmount",
      "outputs": [
        {
          "internalType": "uint256",
          "name": "",
          "type": "uint256"
        }
      ],
      "stateMutability": "view",
      "type": "function"
    },
    {
      "inputs": [
        {
          "internalType": "uint256",
          "name": "",
          "type": "uint256"
        }
      ],
      "name": "defaultRankThresholds",
      "outputs": [
        {
          "internalType": "uint256",
          "name": "",
          "type": "uint256"
        }
      ],
      "stateMutability": "view",
      "type": "function"
    },
    {
      "inputs": [],
      "name": "deploymentFee",
      "outputs": [
        {
          "internalType": "uint256",
          "name": "",
          "type": "uint256"
        }
      ],
      "stateMutability": "view",
      "type": "function"
    },
    {
      "inputs": [],
      "name": "feeRecipient",
      "outputs": [
        {
          "internalType": "address",
          "name": "",
          "type": "address"
        }
      ],
      "stateMutability": "view",
      "type": "function"
    },
    {
      "inputs": [],
      "name": "getGlobalStats",
      "outputs": [
        {
          "internalType": "uint256",
          "name": "total",
          "type": "uint256"
        },
        {
          "internalType": "uint256",
          "name": "active",
          "type": "uint256"
        },
        {
          "internalType": "uint256",
          "name": "feesCollected",
          "type": "uint256"
        },
        {
          "internalType": "uint256",
          "name": "currentFee",
          "type": "uint256"
        }
      ],
      "stateMutability": "view",
      "type": "function"
    },
    {
      "inputs": [
        {
          "internalType": "bytes32",
          "name": "role",
          "type": "bytes32"
        }
      ],
      "name": "getRoleAdmin",
      "outputs": [
        {
          "internalType": "bytes32",
          "name": "",
          "type": "bytes32"
        }
      ],
      "stateMutability": "view",
      "type": "function"
    },
    {
      "inputs": [
        {
          "internalType": "address",
          "name": "admin",
          "type": "address"
        }
      ],
      "name": "getTenantIdByAdmin",
      "outputs": [
        {
          "internalType": "uint256",
          "name": "",
          "type": "uint256"
        }
      ],
      "stateMutability": "view",
      "type": "function"
    },
    {
      "inputs": [
        {
          "internalType": "uint256",
          "name": "tenantId",
          "type": "uint256"
        }
      ],
      "name": "getTenantInfo",
      "outputs": [
        {
          "components": [
            {
              "internalType": "uint256",
              "name": "tenantId",
              "type": "uint256"
            },
            {
              "internalType": "address",
              "name": "admin",
              "type": "address"
            },
            {
              "internalType": "string",
              "name": "tenantName",
              "type": "string"
            },
            {
              "components": [
                {
                  "internalType": "address",
                  "name": "gifterra",
                  "type": "address"
                },
                {
                  "internalType": "address",
                  "name": "rewardNFT",
                  "type": "address"
                },
                {
                  "internalType": "address",
                  "name": "payLitter",
                  "type": "address"
                },
                {
                  "internalType": "address",
                  "name": "flagNFT",
                  "type": "address"
                },
                {
                  "internalType": "address",
                  "name": "paymentGateway",
                  "type": "address"
                }
              ],
              "internalType": "struct GifterraFactory.TenantContracts",
              "name": "contracts",
              "type": "tuple"
            },
            {
              "internalType": "uint256",
              "name": "createdAt",
              "type": "uint256"
            },
            {
              "internalType": "uint256",
              "name": "lastActivityAt",
              "type": "uint256"
            },
            {
              "internalType": "bool",
              "name": "isActive",
              "type": "bool"
            },
            {
              "internalType": "bool",
              "name": "isPaused",
              "type": "bool"
            }
          ],
          "internalType": "struct GifterraFactory.TenantInfo",
          "name": "",
          "type": "tuple"
        }
      ],
      "stateMutability": "view",
      "type": "function"
    },
    {
      "inputs": [
        {
          "internalType": "uint256",
          "name": "offset",
          "type": "uint256"
        },
        {
          "internalType": "uint256",
          "name": "limit",
          "type": "uint256"
        }
      ],
      "name": "getTenantList",
      "outputs": [
        {
          "components": [
            {
              "internalType": "uint256",
              "name": "tenantId",
              "type": "uint256"
            },
            {
              "internalType": "address",
              "name": "admin",
              "type": "address"
            },
            {
              "internalType": "string",
              "name": "tenantName",
              "type": "string"
            },
            {
              "components": [
                {
                  "internalType": "address",
                  "name": "gifterra",
                  "type": "address"
                },
                {
                  "internalType": "address",
                  "name": "rewardNFT",
                  "type": "address"
                },
                {
                  "internalType": "address",
                  "name": "payLitter",
                  "type": "address"
                },
                {
                  "internalType": "address",
                  "name": "flagNFT",
                  "type": "address"
                },
                {
                  "internalType": "address",
                  "name": "paymentGateway",
                  "type": "address"
                }
              ],
              "internalType": "struct GifterraFactory.TenantContracts",
              "name": "contracts",
              "type": "tuple"
            },
            {
              "internalType": "uint256",
              "name": "createdAt",
              "type": "uint256"
            },
            {
              "internalType": "uint256",
              "name": "lastActivityAt",
              "type": "uint256"
            },
            {
              "internalType": "bool",
              "name": "isActive",
              "type": "bool"
            },
            {
              "internalType": "bool",
              "name": "isPaused",
              "type": "bool"
            }
          ],
          "internalType": "struct GifterraFactory.TenantInfo[]",
          "name": "",
          "type": "tuple[]"
        }
      ],
      "stateMutability": "view",
      "type": "function"
    },
    {
      "inputs": [],
      "name": "globalPaymentGateway",
      "outputs": [
        {
          "internalType": "address",
          "name": "",
          "type": "address"
        }
      ],
      "stateMutability": "view",
      "type": "function"
    },
    {
      "inputs": [
        {
          "internalType": "bytes32",
          "name": "role",
          "type": "bytes32"
        },
        {
          "internalType": "address",
          "name": "account",
          "type": "address"
        }
      ],
      "name": "grantRole",
      "outputs": [],
      "stateMutability": "nonpayable",
      "type": "function"
    },
    {
      "inputs": [
        {
          "internalType": "bytes32",
          "name": "role",
          "type": "bytes32"
        },
        {
          "internalType": "address",
          "name": "account",
          "type": "address"
        }
      ],
      "name": "hasRole",
      "outputs": [
        {
          "internalType": "bool",
          "name": "",
          "type": "bool"
        }
      ],
      "stateMutability": "view",
      "type": "function"
    },
    {
      "inputs": [
        {
          "internalType": "address",
          "name": "",
          "type": "address"
        }
      ],
      "name": "isTenantContract",
      "outputs": [
        {
          "internalType": "bool",
          "name": "",
          "type": "bool"
        }
      ],
      "stateMutability": "view",
      "type": "function"
    },
    {
      "inputs": [],
      "name": "jpycToken",
      "outputs": [
        {
          "internalType": "address",
          "name": "",
          "type": "address"
        }
      ],
      "stateMutability": "view",
      "type": "function"
    },
    {
      "inputs": [],
      "name": "nextTenantId",
      "outputs": [
        {
          "internalType": "uint256",
          "name": "",
          "type": "uint256"
        }
      ],
      "stateMutability": "view",
      "type": "function"
    },
    {
      "inputs": [],
      "name": "pause",
      "outputs": [],
      "stateMutability": "nonpayable",
      "type": "function"
    },
    {
      "inputs": [],
      "name": "paused",
      "outputs": [
        {
          "internalType": "bool",
          "name": "",
          "type": "bool"
        }
      ],
      "stateMutability": "view",
      "type": "function"
    },
    {
      "inputs": [],
      "name": "rankPlanRegistry",
      "outputs": [
        {
          "internalType": "address",
          "name": "",
          "type": "address"
        }
      ],
      "stateMutability": "view",
      "type": "function"
    },
    {
      "inputs": [
        {
          "internalType": "bytes32",
          "name": "role",
          "type": "bytes32"
        },
        {
          "internalType": "address",
          "name": "account",
          "type": "address"
        }
      ],
      "name": "renounceRole",
      "outputs": [],
      "stateMutability": "nonpayable",
      "type": "function"
    },
    {
      "inputs": [
        {
          "internalType": "bytes32",
          "name": "role",
          "type": "bytes32"
        },
        {
          "internalType": "address",
          "name": "account",
          "type": "address"
        }
      ],
      "name": "revokeRole",
      "outputs": [],
      "stateMutability": "nonpayable",
      "type": "function"
    },
    {
      "inputs": [
        {
          "internalType": "uint256",
          "name": "newFee",
          "type": "uint256"
        }
      ],
      "name": "setDeploymentFee",
      "outputs": [],
      "stateMutability": "nonpayable",
      "type": "function"
    },
    {
      "inputs": [
        {
          "internalType": "address",
          "name": "newRecipient",
          "type": "address"
        }
      ],
      "name": "setFeeRecipient",
      "outputs": [],
      "stateMutability": "nonpayable",
      "type": "function"
    },
    {
      "inputs": [
        {
          "internalType": "address",
          "name": "_paymentGateway",
          "type": "address"
        }
      ],
      "name": "setGlobalPaymentGateway",
      "outputs": [],
      "stateMutability": "nonpayable",
      "type": "function"
    },
    {
      "inputs": [
        {
          "internalType": "address",
          "name": "_rankPlanRegistry",
          "type": "address"
        }
      ],
      "name": "setRankPlanRegistry",
      "outputs": [],
      "stateMutability": "nonpayable",
      "type": "function"
    },
    {
      "inputs": [
        {
          "internalType": "uint256",
          "name": "tenantId",
          "type": "uint256"
        },
        {
          "internalType": "bool",
          "name": "active",
          "type": "bool"
        }
      ],
      "name": "setTenantActive",
      "outputs": [],
      "stateMutability": "nonpayable",
      "type": "function"
    },
    {
      "inputs": [
        {
          "internalType": "uint256",
          "name": "tenantId",
          "type": "uint256"
        },
        {
          "internalType": "bool",
          "name": "paused",
          "type": "bool"
        }
      ],
      "name": "setTenantPaused",
      "outputs": [],
      "stateMutability": "nonpayable",
      "type": "function"
    },
    {
      "inputs": [
        {
          "internalType": "bytes4",
          "name": "interfaceId",
          "type": "bytes4"
        }
      ],
      "name": "supportsInterface",
      "outputs": [
        {
          "internalType": "bool",
          "name": "",
          "type": "bool"
        }
      ],
      "stateMutability": "view",
      "type": "function"
    },
    {
      "inputs": [
        {
          "internalType": "uint256",
          "name": "",
          "type": "uint256"
        }
      ],
      "name": "tenants",
      "outputs": [
        {
          "internalType": "uint256",
          "name": "tenantId",
          "type": "uint256"
        },
        {
          "internalType": "address",
          "name": "admin",
          "type": "address"
        },
        {
          "internalType": "string",
          "name": "tenantName",
          "type": "string"
        },
        {
          "components": [
            {
              "internalType": "address",
              "name": "gifterra",
              "type": "address"
            },
            {
              "internalType": "address",
              "name": "rewardNFT",
              "type": "address"
            },
            {
              "internalType": "address",
              "name": "payLitter",
              "type": "address"
            },
            {
              "internalType": "address",
              "name": "flagNFT",
              "type": "address"
            },
            {
              "internalType": "address",
              "name": "paymentGateway",
              "type": "address"
            }
          ],
          "internalType": "struct GifterraFactory.TenantContracts",
          "name": "contracts",
          "type": "tuple"
        },
        {
          "internalType": "uint256",
          "name": "createdAt",
          "type": "uint256"
        },
        {
          "internalType": "uint256",
          "name": "lastActivityAt",
          "type": "uint256"
        },
        {
          "internalType": "bool",
          "name": "isActive",
          "type": "bool"
        },
        {
          "internalType": "bool",
          "name": "isPaused",
          "type": "bool"
        }
      ],
      "stateMutability": "view",
      "type": "function"
    },
    {
      "inputs": [],
      "name": "totalFeesCollected",
      "outputs": [
        {
          "internalType": "uint256",
          "name": "",
          "type": "uint256"
        }
      ],
      "stateMutability": "view",
      "type": "function"
    },
    {
      "inputs": [],
      "name": "totalTenants",
      "outputs": [
        {
          "internalType": "uint256",
          "name": "",
          "type": "uint256"
        }
      ],
      "stateMutability": "view",
      "type": "function"
    },
    {
      "inputs": [
        {
          "internalType": "uint256",
          "name": "tenantId",
          "type": "uint256"
        },
        {
          "internalType": "address",
          "name": "newAdmin",
          "type": "address"
        }
      ],
      "name": "transferTenantAdmin",
      "outputs": [],
      "stateMutability": "nonpayable",
      "type": "function"
    },
    {
      "inputs": [],
      "name": "unpause",
      "outputs": [],
      "stateMutability": "nonpayable",
      "type": "function"
    },
    {
      "inputs": [],
      "name": "version",
      "outputs": [
        {
          "internalType": "string",
          "name": "",
          "type": "string"
        }
      ],
      "stateMutability": "pure",
      "type": "function"
    },
    {
      "inputs": [],
      "name": "withdrawFees",
      "outputs": [],
      "stateMutability": "nonpayable",
      "type": "function"
    }
  ],
  "bytecode": "0x608060405260016006556801a055690d9db80000600c553480156200002357600080fd5b5060405162005f8238038062005f82833981016040819052620000469162000341565b600180556002805460ff191690556001600160a01b038316620000b05760405162461bcd60e51b815260206004820152601560248201527f496e76616c69642066656520726563697069656e74000000000000000000000060448201526064015b60405180910390fd5b60008211620001025760405162461bcd60e51b815260206004820152601460248201527f466565206d75737420626520706f7369746976650000000000000000000000006044820152606401620000a7565b6001600160a01b0381166200015a5760405162461bcd60e51b815260206004820152601460248201527f496e76616c6964204a50594320616464726573730000000000000000000000006044820152606401620000a7565b6200016760003362000283565b620001937f7613a25ecc738585a232ad50a301178f12b3ba8887d13e138b523c4269c476893362000283565b620001bf7f97667070c54ef182b0f5858b034beac1b6f3089aa2d3188bb1e8929f4fa9b9293362000283565b600a80546001600160a01b039485166001600160a01b031991821617909155600992909255600f8054919093169116179055600d80546001818101835560008381527fd7b6990105719101dabeb77144f2a3385c8033acd3af97e9423a695e81ad1eb59283015582548082018455683635c9adc5dea00000908301558254808201845569010f0cf064dd59200000908301558254808201845569021e19e0c9bab2400000908301558254908101909255690a968163f0a57b40000091015562000382565b6000828152602081815260408083206001600160a01b038516845290915290205460ff1662000320576000828152602081815260408083206001600160a01b03851684529091529020805460ff19166001179055620002df3390565b6001600160a01b0316816001600160a01b0316837f2f8788117e7eff1d82e926ec794901d17c78024a50270940304540a733656f0d60405160405180910390a45b5050565b80516001600160a01b03811681146200033c57600080fd5b919050565b6000806000606084860312156200035757600080fd5b620003628462000324565b925060208401519150620003796040850162000324565b90509250925092565b615bf080620003926000396000f3fe6080604052600436106200026b5760003560e01c806370f25adb1162000147578063c3a2202d11620000b9578063e74b981b1162000078578063e74b981b14620007ac578063f034fecf14620007d1578063f2cff57f14620007e9578063f5b541a61462000801578063fc23c5dc146200083757600080fd5b8063c3a2202d14620006f6578063c54f4605146200071b578063c92a84fe146200073d578063d002462b1462000762578063d547741f146200078757600080fd5b8063a217fddf1162000106578063a217fddf146200061e578063a8ae86151462000635578063b7adf6f0146200064d578063bd2ba85d1462000681578063be3e864c14620006bc57600080fd5b806370f25adb1462000582578063812ae712146200059a5780638456cb5914620005bf57806391d1485414620005d7578063962ee35814620005fc57600080fd5b80634690484011620001e1578063587d3af411620001a0578063587d3af414620004cd5780635c975abb14620004e457806360c6d8ae14620004fe5780636b4169c314620005165780636de37465146200055157600080fd5b8063469048401462000422578063476343ee146200044457806349eb1f23146200045c5780634ec1ef77146200048157806354fd4d5014620004a657600080fd5b806336568abe116200022e57806336568abe146200035157806337f937d714620003765780633c72563114620003b15780633f4ba83a14620003e55780634460bdd614620003fd57600080fd5b806301ffc9a71462000270578063183c811c14620002aa578063198de48814620002d1578063248a9ca314620002f65780632f2ff15d146200032a575b600080fd5b3480156200027d57600080fd5b50620002956200028f36600462002274565b6200086b565b60405190151581526020015b60405180910390f35b348015620002b757600080fd5b50620002c2600c5481565b604051908152602001620002a1565b348015620002de57600080fd5b50620002c2620002f0366004620022a0565b620008a3565b3480156200030357600080fd5b50620002c262000315366004620022a0565b60009081526020819052604090206001015490565b3480156200033757600080fd5b506200034f62000349366004620022d7565b620008c5565b005b3480156200035e57600080fd5b506200034f62000370366004620022d7565b620008f3565b3480156200038357600080fd5b5060105462000398906001600160a01b031681565b6040516001600160a01b039091168152602001620002a1565b348015620003be57600080fd5b50620003d6620003d036600462002306565b62000979565b604051620002a1919062002442565b348015620003f257600080fd5b506200034f62000c3f565b3480156200040a57600080fd5b50620002c260008051602062005b9b83398151915281565b3480156200042f57600080fd5b50600a5462000398906001600160a01b031681565b3480156200045157600080fd5b506200034f62000c67565b3480156200046957600080fd5b506200034f6200047b366004620024a8565b62000dbf565b3480156200048e57600080fd5b506200034f620004a0366004620022d7565b62000e8b565b348015620004b357600080fd5b50620004be62001009565b604051620002a19190620024df565b620002c2620004de3660046200251a565b6200102a565b348015620004f157600080fd5b5060025460ff1662000295565b3480156200050b57600080fd5b50620002c2600b5481565b3480156200052357600080fd5b50600754600854600b54600954604080519485526020850193909352918301526060820152608001620002a1565b3480156200055e57600080fd5b50620002c26200057036600462002620565b60046020526000908152604090205481565b3480156200058f57600080fd5b50620002c260085481565b348015620005a757600080fd5b506200034f620005b936600462002620565b62001262565b348015620005cc57600080fd5b506200034f620012ea565b348015620005e457600080fd5b5062000295620005f6366004620022d7565b6200130f565b3480156200060957600080fd5b50600e5462000398906001600160a01b031681565b3480156200062b57600080fd5b50620002c2600081565b3480156200064257600080fd5b50620002c260075481565b3480156200065a57600080fd5b50620002956200066c36600462002620565b60056020526000908152604090205460ff1681565b3480156200068e57600080fd5b50620006a6620006a0366004620022a0565b62001338565b604051620002a19897969594939291906200263e565b348015620006c957600080fd5b50620002c2620006db36600462002620565b6001600160a01b031660009081526004602052604090205490565b3480156200070357600080fd5b506200034f62000715366004620024a8565b62001467565b3480156200072857600080fd5b50600f5462000398906001600160a01b031681565b3480156200074a57600080fd5b506200034f6200075c36600462002620565b62001581565b3480156200076f57600080fd5b506200034f62000781366004620022a0565b62001609565b3480156200079457600080fd5b506200034f620007a6366004620022d7565b6200166a565b348015620007b957600080fd5b506200034f620007cb36600462002620565b62001693565b348015620007de57600080fd5b50620002c260065481565b348015620007f657600080fd5b50620002c260095481565b3480156200080e57600080fd5b50620002c27f97667070c54ef182b0f5858b034beac1b6f3089aa2d3188bb1e8929f4fa9b92981565b3480156200084457600080fd5b506200085c62000856366004620022a0565b6200171d565b604051620002a19190620026a9565b60006001600160e01b03198216637965db0b60e01b14806200089d57506301ffc9a760e01b6001600160e01b03198316145b92915050565b600d8181548110620008b457600080fd5b600091825260209091200154905081565b600082815260208190526040902060010154620008e281620018cb565b620008ee8383620018d7565b505050565b6001600160a01b0381163314620009695760405162461bcd60e51b815260206004820152602f60248201527f416363657373436f6e74726f6c3a2063616e206f6e6c792072656e6f756e636560448201526e103937b632b9903337b91039b2b63360891b60648201526084015b60405180910390fd5b6200097582826200195f565b5050565b60606000821180156200098d575060648211155b620009cb5760405162461bcd60e51b815260206004820152600d60248201526c125b9d985b1a59081b1a5b5a5d609a1b604482015260640162000960565b6000620009d98385620026d4565b9050600654811115620009eb57506006545b6000848211620009fd57600062000a09565b62000a098583620026ea565b905060008167ffffffffffffffff81111562000a295762000a29620024f4565b60405190808252806020026020018201604052801562000a6657816020015b62000a52620021e8565b81526020019060019003908162000a485790505b50905060005b8281101562000c35576003600062000a85838a620026d4565b62000a92906001620026d4565b815260208082019290925260409081016000208151610100810183528154815260018201546001600160a01b031693810193909352600281018054919284019162000add9062002700565b80601f016020809104026020016040519081016040528092919081815260200182805462000b0b9062002700565b801562000b5c5780601f1062000b305761010080835404028352916020019162000b5c565b820191906000526020600020905b81548152906001019060200180831162000b3e57829003601f168201915b50505091835250506040805160a0808201835260038501546001600160a01b03908116835260048601548116602084810191909152600587015482168486015260068701548216606080860191909152600788015490921660808086019190915290860193909352600886015493850193909352600985015492840192909252600a9093015460ff80821615159484019490945261010090049092161515910152825183908390811062000c145762000c146200273c565b6020026020010181905250808062000c2c9062002752565b91505062000a6c565b5095945050505050565b60008051602062005b9b83398151915262000c5a81620018cb565b62000c64620019c7565b50565b60008051602062005b9b83398151915262000c8281620018cb565b62000c8c62001a1b565b478062000cd25760405162461bcd60e51b81526020600482015260136024820152724e6f206665657320746f20776974686472617760681b604482015260640162000960565b600a546040516000916001600160a01b03169083908381818185875af1925050503d806000811462000d21576040519150601f19603f3d011682016040523d82523d6000602084013e62000d26565b606091505b505090508062000d6d5760405162461bcd60e51b815260206004820152601160248201527015da5d1a191c985dd85b0819985a5b1959607a1b604482015260640162000960565b600a54604080516001600160a01b039092168252602082018490527fc0819c13be868895eb93e40eaceb96de976442fa1d404e5c55f14bb65a8c489a910160405180910390a1505062000c6460018055565b60008051602062005b9b83398151915262000dda81620018cb565b60008311801562000dec575060065483105b62000e0b5760405162461bcd60e51b815260040162000960906200276e565b60008381526003602052604090819020600a810180548515156101000261ff0019821681179092559251919286927f3a224597d43889a3de0dd95df370347c1d08507839f530bf66cac958919794e49262000e7d9260ff91821691161790879091151582521515602082015260400190565b60405180910390a250505050565b60008051602062005b9b83398151915262000ea681620018cb565b60008311801562000eb8575060065483105b62000ed75760405162461bcd60e51b815260040162000960906200276e565b6001600160a01b03821662000f235760405162461bcd60e51b815260206004820152601160248201527024b73b30b634b2103732bb9030b236b4b760791b604482015260640162000960565b6001600160a01b0382166000908152600460205260409020541562000f8b5760405162461bcd60e51b815260206004820152601c60248201527f4e65772061646d696e20616c7265616479206861732074656e616e7400000000604482015260640162000960565b60008381526003602090815260408083206001810180546001600160a01b039081168087526004909552838620869055871680865283862089905581546001600160a01b031916811790915591519093839188917fb5b717b4a4eb93e5db502b492fdd8d76374b7c6ed1947ededa57dccb67c742d191a45050505050565b606060405180606001604052806039815260200162005b6260399139905090565b60006200103662001a1b565b6200104062001a76565b6000865111620010895760405162461bcd60e51b8152602060048201526013602482015272496e76616c69642074656e616e74206e616d6560681b604482015260640162000960565b6001600160a01b038516620010d95760405162461bcd60e51b8152602060048201526015602482015274496e76616c69642061646d696e206164647265737360581b604482015260640162000960565b6001600160a01b03851660009081526004602052604090205415620011415760405162461bcd60e51b815260206004820152601860248201527f41646d696e20616c7265616479206861732074656e616e740000000000000000604482015260640162000960565b600954341015620011955760405162461bcd60e51b815260206004820152601b60248201527f496e73756666696369656e74206465706c6f796d656e74206665650000000000604482015260640162000960565b6006805460009182620011a88362002752565b9190505590506000620011bf888888888862001ac0565b9050620011cf82888a8462001d08565b34600b6000828254620011e39190620026d4565b92505081905550866001600160a01b0316827f6d60714460f85b8d1b2c4c5a483cce97190cfe3c56edaa15b4499c187bdcd3dd8a84600001518560200151866040015187606001518860800151604051620012449695949392919062002799565b60405180910390a35090506200125960018055565b95945050505050565b60008051602062005b9b8339815191526200127d81620018cb565b6001600160a01b038216620012c75760405162461bcd60e51b815260206004820152600f60248201526e496e76616c6964206164647265737360881b604482015260640162000960565b50600e80546001600160a01b0319166001600160a01b0392909216919091179055565b60008051602062005b9b8339815191526200130581620018cb565b62000c6462001f25565b6000918252602082815260408084206001600160a01b0393909316845291905290205460ff1690565b60036020526000908152604090208054600182015460028301805492936001600160a01b03909216926200136c9062002700565b80601f01602080910402602001604051908101604052809291908181526020018280546200139a9062002700565b8015620013eb5780601f10620013bf57610100808354040283529160200191620013eb565b820191906000526020600020905b815481529060010190602001808311620013cd57829003601f168201915b50506040805160a08101825260038701546001600160a01b03908116825260048801548116602083015260058801548116928201929092526006870154821660608201526007870154909116608082015260088601546009870154600a909701549596919590945090925060ff80821692506101009091041688565b60008051602062005b9b8339815191526200148281620018cb565b60008311801562001494575060065483105b620014b35760405162461bcd60e51b815260040162000960906200276e565b6000838152600360205260409020600a8101805484151560ff1982161790915560ff16808015620014e2575083155b15620015055760088054906000620014fa83620027e8565b91905055506200152f565b80158015620015115750835b156200152f5760088054906000620015298362002752565b91905055505b600a82015460408051861515815261010090920460ff161515602083015286917f3a224597d43889a3de0dd95df370347c1d08507839f530bf66cac958919794e4910160405180910390a25050505050565b60008051602062005b9b8339815191526200159c81620018cb565b6001600160a01b038216620015e65760405162461bcd60e51b815260206004820152600f60248201526e496e76616c6964206164647265737360881b604482015260640162000960565b50601080546001600160a01b0319166001600160a01b0392909216919091179055565b60008051602062005b9b8339815191526200162481620018cb565b600980549083905560408051828152602081018590527fbade80ae0982a2d3106c4f5afa708793d20a9d6441a6440011f99e9f69ad5f3c910160405180910390a1505050565b6000828152602081905260409020600101546200168781620018cb565b620008ee83836200195f565b60008051602062005b9b833981519152620016ae81620018cb565b6001600160a01b038216620016fa5760405162461bcd60e51b8152602060048201526011602482015270125b9d985b1a59081c9958da5c1a595b9d607a1b604482015260640162000960565b50600a80546001600160a01b0319166001600160a01b0392909216919091179055565b62001727620021e8565b60008211801562001739575060065482105b620017585760405162461bcd60e51b815260040162000960906200276e565b6000828152600360209081526040918290208251610100810184528154815260018201546001600160a01b0316928101929092526002810180549293919291840191620017a59062002700565b80601f0160208091040260200160405190810160405280929190818152602001828054620017d39062002700565b8015620018245780601f10620017f85761010080835404028352916020019162001824565b820191906000526020600020905b8154815290600101906020018083116200180657829003601f168201915b50505091835250506040805160a0808201835260038501546001600160a01b03908116835260048601548116602084810191909152600587015482168486015260068701548216606080860191909152600788015490921660808086019190915290860193909352600886015493850193909352600985015492840192909252600a9093015460ff8082161515948401949094526101009004909216151591015292915050565b62000c64813362001f65565b620018e382826200130f565b62000975576000828152602081815260408083206001600160a01b03851684529091529020805460ff191660011790556200191b3390565b6001600160a01b0316816001600160a01b0316837f2f8788117e7eff1d82e926ec794901d17c78024a50270940304540a733656f0d60405160405180910390a45050565b6200196b82826200130f565b1562000975576000828152602081815260408083206001600160a01b0385168085529252808320805460ff1916905551339285917ff6391f5c32d9c69d2a47ea670b442974b53935d1edc7fd64eb21e047a839171b9190a45050565b620019d162001fc9565b6002805460ff191690557f5db9ee0a495bf2e6ff9c91a7834c1ba4fdd244a5e8aa4e537bd38aeae4b073aa335b6040516001600160a01b03909116815260200160405180910390a1565b60026001540362001a6f5760405162461bcd60e51b815260206004820152601f60248201527f5265656e7472616e637947756172643a207265656e7472616e742063616c6c00604482015260640162000960565b6002600155565b60025460ff161562001abe5760405162461bcd60e51b815260206004820152601060248201526f14185d5cd8589b194e881c185d5cd95960821b604482015260640162000960565b565b6040805160a0810182526000808252602082018190529181018290526060810182905260808101919091526000848460405162001afd9062002266565b6001600160a01b03928316815291166020820152604001604051809103906000f08015801562001b31573d6000803e3d6000fd5b50600e549091506001600160a01b03161580159062001b655750600383600381111562001b625762001b6262002802565b14155b1562001c3c57600e5460405163711802b360e01b81526001600160a01b038381169263711802b39262001ba1929091169087906004016200283b565b600060405180830381600087803b15801562001bbc57600080fd5b505af115801562001bd1573d6000803e3d6000fd5b5050600e54604051633f9dc4bf60e11b81526001600160a01b039091169250637f3b897e915062001c079086906004016200285a565b600060405180830381600087803b15801562001c2257600080fd5b505af115801562001c37573d6000803e3d6000fd5b505050505b60405163f2fde38b60e01b81526001600160a01b03878116600483015282169063f2fde38b90602401600060405180830381600087803b15801562001c8057600080fd5b505af115801562001c95573d6000803e3d6000fd5b50506040805160a080820183526000808352602080840182905283850182905260608085018390526080948501839052855193840186526001600160a01b03808a1685529184018390529483018290529382015260105490921690820152915062001cfd9050565b979650505050505050565b60408051610100810182528581526001600160a01b03858116602080840191825283850187815260608501879052426080860181905260a0860152600160c08601819052600060e087018190528b815260039093529590912084518155915194820180546001600160a01b03191695909316949094179091559151909190600282019062001d979082620028bc565b5060608281015180516003840180546001600160a01b03199081166001600160a01b0393841617909155602080840151600480880180548516928616929092179091556040808601516005890180548616918716919091179055958501516006880180548516918616919091179055608094850151600780890180549095169186169190911790935593870151600887015560a0870151600987015560c0870151600a909601805460e09098015161ffff1990981696151561ff001916969096176101009715159790970296909617909455871660009081529352822086905580549162001e858362002752565b90915550506008805490600062001e9c8362002752565b909155505080516001600160a01b0390811660009081526005602090815260408083208054600160ff19918216811790925592860151851684528184208054841682179055818601518516845281842080548416821790556060860151851684528184208054841682179055608090950151909316825291902080549091169091179055505050565b62001f2f62001a76565b6002805460ff191660011790557f62e78cea01bee320cd4e420270b5ea74000d11b0c9f74754ebdbfc544b05a258620019fe3390565b62001f7182826200130f565b620009755762001f818162002014565b62001f8e83602062002027565b60405160200162001fa192919062002989565b60408051601f198184030181529082905262461bcd60e51b82526200096091600401620024df565b60025460ff1662001abe5760405162461bcd60e51b815260206004820152601460248201527314185d5cd8589b194e881b9bdd081c185d5cd95960621b604482015260640162000960565b60606200089d6001600160a01b03831660145b606060006200203883600262002a02565b62002045906002620026d4565b67ffffffffffffffff811115620020605762002060620024f4565b6040519080825280601f01601f1916602001820160405280156200208b576020820181803683370190505b509050600360fc1b81600081518110620020a957620020a96200273c565b60200101906001600160f81b031916908160001a905350600f60fb1b81600181518110620020db57620020db6200273c565b60200101906001600160f81b031916908160001a90535060006200210184600262002a02565b6200210e906001620026d4565b90505b600181111562002190576f181899199a1a9b1b9c1cb0b131b232b360811b85600f16601081106200214657620021466200273c565b1a60f81b8282815181106200215f576200215f6200273c565b60200101906001600160f81b031916908160001a90535060049490941c936200218881620027e8565b905062002111565b508315620021e15760405162461bcd60e51b815260206004820181905260248201527f537472696e67733a20686578206c656e67746820696e73756666696369656e74604482015260640162000960565b9392505050565b6040518061010001604052806000815260200160006001600160a01b0316815260200160608152602001620022446040805160a08101825260008082526020820181905291810182905260608101829052608081019190915290565b8152600060208201819052604082018190526060820181905260809091015290565b6131458062002a1d83390190565b6000602082840312156200228757600080fd5b81356001600160e01b031981168114620021e157600080fd5b600060208284031215620022b357600080fd5b5035919050565b80356001600160a01b0381168114620022d257600080fd5b919050565b60008060408385031215620022eb57600080fd5b82359150620022fd60208401620022ba565b90509250929050565b600080604083850312156200231a57600080fd5b50508035926020909101359150565b60005b83811015620023465781810151838201526020016200232c565b50506000910152565b600081518084526200236981602086016020860162002329565b601f01601f19169290920160200192915050565b80516001600160a01b03908116835260208083015182169084015260408083015182169084015260608083015182169084015260809182015116910152565b60006101808251845260018060a01b0360208401511660208501526040830151816040860152620023f0828601826200234f565b91505060608301516200240760608601826200237d565b50608083015161010085015260a083015161012085015260c0830151151561014085015260e090920151151561016090930192909252919050565b6000602080830181845280855180835260408601915060408160051b870101925083870160005b828110156200249b57603f1988860301845262002488858351620023bc565b9450928501929085019060010162002469565b5092979650505050505050565b60008060408385031215620024bc57600080fd5b8235915060208301358015158114620024d457600080fd5b809150509250929050565b602081526000620021e160208301846200234f565b634e487b7160e01b600052604160045260246000fd5b803560048110620022d257600080fd5b600080600080600060a086880312156200253357600080fd5b853567ffffffffffffffff808211156200254c57600080fd5b818801915088601f8301126200256157600080fd5b813581811115620025765762002576620024f4565b604051601f8201601f19908116603f01168101908382118183101715620025a157620025a1620024f4565b816040528281528b6020848701011115620025bb57600080fd5b826020860160208301376000602084830101528099505050505050620025e460208701620022ba565b9350620025f460408701620022ba565b92506200260460608701620022ba565b915062002614608087016200250a565b90509295509295909350565b6000602082840312156200263357600080fd5b620021e182620022ba565b8881526001600160a01b0388166020820152610180604082018190526000906200266b8382018a6200234f565b9150506200267d60608301886200237d565b610100820195909552610120810193909352901515610140830152151561016090910152949350505050565b602081526000620021e16020830184620023bc565b634e487b7160e01b600052601160045260246000fd5b808201808211156200089d576200089d620026be565b818103818111156200089d576200089d620026be565b600181811c908216806200271557607f821691505b6020821081036200273657634e487b7160e01b600052602260045260246000fd5b50919050565b634e487b7160e01b600052603260045260246000fd5b600060018201620027675762002767620026be565b5060010190565b602080825260119082015270125b9d985b1a59081d195b985b9d081251607a1b604082015260600190565b60c081526000620027ae60c08301896200234f565b6001600160a01b0397881660208401529587166040830152509285166060840152908416608083015290921660a090920191909152919050565b600081620027fa57620027fa620026be565b506000190190565b634e487b7160e01b600052602160045260246000fd5b600481106200283757634e487b7160e01b600052602160045260246000fd5b9052565b6001600160a01b038316815260408101620021e1602083018462002818565b602081016200089d828462002818565b601f821115620008ee57600081815260208120601f850160051c81016020861015620028935750805b601f850160051c820191505b81811015620028b4578281556001016200289f565b505050505050565b815167ffffffffffffffff811115620028d957620028d9620024f4565b620028f181620028ea845462002700565b846200286a565b602080601f831160018114620029295760008415620029105750858301515b600019600386901b1c1916600185901b178555620028b4565b600085815260208120601f198616915b828110156200295a5788860151825594840194600190910190840162002939565b5085821015620029795787850151600019600388901b60f8161c191681555b5050505050600190811b01905550565b7f416363657373436f6e74726f6c3a206163636f756e7420000000000000000000815260008351620029c381601785016020880162002329565b7001034b99036b4b9b9b4b733903937b6329607d1b6017918401918201528351620029f681602884016020880162002329565b01602801949350505050565b80820281158282048414176200089d576200089d620026be56fe60806040526801a055690d9db80000600d556004600e5560016016553480156200002857600080fd5b5060405162003145380380620031458339810160408190526200004b9162000180565b6040518060400160405280601681526020017f476966746572726120537570706f727465722053425400000000000000000000815250604051806040016040528060048152602001634746545360e01b8152508160009081620000af91906200025d565b506001620000be82826200025d565b505050620000db620000d56200010d60201b60201c565b62000111565b600b80546001600160a01b039384166001600160a01b031991821617909155600c805492909316911617905562000329565b3390565b600a80546001600160a01b038381166001600160a01b0319831681179093556040519116919082907f8be0079c531659141344cd1fd0a4f28419497f9722a3daafe3b4186f6b6457e090600090a35050565b80516001600160a01b03811681146200017b57600080fd5b919050565b600080604083850312156200019457600080fd5b6200019f8362000163565b9150620001af6020840162000163565b90509250929050565b634e487b7160e01b600052604160045260246000fd5b600181811c90821680620001e357607f821691505b6020821081036200020457634e487b7160e01b600052602260045260246000fd5b50919050565b601f8211156200025857600081815260208120601f850160051c81016020861015620002335750805b601f850160051c820191505b8181101562000254578281556001016200023f565b5050505b505050565b81516001600160401b03811115620002795762000279620001b8565b62000291816200028a8454620001ce565b846200020a565b602080601f831160018114620002c95760008415620002b05750858301515b600019600386901b1c1916600185901b17855562000254565b600085815260208120601f198616915b82811015620002fa57888601518255948401946001909101908401620002d9565b5085821015620003195787850151600019600388901b60f8161c191681555b5050505050600190811b01905550565b612e0c80620003396000396000f3fe608060405234801561001057600080fd5b50600436106102955760003560e01c80637a1bdfd311610167578063bd0042b8116100ce578063e985e9c511610087578063e985e9c5146105ed578063eed2d71014610629578063f14560a11461063c578063f22aa0381461064f578063f2fde38b14610662578063f7c618c11461067557600080fd5b8063bd0042b814610579578063c87b56dd1461058c578063cc8dff261461059f578063cfae9e6e146105b4578063d03444b4146105c7578063e8b69bc3146105da57600080fd5b80638da5cb5b116101205780638da5cb5b1461051957806395d89b411461052a5780639e87071314610532578063a22cb46514610545578063ab8ece8b14610553578063b88d4fde1461056657600080fd5b80637a1bdfd3146104ad5780637dcbbca4146104c25780637e24555d146104e257806382a2e8f1146104eb57806383f8b7e2146104fe5780638aee81271461050657600080fd5b80632f745c591161020b578063650b4f1e116101c4578063650b4f1e1461044d57806370a0823114610456578063711802b314610469578063715018a61461047c578063715ca5421461048457806375794a3c146104a457600080fd5b80632f745c59146103ec57806342842e0e146103b857806343e0ac89146103ff5780634f6ccce71461041f57806354fd4d50146104325780636352211e1461043a57600080fd5b806318160ddd1161025d57806318160ddd146103455780631959a0021461034d5780631cfc1f751461039857806323b872dd146103b857806324d5d3c5146103c657806326be747b146103d957600080fd5b8063013eba921461029a57806301ffc9a7146102cd57806306fdde03146102f0578063081812fc14610305578063095ea7b314610330575b600080fd5b6102ba6102a83660046122c9565b600f6020526000908152604090205481565b6040519081526020015b60405180910390f35b6102e06102db366004612301565b610688565b60405190151581526020016102c4565b6102f86106b3565b6040516102c4919061236e565b610318610313366004612381565b610745565b6040516001600160a01b0390911681526020016102c4565b61034361033e36600461239a565b61076c565b005b6008546102ba565b61038361035b3660046122c9565b6001600160a01b03166000908152600f60209081526040808320546010909252909120549091565b604080519283526020830191909152016102c4565b6102ba6103a63660046122c9565b60106020526000908152604090205481565b61034361033e3660046123c4565b6102f86103d4366004612381565b6107b0565b6103436103e7366004612381565b61087e565b6102ba6103fa36600461239a565b61091b565b6102ba61040d366004612381565b60146020526000908152604090205481565b6102ba61042d366004612381565b6109b1565b6102f8610a44565b610318610448366004612381565b610a64565b6102ba600d5481565b6102ba6104643660046122c9565b610ac4565b610343610477366004612400565b610b4a565b610343610cfb565b6102ba6104923660046122c9565b60126020526000908152604090205481565b6102ba60165481565b6104b5610d0f565b6040516102c4919061243b565b6102ba6104d03660046122c9565b60116020526000908152604090205481565b6102ba600e5481565b6103436104f936600461247f565b610db4565b610343610e7d565b6103436105143660046122c9565b610ff8565b600a546001600160a01b0316610318565b6102f8611022565b6103436105403660046124fb565b611031565b61034361033e36600461252b565b6102ba610561366004612381565b6110b8565b6103436105743660046125ef565b6110e3565b6102f8610587366004612381565b611161565b6102f861059a366004612381565b6111fb565b6105a7611302565b6040516102c4919061269a565b6103436105c236600461247f565b61143a565b600c54610318906001600160a01b031681565b6103436105e8366004612381565b611489565b6102e06105fb3660046126fc565b6001600160a01b03918216600090815260056020908152604080832093909416825291909152205460ff1690565b6102f8610637366004612381565b6115ff565b61034361064a366004612381565b611618565b61034361065d3660046122c9565b611625565b6103436106703660046122c9565b6116d5565b600b54610318906001600160a01b031681565b60006001600160e01b0319821663780e9d6360e01b14806106ad57506106ad8261174e565b92915050565b6060600080546106c29061272f565b80601f01602080910402602001604051908101604052809291908181526020018280546106ee9061272f565b801561073b5780601f106107105761010080835404028352916020019161073b565b820191906000526020600020905b81548152906001019060200180831161071e57829003601f168201915b5050505050905090565b60006107508261179e565b506000908152600460205260409020546001600160a01b031690565b60405162461bcd60e51b8152602060048201526014602482015273534254206e6f6e2d7472616e7366657261626c6560601b60448201526064015b60405180910390fd5b60606000821180156107c45750600e548211155b6107e05760405162461bcd60e51b81526004016107a790612763565b600082815260156020526040902080546107f99061272f565b80601f01602080910402602001604051908101604052809291908181526020018280546108259061272f565b80156108725780601f1061084757610100808354040283529160200191610872565b820191906000526020600020905b81548152906001019060200180831161085557829003601f168201915b50505050509050919050565b6108866117fd565b600081116108d65760405162461bcd60e51b815260206004820152601a60248201527f4d6178206c6576656c206d75737420626520706f73697469766500000000000060448201526064016107a7565b600e80549082905560408051828152602081018490527f3aeea1b2b2b23dce9ed34ca588d780cb062c867e7e8b5c194f1d1272810d3406910160405180910390a15050565b600061092683610ac4565b82106109885760405162461bcd60e51b815260206004820152602b60248201527f455243373231456e756d657261626c653a206f776e657220696e646578206f7560448201526a74206f6620626f756e647360a81b60648201526084016107a7565b506001600160a01b03919091166000908152600660209081526040808320938352929052205490565b60006109bc60085490565b8210610a1f5760405162461bcd60e51b815260206004820152602c60248201527f455243373231456e756d657261626c653a20676c6f62616c20696e646578206f60448201526b7574206f6620626f756e647360a01b60648201526084016107a7565b60088281548110610a3257610a3261278a565b90600052602060002001549050919050565b6060604051806060016040528060268152602001612db160269139905090565b6000818152600260205260408120546001600160a01b0316806106ad5760405162461bcd60e51b8152602060048201526018602482015277115490cdcc8c4e881a5b9d985b1a59081d1bdad95b88125160421b60448201526064016107a7565b60006001600160a01b038216610b2e5760405162461bcd60e51b815260206004820152602960248201527f4552433732313a2061646472657373207a65726f206973206e6f7420612076616044820152683634b21037bbb732b960b91b60648201526084016107a7565b506001600160a01b031660009081526003602052604090205490565b610b526117fd565b60405163a12b212160e01b815282906000906001600160a01b0383169063a12b212190610b839086906004016127a0565b600060405180830381865afa158015610ba0573d6000803e3d6000fd5b505050506040513d6000823e601f3d908101601f19168201604052610bc89190810190612922565b6040810151600e55905060005b8160400151811015610cb5576000610bee826001612a50565b905082606001518281518110610c0657610c0661278a565b602002602001015160146000838152602001908152602001600020819055508260a001518281518110610c3b57610c3b61278a565b6020026020010151601360008381526020019081526020016000209081610c629190612ab1565b5082608001518281518110610c7957610c7961278a565b6020026020010151601560008381526020019081526020016000209081610ca09190612ab1565b50508080610cad90612b71565b915050610bd5565b5060408082015181516000815260208101919091527f3aeea1b2b2b23dce9ed34ca588d780cb062c867e7e8b5c194f1d1272810d3406910160405180910390a150505050565b610d036117fd565b610d0d6000611857565b565b60606000600e5467ffffffffffffffff811115610d2e57610d2e612557565b604051908082528060200260200182016040528015610d57578160200160208202803683370190505b50905060015b600e548111610dae5760008181526014602052604090205482610d81600184612b8a565b81518110610d9157610d9161278a565b602090810291909101015280610da681612b71565b915050610d5d565b50919050565b610dbc6117fd565b600083118015610dce5750600e548311155b610dea5760405162461bcd60e51b81526004016107a790612763565b80610e245760405162461bcd60e51b815260206004820152600a602482015269456d707479206e616d6560b01b60448201526064016107a7565b6000838152601560205260409020610e3d828483612b9d565b50827fd3b8f53f01d1f0bceb9f6fab2b3b43ed2e2cfafafb9f7d0bf17a86843016416e8383604051610e70929190612c5d565b60405180910390a2505050565b336000818152600f60205260409020546201518090610e9c9042612b8a565b1015610ee25760405162461bcd60e51b8152602060048201526015602482015274416c726561647920636c61696d656420746f64617960581b60448201526064016107a7565b6001600160a01b038181166000818152600f602052604090819020429055600b54600d54915163a9059cbb60e01b8152600481019390935260248301919091529091169063a9059cbb906044016020604051808303816000875af1158015610f4e573d6000803e3d6000fd5b505050506040513d601f19601f82011682018060405250810190610f729190612c8c565b610fb05760405162461bcd60e51b815260206004820152600f60248201526e151c985b9cd9995c8819985a5b1959608a1b60448201526064016107a7565b806001600160a01b03167f4f03df6410de6abcc39fd6f082c0a1c56c99a948c1ffb107666d86e55696119e600d54604051610fed91815260200190565b60405180910390a250565b6110006117fd565b600b80546001600160a01b0319166001600160a01b0392909216919091179055565b6060600180546106c29061272f565b6110396117fd565b60008211801561104b5750600e548211155b6110675760405162461bcd60e51b81526004016107a790612763565b600082815260146020526040908190208290555182907f804b7ea9f3d9a85ffcf4bcff7b9061fc326a06e21e2ff778ca873dd8151a0a4a906110ac9084815260200190565b60405180910390a25050565b6000806110c483610a64565b6001600160a01b03166000908152601160205260409020549392505050565b6110ed33836118a9565b61114f5760405162461bcd60e51b815260206004820152602d60248201527f4552433732313a2063616c6c6572206973206e6f7420746f6b656e206f776e6560448201526c1c881bdc88185c1c1c9bdd9959609a1b60648201526084016107a7565b61115b84848484611928565b50505050565b6013602052600090815260409020805461117a9061272f565b80601f01602080910402602001604051908101604052809291908181526020018280546111a69061272f565b80156111f35780601f106111c8576101008083540402835291602001916111f3565b820191906000526020600020905b8154815290600101906020018083116111d657829003601f168201915b505050505081565b6000818152600260205260409020546060906001600160a01b03166112545760405162461bcd60e51b815260206004820152600f60248201526e125b9d985b1a59081d1bdad95b9259608a1b60448201526064016107a7565b600061125f836110b8565b600081815260136020526040902080549192509061127c9061272f565b80601f01602080910402602001604051908101604052809291908181526020018280546112a89061272f565b80156112f55780601f106112ca576101008083540402835291602001916112f5565b820191906000526020600020905b8154815290600101906020018083116112d857829003601f168201915b5050505050915050919050565b60606000600e5467ffffffffffffffff81111561132157611321612557565b60405190808252806020026020018201604052801561135457816020015b606081526020019060019003908161133f5790505b50905060005b600e54811015610dae5760156000611373836001612a50565b8152602001908152602001600020805461138c9061272f565b80601f01602080910402602001604051908101604052809291908181526020018280546113b89061272f565b80156114055780601f106113da57610100808354040283529160200191611405565b820191906000526020600020905b8154815290600101906020018083116113e857829003601f168201915b505050505082828151811061141c5761141c61278a565b6020026020010181905250808061143290612b71565b91505061135a565b6114426117fd565b6000831180156114545750600e548311155b6114705760405162461bcd60e51b81526004016107a790612763565b600083815260136020526040902061115b828483612b9d565b33816114c85760405162461bcd60e51b815260206004820152600e60248201526d125b9d985b1a5908185b5bdd5b9d60921b60448201526064016107a7565b600b54600c546040516323b872dd60e01b81526001600160a01b0384811660048301529182166024820152604481018590529116906323b872dd906064016020604051808303816000875af1158015611525573d6000803e3d6000fd5b505050506040513d601f19601f820116820180604052508101906115499190612c8c565b6115875760405162461bcd60e51b815260206004820152600f60248201526e151c985b9cd9995c8819985a5b1959608a1b60448201526064016107a7565b6001600160a01b038116600090815260106020526040812080548492906115af908490612a50565b90915550506040518281526001600160a01b038216907f905516bf815c273f240e1d48d78ea7db3f1f0d00b912fc69522caf0ea70450a29060200160405180910390a26115fb8161195b565b5050565b6015602052600090815260409020805461117a9061272f565b6116206117fd565b600d55565b61162d6117fd565b6001600160a01b0381166116835760405162461bcd60e51b815260206004820152601a60248201527f496e76616c6964207469702077616c6c6574206164647265737300000000000060448201526064016107a7565b600c80546001600160a01b038381166001600160a01b0319831681179093556040519116919082907f64156ef124ef8e448fce4c52497e5d3e48ad5d814bbfd92101a9320369e195e990600090a35050565b6116dd6117fd565b6001600160a01b0381166117425760405162461bcd60e51b815260206004820152602660248201527f4f776e61626c653a206e6577206f776e657220697320746865207a65726f206160448201526564647265737360d01b60648201526084016107a7565b61174b81611857565b50565b60006001600160e01b031982166380ac58cd60e01b148061177f57506001600160e01b03198216635b5e139f60e01b145b806106ad57506301ffc9a760e01b6001600160e01b03198316146106ad565b6000818152600260205260409020546001600160a01b031661174b5760405162461bcd60e51b8152602060048201526018602482015277115490cdcc8c4e881a5b9d985b1a59081d1bdad95b88125160421b60448201526064016107a7565b600a546001600160a01b03163314610d0d5760405162461bcd60e51b815260206004820181905260248201527f4f776e61626c653a2063616c6c6572206973206e6f7420746865206f776e657260448201526064016107a7565b600a80546001600160a01b038381166001600160a01b0319831681179093556040519116919082907f8be0079c531659141344cd1fd0a4f28419497f9722a3daafe3b4186f6b6457e090600090a35050565b6000806118b583610a64565b9050806001600160a01b0316846001600160a01b031614806118fc57506001600160a01b0380821660009081526005602090815260408083209388168352929052205460ff165b806119205750836001600160a01b031661191584610745565b6001600160a01b0316145b949350505050565b611933848484611aac565b61193f84848484611c1e565b61115b5760405162461bcd60e51b81526004016107a790612ca9565b6001600160a01b0381166000908152601060209081526040808320546011909252822054909161198a83611d1f565b90508181111561115b576001600160a01b03841660009081526012602052604090205480158015906119d257506000818152600260205260409020546001600160a01b031615155b15611a24576119e081611d60565b846001600160a01b03167fd6a6bcd88cdc4656d5f4e14e7dfbc9bc3f2f9811f8d6b508f3bee7d999d4d41c82604051611a1b91815260200190565b60405180910390a25b6016805460009182611a3583612b71565b919050559050611a458682611e03565b6001600160a01b0386166000818152601160209081526040808320879055601282529182902084905581518481529081018690527f3a8a89b59a31c39a36febecb987e0657ab7b7c73b60ebacb44dcb9886c2d5c8a910160405180910390a2505050505050565b826001600160a01b0316611abf82610a64565b6001600160a01b031614611ae55760405162461bcd60e51b81526004016107a790612cfb565b6001600160a01b038216611b475760405162461bcd60e51b8152602060048201526024808201527f4552433732313a207472616e7366657220746f20746865207a65726f206164646044820152637265737360e01b60648201526084016107a7565b611b548383836001611e1d565b826001600160a01b0316611b6782610a64565b6001600160a01b031614611b8d5760405162461bcd60e51b81526004016107a790612cfb565b600081815260046020908152604080832080546001600160a01b03199081169091556001600160a01b0387811680865260038552838620805460001901905590871680865283862080546001019055868652600290945282852080549092168417909155905184937fddf252ad1be2c89b69c2b068fc378daa952ba7f163c4a11628f55a4df523b3ef91a45b505050565b60006001600160a01b0384163b15611d1457604051630a85bd0160e11b81526001600160a01b0385169063150b7a0290611c62903390899088908890600401612d40565b6020604051808303816000875af1925050508015611c9d575060408051601f3d908101601f19168201909252611c9a91810190612d7d565b60015b611cfa573d808015611ccb576040519150601f19603f3d011682016040523d82523d6000602084013e611cd0565b606091505b508051600003611cf25760405162461bcd60e51b81526004016107a790612ca9565b805181602001fd5b6001600160e01b031916630a85bd0160e11b149050611920565b506001949350505050565b60008060015b600e548111611d59576000818152601460205260409020548410611d47578091505b80611d5181612b71565b915050611d25565b5092915050565b6000611d6b82610a64565b9050611d7b816000846001611e1d565b611d8482610a64565b600083815260046020908152604080832080546001600160a01b03199081169091556001600160a01b0385168085526003845282852080546000190190558785526002909352818420805490911690555192935084927fddf252ad1be2c89b69c2b068fc378daa952ba7f163c4a11628f55a4df523b3ef908390a45050565b6115fb828260405180602001604052806000815250611f51565b6001811115611e8c5760405162461bcd60e51b815260206004820152603560248201527f455243373231456e756d657261626c653a20636f6e7365637574697665207472604482015274185b9cd9995c9cc81b9bdd081cdd5c1c1bdc9d1959605a1b60648201526084016107a7565b816001600160a01b038516611ee857611ee381600880546000838152600960205260408120829055600182018355919091527ff3f7a9fe364faab93b216da50a3214154f22a0a2b415b23a84c8169e8b636ee30155565b611f0b565b836001600160a01b0316856001600160a01b031614611f0b57611f0b8582611f84565b6001600160a01b038416611f2757611f2281612021565b611f4a565b846001600160a01b0316846001600160a01b031614611f4a57611f4a84826120d0565b5050505050565b611f5b8383612114565b611f686000848484611c1e565b611c195760405162461bcd60e51b81526004016107a790612ca9565b60006001611f9184610ac4565b611f9b9190612b8a565b600083815260076020526040902054909150808214611fee576001600160a01b03841660009081526006602090815260408083208584528252808320548484528184208190558352600790915290208190555b5060009182526007602090815260408084208490556001600160a01b039094168352600681528383209183525290812055565b60085460009061203390600190612b8a565b6000838152600960205260408120546008805493945090928490811061205b5761205b61278a565b90600052602060002001549050806008838154811061207c5761207c61278a565b60009182526020808320909101929092558281526009909152604080822084905585825281205560088054806120b4576120b4612d9a565b6001900381819060005260206000200160009055905550505050565b60006120db83610ac4565b6001600160a01b039093166000908152600660209081526040808320868452825280832085905593825260079052919091209190915550565b6001600160a01b03821661216a5760405162461bcd60e51b815260206004820181905260248201527f4552433732313a206d696e7420746f20746865207a65726f206164647265737360448201526064016107a7565b6000818152600260205260409020546001600160a01b0316156121cf5760405162461bcd60e51b815260206004820152601c60248201527f4552433732313a20746f6b656e20616c7265616479206d696e7465640000000060448201526064016107a7565b6121dd600083836001611e1d565b6000818152600260205260409020546001600160a01b0316156122425760405162461bcd60e51b815260206004820152601c60248201527f4552433732313a20746f6b656e20616c7265616479206d696e7465640000000060448201526064016107a7565b6001600160a01b038216600081815260036020908152604080832080546001019055848352600290915280822080546001600160a01b0319168417905551839291907fddf252ad1be2c89b69c2b068fc378daa952ba7f163c4a11628f55a4df523b3ef908290a45050565b80356001600160a01b03811681146122c457600080fd5b919050565b6000602082840312156122db57600080fd5b6122e4826122ad565b9392505050565b6001600160e01b03198116811461174b57600080fd5b60006020828403121561231357600080fd5b81356122e4816122eb565b60005b83811015612339578181015183820152602001612321565b50506000910152565b6000815180845261235a81602086016020860161231e565b601f01601f19169290920160200192915050565b6020815260006122e46020830184612342565b60006020828403121561239357600080fd5b5035919050565b600080604083850312156123ad57600080fd5b6123b6836122ad565b946020939093013593505050565b6000806000606084860312156123d957600080fd5b6123e2846122ad565b92506123f0602085016122ad565b9150604084013590509250925092565b6000806040838503121561241357600080fd5b61241c836122ad565b915060208301356004811061243057600080fd5b809150509250929050565b6020808252825182820181905260009190848201906040850190845b8181101561247357835183529284019291840191600101612457565b50909695505050505050565b60008060006040848603121561249457600080fd5b83359250602084013567ffffffffffffffff808211156124b357600080fd5b818601915086601f8301126124c757600080fd5b8135818111156124d657600080fd5b8760208285010111156124e857600080fd5b6020830194508093505050509250925092565b6000806040838503121561250e57600080fd5b50508035926020909101359150565b801515811461174b57600080fd5b6000806040838503121561253e57600080fd5b612547836122ad565b915060208301356124308161251d565b634e487b7160e01b600052604160045260246000fd5b60405160e0810167ffffffffffffffff8111828210171561259057612590612557565b60405290565b604051601f8201601f1916810167ffffffffffffffff811182821017156125bf576125bf612557565b604052919050565b600067ffffffffffffffff8211156125e1576125e1612557565b50601f01601f191660200190565b6000806000806080858703121561260557600080fd5b61260e856122ad565b935061261c602086016122ad565b925060408501359150606085013567ffffffffffffffff81111561263f57600080fd5b8501601f8101871361265057600080fd5b803561266361265e826125c7565b612596565b81815288602083850101111561267857600080fd5b8160208401602083013760006020838301015280935050505092959194509250565b6000602080830181845280855180835260408601915060408160051b870101925083870160005b828110156126ef57603f198886030184526126dd858351612342565b945092850192908501906001016126c1565b5092979650505050505050565b6000806040838503121561270f57600080fd5b612718836122ad565b9150612726602084016122ad565b90509250929050565b600181811c9082168061274357607f821691505b602082108103610dae57634e487b7160e01b600052602260045260246000fd5b6020808252600d908201526c125b9d985b1a59081b195d995b609a1b604082015260600190565b634e487b7160e01b600052603260045260246000fd5b60208101600483106127c257634e487b7160e01b600052602160045260246000fd5b91905290565b600082601f8301126127d957600080fd5b81516127e761265e826125c7565b8181528460208386010111156127fc57600080fd5b61192082602083016020870161231e565b600067ffffffffffffffff82111561282757612827612557565b5060051b60200190565b600082601f83011261284257600080fd5b8151602061285261265e8361280d565b82815260059290921b8401810191818101908684111561287157600080fd5b8286015b8481101561288c5780518352918301918301612875565b509695505050505050565b600082601f8301126128a857600080fd5b815160206128b861265e8361280d565b82815260059290921b840181019181810190868411156128d757600080fd5b8286015b8481101561288c57805167ffffffffffffffff8111156128fb5760008081fd5b6129098986838b01016127c8565b8452509183019183016128db565b80516122c48161251d565b60006020828403121561293457600080fd5b815167ffffffffffffffff8082111561294c57600080fd5b9083019060e0828603121561296057600080fd5b61296861256d565b82518281111561297757600080fd5b612983878286016127c8565b82525060208301518281111561299857600080fd5b6129a4878286016127c8565b602083015250604083015160408201526060830151828111156129c657600080fd5b6129d287828601612831565b6060830152506080830151828111156129ea57600080fd5b6129f687828601612897565b60808301525060a083015182811115612a0e57600080fd5b612a1a87828601612897565b60a083015250612a2c60c08401612917565b60c082015295945050505050565b634e487b7160e01b600052601160045260246000fd5b808201808211156106ad576106ad612a3a565b601f821115611c1957600081815260208120601f850160051c81016020861015612a8a5750805b601f850160051c820191505b81811015612aa957828155600101612a96565b505050505050565b815167ffffffffffffffff811115612acb57612acb612557565b612adf81612ad9845461272f565b84612a63565b602080601f831160018114612b145760008415612afc5750858301515b600019600386901b1c1916600185901b178555612aa9565b600085815260208120601f198616915b82811015612b4357888601518255948401946001909101908401612b24565b5085821015612b615787850151600019600388901b60f8161c191681555b5050505050600190811b01905550565b600060018201612b8357612b83612a3a565b5060010190565b818103818111156106ad576106ad612a3a565b67ffffffffffffffff831115612bb557612bb5612557565b612bc983612bc3835461272f565b83612a63565b6000601f841160018114612bfd5760008515612be55750838201355b600019600387901b1c1916600186901b178355611f4a565b600083815260209020601f19861690835b82811015612c2e5786850135825560209485019460019092019101612c0e565b5086821015612c4b5760001960f88860031b161c19848701351681555b505060018560011b0183555050505050565b60208152816020820152818360408301376000818301604090810191909152601f909201601f19160101919050565b600060208284031215612c9e57600080fd5b81516122e48161251d565b60208082526032908201527f4552433732313a207472616e7366657220746f206e6f6e20455243373231526560408201527131b2b4bb32b91034b6b83632b6b2b73a32b960711b606082015260800190565b60208082526025908201527f4552433732313a207472616e736665722066726f6d20696e636f72726563742060408201526437bbb732b960d91b606082015260800190565b6001600160a01b0385811682528416602082015260408101839052608060608201819052600090612d7390830184612342565b9695505050505050565b600060208284031215612d8f57600080fd5b81516122e4816122eb565b634e487b7160e01b600052603160045260246000fdfe47696674657272612076312e312e30202d205661726961626c652052616e6b2053797374656da26469706673582212201efca59832997c2f645886d82174a3fda6b24629a11572aafa3492d3e58f2d9264736f6c634300081400334769667465727261466163746f727956322076312e302e30202d204d756c74692d54656e616e742053616153204172636869746563747572657613a25ecc738585a232ad50a301178f12b3ba8887d13e138b523c4269c47689a26469706673582212203fc0b5ac9639c500be6bff39d74acf2a0deb79d93ea4400286e4251ca8fcd5ce64736f6c63430008140033",
  "linkReferences": {},
  "deployedLinkReferences": {}
}