{
  "_format": "hh-sol-artifact-1",
  "contractName": "GifterraFactory",
  "sourceName": "contracts/GifterraFactory.sol",
  "abi": [
    {
      "inputs": [
        {
          "internalType": "address",
          "name": "_feeRecipient",
          "type": "address"
        },
        {
          "internalType": "uint256",
          "name": "_deploymentFee",
          "type": "uint256"
        }
      ],
      "stateMutability": "nonpayable",
      "type": "constructor"
    },
    {
      "anonymous": false,
      "inputs": [
        {
          "indexed": false,
          "internalType": "uint256",
          "name": "oldFee",
          "type": "uint256"
        },
        {
          "indexed": false,
          "internalType": "uint256",
          "name": "newFee",
          "type": "uint256"
        }
      ],
      "name": "DeploymentFeeUpdated",
      "type": "event"
    },
    {
      "anonymous": false,
      "inputs": [
        {
          "indexed": false,
          "internalType": "address",
          "name": "recipient",
          "type": "address"
        },
        {
          "indexed": false,
          "internalType": "uint256",
          "name": "amount",
          "type": "uint256"
        }
      ],
      "name": "FeesWithdrawn",
      "type": "event"
    },
    {
      "anonymous": false,
      "inputs": [
        {
          "indexed": false,
          "internalType": "address",
          "name": "account",
          "type": "address"
        }
      ],
      "name": "Paused",
      "type": "event"
    },
    {
      "anonymous": false,
      "inputs": [
        {
          "indexed": true,
          "internalType": "bytes32",
          "name": "role",
          "type": "bytes32"
        },
        {
          "indexed": true,
          "internalType": "bytes32",
          "name": "previousAdminRole",
          "type": "bytes32"
        },
        {
          "indexed": true,
          "internalType": "bytes32",
          "name": "newAdminRole",
          "type": "bytes32"
        }
      ],
      "name": "RoleAdminChanged",
      "type": "event"
    },
    {
      "anonymous": false,
      "inputs": [
        {
          "indexed": true,
          "internalType": "bytes32",
          "name": "role",
          "type": "bytes32"
        },
        {
          "indexed": true,
          "internalType": "address",
          "name": "account",
          "type": "address"
        },
        {
          "indexed": true,
          "internalType": "address",
          "name": "sender",
          "type": "address"
        }
      ],
      "name": "RoleGranted",
      "type": "event"
    },
    {
      "anonymous": false,
      "inputs": [
        {
          "indexed": true,
          "internalType": "bytes32",
          "name": "role",
          "type": "bytes32"
        },
        {
          "indexed": true,
          "internalType": "address",
          "name": "account",
          "type": "address"
        },
        {
          "indexed": true,
          "internalType": "address",
          "name": "sender",
          "type": "address"
        }
      ],
      "name": "RoleRevoked",
      "type": "event"
    },
    {
      "anonymous": false,
      "inputs": [
        {
          "indexed": true,
          "internalType": "uint256",
          "name": "tenantId",
          "type": "uint256"
        },
        {
          "indexed": true,
          "internalType": "address",
          "name": "oldAdmin",
          "type": "address"
        },
        {
          "indexed": true,
          "internalType": "address",
          "name": "newAdmin",
          "type": "address"
        }
      ],
      "name": "TenantAdminTransferred",
      "type": "event"
    },
    {
      "anonymous": false,
      "inputs": [
        {
          "indexed": true,
          "internalType": "uint256",
          "name": "tenantId",
          "type": "uint256"
        },
        {
          "indexed": true,
          "internalType": "address",
          "name": "admin",
          "type": "address"
        },
        {
          "indexed": false,
          "internalType": "string",
          "name": "tenantName",
          "type": "string"
        },
        {
          "indexed": false,
          "internalType": "address",
          "name": "gifterra",
          "type": "address"
        },
        {
          "indexed": false,
          "internalType": "address",
          "name": "rewardNFT",
          "type": "address"
        },
        {
          "indexed": false,
          "internalType": "address",
          "name": "payLitter",
          "type": "address"
        },
        {
          "indexed": false,
          "internalType": "address",
          "name": "flagNFT",
          "type": "address"
        },
        {
          "indexed": false,
          "internalType": "address",
          "name": "randomRewardEngine",
          "type": "address"
        }
      ],
      "name": "TenantCreated",
      "type": "event"
    },
    {
      "anonymous": false,
      "inputs": [
        {
          "indexed": true,
          "internalType": "uint256",
          "name": "tenantId",
          "type": "uint256"
        },
        {
          "indexed": false,
          "internalType": "bool",
          "name": "isActive",
          "type": "bool"
        },
        {
          "indexed": false,
          "internalType": "bool",
          "name": "isPaused",
          "type": "bool"
        }
      ],
      "name": "TenantStatusUpdated",
      "type": "event"
    },
    {
      "anonymous": false,
      "inputs": [
        {
          "indexed": false,
          "internalType": "address",
          "name": "account",
          "type": "address"
        }
      ],
      "name": "Unpaused",
      "type": "event"
    },
    {
      "inputs": [],
      "name": "DEFAULT_ADMIN_ROLE",
      "outputs": [
        {
          "internalType": "bytes32",
          "name": "",
          "type": "bytes32"
        }
      ],
      "stateMutability": "view",
      "type": "function"
    },
    {
      "inputs": [],
      "name": "OPERATOR_ROLE",
      "outputs": [
        {
          "internalType": "bytes32",
          "name": "",
          "type": "bytes32"
        }
      ],
      "stateMutability": "view",
      "type": "function"
    },
    {
      "inputs": [],
      "name": "SUPER_ADMIN_ROLE",
      "outputs": [
        {
          "internalType": "bytes32",
          "name": "",
          "type": "bytes32"
        }
      ],
      "stateMutability": "view",
      "type": "function"
    },
    {
      "inputs": [],
      "name": "activeTenants",
      "outputs": [
        {
          "internalType": "uint256",
          "name": "",
          "type": "uint256"
        }
      ],
      "stateMutability": "view",
      "type": "function"
    },
    {
      "inputs": [
        {
          "internalType": "address",
          "name": "",
          "type": "address"
        }
      ],
      "name": "adminToTenantId",
      "outputs": [
        {
          "internalType": "uint256",
          "name": "",
          "type": "uint256"
        }
      ],
      "stateMutability": "view",
      "type": "function"
    },
    {
      "inputs": [
        {
          "internalType": "string",
          "name": "tenantName",
          "type": "string"
        },
        {
          "internalType": "address",
          "name": "admin",
          "type": "address"
        },
        {
          "internalType": "address",
          "name": "rewardTokenAddress",
          "type": "address"
        },
        {
          "internalType": "address",
          "name": "tipWalletAddress",
          "type": "address"
        },
        {
          "internalType": "enum RankPlanRegistry.PlanType",
          "name": "rankPlan",
          "type": "uint8"
        }
      ],
      "name": "createTenant",
      "outputs": [
        {
          "internalType": "uint256",
          "name": "",
          "type": "uint256"
        }
      ],
      "stateMutability": "payable",
      "type": "function"
    },
    {
      "inputs": [],
      "name": "defaultDailyRewardAmount",
      "outputs": [
        {
          "internalType": "uint256",
          "name": "",
          "type": "uint256"
        }
      ],
      "stateMutability": "view",
      "type": "function"
    },
    {
      "inputs": [
        {
          "internalType": "uint256",
          "name": "",
          "type": "uint256"
        }
      ],
      "name": "defaultRankThresholds",
      "outputs": [
        {
          "internalType": "uint256",
          "name": "",
          "type": "uint256"
        }
      ],
      "stateMutability": "view",
      "type": "function"
    },
    {
      "inputs": [],
      "name": "deploymentFee",
      "outputs": [
        {
          "internalType": "uint256",
          "name": "",
          "type": "uint256"
        }
      ],
      "stateMutability": "view",
      "type": "function"
    },
    {
      "inputs": [],
      "name": "feeRecipient",
      "outputs": [
        {
          "internalType": "address",
          "name": "",
          "type": "address"
        }
      ],
      "stateMutability": "view",
      "type": "function"
    },
    {
      "inputs": [],
      "name": "getGlobalStats",
      "outputs": [
        {
          "internalType": "uint256",
          "name": "total",
          "type": "uint256"
        },
        {
          "internalType": "uint256",
          "name": "active",
          "type": "uint256"
        },
        {
          "internalType": "uint256",
          "name": "feesCollected",
          "type": "uint256"
        },
        {
          "internalType": "uint256",
          "name": "currentFee",
          "type": "uint256"
        }
      ],
      "stateMutability": "view",
      "type": "function"
    },
    {
      "inputs": [
        {
          "internalType": "bytes32",
          "name": "role",
          "type": "bytes32"
        }
      ],
      "name": "getRoleAdmin",
      "outputs": [
        {
          "internalType": "bytes32",
          "name": "",
          "type": "bytes32"
        }
      ],
      "stateMutability": "view",
      "type": "function"
    },
    {
      "inputs": [
        {
          "internalType": "address",
          "name": "admin",
          "type": "address"
        }
      ],
      "name": "getTenantIdByAdmin",
      "outputs": [
        {
          "internalType": "uint256",
          "name": "",
          "type": "uint256"
        }
      ],
      "stateMutability": "view",
      "type": "function"
    },
    {
      "inputs": [
        {
          "internalType": "uint256",
          "name": "tenantId",
          "type": "uint256"
        }
      ],
      "name": "getTenantInfo",
      "outputs": [
        {
          "components": [
            {
              "internalType": "uint256",
              "name": "tenantId",
              "type": "uint256"
            },
            {
              "internalType": "address",
              "name": "admin",
              "type": "address"
            },
            {
              "internalType": "string",
              "name": "tenantName",
              "type": "string"
            },
            {
              "components": [
                {
                  "internalType": "address",
                  "name": "gifterra",
                  "type": "address"
                },
                {
                  "internalType": "address",
                  "name": "rewardNFT",
                  "type": "address"
                },
                {
                  "internalType": "address",
                  "name": "payLitter",
                  "type": "address"
                },
                {
                  "internalType": "address",
                  "name": "flagNFT",
                  "type": "address"
                },
                {
                  "internalType": "address",
                  "name": "randomRewardEngine",
                  "type": "address"
                }
              ],
              "internalType": "struct GifterraFactory.TenantContracts",
              "name": "contracts",
              "type": "tuple"
            },
            {
              "internalType": "uint256",
              "name": "createdAt",
              "type": "uint256"
            },
            {
              "internalType": "uint256",
              "name": "lastActivityAt",
              "type": "uint256"
            },
            {
              "internalType": "bool",
              "name": "isActive",
              "type": "bool"
            },
            {
              "internalType": "bool",
              "name": "isPaused",
              "type": "bool"
            }
          ],
          "internalType": "struct GifterraFactory.TenantInfo",
          "name": "",
          "type": "tuple"
        }
      ],
      "stateMutability": "view",
      "type": "function"
    },
    {
      "inputs": [
        {
          "internalType": "uint256",
          "name": "offset",
          "type": "uint256"
        },
        {
          "internalType": "uint256",
          "name": "limit",
          "type": "uint256"
        }
      ],
      "name": "getTenantList",
      "outputs": [
        {
          "components": [
            {
              "internalType": "uint256",
              "name": "tenantId",
              "type": "uint256"
            },
            {
              "internalType": "address",
              "name": "admin",
              "type": "address"
            },
            {
              "internalType": "string",
              "name": "tenantName",
              "type": "string"
            },
            {
              "components": [
                {
                  "internalType": "address",
                  "name": "gifterra",
                  "type": "address"
                },
                {
                  "internalType": "address",
                  "name": "rewardNFT",
                  "type": "address"
                },
                {
                  "internalType": "address",
                  "name": "payLitter",
                  "type": "address"
                },
                {
                  "internalType": "address",
                  "name": "flagNFT",
                  "type": "address"
                },
                {
                  "internalType": "address",
                  "name": "randomRewardEngine",
                  "type": "address"
                }
              ],
              "internalType": "struct GifterraFactory.TenantContracts",
              "name": "contracts",
              "type": "tuple"
            },
            {
              "internalType": "uint256",
              "name": "createdAt",
              "type": "uint256"
            },
            {
              "internalType": "uint256",
              "name": "lastActivityAt",
              "type": "uint256"
            },
            {
              "internalType": "bool",
              "name": "isActive",
              "type": "bool"
            },
            {
              "internalType": "bool",
              "name": "isPaused",
              "type": "bool"
            }
          ],
          "internalType": "struct GifterraFactory.TenantInfo[]",
          "name": "",
          "type": "tuple[]"
        }
      ],
      "stateMutability": "view",
      "type": "function"
    },
    {
      "inputs": [
        {
          "internalType": "bytes32",
          "name": "role",
          "type": "bytes32"
        },
        {
          "internalType": "address",
          "name": "account",
          "type": "address"
        }
      ],
      "name": "grantRole",
      "outputs": [],
      "stateMutability": "nonpayable",
      "type": "function"
    },
    {
      "inputs": [
        {
          "internalType": "bytes32",
          "name": "role",
          "type": "bytes32"
        },
        {
          "internalType": "address",
          "name": "account",
          "type": "address"
        }
      ],
      "name": "hasRole",
      "outputs": [
        {
          "internalType": "bool",
          "name": "",
          "type": "bool"
        }
      ],
      "stateMutability": "view",
      "type": "function"
    },
    {
      "inputs": [
        {
          "internalType": "address",
          "name": "",
          "type": "address"
        }
      ],
      "name": "isTenantContract",
      "outputs": [
        {
          "internalType": "bool",
          "name": "",
          "type": "bool"
        }
      ],
      "stateMutability": "view",
      "type": "function"
    },
    {
      "inputs": [],
      "name": "nextTenantId",
      "outputs": [
        {
          "internalType": "uint256",
          "name": "",
          "type": "uint256"
        }
      ],
      "stateMutability": "view",
      "type": "function"
    },
    {
      "inputs": [],
      "name": "pause",
      "outputs": [],
      "stateMutability": "nonpayable",
      "type": "function"
    },
    {
      "inputs": [],
      "name": "paused",
      "outputs": [
        {
          "internalType": "bool",
          "name": "",
          "type": "bool"
        }
      ],
      "stateMutability": "view",
      "type": "function"
    },
    {
      "inputs": [],
      "name": "rankPlanRegistry",
      "outputs": [
        {
          "internalType": "address",
          "name": "",
          "type": "address"
        }
      ],
      "stateMutability": "view",
      "type": "function"
    },
    {
      "inputs": [
        {
          "internalType": "bytes32",
          "name": "role",
          "type": "bytes32"
        },
        {
          "internalType": "address",
          "name": "account",
          "type": "address"
        }
      ],
      "name": "renounceRole",
      "outputs": [],
      "stateMutability": "nonpayable",
      "type": "function"
    },
    {
      "inputs": [
        {
          "internalType": "bytes32",
          "name": "role",
          "type": "bytes32"
        },
        {
          "internalType": "address",
          "name": "account",
          "type": "address"
        }
      ],
      "name": "revokeRole",
      "outputs": [],
      "stateMutability": "nonpayable",
      "type": "function"
    },
    {
      "inputs": [
        {
          "internalType": "uint256",
          "name": "newFee",
          "type": "uint256"
        }
      ],
      "name": "setDeploymentFee",
      "outputs": [],
      "stateMutability": "nonpayable",
      "type": "function"
    },
    {
      "inputs": [
        {
          "internalType": "address",
          "name": "newRecipient",
          "type": "address"
        }
      ],
      "name": "setFeeRecipient",
      "outputs": [],
      "stateMutability": "nonpayable",
      "type": "function"
    },
    {
      "inputs": [
        {
          "internalType": "address",
          "name": "_rankPlanRegistry",
          "type": "address"
        }
      ],
      "name": "setRankPlanRegistry",
      "outputs": [],
      "stateMutability": "nonpayable",
      "type": "function"
    },
    {
      "inputs": [
        {
          "internalType": "uint256",
          "name": "tenantId",
          "type": "uint256"
        },
        {
          "internalType": "bool",
          "name": "active",
          "type": "bool"
        }
      ],
      "name": "setTenantActive",
      "outputs": [],
      "stateMutability": "nonpayable",
      "type": "function"
    },
    {
      "inputs": [
        {
          "internalType": "uint256",
          "name": "tenantId",
          "type": "uint256"
        },
        {
          "internalType": "bool",
          "name": "paused",
          "type": "bool"
        }
      ],
      "name": "setTenantPaused",
      "outputs": [],
      "stateMutability": "nonpayable",
      "type": "function"
    },
    {
      "inputs": [
        {
          "internalType": "bytes4",
          "name": "interfaceId",
          "type": "bytes4"
        }
      ],
      "name": "supportsInterface",
      "outputs": [
        {
          "internalType": "bool",
          "name": "",
          "type": "bool"
        }
      ],
      "stateMutability": "view",
      "type": "function"
    },
    {
      "inputs": [
        {
          "internalType": "uint256",
          "name": "",
          "type": "uint256"
        }
      ],
      "name": "tenants",
      "outputs": [
        {
          "internalType": "uint256",
          "name": "tenantId",
          "type": "uint256"
        },
        {
          "internalType": "address",
          "name": "admin",
          "type": "address"
        },
        {
          "internalType": "string",
          "name": "tenantName",
          "type": "string"
        },
        {
          "components": [
            {
              "internalType": "address",
              "name": "gifterra",
              "type": "address"
            },
            {
              "internalType": "address",
              "name": "rewardNFT",
              "type": "address"
            },
            {
              "internalType": "address",
              "name": "payLitter",
              "type": "address"
            },
            {
              "internalType": "address",
              "name": "flagNFT",
              "type": "address"
            },
            {
              "internalType": "address",
              "name": "randomRewardEngine",
              "type": "address"
            }
          ],
          "internalType": "struct GifterraFactory.TenantContracts",
          "name": "contracts",
          "type": "tuple"
        },
        {
          "internalType": "uint256",
          "name": "createdAt",
          "type": "uint256"
        },
        {
          "internalType": "uint256",
          "name": "lastActivityAt",
          "type": "uint256"
        },
        {
          "internalType": "bool",
          "name": "isActive",
          "type": "bool"
        },
        {
          "internalType": "bool",
          "name": "isPaused",
          "type": "bool"
        }
      ],
      "stateMutability": "view",
      "type": "function"
    },
    {
      "inputs": [],
      "name": "totalFeesCollected",
      "outputs": [
        {
          "internalType": "uint256",
          "name": "",
          "type": "uint256"
        }
      ],
      "stateMutability": "view",
      "type": "function"
    },
    {
      "inputs": [],
      "name": "totalTenants",
      "outputs": [
        {
          "internalType": "uint256",
          "name": "",
          "type": "uint256"
        }
      ],
      "stateMutability": "view",
      "type": "function"
    },
    {
      "inputs": [
        {
          "internalType": "uint256",
          "name": "tenantId",
          "type": "uint256"
        },
        {
          "internalType": "address",
          "name": "newAdmin",
          "type": "address"
        }
      ],
      "name": "transferTenantAdmin",
      "outputs": [],
      "stateMutability": "nonpayable",
      "type": "function"
    },
    {
      "inputs": [],
      "name": "unpause",
      "outputs": [],
      "stateMutability": "nonpayable",
      "type": "function"
    },
    {
      "inputs": [],
      "name": "version",
      "outputs": [
        {
          "internalType": "string",
          "name": "",
          "type": "string"
        }
      ],
      "stateMutability": "pure",
      "type": "function"
    },
    {
      "inputs": [],
      "name": "withdrawFees",
      "outputs": [],
      "stateMutability": "nonpayable",
      "type": "function"
    }
  ],
  "bytecode": "0x608060405260016006556801a055690d9db80000600c553480156200002357600080fd5b506040516201664b3803806201664b8339810160408190526200004691620002be565b600180556002805460ff191690556001600160a01b038216620000b05760405162461bcd60e51b815260206004820152601560248201527f496e76616c69642066656520726563697069656e74000000000000000000000060448201526064015b60405180910390fd5b60008111620001025760405162461bcd60e51b815260206004820152601460248201527f466565206d75737420626520706f7369746976650000000000000000000000006044820152606401620000a7565b6200010f6000336200021d565b6200013b7f7613a25ecc738585a232ad50a301178f12b3ba8887d13e138b523c4269c47689336200021d565b620001677f97667070c54ef182b0f5858b034beac1b6f3089aa2d3188bb1e8929f4fa9b929336200021d565b600a80546001600160a01b0319166001600160a01b039390931692909217909155600955600d80546001818101835560008381527fd7b6990105719101dabeb77144f2a3385c8033acd3af97e9423a695e81ad1eb59283015582548082018455683635c9adc5dea00000908301558254808201845569010f0cf064dd59200000908301558254808201845569021e19e0c9bab2400000908301558254908101909255690a968163f0a57b400000910155620002fa565b6000828152602081815260408083206001600160a01b038516845290915290205460ff16620002ba576000828152602081815260408083206001600160a01b03851684529091529020805460ff19166001179055620002793390565b6001600160a01b0316816001600160a01b0316837f2f8788117e7eff1d82e926ec794901d17c78024a50270940304540a733656f0d60405160405180910390a45b5050565b60008060408385031215620002d257600080fd5b82516001600160a01b0381168114620002ea57600080fd5b6020939093015192949293505050565b62016340806200030b6000396000f3fe608060405260043610620002475760003560e01c80636de37465116200013b578063bd2ba85d11620000b9578063e74b981b1162000078578063e74b981b146200071f578063f034fecf1462000744578063f2cff57f146200075c578063f5b541a61462000774578063fc23c5dc14620007aa57600080fd5b8063bd2ba85d146200063b578063be3e864c1462000676578063c3a2202d14620006b0578063d002462b14620006d5578063d547741f14620006fa57600080fd5b806391d14854116200010657806391d148541462000591578063962ee35814620005b6578063a217fddf14620005d8578063a8ae861514620005ef578063b7adf6f0146200060757600080fd5b80636de37465146200050b57806370f25adb146200053c578063812ae71214620005545780638456cb59146200057957600080fd5b80634690484011620001c957806354fd4d50116200019457806354fd4d501462000460578063587d3af414620004875780635c975abb146200049e57806360c6d8ae14620004b85780636b4169c314620004d057600080fd5b80634690484014620003c3578063476343ee14620003fe57806349eb1f2314620004165780634ec1ef77146200043b57600080fd5b80632f2ff15d11620002165780632f2ff15d146200030657806336568abe146200032d5780633c72563114620003525780633f4ba83a14620003865780634460bdd6146200039e57600080fd5b806301ffc9a7146200024c578063183c811c1462000286578063198de48814620002ad578063248a9ca314620002d2575b600080fd5b3480156200025957600080fd5b50620002716200026b36600462002490565b620007de565b60405190151581526020015b60405180910390f35b3480156200029357600080fd5b506200029e600c5481565b6040519081526020016200027d565b348015620002ba57600080fd5b506200029e620002cc366004620024bc565b62000816565b348015620002df57600080fd5b506200029e620002f1366004620024bc565b60009081526020819052604090206001015490565b3480156200031357600080fd5b506200032b62000325366004620024f3565b62000838565b005b3480156200033a57600080fd5b506200032b6200034c366004620024f3565b62000866565b3480156200035f57600080fd5b50620003776200037136600462002522565b620008ec565b6040516200027d91906200265e565b3480156200039357600080fd5b506200032b62000bb2565b348015620003ab57600080fd5b506200029e600080516020620162eb83398151915281565b348015620003d057600080fd5b50600a54620003e5906001600160a01b031681565b6040516001600160a01b0390911681526020016200027d565b3480156200040b57600080fd5b506200032b62000bda565b3480156200042357600080fd5b506200032b62000435366004620026c4565b62000d32565b3480156200044857600080fd5b506200032b6200045a366004620024f3565b62000dfe565b3480156200046d57600080fd5b506200047862000f7c565b6040516200027d9190620026fb565b6200029e6200049836600462002736565b62000f9d565b348015620004ab57600080fd5b5060025460ff1662000271565b348015620004c557600080fd5b506200029e600b5481565b348015620004dd57600080fd5b50600754600854600b546009546040805194855260208501939093529183015260608201526080016200027d565b3480156200051857600080fd5b506200029e6200052a3660046200283c565b60046020526000908152604090205481565b3480156200054957600080fd5b506200029e60085481565b3480156200056157600080fd5b506200032b620005733660046200283c565b620011d5565b3480156200058657600080fd5b506200032b6200125d565b3480156200059e57600080fd5b5062000271620005b0366004620024f3565b62001282565b348015620005c357600080fd5b50600e54620003e5906001600160a01b031681565b348015620005e557600080fd5b506200029e600081565b348015620005fc57600080fd5b506200029e60075481565b3480156200061457600080fd5b5062000271620006263660046200283c565b60056020526000908152604090205460ff1681565b3480156200064857600080fd5b50620006606200065a366004620024bc565b620012ab565b6040516200027d9897969594939291906200285a565b3480156200068357600080fd5b506200029e620006953660046200283c565b6001600160a01b031660009081526004602052604090205490565b348015620006bd57600080fd5b506200032b620006cf366004620026c4565b620013da565b348015620006e257600080fd5b506200032b620006f4366004620024bc565b620014f4565b3480156200070757600080fd5b506200032b62000719366004620024f3565b62001555565b3480156200072c57600080fd5b506200032b6200073e3660046200283c565b6200157e565b3480156200075157600080fd5b506200029e60065481565b3480156200076957600080fd5b506200029e60095481565b3480156200078157600080fd5b506200029e7f97667070c54ef182b0f5858b034beac1b6f3089aa2d3188bb1e8929f4fa9b92981565b348015620007b757600080fd5b50620007cf620007c9366004620024bc565b62001608565b6040516200027d9190620028c5565b60006001600160e01b03198216637965db0b60e01b14806200081057506301ffc9a760e01b6001600160e01b03198316145b92915050565b600d81815481106200082757600080fd5b600091825260209091200154905081565b6000828152602081905260409020600101546200085581620017b6565b620008618383620017c2565b505050565b6001600160a01b0381163314620008dc5760405162461bcd60e51b815260206004820152602f60248201527f416363657373436f6e74726f6c3a2063616e206f6e6c792072656e6f756e636560448201526e103937b632b9903337b91039b2b63360891b60648201526084015b60405180910390fd5b620008e882826200184a565b5050565b606060008211801562000900575060648211155b6200093e5760405162461bcd60e51b815260206004820152600d60248201526c125b9d985b1a59081b1a5b5a5d609a1b6044820152606401620008d3565b60006200094c8385620028f0565b90506006548111156200095e57506006545b6000848211620009705760006200097c565b6200097c858362002906565b905060008167ffffffffffffffff8111156200099c576200099c62002710565b604051908082528060200260200182016040528015620009d957816020015b620009c5620023cc565b815260200190600190039081620009bb5790505b50905060005b8281101562000ba85760036000620009f8838a620028f0565b62000a05906001620028f0565b815260208082019290925260409081016000208151610100810183528154815260018201546001600160a01b031693810193909352600281018054919284019162000a50906200291c565b80601f016020809104026020016040519081016040528092919081815260200182805462000a7e906200291c565b801562000acf5780601f1062000aa35761010080835404028352916020019162000acf565b820191906000526020600020905b81548152906001019060200180831162000ab157829003601f168201915b50505091835250506040805160a0808201835260038501546001600160a01b03908116835260048601548116602084810191909152600587015482168486015260068701548216606080860191909152600788015490921660808086019190915290860193909352600886015493850193909352600985015492840192909252600a9093015460ff80821615159484019490945261010090049092161515910152825183908390811062000b875762000b8762002958565b6020026020010181905250808062000b9f906200296e565b915050620009df565b5095945050505050565b600080516020620162eb83398151915262000bcd81620017b6565b62000bd7620018b2565b50565b600080516020620162eb83398151915262000bf581620017b6565b62000bff62001906565b478062000c455760405162461bcd60e51b81526020600482015260136024820152724e6f206665657320746f20776974686472617760681b6044820152606401620008d3565b600a546040516000916001600160a01b03169083908381818185875af1925050503d806000811462000c94576040519150601f19603f3d011682016040523d82523d6000602084013e62000c99565b606091505b505090508062000ce05760405162461bcd60e51b815260206004820152601160248201527015da5d1a191c985dd85b0819985a5b1959607a1b6044820152606401620008d3565b600a54604080516001600160a01b039092168252602082018490527fc0819c13be868895eb93e40eaceb96de976442fa1d404e5c55f14bb65a8c489a910160405180910390a1505062000bd760018055565b600080516020620162eb83398151915262000d4d81620017b6565b60008311801562000d5f575060065483105b62000d7e5760405162461bcd60e51b8152600401620008d3906200298a565b60008381526003602052604090819020600a810180548515156101000261ff0019821681179092559251919286927f3a224597d43889a3de0dd95df370347c1d08507839f530bf66cac958919794e49262000df09260ff91821691161790879091151582521515602082015260400190565b60405180910390a250505050565b600080516020620162eb83398151915262000e1981620017b6565b60008311801562000e2b575060065483105b62000e4a5760405162461bcd60e51b8152600401620008d3906200298a565b6001600160a01b03821662000e965760405162461bcd60e51b815260206004820152601160248201527024b73b30b634b2103732bb9030b236b4b760791b6044820152606401620008d3565b6001600160a01b0382166000908152600460205260409020541562000efe5760405162461bcd60e51b815260206004820152601c60248201527f4e65772061646d696e20616c7265616479206861732074656e616e74000000006044820152606401620008d3565b60008381526003602090815260408083206001810180546001600160a01b039081168087526004909552838620869055871680865283862089905581546001600160a01b031916811790915591519093839188917fb5b717b4a4eb93e5db502b492fdd8d76374b7c6ed1947ededa57dccb67c742d191a45050505050565b6060604051806060016040528060398152602001620162b260399139905090565b600062000fa962001906565b62000fb362001961565b600086511162000ffc5760405162461bcd60e51b8152602060048201526013602482015272496e76616c69642074656e616e74206e616d6560681b6044820152606401620008d3565b6001600160a01b0385166200104c5760405162461bcd60e51b8152602060048201526015602482015274496e76616c69642061646d696e206164647265737360581b6044820152606401620008d3565b6001600160a01b03851660009081526004602052604090205415620010b45760405162461bcd60e51b815260206004820152601860248201527f41646d696e20616c7265616479206861732074656e616e7400000000000000006044820152606401620008d3565b600954341015620011085760405162461bcd60e51b815260206004820152601b60248201527f496e73756666696369656e74206465706c6f796d656e742066656500000000006044820152606401620008d3565b60068054600091826200111b836200296e565b9190505590506000620011328888888888620019ab565b90506200114282888a8462001c07565b34600b6000828254620011569190620028f0565b92505081905550866001600160a01b0316827f6d60714460f85b8d1b2c4c5a483cce97190cfe3c56edaa15b4499c187bdcd3dd8a84600001518560200151866040015187606001518860800151604051620011b796959493929190620029b5565b60405180910390a3509050620011cc60018055565b95945050505050565b600080516020620162eb833981519152620011f081620017b6565b6001600160a01b0382166200123a5760405162461bcd60e51b815260206004820152600f60248201526e496e76616c6964206164647265737360881b6044820152606401620008d3565b50600e80546001600160a01b0319166001600160a01b0392909216919091179055565b600080516020620162eb8339815191526200127881620017b6565b62000bd762001e24565b6000918252602082815260408084206001600160a01b0393909316845291905290205460ff1690565b60036020526000908152604090208054600182015460028301805492936001600160a01b0390921692620012df906200291c565b80601f01602080910402602001604051908101604052809291908181526020018280546200130d906200291c565b80156200135e5780601f1062001332576101008083540402835291602001916200135e565b820191906000526020600020905b8154815290600101906020018083116200134057829003601f168201915b50506040805160a08101825260038701546001600160a01b03908116825260048801548116602083015260058801548116928201929092526006870154821660608201526007870154909116608082015260088601546009870154600a909701549596919590945090925060ff80821692506101009091041688565b600080516020620162eb833981519152620013f581620017b6565b60008311801562001407575060065483105b620014265760405162461bcd60e51b8152600401620008d3906200298a565b6000838152600360205260409020600a8101805484151560ff1982161790915560ff1680801562001455575083155b156200147857600880549060006200146d8362002a04565b9190505550620014a2565b80158015620014845750835b15620014a257600880549060006200149c836200296e565b91905055505b600a82015460408051861515815261010090920460ff161515602083015286917f3a224597d43889a3de0dd95df370347c1d08507839f530bf66cac958919794e4910160405180910390a25050505050565b600080516020620162eb8339815191526200150f81620017b6565b600980549083905560408051828152602081018590527fbade80ae0982a2d3106c4f5afa708793d20a9d6441a6440011f99e9f69ad5f3c910160405180910390a1505050565b6000828152602081905260409020600101546200157281620017b6565b6200086183836200184a565b600080516020620162eb8339815191526200159981620017b6565b6001600160a01b038216620015e55760405162461bcd60e51b8152602060048201526011602482015270125b9d985b1a59081c9958da5c1a595b9d607a1b6044820152606401620008d3565b50600a80546001600160a01b0319166001600160a01b0392909216919091179055565b62001612620023cc565b60008211801562001624575060065482105b620016435760405162461bcd60e51b8152600401620008d3906200298a565b6000828152600360209081526040918290208251610100810184528154815260018201546001600160a01b031692810192909252600281018054929391929184019162001690906200291c565b80601f0160208091040260200160405190810160405280929190818152602001828054620016be906200291c565b80156200170f5780601f10620016e3576101008083540402835291602001916200170f565b820191906000526020600020905b815481529060010190602001808311620016f157829003601f168201915b50505091835250506040805160a0808201835260038501546001600160a01b03908116835260048601548116602084810191909152600587015482168486015260068701548216606080860191909152600788015490921660808086019190915290860193909352600886015493850193909352600985015492840192909252600a9093015460ff8082161515948401949094526101009004909216151591015292915050565b62000bd7813362001e64565b620017ce828262001282565b620008e8576000828152602081815260408083206001600160a01b03851684529091529020805460ff19166001179055620018063390565b6001600160a01b0316816001600160a01b0316837f2f8788117e7eff1d82e926ec794901d17c78024a50270940304540a733656f0d60405160405180910390a45050565b62001856828262001282565b15620008e8576000828152602081815260408083206001600160a01b0385168085529252808320805460ff1916905551339285917ff6391f5c32d9c69d2a47ea670b442974b53935d1edc7fd64eb21e047a839171b9190a45050565b620018bc62001ec8565b6002805460ff191690557f5db9ee0a495bf2e6ff9c91a7834c1ba4fdd244a5e8aa4e537bd38aeae4b073aa335b6040516001600160a01b03909116815260200160405180910390a1565b6002600154036200195a5760405162461bcd60e51b815260206004820152601f60248201527f5265656e7472616e637947756172643a207265656e7472616e742063616c6c006044820152606401620008d3565b6002600155565b60025460ff1615620019a95760405162461bcd60e51b815260206004820152601060248201526f14185d5cd8589b194e881c185d5cd95960821b6044820152606401620008d3565b565b6040805160a08101825260008082526020820181905291810182905260608101829052608081019190915260008484604051620019e8906200244a565b6001600160a01b03928316815291166020820152604001604051809103906000f08015801562001a1c573d6000803e3d6000fd5b50600e549091506001600160a01b03161580159062001a505750600383600381111562001a4d5762001a4d62002a1e565b14155b1562001b2757600e5460405163711802b360e01b81526001600160a01b038381169263711802b39262001a8c9290911690879060040162002a57565b600060405180830381600087803b15801562001aa757600080fd5b505af115801562001abc573d6000803e3d6000fd5b5050600e54604051633f9dc4bf60e11b81526001600160a01b039091169250637f3b897e915062001af290869060040162002a76565b600060405180830381600087803b15801562001b0d57600080fd5b505af115801562001b22573d6000803e3d6000fd5b505050505b60405163f2fde38b60e01b81526001600160a01b03878116600483015282169063f2fde38b90602401600060405180830381600087803b15801562001b6b57600080fd5b505af115801562001b80573d6000803e3d6000fd5b5050505060008760405160200162001b99919062002a86565b60405160208183030381529060405287600080600060405162001bbc9062002458565b62001bcc95949392919062002ab3565b604051809103906000f08015801562001be9573d6000803e3d6000fd5b50905062001bfb888888858562001f13565b98975050505050505050565b60408051610100810182528581526001600160a01b03858116602080840191825283850187815260608501879052426080860181905260a0860152600160c08601819052600060e087018190528b815260039093529590912084518155915194820180546001600160a01b03191695909316949094179091559151909190600282019062001c96908262002bad565b5060608281015180516003840180546001600160a01b03199081166001600160a01b0393841617909155602080840151600480880180548516928616929092179091556040808601516005890180548616918716919091179055958501516006880180548516918616919091179055608094850151600780890180549095169186169190911790935593870151600887015560a0870151600987015560c0870151600a909601805460e09098015161ffff1990981696151561ff001916969096176101009715159790970296909617909455871660009081529352822086905580549162001d84836200296e565b90915550506008805490600062001d9b836200296e565b909155505080516001600160a01b0390811660009081526005602090815260408083208054600160ff19918216811790925592860151851684528184208054841682179055818601518516845281842080548416821790556060860151851684528184208054841682179055608090950151909316825291902080549091169091179055505050565b62001e2e62001961565b6002805460ff191660011790557f62e78cea01bee320cd4e420270b5ea74000d11b0c9f74754ebdbfc544b05a258620018e93390565b62001e70828262001282565b620008e85762001e8081620021f8565b62001e8d8360206200220b565b60405160200162001ea092919062002c7a565b60408051601f198184030181529082905262461bcd60e51b8252620008d391600401620026fb565b60025460ff16620019a95760405162461bcd60e51b815260206004820152601460248201527314185d5cd8589b194e881b9bdd081c185d5cd95960621b6044820152606401620008d3565b6040805160a0810182526000808252602082018190529181018290526060810182905260808101919091526040805160018082528183019092526000918160200160208202803683375050604080516001808252818301909252929350600092915060208083019080368337019050509050868260008151811062001f9c5762001f9c62002958565b60200260200101906001600160a01b031690816001600160a01b03168152505060648160008151811062001fd45762001fd462002958565b6020026020010181815250506000828260405162001ff29062002466565b62001fff92919062002cf3565b604051809103906000f0801580156200201c573d6000803e3d6000fd5b50905060008960405160200162002034919062002d7b565b604051602081830303815290604052896000604051620020549062002474565b620020629392919062002daa565b604051809103906000f0801580156200207f573d6000803e3d6000fd5b509050600087878a8c604051620020969062002482565b6001600160a01b039485168152928416602084015290831660408301529091166060820152608001604051809103906000f080158015620020db573d6000803e3d6000fd5b509050866001600160a01b0316632f2ff15d886001600160a01b031663f0bd87cc6040518163ffffffff1660e01b8152600401602060405180830381865afa1580156200212c573d6000803e3d6000fd5b505050506040513d601f19601f8201168201806040525081019062002152919062002e3d565b6040516001600160e01b031960e084901b16815260048101919091526001600160a01b0384166024820152604401600060405180830381600087803b1580156200219b57600080fd5b505af1158015620021b0573d6000803e3d6000fd5b50506040805160a0810182526001600160a01b039b8c168152998b1660208b0152948a1694890194909452509087166060870152909516608085015250919695505050505050565b6060620008106001600160a01b03831660145b606060006200221c83600262002e57565b62002229906002620028f0565b67ffffffffffffffff81111562002244576200224462002710565b6040519080825280601f01601f1916602001820160405280156200226f576020820181803683370190505b509050600360fc1b816000815181106200228d576200228d62002958565b60200101906001600160f81b031916908160001a905350600f60fb1b81600181518110620022bf57620022bf62002958565b60200101906001600160f81b031916908160001a9053506000620022e584600262002e57565b620022f2906001620028f0565b90505b600181111562002374576f181899199a1a9b1b9c1cb0b131b232b360811b85600f16601081106200232a576200232a62002958565b1a60f81b82828151811062002343576200234362002958565b60200101906001600160f81b031916908160001a90535060049490941c936200236c8162002a04565b9050620022f5565b508315620023c55760405162461bcd60e51b815260206004820181905260248201527f537472696e67733a20686578206c656e67746820696e73756666696369656e746044820152606401620008d3565b9392505050565b6040518061010001604052806000815260200160006001600160a01b0316815260200160608152602001620024286040805160a08101825260008082526020820181905291810182905260608101829052608081019190915290565b8152600060208201819052604082018190526060820181905260809091015290565b6131458062002e7283390190565b6162d98062005fb783390190565b61208b806200c29083390190565b6146d9806200e31b83390190565b6138be80620129f483390190565b600060208284031215620024a357600080fd5b81356001600160e01b031981168114620023c557600080fd5b600060208284031215620024cf57600080fd5b5035919050565b80356001600160a01b0381168114620024ee57600080fd5b919050565b600080604083850312156200250757600080fd5b823591506200251960208401620024d6565b90509250929050565b600080604083850312156200253657600080fd5b50508035926020909101359150565b60005b838110156200256257818101518382015260200162002548565b50506000910152565b600081518084526200258581602086016020860162002545565b601f01601f19169290920160200192915050565b80516001600160a01b03908116835260208083015182169084015260408083015182169084015260608083015182169084015260809182015116910152565b60006101808251845260018060a01b03602084015116602085015260408301518160408601526200260c828601826200256b565b915050606083015162002623606086018262002599565b50608083015161010085015260a083015161012085015260c0830151151561014085015260e090920151151561016090930192909252919050565b6000602080830181845280855180835260408601915060408160051b870101925083870160005b82811015620026b757603f19888603018452620026a4858351620025d8565b9450928501929085019060010162002685565b5092979650505050505050565b60008060408385031215620026d857600080fd5b8235915060208301358015158114620026f057600080fd5b809150509250929050565b602081526000620023c560208301846200256b565b634e487b7160e01b600052604160045260246000fd5b803560048110620024ee57600080fd5b600080600080600060a086880312156200274f57600080fd5b853567ffffffffffffffff808211156200276857600080fd5b818801915088601f8301126200277d57600080fd5b81358181111562002792576200279262002710565b604051601f8201601f19908116603f01168101908382118183101715620027bd57620027bd62002710565b816040528281528b6020848701011115620027d757600080fd5b8260208601602083013760006020848301015280995050505050506200280060208701620024d6565b93506200281060408701620024d6565b92506200282060608701620024d6565b9150620028306080870162002726565b90509295509295909350565b6000602082840312156200284f57600080fd5b620023c582620024d6565b8881526001600160a01b038816602082015261018060408201819052600090620028878382018a6200256b565b91505062002899606083018862002599565b610100820195909552610120810193909352901515610140830152151561016090910152949350505050565b602081526000620023c56020830184620025d8565b634e487b7160e01b600052601160045260246000fd5b80820180821115620008105762000810620028da565b81810381811115620008105762000810620028da565b600181811c908216806200293157607f821691505b6020821081036200295257634e487b7160e01b600052602260045260246000fd5b50919050565b634e487b7160e01b600052603260045260246000fd5b600060018201620029835762002983620028da565b5060010190565b602080825260119082015270125b9d985b1a59081d195b985b9d081251607a1b604082015260600190565b60c081526000620029ca60c08301896200256b565b6001600160a01b0397881660208401529587166040830152509285166060840152908416608083015290921660a090920191909152919050565b60008162002a165762002a16620028da565b506000190190565b634e487b7160e01b600052602160045260246000fd5b6004811062002a5357634e487b7160e01b600052602160045260246000fd5b9052565b6001600160a01b038316815260408101620023c5602083018462002a34565b6020810162000810828462002a34565b6000825162002a9a81846020870162002545565b660814995dd85c9960ca1b920191825250600701919050565b60e08152600062002ac860e08301886200256b565b8281038060208501526006825265149155d0549160d21b602083015260408101604085015250602260408201527f68747470733a2f2f6170692e67696674657272612e636f6d2f6d657461646174606082015261612f60f01b608082015260a0810191505060018060a01b0380871660608401528086166080840152508360a08301528260c08301529695505050505050565b601f8211156200086157600081815260208120601f850160051c8101602086101562002b845750805b601f850160051c820191505b8181101562002ba55782815560010162002b90565b505050505050565b815167ffffffffffffffff81111562002bca5762002bca62002710565b62002be28162002bdb84546200291c565b8462002b5b565b602080601f83116001811462002c1a576000841562002c015750858301515b600019600386901b1c1916600185901b17855562002ba5565b600085815260208120601f198616915b8281101562002c4b5788860151825594840194600190910190840162002c2a565b508582101562002c6a5787850151600019600388901b60f8161c191681555b5050505050600190811b01905550565b7f416363657373436f6e74726f6c3a206163636f756e742000000000000000000081526000835162002cb481601785016020880162002545565b7001034b99036b4b9b9b4b733903937b6329607d1b601791840191820152835162002ce781602884016020880162002545565b01602801949350505050565b604080825283519082018190526000906020906060840190828701845b8281101562002d375781516001600160a01b03168452928401929084019060010162002d10565b5050508381038285015284518082528583019183019060005b8181101562002d6e5783518352928401929184019160010162002d50565b5090979650505050505050565b6000825162002d8f81846020870162002545565b6808119b1859c813919560ba1b920191825250600901919050565b60a08152600062002dbf60a08301866200256b565b82810380602085015260048252631193919560e21b602083015260408101604085015250602160408201527f68747470733a2f2f6170692e67696674657272612e636f6d2f666c61676e66746060820152602f60f81b608082015260a0810191505060018060a01b0384166060830152826080830152949350505050565b60006020828403121562002e5057600080fd5b5051919050565b8082028115828204841417620008105762000810620028da56fe60806040526801a055690d9db80000600d556004600e5560016016553480156200002857600080fd5b5060405162003145380380620031458339810160408190526200004b9162000180565b6040518060400160405280601681526020017f476966746572726120537570706f727465722053425400000000000000000000815250604051806040016040528060048152602001634746545360e01b8152508160009081620000af91906200025d565b506001620000be82826200025d565b505050620000db620000d56200010d60201b60201c565b62000111565b600b80546001600160a01b039384166001600160a01b031991821617909155600c805492909316911617905562000329565b3390565b600a80546001600160a01b038381166001600160a01b0319831681179093556040519116919082907f8be0079c531659141344cd1fd0a4f28419497f9722a3daafe3b4186f6b6457e090600090a35050565b80516001600160a01b03811681146200017b57600080fd5b919050565b600080604083850312156200019457600080fd5b6200019f8362000163565b9150620001af6020840162000163565b90509250929050565b634e487b7160e01b600052604160045260246000fd5b600181811c90821680620001e357607f821691505b6020821081036200020457634e487b7160e01b600052602260045260246000fd5b50919050565b601f8211156200025857600081815260208120601f850160051c81016020861015620002335750805b601f850160051c820191505b8181101562000254578281556001016200023f565b5050505b505050565b81516001600160401b03811115620002795762000279620001b8565b62000291816200028a8454620001ce565b846200020a565b602080601f831160018114620002c95760008415620002b05750858301515b600019600386901b1c1916600185901b17855562000254565b600085815260208120601f198616915b82811015620002fa57888601518255948401946001909101908401620002d9565b5085821015620003195787850151600019600388901b60f8161c191681555b5050505050600190811b01905550565b612e0c80620003396000396000f3fe608060405234801561001057600080fd5b50600436106102955760003560e01c80637a1bdfd311610167578063bd0042b8116100ce578063e985e9c511610087578063e985e9c5146105ed578063eed2d71014610629578063f14560a11461063c578063f22aa0381461064f578063f2fde38b14610662578063f7c618c11461067557600080fd5b8063bd0042b814610579578063c87b56dd1461058c578063cc8dff261461059f578063cfae9e6e146105b4578063d03444b4146105c7578063e8b69bc3146105da57600080fd5b80638da5cb5b116101205780638da5cb5b1461051957806395d89b411461052a5780639e87071314610532578063a22cb46514610545578063ab8ece8b14610553578063b88d4fde1461056657600080fd5b80637a1bdfd3146104ad5780637dcbbca4146104c25780637e24555d146104e257806382a2e8f1146104eb57806383f8b7e2146104fe5780638aee81271461050657600080fd5b80632f745c591161020b578063650b4f1e116101c4578063650b4f1e1461044d57806370a0823114610456578063711802b314610469578063715018a61461047c578063715ca5421461048457806375794a3c146104a457600080fd5b80632f745c59146103ec57806342842e0e146103b857806343e0ac89146103ff5780634f6ccce71461041f57806354fd4d50146104325780636352211e1461043a57600080fd5b806318160ddd1161025d57806318160ddd146103455780631959a0021461034d5780631cfc1f751461039857806323b872dd146103b857806324d5d3c5146103c657806326be747b146103d957600080fd5b8063013eba921461029a57806301ffc9a7146102cd57806306fdde03146102f0578063081812fc14610305578063095ea7b314610330575b600080fd5b6102ba6102a83660046122c9565b600f6020526000908152604090205481565b6040519081526020015b60405180910390f35b6102e06102db366004612301565b610688565b60405190151581526020016102c4565b6102f86106b3565b6040516102c4919061236e565b610318610313366004612381565b610745565b6040516001600160a01b0390911681526020016102c4565b61034361033e36600461239a565b61076c565b005b6008546102ba565b61038361035b3660046122c9565b6001600160a01b03166000908152600f60209081526040808320546010909252909120549091565b604080519283526020830191909152016102c4565b6102ba6103a63660046122c9565b60106020526000908152604090205481565b61034361033e3660046123c4565b6102f86103d4366004612381565b6107b0565b6103436103e7366004612381565b61087e565b6102ba6103fa36600461239a565b61091b565b6102ba61040d366004612381565b60146020526000908152604090205481565b6102ba61042d366004612381565b6109b1565b6102f8610a44565b610318610448366004612381565b610a64565b6102ba600d5481565b6102ba6104643660046122c9565b610ac4565b610343610477366004612400565b610b4a565b610343610cfb565b6102ba6104923660046122c9565b60126020526000908152604090205481565b6102ba60165481565b6104b5610d0f565b6040516102c4919061243b565b6102ba6104d03660046122c9565b60116020526000908152604090205481565b6102ba600e5481565b6103436104f936600461247f565b610db4565b610343610e7d565b6103436105143660046122c9565b610ff8565b600a546001600160a01b0316610318565b6102f8611022565b6103436105403660046124fb565b611031565b61034361033e36600461252b565b6102ba610561366004612381565b6110b8565b6103436105743660046125ef565b6110e3565b6102f8610587366004612381565b611161565b6102f861059a366004612381565b6111fb565b6105a7611302565b6040516102c4919061269a565b6103436105c236600461247f565b61143a565b600c54610318906001600160a01b031681565b6103436105e8366004612381565b611489565b6102e06105fb3660046126fc565b6001600160a01b03918216600090815260056020908152604080832093909416825291909152205460ff1690565b6102f8610637366004612381565b6115ff565b61034361064a366004612381565b611618565b61034361065d3660046122c9565b611625565b6103436106703660046122c9565b6116d5565b600b54610318906001600160a01b031681565b60006001600160e01b0319821663780e9d6360e01b14806106ad57506106ad8261174e565b92915050565b6060600080546106c29061272f565b80601f01602080910402602001604051908101604052809291908181526020018280546106ee9061272f565b801561073b5780601f106107105761010080835404028352916020019161073b565b820191906000526020600020905b81548152906001019060200180831161071e57829003601f168201915b5050505050905090565b60006107508261179e565b506000908152600460205260409020546001600160a01b031690565b60405162461bcd60e51b8152602060048201526014602482015273534254206e6f6e2d7472616e7366657261626c6560601b60448201526064015b60405180910390fd5b60606000821180156107c45750600e548211155b6107e05760405162461bcd60e51b81526004016107a790612763565b600082815260156020526040902080546107f99061272f565b80601f01602080910402602001604051908101604052809291908181526020018280546108259061272f565b80156108725780601f1061084757610100808354040283529160200191610872565b820191906000526020600020905b81548152906001019060200180831161085557829003601f168201915b50505050509050919050565b6108866117fd565b600081116108d65760405162461bcd60e51b815260206004820152601a60248201527f4d6178206c6576656c206d75737420626520706f73697469766500000000000060448201526064016107a7565b600e80549082905560408051828152602081018490527f3aeea1b2b2b23dce9ed34ca588d780cb062c867e7e8b5c194f1d1272810d3406910160405180910390a15050565b600061092683610ac4565b82106109885760405162461bcd60e51b815260206004820152602b60248201527f455243373231456e756d657261626c653a206f776e657220696e646578206f7560448201526a74206f6620626f756e647360a81b60648201526084016107a7565b506001600160a01b03919091166000908152600660209081526040808320938352929052205490565b60006109bc60085490565b8210610a1f5760405162461bcd60e51b815260206004820152602c60248201527f455243373231456e756d657261626c653a20676c6f62616c20696e646578206f60448201526b7574206f6620626f756e647360a01b60648201526084016107a7565b60088281548110610a3257610a3261278a565b90600052602060002001549050919050565b6060604051806060016040528060268152602001612db160269139905090565b6000818152600260205260408120546001600160a01b0316806106ad5760405162461bcd60e51b8152602060048201526018602482015277115490cdcc8c4e881a5b9d985b1a59081d1bdad95b88125160421b60448201526064016107a7565b60006001600160a01b038216610b2e5760405162461bcd60e51b815260206004820152602960248201527f4552433732313a2061646472657373207a65726f206973206e6f7420612076616044820152683634b21037bbb732b960b91b60648201526084016107a7565b506001600160a01b031660009081526003602052604090205490565b610b526117fd565b60405163a12b212160e01b815282906000906001600160a01b0383169063a12b212190610b839086906004016127a0565b600060405180830381865afa158015610ba0573d6000803e3d6000fd5b505050506040513d6000823e601f3d908101601f19168201604052610bc89190810190612922565b6040810151600e55905060005b8160400151811015610cb5576000610bee826001612a50565b905082606001518281518110610c0657610c0661278a565b602002602001015160146000838152602001908152602001600020819055508260a001518281518110610c3b57610c3b61278a565b6020026020010151601360008381526020019081526020016000209081610c629190612ab1565b5082608001518281518110610c7957610c7961278a565b6020026020010151601560008381526020019081526020016000209081610ca09190612ab1565b50508080610cad90612b71565b915050610bd5565b5060408082015181516000815260208101919091527f3aeea1b2b2b23dce9ed34ca588d780cb062c867e7e8b5c194f1d1272810d3406910160405180910390a150505050565b610d036117fd565b610d0d6000611857565b565b60606000600e5467ffffffffffffffff811115610d2e57610d2e612557565b604051908082528060200260200182016040528015610d57578160200160208202803683370190505b50905060015b600e548111610dae5760008181526014602052604090205482610d81600184612b8a565b81518110610d9157610d9161278a565b602090810291909101015280610da681612b71565b915050610d5d565b50919050565b610dbc6117fd565b600083118015610dce5750600e548311155b610dea5760405162461bcd60e51b81526004016107a790612763565b80610e245760405162461bcd60e51b815260206004820152600a602482015269456d707479206e616d6560b01b60448201526064016107a7565b6000838152601560205260409020610e3d828483612b9d565b50827fd3b8f53f01d1f0bceb9f6fab2b3b43ed2e2cfafafb9f7d0bf17a86843016416e8383604051610e70929190612c5d565b60405180910390a2505050565b336000818152600f60205260409020546201518090610e9c9042612b8a565b1015610ee25760405162461bcd60e51b8152602060048201526015602482015274416c726561647920636c61696d656420746f64617960581b60448201526064016107a7565b6001600160a01b038181166000818152600f602052604090819020429055600b54600d54915163a9059cbb60e01b8152600481019390935260248301919091529091169063a9059cbb906044016020604051808303816000875af1158015610f4e573d6000803e3d6000fd5b505050506040513d601f19601f82011682018060405250810190610f729190612c8c565b610fb05760405162461bcd60e51b815260206004820152600f60248201526e151c985b9cd9995c8819985a5b1959608a1b60448201526064016107a7565b806001600160a01b03167f4f03df6410de6abcc39fd6f082c0a1c56c99a948c1ffb107666d86e55696119e600d54604051610fed91815260200190565b60405180910390a250565b6110006117fd565b600b80546001600160a01b0319166001600160a01b0392909216919091179055565b6060600180546106c29061272f565b6110396117fd565b60008211801561104b5750600e548211155b6110675760405162461bcd60e51b81526004016107a790612763565b600082815260146020526040908190208290555182907f804b7ea9f3d9a85ffcf4bcff7b9061fc326a06e21e2ff778ca873dd8151a0a4a906110ac9084815260200190565b60405180910390a25050565b6000806110c483610a64565b6001600160a01b03166000908152601160205260409020549392505050565b6110ed33836118a9565b61114f5760405162461bcd60e51b815260206004820152602d60248201527f4552433732313a2063616c6c6572206973206e6f7420746f6b656e206f776e6560448201526c1c881bdc88185c1c1c9bdd9959609a1b60648201526084016107a7565b61115b84848484611928565b50505050565b6013602052600090815260409020805461117a9061272f565b80601f01602080910402602001604051908101604052809291908181526020018280546111a69061272f565b80156111f35780601f106111c8576101008083540402835291602001916111f3565b820191906000526020600020905b8154815290600101906020018083116111d657829003601f168201915b505050505081565b6000818152600260205260409020546060906001600160a01b03166112545760405162461bcd60e51b815260206004820152600f60248201526e125b9d985b1a59081d1bdad95b9259608a1b60448201526064016107a7565b600061125f836110b8565b600081815260136020526040902080549192509061127c9061272f565b80601f01602080910402602001604051908101604052809291908181526020018280546112a89061272f565b80156112f55780601f106112ca576101008083540402835291602001916112f5565b820191906000526020600020905b8154815290600101906020018083116112d857829003601f168201915b5050505050915050919050565b60606000600e5467ffffffffffffffff81111561132157611321612557565b60405190808252806020026020018201604052801561135457816020015b606081526020019060019003908161133f5790505b50905060005b600e54811015610dae5760156000611373836001612a50565b8152602001908152602001600020805461138c9061272f565b80601f01602080910402602001604051908101604052809291908181526020018280546113b89061272f565b80156114055780601f106113da57610100808354040283529160200191611405565b820191906000526020600020905b8154815290600101906020018083116113e857829003601f168201915b505050505082828151811061141c5761141c61278a565b6020026020010181905250808061143290612b71565b91505061135a565b6114426117fd565b6000831180156114545750600e548311155b6114705760405162461bcd60e51b81526004016107a790612763565b600083815260136020526040902061115b828483612b9d565b33816114c85760405162461bcd60e51b815260206004820152600e60248201526d125b9d985b1a5908185b5bdd5b9d60921b60448201526064016107a7565b600b54600c546040516323b872dd60e01b81526001600160a01b0384811660048301529182166024820152604481018590529116906323b872dd906064016020604051808303816000875af1158015611525573d6000803e3d6000fd5b505050506040513d601f19601f820116820180604052508101906115499190612c8c565b6115875760405162461bcd60e51b815260206004820152600f60248201526e151c985b9cd9995c8819985a5b1959608a1b60448201526064016107a7565b6001600160a01b038116600090815260106020526040812080548492906115af908490612a50565b90915550506040518281526001600160a01b038216907f905516bf815c273f240e1d48d78ea7db3f1f0d00b912fc69522caf0ea70450a29060200160405180910390a26115fb8161195b565b5050565b6015602052600090815260409020805461117a9061272f565b6116206117fd565b600d55565b61162d6117fd565b6001600160a01b0381166116835760405162461bcd60e51b815260206004820152601a60248201527f496e76616c6964207469702077616c6c6574206164647265737300000000000060448201526064016107a7565b600c80546001600160a01b038381166001600160a01b0319831681179093556040519116919082907f64156ef124ef8e448fce4c52497e5d3e48ad5d814bbfd92101a9320369e195e990600090a35050565b6116dd6117fd565b6001600160a01b0381166117425760405162461bcd60e51b815260206004820152602660248201527f4f776e61626c653a206e6577206f776e657220697320746865207a65726f206160448201526564647265737360d01b60648201526084016107a7565b61174b81611857565b50565b60006001600160e01b031982166380ac58cd60e01b148061177f57506001600160e01b03198216635b5e139f60e01b145b806106ad57506301ffc9a760e01b6001600160e01b03198316146106ad565b6000818152600260205260409020546001600160a01b031661174b5760405162461bcd60e51b8152602060048201526018602482015277115490cdcc8c4e881a5b9d985b1a59081d1bdad95b88125160421b60448201526064016107a7565b600a546001600160a01b03163314610d0d5760405162461bcd60e51b815260206004820181905260248201527f4f776e61626c653a2063616c6c6572206973206e6f7420746865206f776e657260448201526064016107a7565b600a80546001600160a01b038381166001600160a01b0319831681179093556040519116919082907f8be0079c531659141344cd1fd0a4f28419497f9722a3daafe3b4186f6b6457e090600090a35050565b6000806118b583610a64565b9050806001600160a01b0316846001600160a01b031614806118fc57506001600160a01b0380821660009081526005602090815260408083209388168352929052205460ff165b806119205750836001600160a01b031661191584610745565b6001600160a01b0316145b949350505050565b611933848484611aac565b61193f84848484611c1e565b61115b5760405162461bcd60e51b81526004016107a790612ca9565b6001600160a01b0381166000908152601060209081526040808320546011909252822054909161198a83611d1f565b90508181111561115b576001600160a01b03841660009081526012602052604090205480158015906119d257506000818152600260205260409020546001600160a01b031615155b15611a24576119e081611d60565b846001600160a01b03167fd6a6bcd88cdc4656d5f4e14e7dfbc9bc3f2f9811f8d6b508f3bee7d999d4d41c82604051611a1b91815260200190565b60405180910390a25b6016805460009182611a3583612b71565b919050559050611a458682611e03565b6001600160a01b0386166000818152601160209081526040808320879055601282529182902084905581518481529081018690527f3a8a89b59a31c39a36febecb987e0657ab7b7c73b60ebacb44dcb9886c2d5c8a910160405180910390a2505050505050565b826001600160a01b0316611abf82610a64565b6001600160a01b031614611ae55760405162461bcd60e51b81526004016107a790612cfb565b6001600160a01b038216611b475760405162461bcd60e51b8152602060048201526024808201527f4552433732313a207472616e7366657220746f20746865207a65726f206164646044820152637265737360e01b60648201526084016107a7565b611b548383836001611e1d565b826001600160a01b0316611b6782610a64565b6001600160a01b031614611b8d5760405162461bcd60e51b81526004016107a790612cfb565b600081815260046020908152604080832080546001600160a01b03199081169091556001600160a01b0387811680865260038552838620805460001901905590871680865283862080546001019055868652600290945282852080549092168417909155905184937fddf252ad1be2c89b69c2b068fc378daa952ba7f163c4a11628f55a4df523b3ef91a45b505050565b60006001600160a01b0384163b15611d1457604051630a85bd0160e11b81526001600160a01b0385169063150b7a0290611c62903390899088908890600401612d40565b6020604051808303816000875af1925050508015611c9d575060408051601f3d908101601f19168201909252611c9a91810190612d7d565b60015b611cfa573d808015611ccb576040519150601f19603f3d011682016040523d82523d6000602084013e611cd0565b606091505b508051600003611cf25760405162461bcd60e51b81526004016107a790612ca9565b805181602001fd5b6001600160e01b031916630a85bd0160e11b149050611920565b506001949350505050565b60008060015b600e548111611d59576000818152601460205260409020548410611d47578091505b80611d5181612b71565b915050611d25565b5092915050565b6000611d6b82610a64565b9050611d7b816000846001611e1d565b611d8482610a64565b600083815260046020908152604080832080546001600160a01b03199081169091556001600160a01b0385168085526003845282852080546000190190558785526002909352818420805490911690555192935084927fddf252ad1be2c89b69c2b068fc378daa952ba7f163c4a11628f55a4df523b3ef908390a45050565b6115fb828260405180602001604052806000815250611f51565b6001811115611e8c5760405162461bcd60e51b815260206004820152603560248201527f455243373231456e756d657261626c653a20636f6e7365637574697665207472604482015274185b9cd9995c9cc81b9bdd081cdd5c1c1bdc9d1959605a1b60648201526084016107a7565b816001600160a01b038516611ee857611ee381600880546000838152600960205260408120829055600182018355919091527ff3f7a9fe364faab93b216da50a3214154f22a0a2b415b23a84c8169e8b636ee30155565b611f0b565b836001600160a01b0316856001600160a01b031614611f0b57611f0b8582611f84565b6001600160a01b038416611f2757611f2281612021565b611f4a565b846001600160a01b0316846001600160a01b031614611f4a57611f4a84826120d0565b5050505050565b611f5b8383612114565b611f686000848484611c1e565b611c195760405162461bcd60e51b81526004016107a790612ca9565b60006001611f9184610ac4565b611f9b9190612b8a565b600083815260076020526040902054909150808214611fee576001600160a01b03841660009081526006602090815260408083208584528252808320548484528184208190558352600790915290208190555b5060009182526007602090815260408084208490556001600160a01b039094168352600681528383209183525290812055565b60085460009061203390600190612b8a565b6000838152600960205260408120546008805493945090928490811061205b5761205b61278a565b90600052602060002001549050806008838154811061207c5761207c61278a565b60009182526020808320909101929092558281526009909152604080822084905585825281205560088054806120b4576120b4612d9a565b6001900381819060005260206000200160009055905550505050565b60006120db83610ac4565b6001600160a01b039093166000908152600660209081526040808320868452825280832085905593825260079052919091209190915550565b6001600160a01b03821661216a5760405162461bcd60e51b815260206004820181905260248201527f4552433732313a206d696e7420746f20746865207a65726f206164647265737360448201526064016107a7565b6000818152600260205260409020546001600160a01b0316156121cf5760405162461bcd60e51b815260206004820152601c60248201527f4552433732313a20746f6b656e20616c7265616479206d696e7465640000000060448201526064016107a7565b6121dd600083836001611e1d565b6000818152600260205260409020546001600160a01b0316156122425760405162461bcd60e51b815260206004820152601c60248201527f4552433732313a20746f6b656e20616c7265616479206d696e7465640000000060448201526064016107a7565b6001600160a01b038216600081815260036020908152604080832080546001019055848352600290915280822080546001600160a01b0319168417905551839291907fddf252ad1be2c89b69c2b068fc378daa952ba7f163c4a11628f55a4df523b3ef908290a45050565b80356001600160a01b03811681146122c457600080fd5b919050565b6000602082840312156122db57600080fd5b6122e4826122ad565b9392505050565b6001600160e01b03198116811461174b57600080fd5b60006020828403121561231357600080fd5b81356122e4816122eb565b60005b83811015612339578181015183820152602001612321565b50506000910152565b6000815180845261235a81602086016020860161231e565b601f01601f19169290920160200192915050565b6020815260006122e46020830184612342565b60006020828403121561239357600080fd5b5035919050565b600080604083850312156123ad57600080fd5b6123b6836122ad565b946020939093013593505050565b6000806000606084860312156123d957600080fd5b6123e2846122ad565b92506123f0602085016122ad565b9150604084013590509250925092565b6000806040838503121561241357600080fd5b61241c836122ad565b915060208301356004811061243057600080fd5b809150509250929050565b6020808252825182820181905260009190848201906040850190845b8181101561247357835183529284019291840191600101612457565b50909695505050505050565b60008060006040848603121561249457600080fd5b83359250602084013567ffffffffffffffff808211156124b357600080fd5b818601915086601f8301126124c757600080fd5b8135818111156124d657600080fd5b8760208285010111156124e857600080fd5b6020830194508093505050509250925092565b6000806040838503121561250e57600080fd5b50508035926020909101359150565b801515811461174b57600080fd5b6000806040838503121561253e57600080fd5b612547836122ad565b915060208301356124308161251d565b634e487b7160e01b600052604160045260246000fd5b60405160e0810167ffffffffffffffff8111828210171561259057612590612557565b60405290565b604051601f8201601f1916810167ffffffffffffffff811182821017156125bf576125bf612557565b604052919050565b600067ffffffffffffffff8211156125e1576125e1612557565b50601f01601f191660200190565b6000806000806080858703121561260557600080fd5b61260e856122ad565b935061261c602086016122ad565b925060408501359150606085013567ffffffffffffffff81111561263f57600080fd5b8501601f8101871361265057600080fd5b803561266361265e826125c7565b612596565b81815288602083850101111561267857600080fd5b8160208401602083013760006020838301015280935050505092959194509250565b6000602080830181845280855180835260408601915060408160051b870101925083870160005b828110156126ef57603f198886030184526126dd858351612342565b945092850192908501906001016126c1565b5092979650505050505050565b6000806040838503121561270f57600080fd5b612718836122ad565b9150612726602084016122ad565b90509250929050565b600181811c9082168061274357607f821691505b602082108103610dae57634e487b7160e01b600052602260045260246000fd5b6020808252600d908201526c125b9d985b1a59081b195d995b609a1b604082015260600190565b634e487b7160e01b600052603260045260246000fd5b60208101600483106127c257634e487b7160e01b600052602160045260246000fd5b91905290565b600082601f8301126127d957600080fd5b81516127e761265e826125c7565b8181528460208386010111156127fc57600080fd5b61192082602083016020870161231e565b600067ffffffffffffffff82111561282757612827612557565b5060051b60200190565b600082601f83011261284257600080fd5b8151602061285261265e8361280d565b82815260059290921b8401810191818101908684111561287157600080fd5b8286015b8481101561288c5780518352918301918301612875565b509695505050505050565b600082601f8301126128a857600080fd5b815160206128b861265e8361280d565b82815260059290921b840181019181810190868411156128d757600080fd5b8286015b8481101561288c57805167ffffffffffffffff8111156128fb5760008081fd5b6129098986838b01016127c8565b8452509183019183016128db565b80516122c48161251d565b60006020828403121561293457600080fd5b815167ffffffffffffffff8082111561294c57600080fd5b9083019060e0828603121561296057600080fd5b61296861256d565b82518281111561297757600080fd5b612983878286016127c8565b82525060208301518281111561299857600080fd5b6129a4878286016127c8565b602083015250604083015160408201526060830151828111156129c657600080fd5b6129d287828601612831565b6060830152506080830151828111156129ea57600080fd5b6129f687828601612897565b60808301525060a083015182811115612a0e57600080fd5b612a1a87828601612897565b60a083015250612a2c60c08401612917565b60c082015295945050505050565b634e487b7160e01b600052601160045260246000fd5b808201808211156106ad576106ad612a3a565b601f821115611c1957600081815260208120601f850160051c81016020861015612a8a5750805b601f850160051c820191505b81811015612aa957828155600101612a96565b505050505050565b815167ffffffffffffffff811115612acb57612acb612557565b612adf81612ad9845461272f565b84612a63565b602080601f831160018114612b145760008415612afc5750858301515b600019600386901b1c1916600185901b178555612aa9565b600085815260208120601f198616915b82811015612b4357888601518255948401946001909101908401612b24565b5085821015612b615787850151600019600388901b60f8161c191681555b5050505050600190811b01905550565b600060018201612b8357612b83612a3a565b5060010190565b818103818111156106ad576106ad612a3a565b67ffffffffffffffff831115612bb557612bb5612557565b612bc983612bc3835461272f565b83612a63565b6000601f841160018114612bfd5760008515612be55750838201355b600019600387901b1c1916600186901b178355611f4a565b600083815260209020601f19861690835b82811015612c2e5786850135825560209485019460019092019101612c0e565b5086821015612c4b5760001960f88860031b161c19848701351681555b505060018560011b0183555050505050565b60208152816020820152818360408301376000818301604090810191909152601f909201601f19160101919050565b600060208284031215612c9e57600080fd5b81516122e48161251d565b60208082526032908201527f4552433732313a207472616e7366657220746f206e6f6e20455243373231526560408201527131b2b4bb32b91034b6b83632b6b2b73a32b960711b606082015260800190565b60208082526025908201527f4552433732313a207472616e736665722066726f6d20696e636f72726563742060408201526437bbb732b960d91b606082015260800190565b6001600160a01b0385811682528416602082015260408101839052608060608201819052600090612d7390830184612342565b9695505050505050565b600060208284031215612d8f57600080fd5b81516122e4816122eb565b634e487b7160e01b600052603160045260246000fdfe47696674657272612076312e312e30202d205661726961626c652052616e6b2053797374656da26469706673582212201efca59832997c2f645886d82174a3fda6b24629a11572aafa3492d3e58f2d9264736f6c6343000814003360806040526001600d556010805461ffff191690553480156200002157600080fd5b50604051620062d9380380620062d9833981016040819052620000449162000479565b86866000620000548382620005d2565b506001620000638282620005d2565b50506001600855506009805460ff191690556001600160a01b038416620000d15760405162461bcd60e51b815260206004820152601c60248201527f4f776e65722063616e6e6f74206265207a65726f20616464726573730000000060448201526064015b60405180910390fd5b600c620000df8682620005d2565b50601280546001600160a01b0319166001600160a01b038516179055600e829055600f819055600a60165562000117600085620001f1565b620001437f9f2df0fed2c77648de5860a4cc508cd0818c85b8b8a1ab4ceeef8d981c8956a685620001f1565b6200016f7f7eedb2e31886aee6b48ad5b19b07b41f829d56c86a5c8a5cc10a185aeed9290485620001f1565b6200019b7f65d7a28e3265b37a6474929f336521b332c1681b933f6cb9f3376673440d862a85620001f1565b6001600160a01b03831615620001d757620001d77ffbd454f36a7e1a388bd6fc3ab10d434aa4578f811acbbcf33afb1c697486313c84620001f1565b620001e48460fa62000296565b505050505050506200069e565b60008281526007602090815260408083206001600160a01b038516845290915290205460ff16620002925760008281526007602090815260408083206001600160a01b03851684529091529020805460ff19166001179055620002513390565b6001600160a01b0316816001600160a01b0316837f2f8788117e7eff1d82e926ec794901d17c78024a50270940304540a733656f0d60405160405180910390a45b5050565b6127106001600160601b0382161115620003065760405162461bcd60e51b815260206004820152602a60248201527f455243323938313a20726f79616c7479206665652077696c6c206578636565646044820152692073616c65507269636560b01b6064820152608401620000c8565b6001600160a01b0382166200035e5760405162461bcd60e51b815260206004820152601960248201527f455243323938313a20696e76616c6964207265636569766572000000000000006044820152606401620000c8565b604080518082019091526001600160a01b039092168083526001600160601b039091166020909201829052600160a01b90910217600a55565b634e487b7160e01b600052604160045260246000fd5b600082601f830112620003bf57600080fd5b81516001600160401b0380821115620003dc57620003dc62000397565b604051601f8301601f19908116603f0116810190828211818310171562000407576200040762000397565b816040528381526020925086838588010111156200042457600080fd5b600091505b8382101562000448578582018301518183018401529082019062000429565b600093810190920192909252949350505050565b80516001600160a01b03811681146200047457600080fd5b919050565b600080600080600080600060e0888a0312156200049557600080fd5b87516001600160401b0380821115620004ad57600080fd5b620004bb8b838c01620003ad565b985060208a0151915080821115620004d257600080fd5b620004e08b838c01620003ad565b975060408a0151915080821115620004f757600080fd5b50620005068a828b01620003ad565b95505062000517606089016200045c565b935062000527608089016200045c565b925060a0880151915060c0880151905092959891949750929550565b600181811c908216806200055857607f821691505b6020821081036200057957634e487b7160e01b600052602260045260246000fd5b50919050565b601f821115620005cd57600081815260208120601f850160051c81016020861015620005a85750805b601f850160051c820191505b81811015620005c957828155600101620005b4565b5050505b505050565b81516001600160401b03811115620005ee57620005ee62000397565b6200060681620005ff845462000543565b846200057f565b602080601f8311600181146200063e5760008415620006255750858301515b600019600386901b1c1916600185901b178555620005c9565b600085815260208120601f198616915b828110156200066f578886015182559484019460019091019084016200064e565b50858210156200068e5787850151600019600388901b60f8161c191681555b5050505050600190811b01905550565b615c2b80620006ae6000396000f3fe6080604052600436106103ef5760003560e01c80636f65d36711610208578063b88d4fde11610118578063d0def521116100ab578063e63ab1e91161007a578063e63ab1e914610c79578063e985e9c514610cad578063f0bd87cc14610cf6578063f4a0a52814610d18578063fddcb5ea14610d3857600080fd5b8063d0def52114610bef578063d539139314610c0f578063d547741f14610c43578063d5abeb0114610c6357600080fd5b8063c59d4847116100e7578063c59d484714610b38578063c5d6455814610b8f578063c87b56dd14610baf578063cb9d63d114610bcf57600080fd5b8063b88d4fde14610ac2578063bf2d9e0b14610ae2578063c0e07dd614610af8578063c33a94a214610b0b57600080fd5b806391d148541161019b578063a217fddf1161016a578063a217fddf14610a26578063a22cb46514610a3b578063a51af4c514610a5b578063ab9ea1f814610a7b578063b3d7acf914610aaf57600080fd5b806391d14854146109bb578063924cff6d146109db57806395d89b41146109fb57806398d84aa014610a1057600080fd5b806379b6ed36116101d757806379b6ed3614610951578063818668d7146109665780638456cb59146109865780638dc78efa1461099b57600080fd5b80636f65d367146108d15780636f8b44b0146108f157806370a082311461091157806375619ab51461093157600080fd5b80632fa4548b1161030357806351cff8d9116102965780635944c753116102655780635944c753146108435780635c975abb14610863578063613af2931461087b5780636352211e1461089b5780636817c76c146108bb57600080fd5b806351cff8d9146107d857806354fd4d50146107f857806355f804b31461080d578063572849c41461082d57600080fd5b80633f4ba83a116102d25780633f4ba83a1461070b57806342842e0e146107205780634d8be3ab146107405780635055fbc3146107a857600080fd5b80632fa4548b1461067f57806336568abe1461069f5780633a926def146106bf5780633c42406b146106de57600080fd5b806318160ddd1161038657806324b97c461161035557806324b97c46146105b55780632a55205a146105ea5780632a85db55146106295780632ca6ec38146106495780632f2ff15d1461065f57600080fd5b806318160ddd146105305780631e14d44b1461054557806323b872dd14610565578063248a9ca31461058557600080fd5b8063095ea7b3116103c2578063095ea7b3146104a55780630f4161aa146104c557806312baa1ad146104df578063163db71b1461050c57600080fd5b806301ffc9a7146103f457806304634d8d1461042957806306fdde031461044b578063081812fc1461046d575b600080fd5b34801561040057600080fd5b5061041461040f366004614cb7565b610d65565b60405190151581526020015b60405180910390f35b34801561043557600080fd5b50610449610444366004614d07565b610d76565b005b34801561045757600080fd5b50610460610d90565b6040516104209190614d8a565b34801561047957600080fd5b5061048d610488366004614d9d565b610e22565b6040516001600160a01b039091168152602001610420565b3480156104b157600080fd5b506104496104c0366004614db6565b610e49565b3480156104d157600080fd5b506010546104149060ff1681565b3480156104eb57600080fd5b506104ff6104fa366004614d9d565b610f5e565b6040516104209190614e18565b34801561051857600080fd5b5061052260185481565b604051908152602001610420565b34801561053c57600080fd5b50610522611046565b34801561055157600080fd5b50610449610560366004614d9d565b61105c565b34801561057157600080fd5b50610449610580366004614e5f565b61106d565b34801561059157600080fd5b506105226105a0366004614d9d565b60009081526007602052604090206001015490565b3480156105c157600080fd5b506105ca61109e565b604080519485526020850193909352918301526060820152608001610420565b3480156105f657600080fd5b5061060a610605366004614e9b565b6110ca565b604080516001600160a01b039093168352602083019190915201610420565b34801561063557600080fd5b50610449610644366004614f68565b611178565b34801561065557600080fd5b50610522601b5481565b34801561066b57600080fd5b5061044961067a366004614f9c565b61118f565b34801561068b57600080fd5b5061044961069a366004614fbf565b6111b4565b3480156106ab57600080fd5b506104496106ba366004614f9c565b611307565b3480156106cb57600080fd5b5060105461041490610100900460ff1681565b3480156106ea57600080fd5b506106fe6106f9366004615049565b611385565b6040516104209190615099565b34801561071757600080fd5b50610449611799565b34801561072c57600080fd5b5061044961073b366004614e5f565b6117ce565b34801561074c57600080fd5b5061079761075b366004614d9d565b601760205260009081526040902080546001820154600283015460038401546004909401546001600160a01b03909316939192909160ff169085565b6040516104209594939291906150dd565b3480156107b457600080fd5b506104146107c3366004614d9d565b60136020526000908152604090205460ff1681565b3480156107e457600080fd5b506104496107f3366004615118565b6117e9565b34801561080457600080fd5b50610460611970565b34801561081957600080fd5b50610449610828366004614f68565b611990565b34801561083957600080fd5b5061052260165481565b34801561084f57600080fd5b5061044961085e366004615133565b6119a7565b34801561086f57600080fd5b5060095460ff16610414565b34801561088757600080fd5b5061052261089636600461516f565b6119c3565b3480156108a757600080fd5b5061048d6108b6366004614d9d565b611bf1565b3480156108c757600080fd5b50610522600f5481565b3480156108dd57600080fd5b506104496108ec3660046151d5565b611c51565b3480156108fd57600080fd5b5061044961090c366004614d9d565b611cb1565b34801561091d57600080fd5b5061052261092c366004615118565b611d58565b34801561093d57600080fd5b5061044961094c366004615118565b611dde565b34801561095d57600080fd5b50610460611ee1565b34801561097257600080fd5b506104496109813660046151d5565b611f6f565b34801561099257600080fd5b50610449611fbb565b3480156109a757600080fd5b506105226109b63660046151f0565b611fed565b3480156109c757600080fd5b506104146109d6366004614f9c565b61224f565b3480156109e757600080fd5b506104496109f6366004615223565b61227a565b348015610a0757600080fd5b5061046061262b565b348015610a1c57600080fd5b50610522601a5481565b348015610a3257600080fd5b50610522600081565b348015610a4757600080fd5b50610449610a5636600461528e565b61263a565b348015610a6757600080fd5b5060125461048d906001600160a01b031681565b348015610a8757600080fd5b506105227f7eedb2e31886aee6b48ad5b19b07b41f829d56c86a5c8a5cc10a185aeed9290481565b610449610abd366004614f68565b612645565b348015610ace57600080fd5b50610449610add3660046152b8565b612939565b348015610aee57600080fd5b5061052260195481565b610449610b06366004614e9b565b61296b565b348015610b1757600080fd5b50610522610b26366004614d9d565b60116020526000908152604090205481565b348015610b4457600080fd5b50610b4d612d5c565b60408051978852602088019690965294860193909352606085019190915215156080840152151560a08301526001600160a01b031660c082015260e001610420565b348015610b9b57600080fd5b50610449610baa366004615223565b612dbb565b348015610bbb57600080fd5b50610460610bca366004614d9d565b6130ea565b348015610bdb57600080fd5b506106fe610bea366004615333565b613260565b348015610bfb57600080fd5b50610522610c0a3660046153a6565b613680565b348015610c1b57600080fd5b506105227f9f2df0fed2c77648de5860a4cc508cd0818c85b8b8a1ab4ceeef8d981c8956a681565b348015610c4f57600080fd5b50610449610c5e366004614f9c565b613883565b348015610c6f57600080fd5b50610522600e5481565b348015610c8557600080fd5b506105227f65d7a28e3265b37a6474929f336521b332c1681b933f6cb9f3376673440d862a81565b348015610cb957600080fd5b50610414610cc83660046153dd565b6001600160a01b03918216600090815260056020908152604080832093909416825291909152205460ff1690565b348015610d0257600080fd5b50610522600080516020615b5683398151915281565b348015610d2457600080fd5b50610449610d33366004614d9d565b6138a8565b348015610d4457600080fd5b50610522610d53366004615118565b60156020526000908152604090205481565b6000610d70826138e8565b92915050565b6000610d818161390d565b610d8b8383613917565b505050565b606060008054610d9f90615407565b80601f0160208091040260200160405190810160405280929190818152602001828054610dcb90615407565b8015610e185780601f10610ded57610100808354040283529160200191610e18565b820191906000526020600020905b815481529060010190602001808311610dfb57829003601f168201915b5050505050905090565b6000610e2d826139d1565b506000908152600460205260409020546001600160a01b031690565b6000610e5482611bf1565b9050806001600160a01b0316836001600160a01b031603610ec65760405162461bcd60e51b815260206004820152602160248201527f4552433732313a20617070726f76616c20746f2063757272656e74206f776e656044820152603960f91b60648201526084015b60405180910390fd5b336001600160a01b0382161480610ee25750610ee28133610cc8565b610f545760405162461bcd60e51b815260206004820152603d60248201527f4552433732313a20617070726f76652063616c6c6572206973206e6f7420746f60448201527f6b656e206f776e6572206f7220617070726f76656420666f7220616c6c0000006064820152608401610ebd565b610d8b8383613a30565b6040805160a0810182526000808252602082018190529181018290526060810182905260808101919091526000828152600260205260409020546001600160a01b0316610fbd5760405162461bcd60e51b8152600401610ebd90615441565b600082815260176020908152604091829020825160a08101845281546001600160a01b0316815260018201549281019290925260028082015493830193909352600381015491929091606084019160ff9091169081111561102057611020614de0565b600281111561103157611031614de0565b81526020016004820154815250509050919050565b60006001600d546110579190615485565b905090565b60006110678161390d565b50601655565b6110773382613a9e565b6110935760405162461bcd60e51b8152600401610ebd90615498565b610d8b838383613b1d565b600080600080601854601a54601b546001600d546110bc9190615485565b935093509350935090919293565b6000828152600b602090815260408083208151808301909252546001600160a01b038116808352600160a01b9091046001600160601b031692820192909252829161113f575060408051808201909152600a546001600160a01b0381168252600160a01b90046001600160601b031660208201525b60208101516000906127109061115e906001600160601b0316876154e5565b6111689190615512565b91519350909150505b9250929050565b60006111838161390d565b6014610d8b8382615574565b6000828152600760205260409020600101546111aa8161390d565b610d8b8383613c81565b7f7eedb2e31886aee6b48ad5b19b07b41f829d56c86a5c8a5cc10a185aeed929046111de8161390d565b6111e6613d07565b6000838152600260205260409020546001600160a01b031661121a5760405162461bcd60e51b8152600401610ebd90615441565b60008381526013602052604090205460ff16156112725760405162461bcd60e51b8152602060048201526016602482015275151bdad95b88185b1c9958591e481c995d99585b195960521b6044820152606401610ebd565b61127c8383613d4f565b60008381526013602052604090819020805460ff191660011790555183907faaa3596bf0189d953a8f8d17cab13556b9f570f5cbe554aea85b987c0ac3e281906112c7908590614d8a565b60405180910390a26040518381527ff8e1a15aba9398e019f0b49df1a4fde98ee17ae345cb5f6b5e2c27f5033e8ce79060200160405180910390a1505050565b6001600160a01b03811633146113775760405162461bcd60e51b815260206004820152602f60248201527f416363657373436f6e74726f6c3a2063616e206f6e6c792072656e6f756e636560448201526e103937b632b9903337b91039b2b63360891b6064820152608401610ebd565b6113818282613e13565b5050565b6060600080516020615b5683398151915261139f8161390d565b6113a7613d07565b6113af613e7a565b60328511156113d05760405162461bcd60e51b8152600401610ebd90615633565b846113ed5760405162461bcd60e51b8152600401610ebd90615661565b8361140a5760405162461bcd60e51b8152600401610ebd90615686565b600e5415806114355750600e54600d546001906114289088906156ab565b6114329190615485565b11155b6114515760405162461bcd60e51b8152600401610ebd906156be565b6000856001600160401b0381111561146b5761146b614ebd565b604051908082528060200260200182016040528015611494578160200160208202803683370190505b50905060005b868110156117835760008888838181106114b6576114b66156f5565b90506020020160208101906114cb9190615118565b6001600160a01b0316036114f15760405162461bcd60e51b8152600401610ebd9061570b565b600d80546000918261150283615742565b91905055905061153889898481811061151d5761151d6156f5565b90506020020160208101906115329190615118565b82613ed3565b6000818152601160205260409020879055601054610100900460ff16611573576000818152601360205260409020805460ff1916905561158d565b6000818152601360205260409020805460ff191660011790555b6040518060a001604052808a8a858181106115aa576115aa6156f5565b90506020020160208101906115bf9190615118565b6001600160a01b0316815260208101839052426040820152606001600081526020908101889052600083815260178252604090819020835181546001600160a01b0319166001600160a01b03909116178155918301516001808401919091559083015160028084019190915560608401516003840180549193909260ff1990921691849081111561165257611652614de0565b02179055506080820151816004015590505080838381518110611677576116776156f5565b60209081029190910101526018805490600061169283615742565b9091555050601a80549060006116a783615742565b9190505550808989848181106116bf576116bf6156f5565b90506020020160208101906116d49190615118565b6001600160a01b0316336001600160a01b0316600080516020615bd68339815191528960405161170691815260200190565b60405180910390a480898984818110611721576117216156f5565b90506020020160208101906117369190615118565b6001600160a01b0316600080516020615bb68339815191526117588a85613eed565b600060405161176892919061575b565b60405180910390a3508061177b81615742565b91505061149a565b5091506117906001600855565b50949350505050565b7f65d7a28e3265b37a6474929f336521b332c1681b933f6cb9f3376673440d862a6117c38161390d565b6117cb613f51565b50565b610d8b83838360405180602001604052806000815250612939565b60006117f48161390d565b6117fc613e7a565b6001600160a01b0382166118465760405162461bcd60e51b8152602060048201526011602482015270125b9d985b1a59081c9958da5c1a595b9d607a1b6044820152606401610ebd565b478061188b5760405162461bcd60e51b81526020600482015260146024820152734e6f2066756e647320746f20776974686472617760601b6044820152606401610ebd565b6000836001600160a01b03168260405160006040518083038185875af1925050503d80600081146118d8576040519150601f19603f3d011682016040523d82523d6000602084013e6118dd565b606091505b50509050806119225760405162461bcd60e51b815260206004820152601160248201527015da5d1a191c985dd85b0819985a5b1959607a1b6044820152606401610ebd565b604080516001600160a01b0386168152602081018490527f86a5cc8fe9af9ae68fb50f62885307a7755a30cbd290131644377f0bd94a7181910160405180910390a150506113816001600855565b6060604051806060016040528060408152602001615b7660409139905090565b600061199b8161390d565b600c610d8b8382615574565b60006119b28161390d565b6119bd848484613fa3565b50505050565b6000600080516020615b568339815191526119dd8161390d565b6119e5613d07565b6119ed613e7a565b6001600160a01b038516611a135760405162461bcd60e51b8152600401610ebd9061570b565b611a1b61406e565b611a375760405162461bcd60e51b8152600401610ebd9061577d565b600d805460009182611a4883615742565b919050559050611a588682613ed3565b845115611a8357611a698186613d4f565b6000818152601360205260409020805460ff191660011790555b6040518060a00160405280876001600160a01b0316815260200182815260200142815260200160006002811115611abc57611abc614de0565b81526020908101869052600083815260178252604090819020835181546001600160a01b0319166001600160a01b03909116178155918301516001808401919091559083015160028084019190915560608401516003840180549193909260ff19909216918490811115611b3257611b32614de0565b02179055506080919091015160049091015560188054906000611b5483615742565b9091555050601a8054906000611b6983615742565b919050555080866001600160a01b0316336001600160a01b0316600080516020615bd683398151915287604051611ba291815260200190565b60405180910390a480866001600160a01b0316600080516020615bb6833981519152876000604051611bd592919061575b565b60405180910390a39150611be96001600855565b509392505050565b6000818152600260205260408120546001600160a01b031680610d705760405162461bcd60e51b8152602060048201526018602482015277115490cdcc8c4e881a5b9d985b1a59081d1bdad95b88125160421b6044820152606401610ebd565b6000611c5c8161390d565b601080548315156101000261ff00199091161790556040517f49ca3d37ccea7d3345da2d48d371d212dedf8a8478c4a8a0555ba3ef1d23b8e790611ca590841515815260200190565b60405180910390a15050565b6000611cbc8161390d565b811580611cd757506001600d54611cd39190615485565b8210155b611d235760405162461bcd60e51b815260206004820152601f60248201527f43616e6e6f74207365742062656c6f772063757272656e7420737570706c79006044820152606401610ebd565b600e8290556040518281527f7810bd47de260c3e9ee10061cf438099dd12256c79485f12f94dbccc981e806c90602001611ca5565b60006001600160a01b038216611dc25760405162461bcd60e51b815260206004820152602960248201527f4552433732313a2061646472657373207a65726f206973206e6f7420612076616044820152683634b21037bbb732b960b91b6064820152608401610ebd565b506001600160a01b031660009081526003602052604090205490565b6000611de98161390d565b6001600160a01b038216611e3f5760405162461bcd60e51b815260206004820152601b60248201527f496e76616c6964206469737472696275746f72206164647265737300000000006044820152606401610ebd565b6012546001600160a01b03168015611e6957611e69600080516020615b5683398151915282613e13565b601280546001600160a01b0319166001600160a01b038516179055611e9c600080516020615b5683398151915284613c81565b826001600160a01b0316816001600160a01b03167f111a961d91cf441fe07e7bfddc128b30ab56974d1a76851e969e0642fdb2dd5060405160405180910390a3505050565b60148054611eee90615407565b80601f0160208091040260200160405190810160405280929190818152602001828054611f1a90615407565b8015611f675780601f10611f3c57610100808354040283529160200191611f67565b820191906000526020600020905b815481529060010190602001808311611f4a57829003601f168201915b505050505081565b6000611f7a8161390d565b6010805460ff19168315159081179091556040519081527f696ca93f2d646dcbf31ca7a85da7f825bd3796a6d7baa7321166e324bd25f4db90602001611ca5565b7f65d7a28e3265b37a6474929f336521b332c1681b933f6cb9f3376673440d862a611fe58161390d565b6117cb614088565b6000600080516020615b568339815191526120078161390d565b61200f613d07565b612017613e7a565b6001600160a01b03851661203d5760405162461bcd60e51b8152600401610ebd9061570b565b61204561406e565b6120615760405162461bcd60e51b8152600401610ebd9061577d565b8361207e5760405162461bcd60e51b8152600401610ebd90615686565b600d80546000918261208f83615742565b91905055905061209f8682613ed3565b6000818152601160205260409020859055601054610100900460ff166120da576000818152601360205260409020805460ff191690556120f4565b6000818152601360205260409020805460ff191660011790555b6040518060a00160405280876001600160a01b031681526020018281526020014281526020016000600281111561212d5761212d614de0565b81526020908101869052600083815260178252604090819020835181546001600160a01b0319166001600160a01b03909116178155918301516001808401919091559083015160028084019190915560608401516003840180549193909260ff199092169184908111156121a3576121a3614de0565b021790555060809190910151600490910155601880549060006121c583615742565b9091555050601a80549060006121da83615742565b919050555080866001600160a01b0316336001600160a01b0316600080516020615bd68339815191528760405161221391815260200190565b60405180910390a480866001600160a01b0316600080516020615bb683398151915261223f8885613eed565b6000604051611bd592919061575b565b60009182526007602090815260408084206001600160a01b0393909316845291905290205460ff1690565b7f9f2df0fed2c77648de5860a4cc508cd0818c85b8b8a1ab4ceeef8d981c8956a66122a48161390d565b6122ac613d07565b6122b4613e7a565b8382146122d35760405162461bcd60e51b8152600401610ebd906157a9565b60328411156122f45760405162461bcd60e51b8152600401610ebd90615633565b836123115760405162461bcd60e51b8152600401610ebd90615661565b600e54158061233c5750600e54600d5460019061232f9087906156ab565b6123399190615485565b11155b6123585760405162461bcd60e51b8152600401610ebd906156be565b60005b84811015612619576000868683818110612377576123776156f5565b905060200201602081019061238c9190615118565b6001600160a01b0316036123b25760405162461bcd60e51b8152600401610ebd9061570b565b600d8054600091826123c383615742565b9190505590506123de87878481811061151d5761151d6156f5565b60008585848181106123f2576123f26156f5565b905060200281019061240491906157d8565b905011156124885761246e81868685818110612422576124226156f5565b905060200281019061243491906157d8565b8080601f016020809104026020016040519081016040528093929190818152602001838380828437600092019190915250613d4f92505050565b6000818152601360205260409020805460ff191660011790555b6040518060a001604052808888858181106124a5576124a56156f5565b90506020020160208101906124ba9190615118565b6001600160a01b0316815260208101839052426040820152606001600181526000602091820181905283815260178252604090819020835181546001600160a01b0319166001600160a01b03909116178155918301516001808401919091559083015160028084019190915560608401516003840180549193909260ff1990921691849081111561254d5761254d614de0565b0217905550608091909101516004909101556018805490600061256f83615742565b9091555050601b805490600061258483615742565b91905055508087878481811061259c5761259c6156f5565b90506020020160208101906125b19190615118565b6001600160a01b0316600080516020615bb68339815191528787868181106125db576125db6156f5565b90506020028101906125ed91906157d8565b60016040516125fe93929190615847565b60405180910390a3508061261181615742565b91505061235b565b506126246001600855565b5050505050565b606060018054610d9f90615407565b6113813383836140c5565b61264d613d07565b612655613e7a565b60105460ff166126a15760405162461bcd60e51b8152602060048201526017602482015276141d589b1a58c81b5a5b9d081b9bdd08195b98589b1959604a1b6044820152606401610ebd565b6000600f54116126f35760405162461bcd60e51b815260206004820152601a60248201527f5075626c6963206d696e74206e6f7420636f6e666967757265640000000000006044820152606401610ebd565b600f5434101561273c5760405162461bcd60e51b8152602060048201526014602482015273125b9cdd59999a58da595b9d081c185e5b595b9d60621b6044820152606401610ebd565b61274461406e565b6127605760405162461bcd60e51b8152600401610ebd9061577d565b601654158061277f575060165433600090815260156020526040902054105b6127c15760405162461bcd60e51b8152602060048201526013602482015272135a5b9d081b1a5b5a5d08195e18d959591959606a1b6044820152606401610ebd565b600d8054600091826127d283615742565b9190505590506127e23382613ed3565b3360009081526015602052604081208054916127fd83615742565b9190505550346019600082825461281491906156ab565b90915550508151156128445761282a8183613d4f565b6000818152601360205260409020805460ff191660011790555b6040805160a081018252338152602080820184815242838501908152600260608501818152600060808701819052888152601790955295909320845181546001600160a01b0319166001600160a01b0390911617815591516001808401919091559051828401559351600382018054949592949193909260ff19909216919084908111156128d4576128d4614de0565b021790555060809190910151600490910155601880549060006128f683615742565b919050555080336001600160a01b0316600080516020615bb683398151915284600260405161292692919061575b565b60405180910390a3506117cb6001600855565b6129433383613a9e565b61295f5760405162461bcd60e51b8152600401610ebd90615498565b6119bd84848484614193565b612973613d07565b61297b613e7a565b60105460ff166129c75760405162461bcd60e51b8152602060048201526017602482015276141d589b1a58c81b5a5b9d081b9bdd08195b98589b1959604a1b6044820152606401610ebd565b6000600f5411612a195760405162461bcd60e51b815260206004820152601a60248201527f5075626c6963206d696e74206e6f7420636f6e666967757265640000000000006044820152606401610ebd565b600082118015612a2a5750600a8211155b612a675760405162461bcd60e51b815260206004820152600e60248201526d125b9d985b1a5908185b5bdd5b9d60921b6044820152606401610ebd565b81600f54612a7591906154e5565b341015612abb5760405162461bcd60e51b8152602060048201526014602482015273125b9cdd59999a58da595b9d081c185e5b595b9d60621b6044820152606401610ebd565b600e541580612ae55750600e54600183600d54612ad891906156ab565b612ae29190615485565b11155b612b265760405162461bcd60e51b815260206004820152601260248201527145786365656473206d617820737570706c7960701b6044820152606401610ebd565b6016541580612b51575060165433600090815260156020526040902054612b4e9084906156ab565b11155b612b935760405162461bcd60e51b8152602060048201526013602482015272135a5b9d081b1a5b5a5d08195e18d959591959606a1b6044820152606401610ebd565b80612bb05760405162461bcd60e51b8152600401610ebd90615686565b60005b82811015612d1557600d805460009182612bcc83615742565b919050559050612bdc3382613ed3565b6000818152601160205260409020839055601054610100900460ff1615612c17576000818152601360205260409020805460ff191660011790555b6040805160a081018252338152602080820184815242838501908152600260608501818152600060808701819052888152601790955295909320845181546001600160a01b0319166001600160a01b0390911617815591516001808401919091559051828401559351600382018054949592949193909260ff1990921691908490811115612ca757612ca7614de0565b02179055506080919091015160049091015560188054906000612cc983615742565b9091555081905033600080516020615bb6833981519152612cea8684613eed565b6002604051612cfa92919061575b565b60405180910390a35080612d0d81615742565b915050612bb3565b503360009081526015602052604081208054849290612d359084906156ab565b925050819055503460196000828254612d4e91906156ab565b909155505060016008555050565b60008060008060008060006001600d54612d769190615485565b600e54600f54601954601054939a509198509650945060ff169250612d9d60095460ff1690565b6012549798969795969495939490936001600160a01b031692509050565b7f7eedb2e31886aee6b48ad5b19b07b41f829d56c86a5c8a5cc10a185aeed92904612de58161390d565b612ded613d07565b838214612e0c5760405162461bcd60e51b8152600401610ebd906157a9565b6064841115612e2d5760405162461bcd60e51b8152600401610ebd90615633565b60005b84811015613059576000612e71878784818110612e4f57612e4f6156f5565b905060200201356000908152600260205260409020546001600160a01b031690565b6001600160a01b031603612e975760405162461bcd60e51b8152600401610ebd90615441565b60136000878784818110612ead57612ead6156f5565b602090810292909201358352508101919091526040016000205460ff1615612f105760405162461bcd60e51b8152602060048201526016602482015275151bdad95b88185b1c9958591e481c995d99585b195960521b6044820152606401610ebd565b612f3e868683818110612f2557612f256156f5565b90506020020135858584818110612422576124226156f5565b600160136000888885818110612f5657612f566156f5565b90506020020135815260200190815260200160002060006101000a81548160ff021916908315150217905550858582818110612f9457612f946156f5565b905060200201357faaa3596bf0189d953a8f8d17cab13556b9f570f5cbe554aea85b987c0ac3e281858584818110612fce57612fce6156f5565b9050602002810190612fe091906157d8565b604051612fee92919061586a565b60405180910390a27ff8e1a15aba9398e019f0b49df1a4fde98ee17ae345cb5f6b5e2c27f5033e8ce7868683818110613029576130296156f5565b9050602002013560405161303f91815260200190565b60405180910390a18061305181615742565b915050612e30565b506001841115612624577f6bd5c950a8d8df17f772f5af37cb3655737899cbf903264b9795592da439661c85856000818110613097576130976156f5565b6020029190910135905086866130ae600182615485565b8181106130bd576130bd6156f5565b905060200201356040516130db929190918252602082015260400190565b60405180910390a15050505050565b6000818152600260205260409020546060906001600160a01b03166131515760405162461bcd60e51b815260206004820152601f60248201527f55524920717565727920666f72206e6f6e6578697374656e7420746f6b656e006044820152606401610ebd565b60008281526013602052604090205460ff1615801561317e575060006014805461317a90615407565b9050115b15613215576014805461319090615407565b80601f01602080910402602001604051908101604052809291908181526020018280546131bc90615407565b80156132095780601f106131de57610100808354040283529160200191613209565b820191906000526020600020905b8154815290600101906020018083116131ec57829003601f168201915b50505050509050919050565b601054610100900460ff168015613239575060008281526011602052604090205415155b1561325757600082815260116020526040902054610d709083613eed565b610d70826141c6565b6060600080516020615b5683398151915261327a8161390d565b613282613d07565b61328a613e7a565b8584146132a95760405162461bcd60e51b8152600401610ebd906157a9565b60328611156132ca5760405162461bcd60e51b8152600401610ebd90615633565b856132e75760405162461bcd60e51b8152600401610ebd90615661565b600e5415806133125750600e54600d546001906133059089906156ab565b61330f9190615485565b11155b61332e5760405162461bcd60e51b8152600401610ebd906156be565b6000866001600160401b0381111561334857613348614ebd565b604051908082528060200260200182016040528015613371578160200160208202803683370190505b50905060005b87811015613669576000898983818110613393576133936156f5565b90506020020160208101906133a89190615118565b6001600160a01b0316036133ce5760405162461bcd60e51b8152600401610ebd9061570b565b600d8054600091826133df83615742565b9190505590506133fa8a8a8481811061151d5761151d6156f5565b600088888481811061340e5761340e6156f5565b905060200281019061342091906157d8565b905011156134585761343e81898985818110612422576124226156f5565b6000818152601360205260409020805460ff191660011790555b6040518060a001604052808b8b85818110613475576134756156f5565b905060200201602081019061348a9190615118565b6001600160a01b0316815260208101839052426040820152606001600081526020908101889052600083815260178252604090819020835181546001600160a01b0319166001600160a01b03909116178155918301516001808401919091559083015160028084019190915560608401516003840180549193909260ff1990921691849081111561351d5761351d614de0565b02179055506080820151816004015590505080838381518110613542576135426156f5565b60209081029190910101526018805490600061355d83615742565b9091555050601a805490600061357283615742565b9190505550808a8a8481811061358a5761358a6156f5565b905060200201602081019061359f9190615118565b6001600160a01b0316336001600160a01b0316600080516020615bd6833981519152896040516135d191815260200190565b60405180910390a4808a8a848181106135ec576135ec6156f5565b90506020020160208101906136019190615118565b6001600160a01b0316600080516020615bb68339815191528a8a8681811061362b5761362b6156f5565b905060200281019061363d91906157d8565b600060405161364e93929190615847565b60405180910390a3508061366181615742565b915050613377565b5091506136766001600855565b5095945050505050565b60007f9f2df0fed2c77648de5860a4cc508cd0818c85b8b8a1ab4ceeef8d981c8956a66136ac8161390d565b6136b4613d07565b6136bc613e7a565b6001600160a01b0384166136e25760405162461bcd60e51b8152600401610ebd9061570b565b6136ea61406e565b6137065760405162461bcd60e51b8152600401610ebd9061577d565b600d80546000918261371783615742565b9190505590506137278582613ed3565b835115613752576137388185613d4f565b6000818152601360205260409020805460ff191660011790555b6040518060a00160405280866001600160a01b031681526020018281526020014281526020016001600281111561378b5761378b614de0565b81526000602091820181905283815260178252604090819020835181546001600160a01b0319166001600160a01b03909116178155918301516001808401919091559083015160028084019190915560608401516003840180549193909260ff1990921691849081111561380157613801614de0565b0217905550608091909101516004909101556018805490600061382383615742565b9091555050601b805490600061383883615742565b919050555080856001600160a01b0316600080516020615bb683398151915286600160405161386892919061575b565b60405180910390a3915061387c6001600855565b5092915050565b60008281526007602052604090206001015461389e8161390d565b610d8b8383613e13565b60006138b38161390d565b600f8290556040518281527f525b762709cc2a983aec5ccdfd807a061f993c91090b5bcd7da92ca254976aaa90602001611ca5565b60006001600160e01b0319821663152a902d60e11b1480610d705750610d70826142c1565b6117cb81336142e6565b6127106001600160601b03821611156139425760405162461bcd60e51b8152600401610ebd9061587e565b6001600160a01b0382166139985760405162461bcd60e51b815260206004820152601960248201527f455243323938313a20696e76616c6964207265636569766572000000000000006044820152606401610ebd565b604080518082019091526001600160a01b039092168083526001600160601b039091166020909201829052600160a01b90910217600a55565b6000818152600260205260409020546001600160a01b03166117cb5760405162461bcd60e51b8152602060048201526018602482015277115490cdcc8c4e881a5b9d985b1a59081d1bdad95b88125160421b6044820152606401610ebd565b600081815260046020526040902080546001600160a01b0319166001600160a01b0384169081179091558190613a6582611bf1565b6001600160a01b03167f8c5be1e5ebec7d5bd14f71427d1e84f3dd0314c0f7b2291e5b200ac8c7c3b92560405160405180910390a45050565b600080613aaa83611bf1565b9050806001600160a01b0316846001600160a01b03161480613af157506001600160a01b0380821660009081526005602090815260408083209388168352929052205460ff165b80613b155750836001600160a01b0316613b0a84610e22565b6001600160a01b0316145b949350505050565b826001600160a01b0316613b3082611bf1565b6001600160a01b031614613b565760405162461bcd60e51b8152600401610ebd906158c8565b6001600160a01b038216613bb85760405162461bcd60e51b8152602060048201526024808201527f4552433732313a207472616e7366657220746f20746865207a65726f206164646044820152637265737360e01b6064820152608401610ebd565b826001600160a01b0316613bcb82611bf1565b6001600160a01b031614613bf15760405162461bcd60e51b8152600401610ebd906158c8565b600081815260046020908152604080832080546001600160a01b03199081169091556001600160a01b0387811680865260038552838620805460001901905590871680865283862080546001019055868652600290945282852080549092168417909155905184937fddf252ad1be2c89b69c2b068fc378daa952ba7f163c4a11628f55a4df523b3ef91a4505050565b613c8b828261224f565b6113815760008281526007602090815260408083206001600160a01b03851684529091529020805460ff19166001179055613cc33390565b6001600160a01b0316816001600160a01b0316837f2f8788117e7eff1d82e926ec794901d17c78024a50270940304540a733656f0d60405160405180910390a45050565b60095460ff1615613d4d5760405162461bcd60e51b815260206004820152601060248201526f14185d5cd8589b194e881c185d5cd95960821b6044820152606401610ebd565b565b6000828152600260205260409020546001600160a01b0316613dca5760405162461bcd60e51b815260206004820152602e60248201527f45524337323155524953746f726167653a2055524920736574206f66206e6f6e60448201526d32bc34b9ba32b73a103a37b5b2b760911b6064820152608401610ebd565b6000828152600660205260409020613de28282615574565b506040518281527ff8e1a15aba9398e019f0b49df1a4fde98ee17ae345cb5f6b5e2c27f5033e8ce790602001611ca5565b613e1d828261224f565b156113815760008281526007602090815260408083206001600160a01b0385168085529252808320805460ff1916905551339285917ff6391f5c32d9c69d2a47ea670b442974b53935d1edc7fd64eb21e047a839171b9190a45050565b600260085403613ecc5760405162461bcd60e51b815260206004820152601f60248201527f5265656e7472616e637947756172643a207265656e7472616e742063616c6c006044820152606401610ebd565b6002600855565b61138182826040518060200160405280600081525061433f565b601054606090610100900460ff16613f145750604080516020810190915260008152610d70565b600c613f1f84614372565b613f28846144ca565b604051602001613f3a93929190615929565b604051602081830303815290604052905092915050565b613f596145ca565b6009805460ff191690557f5db9ee0a495bf2e6ff9c91a7834c1ba4fdd244a5e8aa4e537bd38aeae4b073aa335b6040516001600160a01b03909116815260200160405180910390a1565b6127106001600160601b0382161115613fce5760405162461bcd60e51b8152600401610ebd9061587e565b6001600160a01b0382166140245760405162461bcd60e51b815260206004820152601b60248201527f455243323938313a20496e76616c696420706172616d657465727300000000006044820152606401610ebd565b6040805180820182526001600160a01b0393841681526001600160601b0392831660208083019182526000968752600b90529190942093519051909116600160a01b029116179055565b6000600e5460001480611057575050600e54600d54111590565b614090613d07565b6009805460ff191660011790557f62e78cea01bee320cd4e420270b5ea74000d11b0c9f74754ebdbfc544b05a258613f863390565b816001600160a01b0316836001600160a01b0316036141265760405162461bcd60e51b815260206004820152601960248201527f4552433732313a20617070726f766520746f2063616c6c6572000000000000006044820152606401610ebd565b6001600160a01b03838116600081815260056020908152604080832094871680845294825291829020805460ff191686151590811790915591519182527f17307eab39ab6107e8899845ad3d59bd9653f200f220920489ca2b5937696c31910160405180910390a3505050565b61419e848484613b1d565b6141aa84848484614613565b6119bd5760405162461bcd60e51b8152600401610ebd906159da565b60606141d1826139d1565b600082815260066020526040812080546141ea90615407565b80601f016020809104026020016040519081016040528092919081815260200182805461421690615407565b80156142635780601f1061423857610100808354040283529160200191614263565b820191906000526020600020905b81548152906001019060200180831161424657829003601f168201915b505050505090506000614274614714565b90508051600003614286575092915050565b8151156142b85780826040516020016142a0929190615a2c565b60405160208183030381529060405292505050919050565b613b1584614723565b60006001600160e01b03198216637965db0b60e01b1480610d705750610d708261478a565b6142f0828261224f565b611381576142fd816147af565b6143088360206147c1565b604051602001614319929190615a5b565b60408051601f198184030181529082905262461bcd60e51b8252610ebd91600401614d8a565b614349838361495c565b6143566000848484614613565b610d8b5760405162461bcd60e51b8152600401610ebd906159da565b604080518082018252601081526f181899199a1a9b1b9c1cb0b131b232b360811b6020820152815182815260608181018452926000919060208201818036833701905050905060005b6020811015611be9578260048683602081106143d9576143d96156f5565b1a60f81b6001600160f81b031916901c60f81c60ff16815181106143ff576143ff6156f5565b01602001516001600160f81b0319168261441a8360026154e5565b8151811061442a5761442a6156f5565b60200101906001600160f81b031916908160001a90535082858260208110614454576144546156f5565b825191901a600f1690811061446b5761446b6156f5565b01602001516001600160f81b031916826144868360026154e5565b6144919060016156ab565b815181106144a1576144a16156f5565b60200101906001600160f81b031916908160001a905350806144c281615742565b9150506143bb565b6060816000036144f15750506040805180820190915260018152600360fc1b602082015290565b8160005b811561451b578061450581615742565b91506145149050600a83615512565b91506144f5565b6000816001600160401b0381111561453557614535614ebd565b6040519080825280601f01601f19166020018201604052801561455f576020820181803683370190505b5090505b8415613b1557614574600183615485565b9150614581600a86615ad0565b61458c9060306156ab565b60f81b8183815181106145a1576145a16156f5565b60200101906001600160f81b031916908160001a9053506145c3600a86615512565b9450614563565b60095460ff16613d4d5760405162461bcd60e51b815260206004820152601460248201527314185d5cd8589b194e881b9bdd081c185d5cd95960621b6044820152606401610ebd565b60006001600160a01b0384163b1561470957604051630a85bd0160e11b81526001600160a01b0385169063150b7a0290614657903390899088908890600401615ae4565b6020604051808303816000875af1925050508015614692575060408051601f3d908101601f1916820190925261468f91810190615b21565b60015b6146ef573d8080156146c0576040519150601f19603f3d011682016040523d82523d6000602084013e6146c5565b606091505b5080516000036146e75760405162461bcd60e51b8152600401610ebd906159da565b805181602001fd5b6001600160e01b031916630a85bd0160e11b149050613b15565b506001949350505050565b6060600c8054610d9f90615407565b606061472e826139d1565b6000614738614714565b905060008151116147585760405180602001604052806000815250614783565b8061476284614ae7565b604051602001614773929190615a2c565b6040516020818303038152906040525b9392505050565b60006001600160e01b03198216632483248360e11b1480610d705750610d7082614b79565b6060610d706001600160a01b03831660145b606060006147d08360026154e5565b6147db9060026156ab565b6001600160401b038111156147f2576147f2614ebd565b6040519080825280601f01601f19166020018201604052801561481c576020820181803683370190505b509050600360fc1b81600081518110614837576148376156f5565b60200101906001600160f81b031916908160001a905350600f60fb1b81600181518110614866576148666156f5565b60200101906001600160f81b031916908160001a905350600061488a8460026154e5565b6148959060016156ab565b90505b600181111561490d576f181899199a1a9b1b9c1cb0b131b232b360811b85600f16601081106148c9576148c96156f5565b1a60f81b8282815181106148df576148df6156f5565b60200101906001600160f81b031916908160001a90535060049490941c9361490681615b3e565b9050614898565b5083156147835760405162461bcd60e51b815260206004820181905260248201527f537472696e67733a20686578206c656e67746820696e73756666696369656e746044820152606401610ebd565b6001600160a01b0382166149b25760405162461bcd60e51b815260206004820181905260248201527f4552433732313a206d696e7420746f20746865207a65726f20616464726573736044820152606401610ebd565b6000818152600260205260409020546001600160a01b031615614a175760405162461bcd60e51b815260206004820152601c60248201527f4552433732313a20746f6b656e20616c7265616479206d696e746564000000006044820152606401610ebd565b6000818152600260205260409020546001600160a01b031615614a7c5760405162461bcd60e51b815260206004820152601c60248201527f4552433732313a20746f6b656e20616c7265616479206d696e746564000000006044820152606401610ebd565b6001600160a01b038216600081815260036020908152604080832080546001019055848352600290915280822080546001600160a01b0319168417905551839291907fddf252ad1be2c89b69c2b068fc378daa952ba7f163c4a11628f55a4df523b3ef908290a45050565b60606000614af483614bc9565b60010190506000816001600160401b03811115614b1357614b13614ebd565b6040519080825280601f01601f191660200182016040528015614b3d576020820181803683370190505b5090508181016020015b600019016f181899199a1a9b1b9c1cb0b131b232b360811b600a86061a8153600a8504945084614b4757509392505050565b60006001600160e01b031982166380ac58cd60e01b1480614baa57506001600160e01b03198216635b5e139f60e01b145b80610d7057506301ffc9a760e01b6001600160e01b0319831614610d70565b60008072184f03e93ff9f4daa797ed6e38ed64bf6a1f0160401b8310614c085772184f03e93ff9f4daa797ed6e38ed64bf6a1f0160401b830492506040015b6d04ee2d6d415b85acef81000000008310614c34576d04ee2d6d415b85acef8100000000830492506020015b662386f26fc100008310614c5257662386f26fc10000830492506010015b6305f5e1008310614c6a576305f5e100830492506008015b6127108310614c7e57612710830492506004015b60648310614c90576064830492506002015b600a8310610d705760010192915050565b6001600160e01b0319811681146117cb57600080fd5b600060208284031215614cc957600080fd5b813561478381614ca1565b80356001600160a01b0381168114614ceb57600080fd5b919050565b80356001600160601b0381168114614ceb57600080fd5b60008060408385031215614d1a57600080fd5b614d2383614cd4565b9150614d3160208401614cf0565b90509250929050565b60005b83811015614d55578181015183820152602001614d3d565b50506000910152565b60008151808452614d76816020860160208601614d3a565b601f01601f19169290920160200192915050565b6020815260006147836020830184614d5e565b600060208284031215614daf57600080fd5b5035919050565b60008060408385031215614dc957600080fd5b614dd283614cd4565b946020939093013593505050565b634e487b7160e01b600052602160045260246000fd5b60038110614e1457634e487b7160e01b600052602160045260246000fd5b9052565b81516001600160a01b03168152602080830151908201526040808301519082015260608083015160a0830191614e5090840182614df6565b50608092830151919092015290565b600080600060608486031215614e7457600080fd5b614e7d84614cd4565b9250614e8b60208501614cd4565b9150604084013590509250925092565b60008060408385031215614eae57600080fd5b50508035926020909101359150565b634e487b7160e01b600052604160045260246000fd5b60006001600160401b0380841115614eed57614eed614ebd565b604051601f8501601f19908116603f01168101908282118183101715614f1557614f15614ebd565b81604052809350858152868686011115614f2e57600080fd5b858560208301376000602087830101525050509392505050565b600082601f830112614f5957600080fd5b61478383833560208501614ed3565b600060208284031215614f7a57600080fd5b81356001600160401b03811115614f9057600080fd5b613b1584828501614f48565b60008060408385031215614faf57600080fd5b82359150614d3160208401614cd4565b60008060408385031215614fd257600080fd5b8235915060208301356001600160401b03811115614fef57600080fd5b614ffb85828601614f48565b9150509250929050565b60008083601f84011261501757600080fd5b5081356001600160401b0381111561502e57600080fd5b6020830191508360208260051b850101111561117157600080fd5b6000806000806060858703121561505f57600080fd5b84356001600160401b0381111561507557600080fd5b61508187828801615005565b90989097506020870135966040013595509350505050565b6020808252825182820181905260009190848201906040850190845b818110156150d1578351835292840192918401916001016150b5565b50909695505050505050565b6001600160a01b0386168152602081018590526040810184905260a081016151086060830185614df6565b8260808301529695505050505050565b60006020828403121561512a57600080fd5b61478382614cd4565b60008060006060848603121561514857600080fd5b8335925061515860208501614cd4565b915061516660408501614cf0565b90509250925092565b60008060006060848603121561518457600080fd5b61518d84614cd4565b925060208401356001600160401b038111156151a857600080fd5b6151b486828701614f48565b925050604084013590509250925092565b80358015158114614ceb57600080fd5b6000602082840312156151e757600080fd5b614783826151c5565b60008060006060848603121561520557600080fd5b61520e84614cd4565b95602085013595506040909401359392505050565b6000806000806040858703121561523957600080fd5b84356001600160401b038082111561525057600080fd5b61525c88838901615005565b9096509450602087013591508082111561527557600080fd5b5061528287828801615005565b95989497509550505050565b600080604083850312156152a157600080fd5b6152aa83614cd4565b9150614d31602084016151c5565b600080600080608085870312156152ce57600080fd5b6152d785614cd4565b93506152e560208601614cd4565b92506040850135915060608501356001600160401b0381111561530757600080fd5b8501601f8101871361531857600080fd5b61532787823560208401614ed3565b91505092959194509250565b60008060008060006060868803121561534b57600080fd5b85356001600160401b038082111561536257600080fd5b61536e89838a01615005565b9097509550602088013591508082111561538757600080fd5b5061539488828901615005565b96999598509660400135949350505050565b600080604083850312156153b957600080fd5b6153c283614cd4565b915060208301356001600160401b03811115614fef57600080fd5b600080604083850312156153f057600080fd5b6153f983614cd4565b9150614d3160208401614cd4565b600181811c9082168061541b57607f821691505b60208210810361543b57634e487b7160e01b600052602260045260246000fd5b50919050565b602080825260149082015273151bdad95b88191bd95cc81b9bdd08195e1a5cdd60621b604082015260600190565b634e487b7160e01b600052601160045260246000fd5b81810381811115610d7057610d7061546f565b6020808252602d908201527f4552433732313a2063616c6c6572206973206e6f7420746f6b656e206f776e6560408201526c1c881bdc88185c1c1c9bdd9959609a1b606082015260800190565b8082028115828204841417610d7057610d7061546f565b634e487b7160e01b600052601260045260246000fd5b600082615521576155216154fc565b500490565b601f821115610d8b57600081815260208120601f850160051c8101602086101561554d5750805b601f850160051c820191505b8181101561556c57828155600101615559565b505050505050565b81516001600160401b0381111561558d5761558d614ebd565b6155a18161559b8454615407565b84615526565b602080601f8311600181146155d657600084156155be5750858301515b600019600386901b1c1916600185901b17855561556c565b600085815260208120601f198616915b82811015615605578886015182559484019460019091019084016155e6565b50858210156156235787850151600019600388901b60f8161c191681555b5050505050600190811b01905550565b60208082526014908201527342617463682073697a6520746f6f206c6172676560601b604082015260600190565b6020808252600b908201526a08adae0e8f240c4c2e8c6d60ab1b604082015260600190565b6020808252600b908201526a496e76616c696420534b5560a81b604082015260600190565b80820180821115610d7057610d7061546f565b60208082526018908201527f42617463682065786365656473206d617820737570706c790000000000000000604082015260600190565b634e487b7160e01b600052603260045260246000fd5b6020808252601b908201527f43616e6e6f74206d696e7420746f207a65726f20616464726573730000000000604082015260600190565b6000600182016157545761575461546f565b5060010190565b60408152600061576e6040830185614d5e565b90506147836020830184614df6565b60208082526012908201527113585e081cdd5c1c1b1e481c995858da195960721b604082015260600190565b602080825260159082015274082e4e4c2f240d8cadccee8d040dad2e6dac2e8c6d605b1b604082015260600190565b6000808335601e198436030181126157ef57600080fd5b8301803591506001600160401b0382111561580957600080fd5b60200191503681900382131561117157600080fd5b81835281816020850137506000828201602090810191909152601f909101601f19169091010190565b60408152600061585b60408301858761581e565b9050613b156020830184614df6565b602081526000613b1560208301848661581e565b6020808252602a908201527f455243323938313a20726f79616c7479206665652077696c6c206578636565646040820152692073616c65507269636560b01b606082015260800190565b60208082526025908201527f4552433732313a207472616e736665722066726f6d20696e636f72726563742060408201526437bbb732b960d91b606082015260800190565b6000815161591f818560208601614d3a565b9290920192915050565b600080855461593781615407565b6001828116801561594f576001811461596457615993565b60ff1984168752821515830287019450615993565b8960005260208060002060005b8581101561598a5781548a820152908401908201615971565b50505082870194505b50602f60f81b8452875192506159af8382860160208b01614d3a565b6159cd6159c78285870101602f60f81b815260010190565b8861590d565b9998505050505050505050565b60208082526032908201527f4552433732313a207472616e7366657220746f206e6f6e20455243373231526560408201527131b2b4bb32b91034b6b83632b6b2b73a32b960711b606082015260800190565b60008351615a3e818460208801614d3a565b835190830190615a52818360208801614d3a565b01949350505050565b7f416363657373436f6e74726f6c3a206163636f756e7420000000000000000000815260008351615a93816017850160208801614d3a565b7001034b99036b4b9b9b4b733903937b6329607d1b6017918401918201528351615ac4816028840160208801614d3a565b01602801949350505050565b600082615adf57615adf6154fc565b500690565b6001600160a01b0385811682528416602082015260408101839052608060608201819052600090615b1790830184614d5e565b9695505050505050565b600060208284031215615b3357600080fd5b815161478381614ca1565b600081615b4d57615b4d61546f565b50600019019056fefbd454f36a7e1a388bd6fc3ab10d434aa4578f811acbbcf33afb1c697486313c5265776172644e46542076322e302e30202d20506174656e7420436f6d706c69616e742044657369676e20284261636b7761726420436f6d70617469626c652976596d54fd9affd3f9aa2c127c5284f32b22dce98708fb9ed5e908462cfe6b5d095dac4de71eca0bb3878365b7bf8e64aca44e8a6a3cbd7e12a35e68337e8453a2646970667358221220ea20ea6cf114cddd17a8227db22eb8b6d0861ba00ec9666d4df3883e2d085eff64736f6c6343000814003360806040523480156200001157600080fd5b506040516200208b3803806200208b833981016040819052620000349162000551565b81818051825114620000a85760405162461bcd60e51b815260206004820152603260248201527f5061796d656e7453706c69747465723a2070617965657320616e6420736861726044820152710cae640d8cadccee8d040dad2e6dac2e8c6d60731b60648201526084015b60405180910390fd5b6000825111620000fb5760405162461bcd60e51b815260206004820152601a60248201527f5061796d656e7453706c69747465723a206e6f2070617965657300000000000060448201526064016200009f565b60005b82518110156200016757620001528382815181106200012157620001216200062f565b60200260200101518383815181106200013e576200013e6200062f565b60200260200101516200023160201b60201c565b806200015e816200065b565b915050620000fe565b50506007805460ff1916905550600160085562000184336200041d565b6000825111620001cc5760405162461bcd60e51b8152602060048201526012602482015271139bc81c185e59595cc81c1c9bdd9a59195960721b60448201526064016200009f565b8051825114620002295760405162461bcd60e51b815260206004820152602160248201527f50617965657320616e6420736861726573206c656e677468206d69736d6174636044820152600d60fb1b60648201526084016200009f565b505062000693565b6001600160a01b0382166200029e5760405162461bcd60e51b815260206004820152602c60248201527f5061796d656e7453706c69747465723a206163636f756e74206973207468652060448201526b7a65726f206164647265737360a01b60648201526084016200009f565b60008111620002f05760405162461bcd60e51b815260206004820152601d60248201527f5061796d656e7453706c69747465723a2073686172657320617265203000000060448201526064016200009f565b6001600160a01b038216600090815260026020526040902054156200036c5760405162461bcd60e51b815260206004820152602b60248201527f5061796d656e7453706c69747465723a206163636f756e7420616c726561647960448201526a206861732073686172657360a81b60648201526084016200009f565b60048054600181019091557f8a35acfbc15ff81a39ae7d344fd709f28e8600b4aa8c65c6b64bfe7fe36bd19b0180546001600160a01b0319166001600160a01b038416908117909155600090815260026020526040812082905554620003d490829062000677565b600055604080516001600160a01b0384168152602081018390527f40c340f65e17194d14ddddb073d3c9f888e3cb52b5aae0c6c7706b4fbc905fac910160405180910390a15050565b600980546001600160a01b038381166001600160a01b0319831681179093556040519116919082907f8be0079c531659141344cd1fd0a4f28419497f9722a3daafe3b4186f6b6457e090600090a35050565b634e487b7160e01b600052604160045260246000fd5b604051601f8201601f191681016001600160401b0381118282101715620004b057620004b06200046f565b604052919050565b60006001600160401b03821115620004d457620004d46200046f565b5060051b60200190565b600082601f830112620004f057600080fd5b81516020620005096200050383620004b8565b62000485565b82815260059290921b840181019181810190868411156200052957600080fd5b8286015b848110156200054657805183529183019183016200052d565b509695505050505050565b600080604083850312156200056557600080fd5b82516001600160401b03808211156200057d57600080fd5b818501915085601f8301126200059257600080fd5b81516020620005a56200050383620004b8565b82815260059290921b84018101918181019089841115620005c557600080fd5b948201945b83861015620005fc5785516001600160a01b0381168114620005ec5760008081fd5b82529482019490820190620005ca565b918801519196509093505050808211156200061657600080fd5b506200062585828601620004de565b9150509250929050565b634e487b7160e01b600052603260045260246000fd5b634e487b7160e01b600052601160045260246000fd5b60006001820162000670576200067062000645565b5060010190565b808201808211156200068d576200068d62000645565b92915050565b6119e880620006a36000396000f3fe6080604052600436106101855760003560e01c80638da5cb5b116100d1578063ce7c2ac21161008a578063e33b7de311610064578063e33b7de31461051f578063f1a8c96814610534578063f2fde38b14610569578063fa68fdb41461058957600080fd5b8063ce7c2ac214610493578063d79779b2146104c9578063df2c49c6146104ff57600080fd5b80638da5cb5b146103ad5780639852595c146103cb578063a261ca9514610401578063a3f8eace14610414578063c45ac05014610434578063c59d48471461045457600080fd5b806348b750441161013e5780635c975abb116101185780635c975abb14610328578063715018a61461034b5780638456cb59146103605780638b83209b1461037557600080fd5b806348b75044146102d157806354fd4d50146102f15780635be7fde81461031357600080fd5b806319165587146102145780632b09acf3146102345780633a98ef39146102675780633f4ba83a1461027c578063406072a91461029157806342fa171f146102b157600080fd5b3661020f576101926105a9565b61019a6105f1565b600034116101c35760405162461bcd60e51b81526004016101ba906115f3565b60405180910390fd5b6040805134815260006020820181905291829133917f8fa4d3293ac90aa2a8dc4c04a0a873a36a4c4b73ace8ce0679c11e15c2f1b84e910160405180910390a461020d6001600855565b005b600080fd5b34801561022057600080fd5b5061020d61022f36600461164e565b61064a565b34801561024057600080fd5b5061025461024f36600461166b565b610731565b6040519081526020015b60405180910390f35b34801561027357600080fd5b50600054610254565b34801561028857600080fd5b5061020d610746565b34801561029d57600080fd5b506102546102ac36600461166b565b610756565b3480156102bd57600080fd5b5061020d6102cc36600461164e565b610781565b3480156102dd57600080fd5b5061020d6102ec36600461166b565b610858565b3480156102fd57600080fd5b50610306610969565b60405161025e91906116c8565b34801561031f57600080fd5b5061020d610989565b34801561033457600080fd5b5060075460ff16604051901515815260200161025e565b34801561035757600080fd5b5061020d610a35565b34801561036c57600080fd5b5061020d610a47565b34801561038157600080fd5b506103956103903660046116fb565b610a57565b6040516001600160a01b03909116815260200161025e565b3480156103b957600080fd5b506009546001600160a01b0316610395565b3480156103d757600080fd5b506102546103e636600461164e565b6001600160a01b031660009081526003602052604090205490565b61020d61040f366004611714565b610a87565b34801561042057600080fd5b5061025461042f36600461164e565b610b05565b34801561044057600080fd5b5061025461044f36600461166b565b610b4d565b34801561046057600080fd5b50610469610bf3565b6040805195865260208601949094529284019190915260608301521515608082015260a00161025e565b34801561049f57600080fd5b506102546104ae36600461164e565b6001600160a01b031660009081526002602052604090205490565b3480156104d557600080fd5b506102546104e436600461164e565b6001600160a01b031660009081526005602052604090205490565b34801561050b57600080fd5b5061025461051a36600461164e565b610c33565b34801561052b57600080fd5b50600154610254565b34801561054057600080fd5b5061055461054f36600461164e565b610c3e565b6040805192835260208301919091520161025e565b34801561057557600080fd5b5061020d61058436600461164e565b610cf7565b34801561059557600080fd5b5061020d6105a4366004611736565b610d6d565b60075460ff16156105ef5760405162461bcd60e51b815260206004820152601060248201526f14185d5cd8589b194e881c185d5cd95960821b60448201526064016101ba565b565b6002600854036106435760405162461bcd60e51b815260206004820152601f60248201527f5265656e7472616e637947756172643a207265656e7472616e742063616c6c0060448201526064016101ba565b6002600855565b6001600160a01b03811660009081526002602052604090205461067f5760405162461bcd60e51b81526004016101ba90611771565b600061068a82610b05565b9050806000036106ac5760405162461bcd60e51b81526004016101ba906117b7565b80600160008282546106be9190611818565b90915550506001600160a01b03821660009081526003602052604090208054820190556106eb8282610e88565b604080516001600160a01b0384168152602081018390527fdf20fd1e76bc69d672e4814fafb2c449bba3a5369d8359adf9e05e6fde87b056910160405180910390a15050565b600061073d8383610fa6565b90505b92915050565b61074e61109b565b6105ef6110f5565b6001600160a01b03918216600090815260066020908152604080832093909416825291909152205490565b6107896105f1565b6001600160a01b0381166107af5760405162461bcd60e51b81526004016101ba9061182b565b60006107b9611147565b9050600081116108025760405162461bcd60e51b81526020600482015260146024820152734e6f2070617965657320746f2072656c6561736560601b60448201526064016101ba565b60005b81811015610849576000610818826111c0565b905060006108268583610fa6565b1115610836576108368482610858565b50806108418161185a565b915050610805565b50506108556001600855565b50565b6001600160a01b03811660009081526002602052604090205461088d5760405162461bcd60e51b81526004016101ba90611771565b60006108998383610b4d565b9050806000036108bb5760405162461bcd60e51b81526004016101ba906117b7565b6001600160a01b038316600090815260056020526040812080548392906108e3908490611818565b90915550506001600160a01b03808416600090815260066020908152604080832093861683529290522080548201905561091e8383836111cb565b604080516001600160a01b038481168252602082018490528516917f3be5b7a71e84ed12875d241991c70855ac5817d847039e17a9d895c1ceb0f18a910160405180910390a2505050565b60606040518060a001604052806069815260200161194a60699139905090565b6109916105f1565b600061099b611147565b9050600081116109e45760405162461bcd60e51b81526020600482015260146024820152734e6f2070617965657320746f2072656c6561736560601b60448201526064016101ba565b60005b81811015610a295760006109fa826111c0565b90506000610a078261122e565b1115610a1657610a168161064a565b5080610a218161185a565b9150506109e7565b50506105ef6001600855565b610a3d61109b565b6105ef60006112c0565b610a4f61109b565b6105ef611312565b600060048281548110610a6c57610a6c611873565b6000918252602090912001546001600160a01b031692915050565b610a8f6105a9565b610a976105f1565b60003411610ab75760405162461bcd60e51b81526004016101ba906115f3565b6040805134815260208101839052839160009133917f8fa4d3293ac90aa2a8dc4c04a0a873a36a4c4b73ace8ce0679c11e15c2f1b84e910160405180910390a4610b016001600855565b5050565b600080610b1160015490565b610b1b9047611818565b9050610b468382610b41866001600160a01b031660009081526003602052604090205490565b61134f565b9392505050565b6001600160a01b03821660009081526005602052604081205481906040516370a0823160e01b81523060048201526001600160a01b038616906370a0823190602401602060405180830381865afa158015610bac573d6000803e3d6000fd5b505050506040513d601f19601f82011682018060405250810190610bd09190611889565b610bda9190611818565b9050610beb8382610b418787610756565b949350505050565b6000806000806000610c03611147565b9450610c0e60005490565b9350479250610c1c60015490565b9150610c2a60075460ff1690565b90509091929394565b60006107408261122e565b6000806001600160a01b038316610c675760405162461bcd60e51b81526004016101ba9061182b565b6040516370a0823160e01b81523060048201526001600160a01b038416906370a0823190602401602060405180830381865afa158015610cab573d6000803e3d6000fd5b505050506040513d601f19601f82011682018060405250810190610ccf9190611889565b9150610cf0836001600160a01b031660009081526005602052604090205490565b9050915091565b610cff61109b565b6001600160a01b038116610d645760405162461bcd60e51b815260206004820152602660248201527f4f776e61626c653a206e6577206f776e657220697320746865207a65726f206160448201526564647265737360d01b60648201526084016101ba565b610855816112c0565b610d756105a9565b610d7d6105f1565b6001600160a01b038416610da35760405162461bcd60e51b81526004016101ba9061182b565b60008311610dc35760405162461bcd60e51b81526004016101ba906115f3565b306001600160a01b03851603610e1b5760405162461bcd60e51b815260206004820152601d60248201527f43616e6e6f7420646f6e61746520636f6e747261637420697473656c6600000060448201526064016101ba565b610e306001600160a01b03851633308661138a565b604080518481526020810183905283916001600160a01b0387169133917f8fa4d3293ac90aa2a8dc4c04a0a873a36a4c4b73ace8ce0679c11e15c2f1b84e910160405180910390a4610e826001600855565b50505050565b80471015610ed85760405162461bcd60e51b815260206004820152601d60248201527f416464726573733a20696e73756666696369656e742062616c616e636500000060448201526064016101ba565b6000826001600160a01b03168260405160006040518083038185875af1925050503d8060008114610f25576040519150601f19603f3d011682016040523d82523d6000602084013e610f2a565b606091505b5050905080610fa15760405162461bcd60e51b815260206004820152603a60248201527f416464726573733a20756e61626c6520746f2073656e642076616c75652c207260448201527f6563697069656e74206d6179206861766520726576657274656400000000000060648201526084016101ba565b505050565b6001600160a01b03821660009081526005602052604081205481906040516370a0823160e01b81523060048201526001600160a01b038616906370a0823190602401602060405180830381865afa158015611005573d6000803e3d6000fd5b505050506040513d601f19601f820116820180604052508101906110299190611889565b6110339190611818565b90506000611056846001600160a01b031660009081526002602052604090205490565b9050600061106360005490565b905060006110718787610756565b8261107c85876118a2565b61108691906118b9565b61109091906118db565b979650505050505050565b6009546001600160a01b031633146105ef5760405162461bcd60e51b815260206004820181905260248201527f4f776e61626c653a2063616c6c6572206973206e6f7420746865206f776e657260448201526064016101ba565b6110fd6113c2565b6007805460ff191690557f5db9ee0a495bf2e6ff9c91a7834c1ba4fdd244a5e8aa4e537bd38aeae4b073aa335b6040516001600160a01b03909116815260200160405180910390a1565b6000805b604051638b83209b60e01b8152600481018290523090638b83209b90602401602060405180830381865afa9250505080156111a3575060408051601f3d908101601f191682019092526111a0918101906118ee565b60015b156111bb57816111b28161185a565b9250505061114b565b919050565b600061074082610a57565b6040516001600160a01b038316602482015260448101829052610fa190849063a9059cbb60e01b906064015b60408051601f198184030181529190526020810180516001600160e01b03166001600160e01b03199093169290921790915261140b565b60008061123a60015490565b6112449047611818565b90506000611267846001600160a01b031660009081526002602052604090205490565b9050600061127460005490565b90506000611297866001600160a01b031660009081526003602052604090205490565b826112a285876118a2565b6112ac91906118b9565b6112b691906118db565b9695505050505050565b600980546001600160a01b038381166001600160a01b0319831681179093556040519116919082907f8be0079c531659141344cd1fd0a4f28419497f9722a3daafe3b4186f6b6457e090600090a35050565b61131a6105a9565b6007805460ff191660011790557f62e78cea01bee320cd4e420270b5ea74000d11b0c9f74754ebdbfc544b05a25861112a3390565b600080546001600160a01b03851682526002602052604082205483919061137690866118a2565b61138091906118b9565b610beb91906118db565b6040516001600160a01b0380851660248301528316604482015260648101829052610e829085906323b872dd60e01b906084016111f7565b60075460ff166105ef5760405162461bcd60e51b815260206004820152601460248201527314185d5cd8589b194e881b9bdd081c185d5cd95960621b60448201526064016101ba565b6000611460826040518060400160405280602081526020017f5361666545524332303a206c6f772d6c6576656c2063616c6c206661696c6564815250856001600160a01b03166114e09092919063ffffffff16565b9050805160001480611481575080806020019051810190611481919061190b565b610fa15760405162461bcd60e51b815260206004820152602a60248201527f5361666545524332303a204552433230206f7065726174696f6e20646964206e6044820152691bdd081cdd58d8d9595960b21b60648201526084016101ba565b6060610beb848460008585600080866001600160a01b03168587604051611507919061192d565b60006040518083038185875af1925050503d8060008114611544576040519150601f19603f3d011682016040523d82523d6000602084013e611549565b606091505b509150915061109087838387606083156115c45782516000036115bd576001600160a01b0385163b6115bd5760405162461bcd60e51b815260206004820152601d60248201527f416464726573733a2063616c6c20746f206e6f6e2d636f6e747261637400000060448201526064016101ba565b5081610beb565b610beb83838151156115d95781518083602001fd5b8060405162461bcd60e51b81526004016101ba91906116c8565b60208082526026908201527f446f6e6174696f6e20616d6f756e74206d75737420626520677265617465722060408201526507468616e20360d41b606082015260800190565b6001600160a01b038116811461085557600080fd5b60006020828403121561166057600080fd5b8135610b4681611639565b6000806040838503121561167e57600080fd5b823561168981611639565b9150602083013561169981611639565b809150509250929050565b60005b838110156116bf5781810151838201526020016116a7565b50506000910152565b60208152600082518060208401526116e78160408501602087016116a4565b601f01601f19169190910160400192915050565b60006020828403121561170d57600080fd5b5035919050565b6000806040838503121561172757600080fd5b50508035926020909101359150565b6000806000806080858703121561174c57600080fd5b843561175781611639565b966020860135965060408601359560600135945092505050565b60208082526026908201527f5061796d656e7453706c69747465723a206163636f756e7420686173206e6f2060408201526573686172657360d01b606082015260800190565b6020808252602b908201527f5061796d656e7453706c69747465723a206163636f756e74206973206e6f742060408201526a191d59481c185e5b595b9d60aa1b606082015260800190565b634e487b7160e01b600052601160045260246000fd5b8082018082111561074057610740611802565b602080825260159082015274496e76616c696420746f6b656e206164647265737360581b604082015260600190565b60006001820161186c5761186c611802565b5060010190565b634e487b7160e01b600052603260045260246000fd5b60006020828403121561189b57600080fd5b5051919050565b808202811582820484141761074057610740611802565b6000826118d657634e487b7160e01b600052601260045260246000fd5b500490565b8181038181111561074057610740611802565b60006020828403121561190057600080fd5b8151610b4681611639565b60006020828403121561191d57600080fd5b81518015158114610b4657600080fd5b6000825161193f8184602087016116a4565b919091019291505056fe476966746572726150617953706c69747465722076312e302e31202d205061796d656e74205265636569766572202b20446973747269627574696f6e202b204576656e7420456d69747465722028536f6c696469747920436f6d706c69616e63652055706461746529a2646970667358221220f79dbad01b66a5585edd9cdfa9b475c276b5906abbb942a8a2e6eb7ff4c67dc264736f6c6343000814003360806040526001600b55600019600d553480156200001c57600080fd5b50604051620046d9380380620046d98339810160408190526200003f91620002e5565b848460006200004f838262000433565b5060016200005e828262000433565b50506007805460ff191690555060016008556001600160a01b038216620000cb5760405162461bcd60e51b815260206004820152601c60248201527f4f776e65722063616e6e6f74206265207a65726f206164647265737300000000604482015260640160405180910390fd5b600c620000d9848262000433565b50600a819055620000ec6000836200017b565b620001187f9f2df0fed2c77648de5860a4cc508cd0818c85b8b8a1ab4ceeef8d981c8956a6836200017b565b620001447f49832a61ffc5fda62992d5c20ff587008f7050ad5d7dfea93a1a39fe47360d25836200017b565b620001707f65d7a28e3265b37a6474929f336521b332c1681b933f6cb9f3376673440d862a836200017b565b5050505050620004ff565b60008281526006602090815260408083206001600160a01b038516845290915290205460ff166200021c5760008281526006602090815260408083206001600160a01b03851684529091529020805460ff19166001179055620001db3390565b6001600160a01b0316816001600160a01b0316837f2f8788117e7eff1d82e926ec794901d17c78024a50270940304540a733656f0d60405160405180910390a45b5050565b634e487b7160e01b600052604160045260246000fd5b600082601f8301126200024857600080fd5b81516001600160401b038082111562000265576200026562000220565b604051601f8301601f19908116603f0116810190828211818310171562000290576200029062000220565b81604052838152602092508683858801011115620002ad57600080fd5b600091505b83821015620002d15785820183015181830184015290820190620002b2565b600093810190920192909252949350505050565b600080600080600060a08688031215620002fe57600080fd5b85516001600160401b03808211156200031657600080fd5b6200032489838a0162000236565b965060208801519150808211156200033b57600080fd5b6200034989838a0162000236565b955060408801519150808211156200036057600080fd5b506200036f8882890162000236565b606088015190945090506001600160a01b03811681146200038f57600080fd5b80925050608086015190509295509295909350565b600181811c90821680620003b957607f821691505b602082108103620003da57634e487b7160e01b600052602260045260246000fd5b50919050565b601f8211156200042e57600081815260208120601f850160051c81016020861015620004095750805b601f850160051c820191505b818110156200042a5782815560010162000415565b5050505b505050565b81516001600160401b038111156200044f576200044f62000220565b6200046781620004608454620003a4565b84620003e0565b602080601f8311600181146200049f5760008415620004865750858301515b600019600386901b1c1916600185901b1785556200042a565b600085815260208120601f198616915b82811015620004d057888601518255948401946001909101908401620004af565b5085821015620004ef5787850151600019600388901b60f8161c191681555b5050505050600190811b01905550565b6141ca806200050f6000396000f3fe608060405234801561001057600080fd5b50600436106103275760003560e01c80636f8b44b0116101b8578063b88d4fde11610104578063d5abeb01116100a2578063e80ffec51161007c578063e80ffec514610794578063e985e9c5146107a9578063f577a500146107e5578063f5fc20c6146107f857600080fd5b8063d5abeb011461073c578063deb9d58914610745578063e63ab1e91461076d57600080fd5b8063c87b56dd116100de578063c87b56dd146106dc578063c9a3632e146106ef578063d539139314610702578063d547741f1461072957600080fd5b8063b88d4fde146106a3578063bcd2b882146106b6578063c37c583a146106c957600080fd5b806391e2ee0c11610171578063a22cb4651161014b578063a22cb46514610645578063ae7125e614610658578063b30df3471461066b578063b60e221e1461067e57600080fd5b806391e2ee0c1461061557806395d89b4114610635578063a217fddf1461063d57600080fd5b80636f8b44b0146105ae57806370a08231146105c15780637a41984b146105d45780638456cb59146105e75780638562481e146105ef57806391d148541461060257600080fd5b806335e1f85c116102775780634f76b4711161023057806355b9d4431161020a57806355b9d4431461056a57806355f804b31461057d5780635c975abb146105905780636352211e1461059b57600080fd5b80634f76b471146104ee578063500a46841461050e57806354fd4d501461056257600080fd5b806335e1f85c1461047457806336568abe146104875780633a215f461461049a5780633f4ba83a146104ca57806342842e0e146104d257806345731723146104e557600080fd5b806315a86e97116102e4578063248a9ca3116102be578063248a9ca31461041857806325b80c341461043b5780632e89fc811461044e5780632f2ff15d1461046157600080fd5b806315a86e97146103ea57806318160ddd146103fd57806323b872dd1461040557600080fd5b806301ffc9a71461032c57806306fdde0314610354578063081812fc14610369578063095ea7b314610394578063098fc14f146103a95780630c5ae57f146103ca575b600080fd5b61033f61033a3660046136eb565b61080b565b60405190151581526020015b60405180910390f35b61035c61082e565b60405161034b9190613758565b61037c61037736600461376b565b6108c0565b6040516001600160a01b03909116815260200161034b565b6103a76103a236600461379b565b6108e7565b005b6103bc6103b73660046137d4565b610a01565b60405190815260200161034b565b6103bc6103d83660046137d4565b60126020526000908152604090205481565b61033f6103f8366004613800565b610a40565b6103bc610a6b565b6103a761041336600461382c565b610a81565b6103bc61042636600461376b565b60009081526006602052604090206001015490565b6103a761044936600461376b565b610ab2565b6103a761045c366004613868565b610ac3565b6103a761046f36600461389a565b610be6565b6103a76104823660046138bd565b610c0b565b6103a761049536600461389a565b610d27565b6104bd6104a836600461376b565b60106020526000908152604090205460ff1681565b60405161034b9190613911565b6103a7610da5565b6103a76104e036600461382c565b610dda565b6103bc600d5481565b6105016104fc36600461391f565b610df5565b60405161034b91906139a2565b61054161051c36600461376b565b600f6020526000908152604090205460ff81169061010090046001600160401b031682565b6040805160ff90931683526001600160401b0390911660208301520161034b565b61035c61132f565b6103a761057836600461376b565b61134f565b6103a761058b366004613a91565b6116b3565b60075460ff1661033f565b61037c6105a936600461376b565b6116ca565b6103a76105bc36600461376b565b61172a565b6103bc6105cf366004613ac5565b6117d8565b61033f6105e236600461376b565b61185e565b6103a7611883565b6103a76105fd366004613af0565b6118b5565b61033f61061036600461389a565b61199b565b6103bc6106233660046137d4565b60116020526000908152604090205481565b61035c6119c6565b6103bc600081565b6103a7610653366004613b34565b6119d5565b6103bc61066636600461376b565b6119e0565b61054161067936600461376b565b6119fe565b61069161068c3660046137d4565b611a47565b60405161034b96959493929190613b5e565b6103a76106b1366004613bb4565b611b20565b6103bc6106c4366004613c2f565b611b58565b6104bd6106d736600461376b565b611ed1565b61035c6106ea36600461376b565b611ef2565b6103a76106fd366004613c70565b612081565b6103bc7f9f2df0fed2c77648de5860a4cc508cd0818c85b8b8a1ab4ceeef8d981c8956a681565b6103a761073736600461389a565b6122f7565b6103bc600a5481565b61075861075336600461376b565b61231c565b6040805192835260208301919091520161034b565b6103bc7f65d7a28e3265b37a6474929f336521b332c1681b933f6cb9f3376673440d862a81565b6103bc60008051602061414a83398151915281565b61033f6107b7366004613cfe565b6001600160a01b03918216600090815260056020908152604080832093909416825291909152205460ff1690565b61033f6107f336600461376b565b61234c565b61033f61080636600461376b565b612512565b60006001600160e01b031982161580610828575061082882612743565b92915050565b60606000805461083d90613d28565b80601f016020809104026020016040519081016040528092919081815260200182805461086990613d28565b80156108b65780601f1061088b576101008083540402835291602001916108b6565b820191906000526020600020905b81548152906001019060200180831161089957829003601f168201915b5050505050905090565b60006108cb82612768565b506000908152600460205260409020546001600160a01b031690565b60006108f2826116ca565b9050806001600160a01b0316836001600160a01b0316036109645760405162461bcd60e51b815260206004820152602160248201527f4552433732313a20617070726f76616c20746f2063757272656e74206f776e656044820152603960f91b60648201526084015b60405180910390fd5b336001600160a01b0382161480610980575061098081336107b7565b6109f25760405162461bcd60e51b815260206004820152603d60248201527f4552433732313a20617070726f76652063616c6c6572206973206e6f7420746f60448201527f6b656e206f776e6572206f7220617070726f76656420666f7220616c6c000000606482015260840161095b565b6109fc83836127c7565b505050565b600060116000836005811115610a1957610a196138d9565b6005811115610a2a57610a2a6138d9565b8152602001908152602001600020549050919050565b6000610a4b83612835565b50600082815260096020526040902054600160ff83161b16151592915050565b60006001600b54610a7c9190613d78565b905090565b610a8b338261283e565b610aa75760405162461bcd60e51b815260040161095b90613d8b565b6109fc8383836128bc565b6000610abd81612a2d565b50600d55565b60008051602061414a833981519152610adb81612a2d565b610ae3612a37565b610aeb612a7f565b610af485612835565b83831615610b445760405162461bcd60e51b815260206004820152601b60248201527f53657420616e6420636c656172206d61736b73206f7665726c61700000000000604482015260640161095b565b6000858152600960209081526040918290208054871786191690558151868152908101859052908101839052339086907f1653575ccdb4b9570196927a79d844db04a62033eaceba3f8d95470c9c3059dc9060600160405180910390a36040518581527ff8e1a15aba9398e019f0b49df1a4fde98ee17ae345cb5f6b5e2c27f5033e8ce7906020015b60405180910390a1610bdf6001600855565b5050505050565b600082815260066020526040902060010154610c0181612a2d565b6109fc8383612ad8565b6000610c1681612a2d565b811580610c58575060116000846005811115610c3457610c346138d9565b6005811115610c4557610c456138d9565b8152602001908152602001600020548210155b610ca45760405162461bcd60e51b815260206004820152601f60248201527f43616e6e6f74207365742062656c6f772063757272656e7420737570706c7900604482015260640161095b565b8160126000856005811115610cbb57610cbb6138d9565b6005811115610ccc57610ccc6138d9565b8152602081019190915260400160002055826005811115610cef57610cef6138d9565b6040518381527f3297384e893c8a1458614aaf2b7905b5df13241a12a1fd36f9501d2e44d6a1969060200160405180910390a2505050565b6001600160a01b0381163314610d975760405162461bcd60e51b815260206004820152602f60248201527f416363657373436f6e74726f6c3a2063616e206f6e6c792072656e6f756e636560448201526e103937b632b9903337b91039b2b63360891b606482015260840161095b565b610da18282612b5e565b5050565b7f65d7a28e3265b37a6474929f336521b332c1681b933f6cb9f3376673440d862a610dcf81612a2d565b610dd7612bc5565b50565b6109fc83838360405180602001604052806000815250611b20565b60607f9f2df0fed2c77648de5860a4cc508cd0818c85b8b8a1ab4ceeef8d981c8956a6610e2181612a2d565b610e29612a37565b610e31612a7f565b83610e6c5760405162461bcd60e51b815260206004820152600b60248201526a08adae0e8f240c4c2e8c6d60ab1b604482015260640161095b565b6032841115610eb45760405162461bcd60e51b815260206004820152601460248201527342617463682073697a6520746f6f206c6172676560601b604482015260640161095b565b6000600e6000856005811115610ecc57610ecc6138d9565b6005811115610edd57610edd6138d9565b81526020810191909152604001600020546201000090046001600160401b031611610f445760405162461bcd60e51b815260206004820152601760248201527610d85d1959dbdc9e481b9bdd0818dbdb999a59dd5c9959604a1b604482015260640161095b565b600060126000856005811115610f5c57610f5c6138d9565b6005811115610f6d57610f6d6138d9565b8152602001908152602001600020549050600081111561102157808560116000876005811115610f9f57610f9f6138d9565b6005811115610fb057610fb06138d9565b815260200190815260200160002054610fc99190613dd8565b11156110215760405162461bcd60e51b815260206004820152602160248201527f426174636820657863656564732063617465676f7279206d617820737570706c6044820152607960f81b606482015260840161095b565b600a54158061104c5750600a54600b5460019061103f908890613dd8565b6110499190613d78565b11155b6110985760405162461bcd60e51b815260206004820152601860248201527f42617463682065786365656473206d617820737570706c790000000000000000604482015260640161095b565b846001600160401b038111156110b0576110b06139e6565b6040519080825280602002602001820160405280156110d9578160200160208202803683370190505b50925060005b8581101561131b5760008787838181106110fb576110fb613deb565b90506020020160208101906111109190613ac5565b6001600160a01b0316036111665760405162461bcd60e51b815260206004820152601b60248201527f43616e6e6f74206d696e7420746f207a65726f20616464726573730000000000604482015260640161095b565b600b80546000918261117783613e01565b9190505590506111ad88888481811061119257611192613deb565b90506020020160208101906111a79190613ac5565b82612c17565b6000818152601060205260409020805487919060ff191660018360058111156111d8576111d86138d9565b0217905550601160008760058111156111f3576111f36138d9565b6005811115611204576112046138d9565b8152602001908152602001600020600081548092919061122390613e01565b909155505060408051808201825260008082526020808301828152858352600f9091529290209051815492516001600160401b03166101000268ffffffffffffffffff1990931660ff91909116179190911790558451819086908490811061128d5761128d613deb565b6020026020010181815250508560058111156112ab576112ab6138d9565b818989858181106112be576112be613deb565b90506020020160208101906112d39190613ac5565b6001600160a01b03167f1e18a8369fdc2befacdc93ee5db35df55661064e39e5d0cac863a7a383f978bd60405160405180910390a4508061131381613e01565b9150506110df565b50506113276001600855565b509392505050565b60606040518060600160405280602b815260200161416a602b9139905090565b60008051602061414a83398151915261136781612a2d565b61136f612a37565b611377612a7f565b61138082612835565b60008281526010602052604081205460ff1690600e818360058111156113a8576113a86138d9565b60058111156113b9576113b96138d9565b815260208101919091526040908101600020815160c081019092528054829060ff1660058111156113ec576113ec6138d9565b60058111156113fd576113fd6138d9565b8152815460ff6101008204811660208401526001600160401b0362010000830481166040850152600160501b8304166060840152600160901b909104161515608082015260018201805460a09092019161145690613d28565b80601f016020809104026020016040519081016040528092919081815260200182805461148290613d28565b80156114cf5780601f106114a4576101008083540402835291602001916114cf565b820191906000526020600020905b8154815290600101906020018083116114b257829003601f168201915b505050919092525050506000858152600f60205260409081902090820151919250906001600160401b031642101561153d5760405162461bcd60e51b8152602060048201526011602482015270139195081b9bdd081e595d081d985b1a59607a1b604482015260640161095b565b60608201516001600160401b03161561159b5781606001516001600160401b031642111561159b5760405162461bcd60e51b815260206004820152600b60248201526a13919508195e1c1a5c995960aa1b604482015260640161095b565b60ff826020015160ff1610156115fd576020820151815460ff9182169116106115fd5760405162461bcd60e51b8152602060048201526014602482015273155cd859d9481b1a5b5a5d08195e18d95959195960621b604482015260640161095b565b805460ff1681600061160e83613e1a565b825460ff91821661010093840a908102920219161790915582546001600160401b03421690910268ffffffffffffffff001990911617825550611650856116ca565b81546040805160ff90921682526001600160401b03421660208301526001600160a01b03929092169187917f751dc070b347e62918b11f763c6b7f1e08195cf12dff7a31c6638c681e18be12910160405180910390a3505050610da16001600855565b60006116be81612a2d565b600c6109fc8382613e7f565b6000818152600260205260408120546001600160a01b0316806108285760405162461bcd60e51b8152602060048201526018602482015277115490cdcc8c4e881a5b9d985b1a59081d1bdad95b88125160421b604482015260640161095b565b600061173581612a2d565b81158061175057506001600b5461174c9190613d78565b8210155b61179c5760405162461bcd60e51b815260206004820152601f60248201527f43616e6e6f74207365742062656c6f772063757272656e7420737570706c7900604482015260640161095b565b600a8290556040518281527f7810bd47de260c3e9ee10061cf438099dd12256c79485f12f94dbccc981e806c9060200160405180910390a15050565b60006001600160a01b0382166118425760405162461bcd60e51b815260206004820152602960248201527f4552433732313a2061646472657373207a65726f206973206e6f7420612076616044820152683634b21037bbb732b960b91b606482015260840161095b565b506001600160a01b031660009081526003602052604090205490565b600061186982612835565b50600d546000918252600960205260409091205481161490565b7f65d7a28e3265b37a6474929f336521b332c1681b933f6cb9f3376673440d862a6118ad81612a2d565b610dd7612c31565b60008051602061414a8339815191526118cd81612a2d565b6118d5612a37565b6118dd612a7f565b6118e685612835565b821561190b5760008581526009602052604090208054600160ff87161b179055611927565b60008581526009602052604090208054600160ff87161b191690555b60408051841515815260208101849052339160ff87169188917f404d7fa6f8ab91d60b5ba38f860ecf366fc775efaf947db605af0d20104765cc910160405180910390a46040518581527ff8e1a15aba9398e019f0b49df1a4fde98ee17ae345cb5f6b5e2c27f5033e8ce790602001610bcd565b60009182526006602090815260408084206001600160a01b0393909316845291905290205460ff1690565b60606001805461083d90613d28565b610da1338383612c6e565b60006119eb82612835565b5060009081526009602052604090205490565b600080611a0a83612835565b50506000908152600f602090815260409182902082518084019093525460ff81168084526101009091046001600160401b03169290910182905291565b600e602052600090815260409020805460018201805460ff8084169461010085048216946001600160401b03620100008204811695600160501b830490911694600160901b9092049093169290611a9d90613d28565b80601f0160208091040260200160405190810160405280929190818152602001828054611ac990613d28565b8015611b165780601f10611aeb57610100808354040283529160200191611b16565b820191906000526020600020905b815481529060010190602001808311611af957829003601f168201915b5050505050905086565b611b2a338361283e565b611b465760405162461bcd60e51b815260040161095b90613d8b565b611b5284848484612d3c565b50505050565b60007f9f2df0fed2c77648de5860a4cc508cd0818c85b8b8a1ab4ceeef8d981c8956a6611b8481612a2d565b611b8c612a37565b611b94612a7f565b6001600160a01b038416611bea5760405162461bcd60e51b815260206004820152601b60248201527f43616e6e6f74206d696e7420746f207a65726f20616464726573730000000000604482015260640161095b565b611bf2612d6f565b611c335760405162461bcd60e51b815260206004820152601260248201527113585e081cdd5c1c1b1e481c995858da195960721b604482015260640161095b565b6000600e6000856005811115611c4b57611c4b6138d9565b6005811115611c5c57611c5c6138d9565b81526020810191909152604001600020546201000090046001600160401b031611611cc35760405162461bcd60e51b815260206004820152601760248201527610d85d1959dbdc9e481b9bdd0818dbdb999a59dd5c9959604a1b604482015260640161095b565b600060126000856005811115611cdb57611cdb6138d9565b6005811115611cec57611cec6138d9565b81526020019081526020016000205490506000811115611d8a578060116000866005811115611d1d57611d1d6138d9565b6005811115611d2e57611d2e6138d9565b81526020019081526020016000205410611d8a5760405162461bcd60e51b815260206004820152601b60248201527f43617465676f7279206d617820737570706c7920726561636865640000000000604482015260640161095b565b600b805460009182611d9b83613e01565b919050559050611dab8682612c17565b6000818152601060205260409020805486919060ff19166001836005811115611dd657611dd66138d9565b021790555060116000866005811115611df157611df16138d9565b6005811115611e0257611e026138d9565b81526020019081526020016000206000815480929190611e2190613e01565b909155505060408051808201825260008082526020808301828152858352600f9091529290209051815492516001600160401b03166101000268ffffffffffffffffff1990931660ff9190911617919091179055846005811115611e8757611e876138d9565b60405182906001600160a01b038916907f1e18a8369fdc2befacdc93ee5db35df55661064e39e5d0cac863a7a383f978bd90600090a4925050611eca6001600855565b5092915050565b6000611edc82612835565b5060009081526010602052604090205460ff1690565b6060611efd82612835565b60008281526010602052604081205460ff1690600e81836005811115611f2557611f256138d9565b6005811115611f3657611f366138d9565b815260208101919091526040908101600020815160c081019092528054829060ff166005811115611f6957611f696138d9565b6005811115611f7a57611f7a6138d9565b8152815460ff6101008204811660208401526001600160401b0362010000830481166040850152600160501b8304166060840152600160901b909104161515608082015260018201805460a090920191611fd390613d28565b80601f0160208091040260200160405190810160405280929190818152602001828054611fff90613d28565b801561204c5780601f106120215761010080835404028352916020019161204c565b820191906000526020600020905b81548152906001019060200180831161202f57829003601f168201915b505050505081525050905060008160a001515111156120705760a001519392505050565b61207984612d89565b949350505050565b600061208c81612a2d565b6000856001600160401b0316116120dd5760405162461bcd60e51b81526020600482015260156024820152741d985b1a59119c9bdb481b5d5cdd081899481cd95d605a1b604482015260640161095b565b6001600160401b0384161561215857846001600160401b0316846001600160401b0316116121585760405162461bcd60e51b815260206004820152602260248201527f76616c6964556e74696c206d7573742062652061667465722076616c696446726044820152616f6d60f01b606482015260840161095b565b6040518060c00160405280886005811115612175576121756138d9565b815260ff881660208201526001600160401b03808816604083015286166060820152841515608082015260a001839052600e60008960058111156121bb576121bb6138d9565b60058111156121cc576121cc6138d9565b8152602081019190915260400160002081518154829060ff191660018360058111156121fa576121fa6138d9565b02179055506020820151815460408401516060850151608086015169ffffffffffffffffff001990931661010060ff9095169490940269ffffffffffffffff0000191693909317620100006001600160401b03928316021768ffffffffffffffffff60501b1916600160501b919093160260ff60901b191691909117600160901b9115159190910217815560a082015160018201906122999082613e7f565b509050508660058111156122af576122af6138d9565b7f9d1370e3f53e4797635dd7b1804925bedcec137bb145bb941011d10aeb6499fe87878787876040516122e6959493929190613f3e565b60405180910390a250505050505050565b60008281526006602052604090206001015461231281612a2d565b6109fc8383612b5e565b60008061232883612835565b506000828152600960205260409020546101009061234590612df0565b9150915091565b600061235782612835565b60008281526010602052604081205460ff1690600e8183600581111561237f5761237f6138d9565b6005811115612390576123906138d9565b815260208101919091526040908101600020815160c081019092528054829060ff1660058111156123c3576123c36138d9565b60058111156123d4576123d46138d9565b8152815460ff6101008204811660208401526001600160401b0362010000830481166040850152600160501b8304166060840152600160901b909104161515608082015260018201805460a09092019161242d90613d28565b80601f016020809104026020016040519081016040528092919081815260200182805461245990613d28565b80156124a65780601f1061247b576101008083540402835291602001916124a6565b820191906000526020600020905b81548152906001019060200180831161248957829003601f168201915b505050505081525050905080604001516001600160401b03164210156124d0575060009392505050565b600081606001516001600160401b03161180156124f9575080606001516001600160401b031642115b15612508575060009392505050565b5060019392505050565b600061251d82612835565b60008281526010602052604081205460ff1690600e81836005811115612545576125456138d9565b6005811115612556576125566138d9565b815260208101919091526040908101600020815160c081019092528054829060ff166005811115612589576125896138d9565b600581111561259a5761259a6138d9565b8152815460ff6101008204811660208401526001600160401b0362010000830481166040850152600160501b8304166060840152600160901b909104161515608082015260018201805460a0909201916125f390613d28565b80601f016020809104026020016040519081016040528092919081815260200182805461261f90613d28565b801561266c5780601f106126415761010080835404028352916020019161266c565b820191906000526020600020905b81548152906001019060200180831161264f57829003601f168201915b505050919092525050506000858152600f602090815260409182902082518084018452905460ff811682526001600160401b03610100909104811692820192909252918301519293509091164210156126ca57506000949350505050565b600082606001516001600160401b03161180156126f3575081606001516001600160401b031642115b1561270357506000949350505050565b60ff826020015160ff161080156127285750816020015160ff16816000015160ff1610155b1561273857506000949350505050565b506001949350505050565b60006001600160e01b03198216637965db0b60e01b1480610828575061082882612e19565b6000818152600260205260409020546001600160a01b0316610dd75760405162461bcd60e51b8152602060048201526018602482015277115490cdcc8c4e881a5b9d985b1a59081d1bdad95b88125160421b604482015260640161095b565b600081815260046020526040902080546001600160a01b0319166001600160a01b03841690811790915581906127fc826116ca565b6001600160a01b03167f8c5be1e5ebec7d5bd14f71427d1e84f3dd0314c0f7b2291e5b200ac8c7c3b92560405160405180910390a45050565b610da1816116ca565b60008061284a836116ca565b9050806001600160a01b0316846001600160a01b0316148061289157506001600160a01b0380821660009081526005602090815260408083209388168352929052205460ff165b806120795750836001600160a01b03166128aa846108c0565b6001600160a01b031614949350505050565b826001600160a01b03166128cf826116ca565b6001600160a01b0316146128f55760405162461bcd60e51b815260040161095b90613f86565b6001600160a01b0382166129575760405162461bcd60e51b8152602060048201526024808201527f4552433732313a207472616e7366657220746f20746865207a65726f206164646044820152637265737360e01b606482015260840161095b565b6129648383836001612e69565b826001600160a01b0316612977826116ca565b6001600160a01b03161461299d5760405162461bcd60e51b815260040161095b90613f86565b600081815260046020908152604080832080546001600160a01b03199081169091556001600160a01b0387811680865260038552838620805460001901905590871680865283862080546001019055868652600290945282852080549092168417909155905184937fddf252ad1be2c89b69c2b068fc378daa952ba7f163c4a11628f55a4df523b3ef91a4505050565b610dd7813361304b565b60075460ff1615612a7d5760405162461bcd60e51b815260206004820152601060248201526f14185d5cd8589b194e881c185d5cd95960821b604482015260640161095b565b565b600260085403612ad15760405162461bcd60e51b815260206004820152601f60248201527f5265656e7472616e637947756172643a207265656e7472616e742063616c6c00604482015260640161095b565b6002600855565b612ae2828261199b565b610da15760008281526006602090815260408083206001600160a01b03851684529091529020805460ff19166001179055612b1a3390565b6001600160a01b0316816001600160a01b0316837f2f8788117e7eff1d82e926ec794901d17c78024a50270940304540a733656f0d60405160405180910390a45050565b612b68828261199b565b15610da15760008281526006602090815260408083206001600160a01b0385168085529252808320805460ff1916905551339285917ff6391f5c32d9c69d2a47ea670b442974b53935d1edc7fd64eb21e047a839171b9190a45050565b612bcd6130a4565b6007805460ff191690557f5db9ee0a495bf2e6ff9c91a7834c1ba4fdd244a5e8aa4e537bd38aeae4b073aa335b6040516001600160a01b03909116815260200160405180910390a1565b610da18282604051806020016040528060008152506130ed565b612c39612a37565b6007805460ff191660011790557f62e78cea01bee320cd4e420270b5ea74000d11b0c9f74754ebdbfc544b05a258612bfa3390565b816001600160a01b0316836001600160a01b031603612ccf5760405162461bcd60e51b815260206004820152601960248201527f4552433732313a20617070726f766520746f2063616c6c657200000000000000604482015260640161095b565b6001600160a01b03838116600081815260056020908152604080832094871680845294825291829020805460ff191686151590811790915591519182527f17307eab39ab6107e8899845ad3d59bd9653f200f220920489ca2b5937696c31910160405180910390a3505050565b612d478484846128bc565b612d5384848484613120565b611b525760405162461bcd60e51b815260040161095b90613fcb565b6000600a5460001480610a7c575050600a54600b54111590565b6060612d9482612768565b6000612d9e613216565b90506000815111612dbe5760405180602001604052806000815250612de9565b80612dc884613225565b604051602001612dd992919061401d565b6040516020818303038152906040525b9392505050565b60005b8115612e1457612e066001831682613dd8565b9050600182901c9150612df3565b919050565b60006001600160e01b031982166380ac58cd60e01b1480612e4a57506001600160e01b03198216635b5e139f60e01b145b8061082857506301ffc9a760e01b6001600160e01b0319831614610828565b6001600160a01b0384161580612e8657506001600160a01b038316155b611b525760008281526010602052604081205460ff1690600e81836005811115612eb257612eb26138d9565b6005811115612ec357612ec36138d9565b815260208101919091526040908101600020815160c081019092528054829060ff166005811115612ef657612ef66138d9565b6005811115612f0757612f076138d9565b8152815460ff6101008204811660208401526001600160401b0362010000830481166040850152600160501b8304166060840152600160901b909104161515608082015260018201805460a090920191612f6090613d28565b80601f0160208091040260200160405190810160405280929190818152602001828054612f8c90613d28565b8015612fd95780601f10612fae57610100808354040283529160200191612fd9565b820191906000526020600020905b815481529060010190602001808311612fbc57829003601f168201915b505050505081525050905080608001516130435760405162461bcd60e51b815260206004820152602560248201527f54686973204e46542063617465676f7279206973206e6f74207472616e7366656044820152647261626c6560d81b606482015260840161095b565b505050505050565b613055828261199b565b610da157613062816132b7565b61306d8360206132c9565b60405160200161307e92919061404c565b60408051601f198184030181529082905262461bcd60e51b825261095b91600401613758565b60075460ff16612a7d5760405162461bcd60e51b815260206004820152601460248201527314185d5cd8589b194e881b9bdd081c185d5cd95960621b604482015260640161095b565b6130f78383613464565b6131046000848484613120565b6109fc5760405162461bcd60e51b815260040161095b90613fcb565b60006001600160a01b0384163b1561273857604051630a85bd0160e11b81526001600160a01b0385169063150b7a02906131649033908990889088906004016140c1565b6020604051808303816000875af192505050801561319f575060408051601f3d908101601f1916820190925261319c918101906140fe565b60015b6131fc573d8080156131cd576040519150601f19603f3d011682016040523d82523d6000602084013e6131d2565b606091505b5080516000036131f45760405162461bcd60e51b815260040161095b90613fcb565b805181602001fd5b6001600160e01b031916630a85bd0160e11b149050612079565b6060600c805461083d90613d28565b60606000613232836135fd565b60010190506000816001600160401b03811115613251576132516139e6565b6040519080825280601f01601f19166020018201604052801561327b576020820181803683370190505b5090508181016020015b600019016f181899199a1a9b1b9c1cb0b131b232b360811b600a86061a8153600a850494508461328557509392505050565b60606108286001600160a01b03831660145b606060006132d883600261411b565b6132e3906002613dd8565b6001600160401b038111156132fa576132fa6139e6565b6040519080825280601f01601f191660200182016040528015613324576020820181803683370190505b509050600360fc1b8160008151811061333f5761333f613deb565b60200101906001600160f81b031916908160001a905350600f60fb1b8160018151811061336e5761336e613deb565b60200101906001600160f81b031916908160001a905350600061339284600261411b565b61339d906001613dd8565b90505b6001811115613415576f181899199a1a9b1b9c1cb0b131b232b360811b85600f16601081106133d1576133d1613deb565b1a60f81b8282815181106133e7576133e7613deb565b60200101906001600160f81b031916908160001a90535060049490941c9361340e81614132565b90506133a0565b508315612de95760405162461bcd60e51b815260206004820181905260248201527f537472696e67733a20686578206c656e67746820696e73756666696369656e74604482015260640161095b565b6001600160a01b0382166134ba5760405162461bcd60e51b815260206004820181905260248201527f4552433732313a206d696e7420746f20746865207a65726f2061646472657373604482015260640161095b565b6000818152600260205260409020546001600160a01b03161561351f5760405162461bcd60e51b815260206004820152601c60248201527f4552433732313a20746f6b656e20616c7265616479206d696e74656400000000604482015260640161095b565b61352d600083836001612e69565b6000818152600260205260409020546001600160a01b0316156135925760405162461bcd60e51b815260206004820152601c60248201527f4552433732313a20746f6b656e20616c7265616479206d696e74656400000000604482015260640161095b565b6001600160a01b038216600081815260036020908152604080832080546001019055848352600290915280822080546001600160a01b0319168417905551839291907fddf252ad1be2c89b69c2b068fc378daa952ba7f163c4a11628f55a4df523b3ef908290a45050565b60008072184f03e93ff9f4daa797ed6e38ed64bf6a1f0160401b831061363c5772184f03e93ff9f4daa797ed6e38ed64bf6a1f0160401b830492506040015b6d04ee2d6d415b85acef81000000008310613668576d04ee2d6d415b85acef8100000000830492506020015b662386f26fc10000831061368657662386f26fc10000830492506010015b6305f5e100831061369e576305f5e100830492506008015b61271083106136b257612710830492506004015b606483106136c4576064830492506002015b600a83106108285760010192915050565b6001600160e01b031981168114610dd757600080fd5b6000602082840312156136fd57600080fd5b8135612de9816136d5565b60005b8381101561372357818101518382015260200161370b565b50506000910152565b60008151808452613744816020860160208601613708565b601f01601f19169290920160200192915050565b602081526000612de9602083018461372c565b60006020828403121561377d57600080fd5b5035919050565b80356001600160a01b0381168114612e1457600080fd5b600080604083850312156137ae57600080fd5b6137b783613784565b946020939093013593505050565b803560068110612e1457600080fd5b6000602082840312156137e657600080fd5b612de9826137c5565b803560ff81168114612e1457600080fd5b6000806040838503121561381357600080fd5b82359150613823602084016137ef565b90509250929050565b60008060006060848603121561384157600080fd5b61384a84613784565b925061385860208501613784565b9150604084013590509250925092565b6000806000806080858703121561387e57600080fd5b5050823594602084013594506040840135936060013592509050565b600080604083850312156138ad57600080fd5b8235915061382360208401613784565b600080604083850312156138d057600080fd5b6137b7836137c5565b634e487b7160e01b600052602160045260246000fd5b6006811061390d57634e487b7160e01b600052602160045260246000fd5b9052565b6020810161082882846138ef565b60008060006040848603121561393457600080fd5b83356001600160401b038082111561394b57600080fd5b818601915086601f83011261395f57600080fd5b81358181111561396e57600080fd5b8760208260051b850101111561398357600080fd5b60209283019550935061399991860190506137c5565b90509250925092565b6020808252825182820181905260009190848201906040850190845b818110156139da578351835292840192918401916001016139be565b50909695505050505050565b634e487b7160e01b600052604160045260246000fd5b60006001600160401b0380841115613a1657613a166139e6565b604051601f8501601f19908116603f01168101908282118183101715613a3e57613a3e6139e6565b81604052809350858152868686011115613a5757600080fd5b858560208301376000602087830101525050509392505050565b600082601f830112613a8257600080fd5b612de9838335602085016139fc565b600060208284031215613aa357600080fd5b81356001600160401b03811115613ab957600080fd5b61207984828501613a71565b600060208284031215613ad757600080fd5b612de982613784565b80358015158114612e1457600080fd5b60008060008060808587031215613b0657600080fd5b84359350613b16602086016137ef565b9250613b2460408601613ae0565b9396929550929360600135925050565b60008060408385031215613b4757600080fd5b613b5083613784565b915061382360208401613ae0565b613b6881886138ef565b60ff8616602082015260006001600160401b038087166040840152808616606084015250831515608083015260c060a0830152613ba860c083018461372c565b98975050505050505050565b60008060008060808587031215613bca57600080fd5b613bd385613784565b9350613be160208601613784565b92506040850135915060608501356001600160401b03811115613c0357600080fd5b8501601f81018713613c1457600080fd5b613c23878235602084016139fc565b91505092959194509250565b60008060408385031215613c4257600080fd5b613c4b83613784565b9150613823602084016137c5565b80356001600160401b0381168114612e1457600080fd5b60008060008060008060c08789031215613c8957600080fd5b613c92876137c5565b9550613ca0602088016137ef565b9450613cae60408801613c59565b9350613cbc60608801613c59565b9250613cca60808801613ae0565b915060a08701356001600160401b03811115613ce557600080fd5b613cf189828a01613a71565b9150509295509295509295565b60008060408385031215613d1157600080fd5b613d1a83613784565b915061382360208401613784565b600181811c90821680613d3c57607f821691505b602082108103613d5c57634e487b7160e01b600052602260045260246000fd5b50919050565b634e487b7160e01b600052601160045260246000fd5b8181038181111561082857610828613d62565b6020808252602d908201527f4552433732313a2063616c6c6572206973206e6f7420746f6b656e206f776e6560408201526c1c881bdc88185c1c1c9bdd9959609a1b606082015260800190565b8082018082111561082857610828613d62565b634e487b7160e01b600052603260045260246000fd5b600060018201613e1357613e13613d62565b5060010190565b600060ff821660ff8103613e3057613e30613d62565b60010192915050565b601f8211156109fc57600081815260208120601f850160051c81016020861015613e605750805b601f850160051c820191505b8181101561304357828155600101613e6c565b81516001600160401b03811115613e9857613e986139e6565b613eac81613ea68454613d28565b84613e39565b602080601f831160018114613ee15760008415613ec95750858301515b600019600386901b1c1916600185901b178555613043565b600085815260208120601f198616915b82811015613f1057888601518255948401946001909101908401613ef1565b5085821015613f2e5787850151600019600388901b60f8161c191681555b5050505050600190811b01905550565b60ff8616815260006001600160401b038087166020840152808616604084015250831515606083015260a06080830152613f7b60a083018461372c565b979650505050505050565b60208082526025908201527f4552433732313a207472616e736665722066726f6d20696e636f72726563742060408201526437bbb732b960d91b606082015260800190565b60208082526032908201527f4552433732313a207472616e7366657220746f206e6f6e20455243373231526560408201527131b2b4bb32b91034b6b83632b6b2b73a32b960711b606082015260800190565b6000835161402f818460208801613708565b835190830190614043818360208801613708565b01949350505050565b7f416363657373436f6e74726f6c3a206163636f756e7420000000000000000000815260008351614084816017850160208801613708565b7001034b99036b4b9b9b4b733903937b6329607d1b60179184019182015283516140b5816028840160208801613708565b01602801949350505050565b6001600160a01b03858116825284166020820152604081018390526080606082018190526000906140f49083018461372c565b9695505050505050565b60006020828403121561411057600080fd5b8151612de9816136d5565b808202811582820484141761082857610828613d62565b60008161414157614141613d62565b50600019019056fe49832a61ffc5fda62992d5c20ff587008f7050ad5d7dfea93a1a39fe47360d25466c61674e46542076312e302e30202d2043617465676f72792d626173656420466c6167676564204e4654a2646970667358221220390a8102c7dd9f6d106f72f5ecbba15da78fc82a73c5b7b6e7c8a7ec0f13567464736f6c6343000814003360806040526014805460ff191690553480156200001b57600080fd5b50604051620038be380380620038be8339810160408190526200003e91620005ad565b600180556002805460ff191690556001600160a01b038416620000a85760405162461bcd60e51b815260206004820152601860248201527f496e76616c69642047696674657272612061646472657373000000000000000060448201526064015b60405180910390fd5b6001600160a01b038316620001005760405162461bcd60e51b815260206004820152601960248201527f496e76616c6964205265776172644e465420616464726573730000000000000060448201526064016200009f565b6001600160a01b038216620001585760405162461bcd60e51b815260206004820152601560248201527f496e76616c696420746f6b656e2061646472657373000000000000000000000060448201526064016200009f565b6001600160a01b038116620001b05760405162461bcd60e51b815260206004820152601560248201527f496e76616c6964206f776e65722061646472657373000000000000000000000060448201526064016200009f565b600280546001600160a01b0380871661010002610100600160a81b031990921691909117909155600380548583166001600160a01b03199182161790915560048054928516929091169190911790556200020c600082620004ef565b620002387f97667070c54ef182b0f5858b034beac1b6f3089aa2d3188bb1e8929f4fa9b92982620004ef565b620002647f82db594318110a04b6349ce48645aa69f0892751bc893d15e61d9e2b9c4630f582620004ef565b620004e56040805160808082018352600180835262015180602080850191825260008587018181526060808801868152838052600580865298517f05b8ccbb9d4d8fb16ea74ce3c29a41f1b461fbdaff4714a0d9a8eb05499746bc805460ff1990811692151592909217905595517f05b8ccbb9d4d8fb16ea74ce3c29a41f1b461fbdaff4714a0d9a8eb05499746bd5591517f05b8ccbb9d4d8fb16ea74ce3c29a41f1b461fbdaff4714a0d9a8eb05499746be5590517f05b8ccbb9d4d8fb16ea74ce3c29a41f1b461fbdaff4714a0d9a8eb05499746bf8054861691151591909117905587518087018952858152808401838152818a018481528284018881528886528a875292517f1471eb6eb2c5e789fc3de43f8ce62938c7d1836ec861730447e2ada8fd81017b8054891691151591909117905590517f1471eb6eb2c5e789fc3de43f8ce62938c7d1836ec861730447e2ada8fd81017c55517f1471eb6eb2c5e789fc3de43f8ce62938c7d1836ec861730447e2ada8fd81017d55517f1471eb6eb2c5e789fc3de43f8ce62938c7d1836ec861730447e2ada8fd81017e805486169115159190911790558751958601885284865285830182815268056bc75e2d63100000988701988952908601948552600290915294905291517f89832631fb3c3307a103ba2c84ab569c64d6182a18893dcd163f0f1c2090733a8054841691151591909117905591517f89832631fb3c3307a103ba2c84ab569c64d6182a18893dcd163f0f1c2090733b5591517f89832631fb3c3307a103ba2c84ab569c64d6182a18893dcd163f0f1c2090733c55517f89832631fb3c3307a103ba2c84ab569c64d6182a18893dcd163f0f1c2090733d8054909216901515179055565b505050506200060a565b6000828152602081815260408083206001600160a01b038516845290915290205460ff166200058c576000828152602081815260408083206001600160a01b03851684529091529020805460ff191660011790556200054b3390565b6001600160a01b0316816001600160a01b0316837f2f8788117e7eff1d82e926ec794901d17c78024a50270940304540a733656f0d60405160405180910390a45b5050565b80516001600160a01b0381168114620005a857600080fd5b919050565b60008060008060808587031215620005c457600080fd5b620005cf8562000590565b9350620005df6020860162000590565b9250620005ef6040860162000590565b9150620005ff6060860162000590565b905092959194509250565b6132a4806200061a6000396000f3fe608060405234801561001057600080fd5b50600436106102a05760003560e01c806391d1485411610167578063d5f60620116100ce578063ebab6d9b11610087578063ebab6d9b14610778578063ef44deb2146107a6578063f5b541a6146107b9578063f7c618c1146107e0578063f92e0559146107f3578063fc46925f1461081357600080fd5b8063d5f60620146106cd578063dca5d5c4146106e0578063e36cbbd1146106f3578063e6760dbc14610713578063e89e4ed614610726578063e9811abd1461076557600080fd5b8063be884a0311610120578063be884a03146105e4578063c59d484714610604578063c8ea4dd614610647578063cc98886b1461065a578063d1000337146106a7578063d547741f146106ba57600080fd5b806391d14854146105755780639ada7807146105885780639e281a98146105ab578063a217fddf146105be578063a4d19feb146105c6578063a91ca357146105db57600080fd5b80633f4ba83a1161020b5780635c55b927116101c45780635c55b927146104955780635c975abb146104a2578063739b3cb9146104ad5780638456cb59146104d8578063882322ab146104e05780638df02f0d1461050057600080fd5b80633f4ba83a1461041f5780633ffc6f9c1461042757806344171d171461043a5780634a38577b1461045a578063537d024e1461046d57806354fd4d501461048057600080fd5b80632994a0521161025d5780632994a052146103385780632b4e016c146103965780632f2ff15d146103b657806336568abe146103c9578063389f0025146103dc57806338a887c91461040c57600080fd5b806301ffc9a7146102a5578063053d2d17146102cd5780630681ca55146102e25780630c8d3e68146102f9578063137ef0491461030c578063248a9ca314610315575b600080fd5b6102b86102b3366004612b09565b61083b565b60405190151581526020015b60405180910390f35b6102e06102db366004612b4f565b610872565b005b6102eb60095481565b6040519081526020016102c4565b6102e0610307366004612b4f565b61089e565b6102eb60115481565b6102eb610323366004612b7b565b60009081526020819052604090206001015490565b610372610346366004612ba3565b600560205260009081526040902080546001820154600283015460039093015460ff9283169391921684565b604080519415158552602085019390935291830152151560608201526080016102c4565b6102eb6103a4366004612bbe565b600c6020526000908152604090205481565b6102e06103c4366004612b4f565b610a50565b6102e06103d7366004612b4f565b610a7a565b6002546103f49061010090046001600160a01b031681565b6040516001600160a01b0390911681526020016102c4565b6102e061041a366004612bd9565b610af4565b6102e0610ce8565b6102e0610435366004612b7b565b610cfe565b6102eb610448366004612bbe565b600d6020526000908152604090205481565b6102eb610468366004612c0e565b610dc3565b6102e061047b366004612c47565b610df4565b610488610efe565b6040516102c49190612cb9565b6014546102b89060ff1681565b60025460ff166102b8565b6102eb6104bb366004612cec565b600a60209081526000928352604080842090915290825290205481565b6102e0610f1e565b6102eb6104ee366004612ba3565b60126020526000908152604090205481565b61054b61050e366004612d16565b6006602090815260009283526040808420909152908252902080546001820154600283015460038401546004909401549293919290919060ff1685565b6040805195865260208601949094529284019190915260608301521515608082015260a0016102c4565b6102b8610583366004612b4f565b610f31565b6102b8610596366004612b7b565b600e6020526000908152604090205460ff1681565b6102e06105b9366004612c0e565b610f5a565b6102eb600081565b6102eb60008051602061320683398151915281565b6102eb60155481565b6105f76105f2366004612b7b565b611066565b6040516102c49190612d7c565b61060c611215565b604080519889526020890197909752958701949094526060860192909252608085015260a084015260c083015260e0820152610100016102c4565b6003546103f4906001600160a01b031681565b610692610668366004612e02565b60076020908152600093845260408085208252928452828420905282529020805460019091015482565b604080519283526020830191909152016102c4565b6102b86106b5366004612bbe565b6113bb565b6102e06106c8366004612b4f565b6114d4565b6102e06106db366004612e35565b6114f9565b6102b86106ee366004612c0e565b611646565b6102eb610701366004612e7f565b60136020526000908152604090205481565b6102e0610721366004612ea8565b61173c565b610750610734366004612b7b565b6008602052600090815260409020805460019091015460ff1682565b604080519283529015156020830152016102c4565b6102e0610773366004612b7b565b6117c0565b6102b8610786366004612c0e565b600b60209081526000928352604080842090915290825290205460ff1681565b6102e06107b4366004612ed8565b611862565b6102eb7f97667070c54ef182b0f5858b034beac1b6f3089aa2d3188bb1e8929f4fa9b92981565b6004546103f4906001600160a01b031681565b610806610801366004612bbe565b6119d5565b6040516102c49190612f1c565b610826610821366004612b7b565b611a41565b6040516102c499989796959493929190612f60565b60006001600160e01b03198216637965db0b60e01b148061086c57506301ffc9a760e01b6001600160e01b03198316145b92915050565b61087a611ab0565b610882611af8565b61089133600084846000611b51565b61089a60018055565b5050565b6108a6611ab0565b6108ae611af8565b600260005260056020908152604080516080810182527f89832631fb3c3307a103ba2c84ab569c64d6182a18893dcd163f0f1c2090733a5460ff908116151582527f89832631fb3c3307a103ba2c84ab569c64d6182a18893dcd163f0f1c2090733b54938201939093527f89832631fb3c3307a103ba2c84ab569c64d6182a18893dcd163f0f1c2090733c549181018290527f89832631fb3c3307a103ba2c84ab569c64d6182a18893dcd163f0f1c2090733d549092161515606083015215610a37576004805460408381015190516323b872dd60e01b8152339381019390935230602484015260448301526001600160a01b0316906323b872dd906064016020604051808303816000875af11580156109cc573d6000803e3d6000fd5b505050506040513d601f19601f820116820180604052508101906109f09190612fc4565b610a375760405162461bcd60e51b815260206004820152601360248201527210dbdcdd081c185e5b595b9d0819985a5b1959606a1b60448201526064015b60405180910390fd5b610a4633600285856000611b51565b5061089a60018055565b600082815260208190526040902060010154610a6b81612257565b610a758383612261565b505050565b6001600160a01b0381163314610aea5760405162461bcd60e51b815260206004820152602f60248201527f416363657373436f6e74726f6c3a2063616e206f6e6c792072656e6f756e636560448201526e103937b632b9903337b91039b2b63360891b6064820152608401610a2e565b61089a82826122e5565b610afc611ab0565b610b04611af8565b60008381526008602052604090206001015460ff16610b5d5760405162461bcd60e51b8152602060048201526015602482015274135a5b195cdd1bdb99481b9bdd08195b98589b1959605a1b6044820152606401610a2e565b336000908152600b6020908152604080832086845290915290205460ff1615610bb85760405162461bcd60e51b815260206004820152600d60248201526c20b63932b0b23c90323930bbb760991b6044820152606401610a2e565b600254604051631cfc1f7560e01b815233600482015260009161010090046001600160a01b031690631cfc1f7590602401602060405180830381865afa158015610c06573d6000803e3d6000fd5b505050506040513d601f19601f82011682018060405250810190610c2a9190612fe1565b600085815260086020526040902054909150811015610c835760405162461bcd60e51b8152602060048201526015602482015274151a1c995cda1bdb19081b9bdd081c995858da1959605a1b6044820152606401610a2e565b336000818152600b60209081526040808320888452909152808220805460ff19166001179055518692917fc7615fd2a9e5ca011a9060de16ea863ad925a2c5d7d208e638e2666bd66e609b91a3610cde336001858588611b51565b50610a7560018055565b6000610cf381612257565b610cfb61234a565b50565b7f97667070c54ef182b0f5858b034beac1b6f3089aa2d3188bb1e8929f4fa9b929610d2881612257565b81610d695760405162461bcd60e51b8152602060048201526011602482015270092dcecc2d8d2c840e6cacac840d0c2e6d607b1b6044820152606401610a2e565b336000818152600c60209081526040808320869055600d82529182902042908190558251868152918201527f20cadb8a891c89a2f74ec69535f426b8708d7a79bd08f98fb94e88e7f10ba5d4910160405180910390a25050565b60106020528160005260406000208181548110610ddf57600080fd5b90600052602060002001600091509150505481565b600080516020613206833981519152610e0c81612257565b600085118015610e1d575060048511155b610e585760405162461bcd60e51b815260206004820152600c60248201526b496e76616c69642072616e6b60a01b6044820152606401610a2e565b60405180604001604052808481526020018381525060076000886002811115610e8357610e83612d32565b6002811115610e9457610e94612d32565b815260200190815260200160002060008781526020019081526020016000206000866003811115610ec757610ec7612d32565b6003811115610ed857610ed8612d32565b815260208082019290925260400160002082518155910151600190910155505050505050565b606060405180608001604052806049815260200161322660499139905090565b6000610f2981612257565b610cfb61239c565b6000918252602082815260408084206001600160a01b0393909316845291905290205460ff1690565b6000610f6581612257565b6001600160a01b038316610faf5760405162461bcd60e51b8152602060048201526011602482015270125b9d985b1a59081c9958da5c1a595b9d607a1b6044820152606401610a2e565b6004805460405163a9059cbb60e01b81526001600160a01b03868116938201939093526024810185905291169063a9059cbb906044016020604051808303816000875af1158015611004573d6000803e3d6000fd5b505050506040513d601f19601f820116820180604052508101906110289190612fc4565b610a755760405162461bcd60e51b815260206004820152600f60248201526e151c985b9cd9995c8819985a5b1959608a1b6044820152606401610a2e565b6110b9604080516101208101909152600080825260208201908152602001600081526020016000815260200160008152602001600081526020016000801916815260200160008152602001600081525090565b600f5482106110fa5760405162461bcd60e51b815260206004820152600d60248201526c092dcecc2d8d2c840d2dcc8caf609b1b6044820152606401610a2e565b600f828154811061110d5761110d612ffa565b600091825260209182902060408051610120810190915260069092020180546001600160a01b0381168352919290919083019060ff600160a01b90910416600281111561115c5761115c612d32565b600281111561116d5761116d612d32565b81528154602090910190600160a81b900460ff16600381111561119257611192612d32565b60038111156111a3576111a3612d32565b81528154602090910190600160b01b900460ff1660018111156111c8576111c8612d32565b60018111156111d9576111d9612d32565b81526001820154602082015260028201546040820152600382015460608201526004820154608082015260059091015460a09091015292915050565b6000806000806000806000806011546012600080600281111561123a5761123a612d32565b600281111561124b5761124b612d32565b815260200190815260200160002054601260006001600281111561127157611271612d32565b600281111561128257611282612d32565b815260200190815260200160002054601260006002808111156112a7576112a7612d32565b60028111156112b8576112b8612d32565b815260200190815260200160002054601360008060038111156112dd576112dd612d32565b60038111156112ee576112ee612d32565b815260200190815260200160002054601360006001600381111561131457611314612d32565b600381111561132557611325612d32565b815260200190815260200160002054601360006002600381111561134b5761134b612d32565b600381111561135c5761135c612d32565b8152602001908152602001600020546013600060038081111561138157611381612d32565b600381111561139257611392612d32565b815260200190815260200160002054975097509750975097509750975097509091929394959697565b600080805260056020908152604080516080810182527f05b8ccbb9d4d8fb16ea74ce3c29a41f1b461fbdaff4714a0d9a8eb05499746bc5460ff90811615801583527f05b8ccbb9d4d8fb16ea74ce3c29a41f1b461fbdaff4714a0d9a8eb05499746bd54948301949094527f05b8ccbb9d4d8fb16ea74ce3c29a41f1b461fbdaff4714a0d9a8eb05499746be54928201929092527f05b8ccbb9d4d8fb16ea74ce3c29a41f1b461fbdaff4714a0d9a8eb05499746bf5490911615156060820152908061148957508060600151155b156114975750600092915050565b6020818101516001600160a01b0385166000908152600a83526040808220828052909352918220546114c99190613026565b421015949350505050565b6000828152602081905260409020600101546114ef81612257565b610a7583836122e5565b60008051602061320683398151915261151181612257565b600086118015611522575060048611155b61155d5760405162461bcd60e51b815260206004820152600c60248201526b496e76616c69642072616e6b60a01b6044820152606401610a2e565b6040518060a00160405280868152602001858152602001848152602001838152602001600115158152506006600089600281111561159d5761159d612d32565b60028111156115ae576115ae612d32565b8152602080820192909252604090810160009081208a8252835281902083518155918301516001830155828101516002830155606083015160038301556080909201516004909101805460ff1916911515919091179055517fbd2369ae27e68e55481bc47f632366f456136b58f5c8ae73ac89da9ee38b081e906116359089908990613039565b60405180910390a150505050505050565b600060095482106116595750600061086c565b60008281526008602052604090206001015460ff1661167a5750600061086c565b6001600160a01b0383166000908152600b6020908152604080832085845290915290205460ff16156116ae5750600061086c565b600254604051631cfc1f7560e01b81526001600160a01b03858116600483015260009261010090041690631cfc1f7590602401602060405180830381865afa1580156116fe573d6000803e3d6000fd5b505050506040513d601f19601f820116820180604052508101906117229190612fe1565b600084815260086020526040902054111591505092915050565b60008051602061320683398151915261175481612257565b600954831061179c5760405162461bcd60e51b8152602060048201526014602482015273125b9d985b1a59081b5a5b195cdd1bdb9948125160621b6044820152606401610a2e565b50600091825260086020526040909120600101805460ff1916911515919091179055565b6000805160206132068339815191526117d881612257565b60098054600091826117e983613054565b9091555060408051808201825285815260016020808301828152600086815260088352859020935184555192909101805460ff191692151592909217909155905185815291925082917feb0a448faf1db18876f6c843c35c660823db4038188aedad797bd3ef46ada371910160405180910390a2505050565b60008051602061320683398151915261187a81612257565b836005600087600281111561189157611891612d32565b60028111156118a2576118a2612d32565b815260200190815260200160002060000160006101000a81548160ff02191690831515021790555082600560008760028111156118e1576118e1612d32565b60028111156118f2576118f2612d32565b815260200190815260200160002060010181905550816005600087600281111561191e5761191e612d32565b600281111561192f5761192f612d32565b81526020019081526020016000206002018190555060016005600087600281111561195c5761195c612d32565b600281111561196d5761196d612d32565b815260200190815260200160002060030160006101000a81548160ff0219169083151502179055507fcbd2e027adfb5781f0f0c8f3a8e347aa5b0e3871f8f7c729215e87fdc08fd1bf85856040516119c692919061306d565b60405180910390a15050505050565b6001600160a01b038116600090815260106020908152604091829020805483518184028101840190945280845260609392830182828015611a3557602002820191906000526020600020905b815481526020019060010190808311611a21575b50505050509050919050565b600f8181548110611a5157600080fd5b60009182526020909120600690910201805460018201546002830154600384015460048501546005909501546001600160a01b038516965060ff600160a01b8604811696600160a81b8704821696600160b01b90049091169493929189565b60025460ff1615611af65760405162461bcd60e51b815260206004820152601060248201526f14185d5cd8589b194e881c185d5cd95960821b6044820152606401610a2e565b565b600260015403611b4a5760405162461bcd60e51b815260206004820152601f60248201527f5265656e7472616e637947756172643a207265656e7472616e742063616c6c006044820152606401610a2e565b6002600155565b600060056000866002811115611b6957611b69612d32565b6002811115611b7a57611b7a612d32565b815260208082019290925260409081016000208151608081018352815460ff908116151582526001830154948201949094526002820154928101929092526003015490911615801560608301819052919250611bd4575080515b611c155760405162461bcd60e51b815260206004820152601260248201527154726967676572206e6f742061637469766560701b6044820152606401610a2e565b602081015115611cc1576020808201516001600160a01b0388166000908152600a909252604082209091876002811115611c5157611c51612d32565b6002811115611c6257611c62612d32565b815260200190815260200160002054611c7b9190613026565b421015611cc15760405162461bcd60e51b815260206004820152601460248201527310dbdbdb191bdddb881b9bdd08195b185c1cd95960621b6044820152606401610a2e565b611ccb84846123d9565b611d065760405162461bcd60e51b815260206004820152600c60248201526b125b9d985b1a59081cd9595960a21b6044820152606401610a2e565b6000848152600e602052604090205460ff1615611d595760405162461bcd60e51b815260206004820152601160248201527014d9595908185b1c9958591e481d5cd959607a1b6044820152606401610a2e565b6000848152600e6020526040808220805460ff191660011790556002549051631f72ef2960e21b81526001600160a01b03898116600483015261010090920490911690637dcbbca490602401602060405180830381865afa158015611dc2573d6000803e3d6000fd5b505050506040513d601f19601f82011682018060405250810190611de69190612fe1565b905060008111611e2b5760405162461bcd60e51b815260206004820152601060248201526f5573657220686173206e6f2072616e6b60801b6044820152606401610a2e565b600060066000886002811115611e4357611e43612d32565b6002811115611e5457611e54612d32565b8152602080820192909252604090810160009081208582528352819020815160a08101835281548152600182015493810193909352600281015491830191909152600381015460608301526004015460ff16151560808201819052909150611ef75760405162461bcd60e51b815260206004820152601660248201527552657761726420706f6f6c206e6f742061637469766560501b6044820152606401610a2e565b6000611f04878a84612428565b90506000806000611f188c8c88878c61257e565b6001600160a01b038f166000908152600a6020526040812093965091945092504291908d6002811115611f4d57611f4d612d32565b6002811115611f5e57611f5e612d32565b81526020019081526020016000208190555060116000815480929190611f8390613054565b9190505550601260008c6002811115611f9e57611f9e612d32565b6002811115611faf57611faf612d32565b81526020019081526020016000206000815480929190611fce90613054565b919050555060136000856003811115611fe957611fe9612d32565b6003811115611ffa57611ffa612d32565b8152602001908152602001600020600081548092919061201990613054565b919050555060006040518061012001604052808e6001600160a01b031681526020018d600281111561204d5761204d612d32565b815260200186600381111561206457612064612d32565b815260200185600181111561207b5761207b612d32565b8152602080820186905260408201859052606082018e905242608083015260a0909101899052600f8054600181018255600091909152825160069091027f8d1108e10bcb7c27dddfc02ed9d693a074039d026cf4ea4240b40f7d581ac8020180546001600160a01b039092166001600160a01b03198316811782559284015193945084939092909183916001600160a81b031990911617600160a01b83600281111561212957612129612d32565b021790555060408201518154829060ff60a81b1916600160a81b83600381111561215557612155612d32565b021790555060608201518154829060ff60b01b1916600160b01b83600181111561218157612181612d32565b0217905550608082015160018083019190915560a0830151600283015560c0830151600383015560e08301516004830155610100909201516005909101556001600160a01b038e166000908152601060205260409020600f5490916121e59161308a565b815460018101835560009283526020909220909101556040516001600160a01b038e16907f4ff1e863d8eac27ff40385c8e26794883036d4a7b7f1551df7456f465b2f15a590612240908f9089908990899089908f9061309d565b60405180910390a250505050505050505050505050565b610cfb81336128b9565b61226b8282610f31565b61089a576000828152602081815260408083206001600160a01b03851684529091529020805460ff191660011790556122a13390565b6001600160a01b0316816001600160a01b0316837f2f8788117e7eff1d82e926ec794901d17c78024a50270940304540a733656f0d60405160405180910390a45050565b6122ef8282610f31565b1561089a576000828152602081815260408083206001600160a01b0385168085529252808320805460ff1916905551339285917ff6391f5c32d9c69d2a47ea670b442974b53935d1edc7fd64eb21e047a839171b9190a45050565b612352612912565b6002805460ff191690557f5db9ee0a495bf2e6ff9c91a7834c1ba4fdd244a5e8aa4e537bd38aeae4b073aa335b6040516001600160a01b03909116815260200160405180910390a1565b6123a4611ab0565b6002805460ff191660011790557f62e78cea01bee320cd4e420270b5ea74000d11b0c9f74754ebdbfc544b05a25861237f3390565b600080836040516020016123ef91815260200190565b60408051601f1981840301815291815281516020928301206001600160a01b0386166000908152600c9093529120541491505092915050565b60008082606001518360400151846020015185600001516124499190613026565b6124539190613026565b61245d9190613026565b9050600081116124a75760405162461bcd60e51b8152602060048201526015602482015274139bc81dd95a59da1d1cc818dbdb999a59dd5c9959605a1b6044820152606401610a2e565b60408051602081018790526bffffffffffffffffffffffff19606087901b169181019190915242605482015243607482015260009082906094016040516020818303038152906040528051906020012060001c61250491906130e2565b845190915081101561251b57600092505050612577565b6020840151845161252c9190613026565b81101561253e57600192505050612577565b6040840151602085015185516125549190613026565b61255e9190613026565b81101561257057600292505050612577565b6003925050505b9392505050565b6000806000806007600089600281111561259a5761259a612d32565b60028111156125ab576125ab612d32565b8152602001908152602001600020600088815260200190815260200160002060008760038111156125de576125de612d32565b60038111156125ef576125ef612d32565b815260208082019290925260409081016000208151808301909252805480835260019091015492820183905290925015801591151590829061262e5750805b156126a25760006002428d60405160200161266592919091825260601b6bffffffffffffffffffffffff1916602082015260340190565b6040516020818303038152906040528051906020012060001c61268891906130e2565b90508060000361269b57600091506126a0565b600092505b505b80156127985760008b8b89426040516020016126c19493929190613104565b6040516020818303038152906040528051906020012090506000600360009054906101000a90046001600160a01b03166001600160a01b0316638dc78efa8e8760200151856040518463ffffffff1660e01b8152600401612740939291906001600160a01b039390931683526020830191909152604082015260600190565b6020604051808303816000875af115801561275f573d6000803e3d6000fd5b505050506040513d601f19601f820116820180604052508101906127839190612fe1565b600198506000975095506128ae945050505050565b811561286f5760048054845160405163a9059cbb60e01b81526001600160a01b038f811694820194909452602481019190915291169063a9059cbb906044016020604051808303816000875af11580156127f6573d6000803e3d6000fd5b505050506040513d601f19601f8201168201806040525081019061281a9190612fc4565b61285e5760405162461bcd60e51b8152602060048201526015602482015274151bdad95b881d1c985b9cd9995c8819985a5b1959605a1b6044820152606401610a2e565b5050516000935091508290506128ae565b60405162461bcd60e51b8152602060048201526014602482015273139bc81c995dd85c990818dbdb999a59dd5c995960621b6044820152606401610a2e565b955095509592505050565b6128c38282610f31565b61089a576128d08161295b565b6128db83602061296d565b6040516020016128ec92919061314c565b60408051601f198184030181529082905262461bcd60e51b8252610a2e91600401612cb9565b60025460ff16611af65760405162461bcd60e51b815260206004820152601460248201527314185d5cd8589b194e881b9bdd081c185d5cd95960621b6044820152606401610a2e565b606061086c6001600160a01b03831660145b6060600061297c8360026131c1565b612987906002613026565b67ffffffffffffffff81111561299f5761299f6131d8565b6040519080825280601f01601f1916602001820160405280156129c9576020820181803683370190505b509050600360fc1b816000815181106129e4576129e4612ffa565b60200101906001600160f81b031916908160001a905350600f60fb1b81600181518110612a1357612a13612ffa565b60200101906001600160f81b031916908160001a9053506000612a378460026131c1565b612a42906001613026565b90505b6001811115612aba576f181899199a1a9b1b9c1cb0b131b232b360811b85600f1660108110612a7657612a76612ffa565b1a60f81b828281518110612a8c57612a8c612ffa565b60200101906001600160f81b031916908160001a90535060049490941c93612ab3816131ee565b9050612a45565b5083156125775760405162461bcd60e51b815260206004820181905260248201527f537472696e67733a20686578206c656e67746820696e73756666696369656e746044820152606401610a2e565b600060208284031215612b1b57600080fd5b81356001600160e01b03198116811461257757600080fd5b80356001600160a01b0381168114612b4a57600080fd5b919050565b60008060408385031215612b6257600080fd5b82359150612b7260208401612b33565b90509250929050565b600060208284031215612b8d57600080fd5b5035919050565b803560038110612b4a57600080fd5b600060208284031215612bb557600080fd5b61257782612b94565b600060208284031215612bd057600080fd5b61257782612b33565b600080600060608486031215612bee57600080fd5b8335925060208401359150612c0560408501612b33565b90509250925092565b60008060408385031215612c2157600080fd5b612c2a83612b33565b946020939093013593505050565b803560048110612b4a57600080fd5b600080600080600060a08688031215612c5f57600080fd5b612c6886612b94565b945060208601359350612c7d60408701612c38565b94979396509394606081013594506080013592915050565b60005b83811015612cb0578181015183820152602001612c98565b50506000910152565b6020815260008251806020840152612cd8816040850160208701612c95565b601f01601f19169190910160400192915050565b60008060408385031215612cff57600080fd5b612d0883612b33565b9150612b7260208401612b94565b60008060408385031215612d2957600080fd5b612c2a83612b94565b634e487b7160e01b600052602160045260246000fd5b60038110612d5857612d58612d32565b9052565b60048110612d5857612d58612d32565b60028110612d5857612d58612d32565b81516001600160a01b03168152602080830151610120830191612da190840182612d48565b506040830151612db46040840182612d5c565b506060830151612dc76060840182612d6c565b506080830151608083015260a083015160a083015260c083015160c083015260e083015160e083015261010080840151818401525092915050565b600080600060608486031215612e1757600080fd5b612e2084612b94565b925060208401359150612c0560408501612c38565b60008060008060008060c08789031215612e4e57600080fd5b612e5787612b94565b9860208801359850604088013597606081013597506080810135965060a00135945092505050565b600060208284031215612e9157600080fd5b61257782612c38565b8015158114610cfb57600080fd5b60008060408385031215612ebb57600080fd5b823591506020830135612ecd81612e9a565b809150509250929050565b60008060008060808587031215612eee57600080fd5b612ef785612b94565b93506020850135612f0781612e9a565b93969395505050506040820135916060013590565b6020808252825182820181905260009190848201906040850190845b81811015612f5457835183529284019291840191600101612f38565b50909695505050505050565b6001600160a01b038a1681526101208101612f7e602083018b612d48565b612f8b604083018a612d5c565b612f986060830189612d6c565b608082019690965260a081019490945260c084019290925260e083015261010090910152949350505050565b600060208284031215612fd657600080fd5b815161257781612e9a565b600060208284031215612ff357600080fd5b5051919050565b634e487b7160e01b600052603260045260246000fd5b634e487b7160e01b600052601160045260246000fd5b8082018082111561086c5761086c613010565b604081016130478285612d48565b8260208301529392505050565b60006001820161306657613066613010565b5060010190565b6040810161307b8285612d48565b82151560208301529392505050565b8181038181111561086c5761086c613010565b60c081016130ab8289612d48565b6130b86020830188612d5c565b6130c56040830187612d6c565b8460608301528360808301528260a0830152979650505050505050565b6000826130ff57634e487b7160e01b600052601260045260246000fd5b500690565b6bffffffffffffffffffffffff198560601b16815260006003851061312b5761312b612d32565b5060f89390931b601484015260158301919091526035820152605501919050565b7f416363657373436f6e74726f6c3a206163636f756e7420000000000000000000815260008351613184816017850160208801612c95565b7001034b99036b4b9b9b4b733903937b6329607d1b60179184019182015283516131b5816028840160208801612c95565b01602801949350505050565b808202811582820484141761086c5761086c613010565b634e487b7160e01b600052604160045260246000fd5b6000816131fd576131fd613010565b50600019019056fe82db594318110a04b6349ce48645aa69f0892751bc893d15e61d9e2b9c4630f552616e646f6d526577617264456e67696e652076312e302e30202d20436f6d6d69746d656e742d6261736564204f66662d636861696e2052616e646f6d20285652462d726561647929a26469706673582212207fd41eddea07717c3218935204ba3c3934887db5f6c6d4551736cbcf85f07e4e64736f6c634300081400334769667465727261466163746f727956322076312e302e30202d204d756c74692d54656e616e742053616153204172636869746563747572657613a25ecc738585a232ad50a301178f12b3ba8887d13e138b523c4269c47689a2646970667358221220f02580448b766f413526996256f63d9bb23597e08b4e7291ddbd5648609fed6564736f6c63430008140033",
  "linkReferences": {},
  "deployedLinkReferences": {}
}