{
  "_format": "hh-sol-artifact-1",
  "contractName": "RankPlanRegistry",
  "sourceName": "contracts/RankPlanRegistry.sol",
  "abi": [
    {
      "inputs": [],
      "stateMutability": "nonpayable",
      "type": "constructor"
    },
    {
      "anonymous": false,
      "inputs": [
        {
          "indexed": true,
          "internalType": "enum RankPlanRegistry.PlanType",
          "name": "planType",
          "type": "uint8"
        }
      ],
      "name": "PlanActivated",
      "type": "event"
    },
    {
      "anonymous": false,
      "inputs": [
        {
          "indexed": true,
          "internalType": "enum RankPlanRegistry.PlanType",
          "name": "planType",
          "type": "uint8"
        },
        {
          "indexed": false,
          "internalType": "string",
          "name": "name",
          "type": "string"
        },
        {
          "indexed": false,
          "internalType": "uint256",
          "name": "stages",
          "type": "uint256"
        }
      ],
      "name": "PlanCreated",
      "type": "event"
    },
    {
      "anonymous": false,
      "inputs": [
        {
          "indexed": true,
          "internalType": "enum RankPlanRegistry.PlanType",
          "name": "planType",
          "type": "uint8"
        }
      ],
      "name": "PlanDeactivated",
      "type": "event"
    },
    {
      "anonymous": false,
      "inputs": [
        {
          "indexed": true,
          "internalType": "enum RankPlanRegistry.PlanType",
          "name": "planType",
          "type": "uint8"
        },
        {
          "indexed": false,
          "internalType": "string",
          "name": "name",
          "type": "string"
        }
      ],
      "name": "PlanUpdated",
      "type": "event"
    },
    {
      "anonymous": false,
      "inputs": [
        {
          "indexed": true,
          "internalType": "bytes32",
          "name": "role",
          "type": "bytes32"
        },
        {
          "indexed": true,
          "internalType": "bytes32",
          "name": "previousAdminRole",
          "type": "bytes32"
        },
        {
          "indexed": true,
          "internalType": "bytes32",
          "name": "newAdminRole",
          "type": "bytes32"
        }
      ],
      "name": "RoleAdminChanged",
      "type": "event"
    },
    {
      "anonymous": false,
      "inputs": [
        {
          "indexed": true,
          "internalType": "bytes32",
          "name": "role",
          "type": "bytes32"
        },
        {
          "indexed": true,
          "internalType": "address",
          "name": "account",
          "type": "address"
        },
        {
          "indexed": true,
          "internalType": "address",
          "name": "sender",
          "type": "address"
        }
      ],
      "name": "RoleGranted",
      "type": "event"
    },
    {
      "anonymous": false,
      "inputs": [
        {
          "indexed": true,
          "internalType": "bytes32",
          "name": "role",
          "type": "bytes32"
        },
        {
          "indexed": true,
          "internalType": "address",
          "name": "account",
          "type": "address"
        },
        {
          "indexed": true,
          "internalType": "address",
          "name": "sender",
          "type": "address"
        }
      ],
      "name": "RoleRevoked",
      "type": "event"
    },
    {
      "inputs": [],
      "name": "ADMIN_ROLE",
      "outputs": [
        {
          "internalType": "bytes32",
          "name": "",
          "type": "bytes32"
        }
      ],
      "stateMutability": "view",
      "type": "function"
    },
    {
      "inputs": [],
      "name": "DEFAULT_ADMIN_ROLE",
      "outputs": [
        {
          "internalType": "bytes32",
          "name": "",
          "type": "bytes32"
        }
      ],
      "stateMutability": "view",
      "type": "function"
    },
    {
      "inputs": [],
      "name": "SUPER_ADMIN_ROLE",
      "outputs": [
        {
          "internalType": "bytes32",
          "name": "",
          "type": "bytes32"
        }
      ],
      "stateMutability": "view",
      "type": "function"
    },
    {
      "inputs": [
        {
          "internalType": "enum RankPlanRegistry.PlanType",
          "name": "planType",
          "type": "uint8"
        }
      ],
      "name": "activatePlan",
      "outputs": [],
      "stateMutability": "nonpayable",
      "type": "function"
    },
    {
      "inputs": [
        {
          "internalType": "enum RankPlanRegistry.PlanType",
          "name": "planType",
          "type": "uint8"
        }
      ],
      "name": "deactivatePlan",
      "outputs": [],
      "stateMutability": "nonpayable",
      "type": "function"
    },
    {
      "inputs": [
        {
          "internalType": "enum RankPlanRegistry.PlanType",
          "name": "planType",
          "type": "uint8"
        }
      ],
      "name": "getPlan",
      "outputs": [
        {
          "components": [
            {
              "internalType": "string",
              "name": "name",
              "type": "string"
            },
            {
              "internalType": "string",
              "name": "description",
              "type": "string"
            },
            {
              "internalType": "uint256",
              "name": "stages",
              "type": "uint256"
            },
            {
              "internalType": "uint256[]",
              "name": "thresholds",
              "type": "uint256[]"
            },
            {
              "internalType": "string[]",
              "name": "rankNames",
              "type": "string[]"
            },
            {
              "internalType": "string[]",
              "name": "uriTemplates",
              "type": "string[]"
            },
            {
              "internalType": "bool",
              "name": "isActive",
              "type": "bool"
            }
          ],
          "internalType": "struct RankPlanRegistry.RankPlan",
          "name": "",
          "type": "tuple"
        }
      ],
      "stateMutability": "view",
      "type": "function"
    },
    {
      "inputs": [],
      "name": "getPlanUsageStats",
      "outputs": [
        {
          "internalType": "uint256",
          "name": "",
          "type": "uint256"
        },
        {
          "internalType": "uint256",
          "name": "",
          "type": "uint256"
        },
        {
          "internalType": "uint256",
          "name": "",
          "type": "uint256"
        }
      ],
      "stateMutability": "view",
      "type": "function"
    },
    {
      "inputs": [
        {
          "internalType": "enum RankPlanRegistry.PlanType",
          "name": "planType",
          "type": "uint8"
        },
        {
          "internalType": "uint256",
          "name": "level",
          "type": "uint256"
        }
      ],
      "name": "getRankName",
      "outputs": [
        {
          "internalType": "string",
          "name": "",
          "type": "string"
        }
      ],
      "stateMutability": "view",
      "type": "function"
    },
    {
      "inputs": [
        {
          "internalType": "bytes32",
          "name": "role",
          "type": "bytes32"
        }
      ],
      "name": "getRoleAdmin",
      "outputs": [
        {
          "internalType": "bytes32",
          "name": "",
          "type": "bytes32"
        }
      ],
      "stateMutability": "view",
      "type": "function"
    },
    {
      "inputs": [
        {
          "internalType": "enum RankPlanRegistry.PlanType",
          "name": "planType",
          "type": "uint8"
        },
        {
          "internalType": "uint256",
          "name": "level",
          "type": "uint256"
        }
      ],
      "name": "getThreshold",
      "outputs": [
        {
          "internalType": "uint256",
          "name": "",
          "type": "uint256"
        }
      ],
      "stateMutability": "view",
      "type": "function"
    },
    {
      "inputs": [
        {
          "internalType": "bytes32",
          "name": "role",
          "type": "bytes32"
        },
        {
          "internalType": "address",
          "name": "account",
          "type": "address"
        }
      ],
      "name": "grantRole",
      "outputs": [],
      "stateMutability": "nonpayable",
      "type": "function"
    },
    {
      "inputs": [
        {
          "internalType": "bytes32",
          "name": "role",
          "type": "bytes32"
        },
        {
          "internalType": "address",
          "name": "account",
          "type": "address"
        }
      ],
      "name": "hasRole",
      "outputs": [
        {
          "internalType": "bool",
          "name": "",
          "type": "bool"
        }
      ],
      "stateMutability": "view",
      "type": "function"
    },
    {
      "inputs": [
        {
          "internalType": "enum RankPlanRegistry.PlanType",
          "name": "",
          "type": "uint8"
        }
      ],
      "name": "planUsageCount",
      "outputs": [
        {
          "internalType": "uint256",
          "name": "",
          "type": "uint256"
        }
      ],
      "stateMutability": "view",
      "type": "function"
    },
    {
      "inputs": [
        {
          "internalType": "enum RankPlanRegistry.PlanType",
          "name": "",
          "type": "uint8"
        }
      ],
      "name": "plans",
      "outputs": [
        {
          "internalType": "string",
          "name": "name",
          "type": "string"
        },
        {
          "internalType": "string",
          "name": "description",
          "type": "string"
        },
        {
          "internalType": "uint256",
          "name": "stages",
          "type": "uint256"
        },
        {
          "internalType": "bool",
          "name": "isActive",
          "type": "bool"
        }
      ],
      "stateMutability": "view",
      "type": "function"
    },
    {
      "inputs": [
        {
          "internalType": "enum RankPlanRegistry.PlanType",
          "name": "planType",
          "type": "uint8"
        }
      ],
      "name": "recordPlanUsage",
      "outputs": [],
      "stateMutability": "nonpayable",
      "type": "function"
    },
    {
      "inputs": [
        {
          "internalType": "bytes32",
          "name": "role",
          "type": "bytes32"
        },
        {
          "internalType": "address",
          "name": "account",
          "type": "address"
        }
      ],
      "name": "renounceRole",
      "outputs": [],
      "stateMutability": "nonpayable",
      "type": "function"
    },
    {
      "inputs": [
        {
          "internalType": "bytes32",
          "name": "role",
          "type": "bytes32"
        },
        {
          "internalType": "address",
          "name": "account",
          "type": "address"
        }
      ],
      "name": "revokeRole",
      "outputs": [],
      "stateMutability": "nonpayable",
      "type": "function"
    },
    {
      "inputs": [
        {
          "internalType": "bytes4",
          "name": "interfaceId",
          "type": "bytes4"
        }
      ],
      "name": "supportsInterface",
      "outputs": [
        {
          "internalType": "bool",
          "name": "",
          "type": "bool"
        }
      ],
      "stateMutability": "view",
      "type": "function"
    },
    {
      "inputs": [
        {
          "internalType": "enum RankPlanRegistry.PlanType",
          "name": "planType",
          "type": "uint8"
        },
        {
          "internalType": "string",
          "name": "name",
          "type": "string"
        },
        {
          "internalType": "string",
          "name": "description",
          "type": "string"
        },
        {
          "internalType": "uint256[]",
          "name": "thresholds",
          "type": "uint256[]"
        },
        {
          "internalType": "string[]",
          "name": "rankNames",
          "type": "string[]"
        },
        {
          "internalType": "string[]",
          "name": "uriTemplates",
          "type": "string[]"
        }
      ],
      "name": "updatePlan",
      "outputs": [],
      "stateMutability": "nonpayable",
      "type": "function"
    }
  ],
  "bytecode": "0x60806040523480156200001157600080fd5b506200001f60003362000087565b6200004b7f7613a25ecc738585a232ad50a301178f12b3ba8887d13e138b523c4269c476893362000087565b620000777fa49807205ce4d355092ef5a8a18f56e8913cf4a201fbe287825b095693c217753362000087565b6200008162000128565b620015f9565b6000828152602081815260408083206001600160a01b038516845290915290205460ff1662000124576000828152602081815260408083206001600160a01b03851684529091529020805460ff19166001179055620000e33390565b6001600160a01b0316816001600160a01b0316837f2f8788117e7eff1d82e926ec794901d17c78024a50270940304540a733656f0d60405160405180910390a45b5050565b604080516003808252608082019092526000916020820160608036833701905050905060008160008151811062000163576200016362001488565b60200260200101818152505069021e19e0c9bab24000008160018151811062000190576200019062001488565b602002602001018181525050690a968163f0a57b40000081600281518110620001bd57620001bd62001488565b602090810291909101015260408051600380825260808201909252600091816020015b6060815260200190600190039081620001e0579050509050604051806040016040528060088152602001672132b3b4b73732b960c11b815250816000815181106200022f576200022f62001488565b60200260200101819052506040518060400160405280600981526020016829bab83837b93a32b960b91b8152508160018151811062000272576200027262001488565b60200260200101819052506040518060400160405280600881526020016721b430b6b834b7b760c11b81525081600281518110620002b457620002b462001488565b602090810291909101015260408051600380825260808201909252600091816020015b6060815260200190600190039081620002d757905050905060405180606001604052806032815260200162003dd260329139816000815181106200031f576200031f62001488565b602002602001018190525060405180606001604052806033815260200162003b4b60339139816001815181106200035a576200035a62001488565b602002602001018190525060405180606001604052806032815260200162003cfb603291398160028151811062000395576200039562001488565b60200260200101819052506040518060e001604052806040518060400160405280600b81526020016a29aa2aa224a790283630b760a91b81525081526020016040518060800160405280604c815260200162003d2d604c913981526003602080830191909152604082018690526060820185905260808201849052600160a0909201829052600080525280517fa6eef7e35abe7026729641147f7915573c7e97b47efa546f5f6e3230263bcb499081906200045190826200152d565b50602082015160018201906200046890826200152d565b506040820151600282015560608201518051620004909160038401916020909101906200134f565b5060808201518051620004ae9160048401916020909101906200139f565b5060a08201518051620004cc9160058401916020909101906200139f565b5060c091909101516006909101805460ff1916911515919091179055600060408051818152600b918101919091526a29aa2aa224a790283630b760a91b60608201526003602082015260008051602062003db28339815191529060800160405180910390a2505060408051600580825260c0820190925260009250906020820160a08036833701905050905060008160008151811062000570576200057062001488565b60200260200101818152505069010f0cf064dd59200000816001815181106200059d576200059d62001488565b60200260200101818152505069043c33c193756480000081600281518110620005ca57620005ca62001488565b602002602001018181525050690a968163f0a57b40000081600381518110620005f757620005f762001488565b60200260200101818152505069152d02c7e14af68000008160048151811062000624576200062462001488565b602090810291909101015260408051600580825260c08201909252600091816020015b606081526020019060019003908162000647579050509050604051806040016040528060088152602001672132b3b4b73732b960c11b8152508160008151811062000696576200069662001488565b60200260200101819052506040518060400160405280600681526020016542726f6e7a6560d01b81525081600181518110620006d657620006d662001488565b60200260200101819052506040518060400160405280600681526020016529b4b63b32b960d11b8152508160028151811062000716576200071662001488565b60200260200101819052506040518060400160405280600481526020016311dbdb1960e21b8152508160038151811062000754576200075462001488565b602002602001018190525060405180604001604052806008815260200167506c6174696e756d60c01b8152508160048151811062000796576200079662001488565b602090810291909101015260408051600580825260c08201909252600091816020015b6060815260200190600190039081620007b957905050905060405180606001604052806036815260200162003b7e603691398160008151811062000801576200080162001488565b602002602001018190525060405180606001604052806034815260200162003a1660349139816001815181106200083c576200083c62001488565b602002602001018190525060405180606001604052806034815260200162003c56603491398160028151811062000877576200087762001488565b602002602001018190525060405180606001604052806032815260200162003bee6032913981600381518110620008b257620008b262001488565b602002602001018190525060405180606001604052806036815260200162003a846036913981600481518110620008ed57620008ed62001488565b60200260200101819052506040518060e001604052806040518060400160405280600f81526020016e29aa2aa224a79028292790283630b760891b81525081526020016040518060800160405280604981526020016200395f6049913981526005602080830191909152604082018690526060820185905260808201849052600160a090920182905260008290525280517fcc69885fda6bcc1a4ace058b4a62bf5e179ea78fd58a1ccd71c22cc9b688792f908190620009ae90826200152d565b5060208201516001820190620009c590826200152d565b506040820151600282015560608201518051620009ed9160038401916020909101906200134f565b506080820151805162000a0b9160048401916020909101906200139f565b5060a0820151805162000a299160058401916020909101906200139f565b5060c091909101516006909101805460ff1916911515919091179055600160408051818152600f918101919091526e29aa2aa224a79028292790283630b760891b60608201526005602082015260008051602062003db28339815191529060800160405180910390a2505060408051600a80825261016082019092526000925090602082016101408036833701905050905060008160008151811062000ad35762000ad362001488565b60200260200101818152505068a2a15d09519be000008160018151811062000aff5762000aff62001488565b60200260200101818152505069021e19e0c9bab24000008160028151811062000b2c5762000b2c62001488565b60200260200101818152505069065a4da25d3016c000008160038151811062000b595762000b5962001488565b60200260200101818152505069152d02c7e14af68000008160048151811062000b865762000b8662001488565b602002602001018181525050693f870857a3e0e38000008160058151811062000bb35762000bb362001488565b602002602001018181525050697f0e10af47c1c70000008160068151811062000be05762000be062001488565b60200260200101818152505069d3c21bcecceda10000008160078151811062000c0d5762000c0d62001488565b6020026020010181815250506a01a784379d99db420000008160088151811062000c3b5762000c3b62001488565b6020026020010181815250506a0422ca8b0a00a4250000008160098151811062000c695762000c6962001488565b602090810291909101015260408051600a8082526101608201909252600091816020015b606081526020019060019003908162000c8d579050509050604051806040016040528060088152602001672132b3b4b73732b960c11b8152508160008151811062000cdc5762000cdc62001488565b60200260200101819052506040518060400160405280600681526020016542726f6e7a6560d01b8152508160018151811062000d1c5762000d1c62001488565b60200260200101819052506040518060400160405280600681526020016529b4b63b32b960d11b8152508160028151811062000d5c5762000d5c62001488565b60200260200101819052506040518060400160405280600481526020016311dbdb1960e21b8152508160038151811062000d9a5762000d9a62001488565b602002602001018190525060405180604001604052806008815260200167506c6174696e756d60c01b8152508160048151811062000ddc5762000ddc62001488565b602002602001018190525060405180604001604052806007815260200166111a585b5bdb9960ca1b8152508160058151811062000e1d5762000e1d62001488565b6020026020010181905250604051806040016040528060048152602001635275627960e01b8152508160068151811062000e5b5762000e5b62001488565b602002602001018190525060405180604001604052806008815260200167536170706869726560c01b8152508160078151811062000e9d5762000e9d62001488565b602002602001018190525060405180604001604052806007815260200166115b595c985b1960ca1b8152508160088151811062000ede5762000ede62001488565b602002602001018190525060405180604001604052806006815260200165131959d95b9960d21b8152508160098151811062000f1e5762000f1e62001488565b602090810291909101015260408051600a8082526101608201909252600091816020015b606081526020019060019003908162000f425790505090506040518060600160405280603a815260200162003bb4603a91398160008151811062000f8a5762000f8a62001488565b602002602001018190525060405180606001604052806038815260200162003aba603891398160018151811062000fc55762000fc562001488565b6020026020010181905250604051806060016040528060388152602001620039a8603891398160028151811062001000576200100062001488565b602002602001018190525060405180606001604052806036815260200162003c2060369139816003815181106200103b576200103b62001488565b60200260200101819052506040518060600160405280603a815260200162003a4a603a91398160048151811062001076576200107662001488565b602002602001018190525060405180606001604052806039815260200162003cc26039913981600581518110620010b157620010b162001488565b6020026020010181905250604051806060016040528060368152602001620039e06036913981600681518110620010ec57620010ec62001488565b60200260200101819052506040518060600160405280603a815260200162003925603a91398160078151811062001127576200112762001488565b602002602001018190525060405180606001604052806039815260200162003d79603991398160088151811062001162576200116262001488565b602002602001018190525060405180606001604052806038815260200162003c8a60389139816009815181106200119d576200119d62001488565b60200260200101819052506040518060e001604052806040518060400160405280601381526020017229aa2aa224a7902829279026a0ac10283630b760691b815250815260200160405180608001604052806059815260200162003af2605991398152600a602080830191909152604082018690526060820185905260808201849052600160a090920182905260026000525280517fd9d16d34ffb15ba3a3d852f0d403e2ce1d691fb54de27ac87cd2f993f3ec330f9081906200126290826200152d565b50602082015160018201906200127990826200152d565b506040820151600282015560608201518051620012a19160038401916020909101906200134f565b5060808201518051620012bf9160048401916020909101906200139f565b5060a08201518051620012dd9160058401916020909101906200139f565b5060c091909101516006909101805460ff19169115159190911790556002604080518181526013918101919091527229aa2aa224a7902829279026a0ac10283630b760691b6060820152600a602082015260008051602062003db28339815191529060800160405180910390a2505050565b8280548282559060005260206000209081019282156200138d579160200282015b828111156200138d57825182559160200191906001019062001370565b506200139b929150620013f8565b5090565b828054828255906000526020600020908101928215620013ea579160200282015b82811115620013ea5782518290620013d990826200152d565b5091602001919060010190620013c0565b506200139b9291506200140f565b5b808211156200139b5760008155600101620013f9565b808211156200139b57600062001426828262001430565b506001016200140f565b5080546200143e906200149e565b6000825580601f106200144f575050565b601f0160209004906000526020600020908101906200146f9190620013f8565b50565b634e487b7160e01b600052604160045260246000fd5b634e487b7160e01b600052603260045260246000fd5b600181811c90821680620014b357607f821691505b602082108103620014d457634e487b7160e01b600052602260045260246000fd5b50919050565b601f8211156200152857600081815260208120601f850160051c81016020861015620015035750805b601f850160051c820191505b8181101562001524578281556001016200150f565b5050505b505050565b81516001600160401b0381111562001549576200154962001472565b62001561816200155a84546200149e565b84620014da565b602080601f831160018114620015995760008415620015805750858301515b600019600386901b1c1916600185901b17855562001524565b600085815260208120601f198616915b82811015620015ca57888601518255948401946001909101908401620015a9565b5085821015620015e95787850151600019600388901b60f8161c191681555b5050505050600190811b01905550565b61231c80620016096000396000f3fe608060405234801561001057600080fd5b50600436106101215760003560e01c80637f3b897e116100ad578063d547741f11610071578063d547741f1461028d578063f0be5706146102a0578063f98e77a7146102b3578063fa88e112146102d3578063fae2f177146102f357600080fd5b80637f3b897e1461022c57806391d148541461023f578063a12b212114610252578063a217fddf14610272578063af83c2391461027a57600080fd5b80634460bdd6116100f45780634460bdd6146101a75780634ae912a0146101bc578063578b74f4146101cf57806360a31a88146101e257806375b238fc1461020557600080fd5b806301ffc9a714610126578063248a9ca31461014e5780632f2ff15d1461017f57806336568abe14610194575b600080fd5b610139610134366004611add565b610388565b60405190151581526020015b60405180910390f35b61017161015c366004611b07565b60009081526020819052604090206001015490565b604051908152602001610145565b61019261018d366004611b20565b6103bf565b005b6101926101a2366004611b20565b6103e9565b6101716000805160206122c783398151915281565b6101926101ca366004611b70565b61046c565b6101926101dd366004611c19565b61050d565b6101f56101f0366004611b70565b6107f1565b6040516101459493929190611d70565b6101717fa49807205ce4d355092ef5a8a18f56e8913cf4a201fbe287825b095693c2177581565b61019261023a366004611b70565b61092d565b61013961024d366004611b20565b6109a6565b610265610260366004611b70565b6109cf565b6040516101459190611e03565b610171600081565b610192610288366004611b70565b610e27565b61019261029b366004611b20565b610ec9565b6101716102ae366004611ee5565b610eee565b6101716102c1366004611b70565b60026020526000908152604090205481565b6102e66102e1366004611ee5565b6112e7565b6040516101459190611f0f565b61036d600260208190527fac33ff75c19e70fe83507db0d683fd3465c996598dc972688b7ace676c89077b547fe90b7bceb6e7df5418fb78d8ee546e97c83a08bbccc01a0644d599ccd2a7c2e0546000929092527f679795a0195a1b76cdebb7c51d74e058aee92919b8c3389af86ef24535e8a28c549092565b60408051938452602084019290925290820152606001610145565b60006001600160e01b03198216637965db0b60e01b14806103b957506301ffc9a760e01b6001600160e01b03198316145b92915050565b6000828152602081905260409020600101546103da816116d0565b6103e483836116dd565b505050565b6001600160a01b038116331461045e5760405162461bcd60e51b815260206004820152602f60248201527f416363657373436f6e74726f6c3a2063616e206f6e6c792072656e6f756e636560448201526e103937b632b9903337b91039b2b63360891b60648201526084015b60405180910390fd5b6104688282611761565b5050565b6000805160206122c7833981519152610484816116d0565b600180600084600381111561049b5761049b611f22565b60038111156104ac576104ac611f22565b81526020810191909152604001600020600601805460ff19169115159190911790558160038111156104e0576104e0611f22565b6040517fa005439061d46cc46068a530904e09ee3da6b40bdbda17cd14ea8e346536eac290600090a25050565b6000805160206122c7833981519152610525816116d0565b8584146105665760405162461bcd60e51b815260206004820152600f60248201526e098cadccee8d040dad2e6dac2e8c6d608b1b6044820152606401610455565b8582146105a75760405162461bcd60e51b815260206004820152600f60248201526e098cadccee8d040dad2e6dac2e8c6d608b1b6044820152606401610455565b856105e15760405162461bcd60e51b815260206004820152600a60248201526922b6b83a3c90383630b760b11b6044820152606401610455565b6040518060e001604052808c8c8080601f016020809104026020016040519081016040528093929190818152602001838380828437600092019190915250505090825250604080516020601f8d018190048102820181019092528b815291810191908c908c90819084018382808284376000920191909152505050908252506020808201899052604080518a8302818101840183528b82529190930192918b918b918291908501908490808284376000920191909152505050908252506020016106ab8688611f7f565b81526020016106ba8486611f7f565b81526001602090910181905260008e60038111156106da576106da611f22565b60038111156106eb576106eb611f22565b815260208101919091526040016000208151819061070990826120dc565b506020820151600182019061071e90826120dc565b5060408201516002820155606082015180516107449160038401916020909101906119d4565b5060808201518051610760916004840191602090910190611a1f565b5060a0820151805161077c916005840191602090910190611a1f565b5060c091909101516006909101805460ff19169115159190911790558b60038111156107aa576107aa611f22565b7f5f38f1aa99382e2d81638d78b23d0aced69b036bfbd1078a50643fc26984a08b8c8c6040516107db92919061219c565b60405180910390a2505050505050505050505050565b60016020526000908152604090208054819061080c90612054565b80601f016020809104026020016040519081016040528092919081815260200182805461083890612054565b80156108855780601f1061085a57610100808354040283529160200191610885565b820191906000526020600020905b81548152906001019060200180831161086857829003601f168201915b50505050509080600101805461089a90612054565b80601f01602080910402602001604051908101604052809291908181526020018280546108c690612054565b80156109135780601f106108e857610100808354040283529160200191610913565b820191906000526020600020905b8154815290600101906020018083116108f657829003601f168201915b50505050600283015460069093015491929160ff16905084565b7fa49807205ce4d355092ef5a8a18f56e8913cf4a201fbe287825b095693c21775610957816116d0565b6002600083600381111561096d5761096d611f22565b600381111561097e5761097e611f22565b8152602001908152602001600020600081548092919061099d906121e1565b91905055505050565b6000918252602082815260408084206001600160a01b0393909316845291905290205460ff1690565b610a116040518060e001604052806060815260200160608152602001600081526020016060815260200160608152602001606081526020016000151581525090565b600060016000846003811115610a2957610a29611f22565b6003811115610a3a57610a3a611f22565b81526020019081526020016000206040518060e0016040529081600082018054610a6390612054565b80601f0160208091040260200160405190810160405280929190818152602001828054610a8f90612054565b8015610adc5780601f10610ab157610100808354040283529160200191610adc565b820191906000526020600020905b815481529060010190602001808311610abf57829003601f168201915b50505050508152602001600182018054610af590612054565b80601f0160208091040260200160405190810160405280929190818152602001828054610b2190612054565b8015610b6e5780601f10610b4357610100808354040283529160200191610b6e565b820191906000526020600020905b815481529060010190602001808311610b5157829003601f168201915b505050505081526020016002820154815260200160038201805480602002602001604051908101604052809291908181526020018280548015610bd057602002820191906000526020600020905b815481526020019060010190808311610bbc575b5050505050815260200160048201805480602002602001604051908101604052809291908181526020016000905b82821015610caa578382906000526020600020018054610c1d90612054565b80601f0160208091040260200160405190810160405280929190818152602001828054610c4990612054565b8015610c965780601f10610c6b57610100808354040283529160200191610c96565b820191906000526020600020905b815481529060010190602001808311610c7957829003601f168201915b505050505081526020019060010190610bfe565b50505050815260200160058201805480602002602001604051908101604052809291908181526020016000905b82821015610d83578382906000526020600020018054610cf690612054565b80601f0160208091040260200160405190810160405280929190818152602001828054610d2290612054565b8015610d6f5780601f10610d4457610100808354040283529160200191610d6f565b820191906000526020600020905b815481529060010190602001808311610d5257829003601f168201915b505050505081526020019060010190610cd7565b505050908252506006919091015460ff1615156020909101526040810151909150610de15760405162461bcd60e51b815260206004820152600e60248201526d141b185b881b9bdd08199bdd5b9960921b6044820152606401610455565b8060c001516103b95760405162461bcd60e51b8152602060048201526012602482015271506c616e206973206e6f742061637469766560701b6044820152606401610455565b6000805160206122c7833981519152610e3f816116d0565b600060016000846003811115610e5757610e57611f22565b6003811115610e6857610e68611f22565b81526020810191909152604001600020600601805460ff1916911515919091179055816003811115610e9c57610e9c611f22565b6040517f3dff4c956a8eaa96b5bbfa40bb16689cfa8f1a7afc507e7d2679aa432d54a3a590600090a25050565b600082815260208190526040902060010154610ee4816116d0565b6103e48383611761565b60008060016000856003811115610f0757610f07611f22565b6003811115610f1857610f18611f22565b81526020019081526020016000206040518060e0016040529081600082018054610f4190612054565b80601f0160208091040260200160405190810160405280929190818152602001828054610f6d90612054565b8015610fba5780601f10610f8f57610100808354040283529160200191610fba565b820191906000526020600020905b815481529060010190602001808311610f9d57829003601f168201915b50505050508152602001600182018054610fd390612054565b80601f0160208091040260200160405190810160405280929190818152602001828054610fff90612054565b801561104c5780601f106110215761010080835404028352916020019161104c565b820191906000526020600020905b81548152906001019060200180831161102f57829003601f168201915b5050505050815260200160028201548152602001600382018054806020026020016040519081016040528092919081815260200182805480156110ae57602002820191906000526020600020905b81548152602001906001019080831161109a575b5050505050815260200160048201805480602002602001604051908101604052809291908181526020016000905b828210156111885783829060005260206000200180546110fb90612054565b80601f016020809104026020016040519081016040528092919081815260200182805461112790612054565b80156111745780601f1061114957610100808354040283529160200191611174565b820191906000526020600020905b81548152906001019060200180831161115757829003601f168201915b5050505050815260200190600101906110dc565b50505050815260200160058201805480602002602001604051908101604052809291908181526020016000905b828210156112615783829060005260206000200180546111d490612054565b80601f016020809104026020016040519081016040528092919081815260200182805461120090612054565b801561124d5780601f106112225761010080835404028352916020019161124d565b820191906000526020600020905b81548152906001019060200180831161123057829003601f168201915b5050505050815260200190600101906111b5565b505050908252506006919091015460ff161515602090910152604081015190915083106112c05760405162461bcd60e51b815260206004820152600d60248201526c125b9d985b1a59081b195d995b609a1b6044820152606401610455565b806060015183815181106112d6576112d66121fa565b602002602001015191505092915050565b606060006001600085600381111561130157611301611f22565b600381111561131257611312611f22565b81526020019081526020016000206040518060e001604052908160008201805461133b90612054565b80601f016020809104026020016040519081016040528092919081815260200182805461136790612054565b80156113b45780601f10611389576101008083540402835291602001916113b4565b820191906000526020600020905b81548152906001019060200180831161139757829003601f168201915b505050505081526020016001820180546113cd90612054565b80601f01602080910402602001604051908101604052809291908181526020018280546113f990612054565b80156114465780601f1061141b57610100808354040283529160200191611446565b820191906000526020600020905b81548152906001019060200180831161142957829003601f168201915b5050505050815260200160028201548152602001600382018054806020026020016040519081016040528092919081815260200182805480156114a857602002820191906000526020600020905b815481526020019060010190808311611494575b5050505050815260200160048201805480602002602001604051908101604052809291908181526020016000905b828210156115825783829060005260206000200180546114f590612054565b80601f016020809104026020016040519081016040528092919081815260200182805461152190612054565b801561156e5780601f106115435761010080835404028352916020019161156e565b820191906000526020600020905b81548152906001019060200180831161155157829003601f168201915b5050505050815260200190600101906114d6565b50505050815260200160058201805480602002602001604051908101604052809291908181526020016000905b8282101561165b5783829060005260206000200180546115ce90612054565b80601f01602080910402602001604051908101604052809291908181526020018280546115fa90612054565b80156116475780601f1061161c57610100808354040283529160200191611647565b820191906000526020600020905b81548152906001019060200180831161162a57829003601f168201915b5050505050815260200190600101906115af565b505050908252506006919091015460ff161515602090910152604081015190915083106116ba5760405162461bcd60e51b815260206004820152600d60248201526c125b9d985b1a59081b195d995b609a1b6044820152606401610455565b806080015183815181106112d6576112d66121fa565b6116da81336117c6565b50565b6116e782826109a6565b610468576000828152602081815260408083206001600160a01b03851684529091529020805460ff1916600117905561171d3390565b6001600160a01b0316816001600160a01b0316837f2f8788117e7eff1d82e926ec794901d17c78024a50270940304540a733656f0d60405160405180910390a45050565b61176b82826109a6565b15610468576000828152602081815260408083206001600160a01b0385168085529252808320805460ff1916905551339285917ff6391f5c32d9c69d2a47ea670b442974b53935d1edc7fd64eb21e047a839171b9190a45050565b6117d082826109a6565b610468576117dd8161181f565b6117e8836020611831565b6040516020016117f9929190612210565b60408051601f198184030181529082905262461bcd60e51b825261045591600401611f0f565b60606103b96001600160a01b03831660145b60606000611840836002612285565b61184b90600261229c565b67ffffffffffffffff81111561186357611863611f38565b6040519080825280601f01601f19166020018201604052801561188d576020820181803683370190505b509050600360fc1b816000815181106118a8576118a86121fa565b60200101906001600160f81b031916908160001a905350600f60fb1b816001815181106118d7576118d76121fa565b60200101906001600160f81b031916908160001a90535060006118fb846002612285565b61190690600161229c565b90505b600181111561197e576f181899199a1a9b1b9c1cb0b131b232b360811b85600f166010811061193a5761193a6121fa565b1a60f81b828281518110611950576119506121fa565b60200101906001600160f81b031916908160001a90535060049490941c93611977816122af565b9050611909565b5083156119cd5760405162461bcd60e51b815260206004820181905260248201527f537472696e67733a20686578206c656e67746820696e73756666696369656e746044820152606401610455565b9392505050565b828054828255906000526020600020908101928215611a0f579160200282015b82811115611a0f5782518255916020019190600101906119f4565b50611a1b929150611a71565b5090565b828054828255906000526020600020908101928215611a65579160200282015b82811115611a655782518290611a5590826120dc565b5091602001919060010190611a3f565b50611a1b929150611a86565b5b80821115611a1b5760008155600101611a72565b80821115611a1b576000611a9a8282611aa3565b50600101611a86565b508054611aaf90612054565b6000825580601f10611abf575050565b601f0160209004906000526020600020908101906116da9190611a71565b600060208284031215611aef57600080fd5b81356001600160e01b0319811681146119cd57600080fd5b600060208284031215611b1957600080fd5b5035919050565b60008060408385031215611b3357600080fd5b8235915060208301356001600160a01b0381168114611b5157600080fd5b809150509250929050565b803560048110611b6b57600080fd5b919050565b600060208284031215611b8257600080fd5b6119cd82611b5c565b60008083601f840112611b9d57600080fd5b50813567ffffffffffffffff811115611bb557600080fd5b602083019150836020828501011115611bcd57600080fd5b9250929050565b60008083601f840112611be657600080fd5b50813567ffffffffffffffff811115611bfe57600080fd5b6020830191508360208260051b8501011115611bcd57600080fd5b600080600080600080600080600080600060c08c8e031215611c3a57600080fd5b611c438c611b5c565b9a5067ffffffffffffffff8060208e01351115611c5f57600080fd5b611c6f8e60208f01358f01611b8b565b909b50995060408d0135811015611c8557600080fd5b611c958e60408f01358f01611b8b565b909950975060608d0135811015611cab57600080fd5b611cbb8e60608f01358f01611bd4565b909750955060808d0135811015611cd157600080fd5b611ce18e60808f01358f01611bd4565b909550935060a08d0135811015611cf757600080fd5b50611d088d60a08e01358e01611bd4565b81935080925050509295989b509295989b9093969950565b60005b83811015611d3b578181015183820152602001611d23565b50506000910152565b60008151808452611d5c816020860160208601611d20565b601f01601f19169290920160200192915050565b608081526000611d836080830187611d44565b8281036020840152611d958187611d44565b6040840195909552505090151560609091015292915050565b600081518084526020808501808196508360051b8101915082860160005b85811015611df6578284038952611de4848351611d44565b98850198935090840190600101611dcc565b5091979650505050505050565b60006020808352835160e082850152611e20610100850182611d44565b905081850151601f1980868403016040870152611e3d8383611d44565b6040880151606088810191909152880151878203830160808901528051808352908601945060009350908501905b80841015611e8b5784518252938501936001939093019290850190611e6b565b5060808801519450818782030160a0880152611ea78186611dae565b94505060a08701519250808685030160c08701525050611ec78282611dae565b91505060c0840151611edd60e085018215159052565b509392505050565b60008060408385031215611ef857600080fd5b611f0183611b5c565b946020939093013593505050565b6020815260006119cd6020830184611d44565b634e487b7160e01b600052602160045260246000fd5b634e487b7160e01b600052604160045260246000fd5b604051601f8201601f1916810167ffffffffffffffff81118282101715611f7757611f77611f38565b604052919050565b600067ffffffffffffffff80841115611f9a57611f9a611f38565b8360051b6020611fab818301611f4e565b868152918501918181019036841115611fc357600080fd5b865b8481101561204857803586811115611fdd5760008081fd5b8801601f3681830112611ff05760008081fd5b81358881111561200257612002611f38565b612013818301601f19168801611f4e565b9150808252368782850101111561202a5760008081fd5b80878401888401376000908201870152845250918301918301611fc5565b50979650505050505050565b600181811c9082168061206857607f821691505b60208210810361208857634e487b7160e01b600052602260045260246000fd5b50919050565b601f8211156103e457600081815260208120601f850160051c810160208610156120b55750805b601f850160051c820191505b818110156120d4578281556001016120c1565b505050505050565b815167ffffffffffffffff8111156120f6576120f6611f38565b61210a816121048454612054565b8461208e565b602080601f83116001811461213f57600084156121275750858301515b600019600386901b1c1916600185901b1785556120d4565b600085815260208120601f198616915b8281101561216e5788860151825594840194600190910190840161214f565b508582101561218c5787850151600019600388901b60f8161c191681555b5050505050600190811b01905550565b60208152816020820152818360408301376000818301604090810191909152601f909201601f19160101919050565b634e487b7160e01b600052601160045260246000fd5b6000600182016121f3576121f36121cb565b5060010190565b634e487b7160e01b600052603260045260246000fd5b7f416363657373436f6e74726f6c3a206163636f756e7420000000000000000000815260008351612248816017850160208801611d20565b7001034b99036b4b9b9b4b733903937b6329607d1b6017918401918201528351612279816028840160208801611d20565b01602801949350505050565b80820281158282048414176103b9576103b96121cb565b808201808211156103b9576103b96121cb565b6000816122be576122be6121cb565b50600019019056fe7613a25ecc738585a232ad50a301178f12b3ba8887d13e138b523c4269c47689a264697066735822122088d7147635d1e7fc1d190e2e2c3ed0991fb22d1d4f47ab787e319246a476298d64736f6c6343000814003368747470733a2f2f6170692e67696674657272612e636f6d2f72616e6b2f73747564696f2d70726f2d6d61782f73617070686972652e6a736f6ee6a899e6ba96e79a84e381aa35e6aeb5e99a8ee383a9e383b3e382afe382b7e382b9e38386e383a0e38082e4b8ade8a68fe6a8a1e38386e3838ae383b3e38388e59091e38191e3808268747470733a2f2f6170692e67696674657272612e636f6d2f72616e6b2f73747564696f2d70726f2d6d61782f73696c7665722e6a736f6e68747470733a2f2f6170692e67696674657272612e636f6d2f72616e6b2f73747564696f2d70726f2d6d61782f727562792e6a736f6e68747470733a2f2f6170692e67696674657272612e636f6d2f72616e6b2f73747564696f2d70726f2f62726f6e7a652e6a736f6e68747470733a2f2f6170692e67696674657272612e636f6d2f72616e6b2f73747564696f2d70726f2d6d61782f706c6174696e756d2e6a736f6e68747470733a2f2f6170692e67696674657272612e636f6d2f72616e6b2f73747564696f2d70726f2f706c6174696e756d2e6a736f6e68747470733a2f2f6170692e67696674657272612e636f6d2f72616e6b2f73747564696f2d70726f2d6d61782f62726f6e7a652e6a736f6ee69c80e9ab98e5b3b0e381ae3130e6aeb5e99a8ee383a9e383b3e382afe382b7e382b9e38386e383a0e38082e5a4a7e8a68fe6a8a1e38386e3838ae383b3e38388e383bbe995b7e69c9fe9818be794a8e59091e38191e3808268747470733a2f2f6170692e67696674657272612e636f6d2f72616e6b2f73747564696f2f737570706f727465722e6a736f6e68747470733a2f2f6170692e67696674657272612e636f6d2f72616e6b2f73747564696f2d70726f2f626567696e6e65722e6a736f6e68747470733a2f2f6170692e67696674657272612e636f6d2f72616e6b2f73747564696f2d70726f2d6d61782f626567696e6e65722e6a736f6e68747470733a2f2f6170692e67696674657272612e636f6d2f72616e6b2f73747564696f2d70726f2f676f6c642e6a736f6e68747470733a2f2f6170692e67696674657272612e636f6d2f72616e6b2f73747564696f2d70726f2d6d61782f676f6c642e6a736f6e68747470733a2f2f6170692e67696674657272612e636f6d2f72616e6b2f73747564696f2d70726f2f73696c7665722e6a736f6e68747470733a2f2f6170692e67696674657272612e636f6d2f72616e6b2f73747564696f2d70726f2d6d61782f6c6567656e642e6a736f6e68747470733a2f2f6170692e67696674657272612e636f6d2f72616e6b2f73747564696f2d70726f2d6d61782f6469616d6f6e642e6a736f6e68747470733a2f2f6170692e67696674657272612e636f6d2f72616e6b2f73747564696f2f6368616d70696f6e2e6a736f6ee382b7e383b3e38397e383abe381aa33e6aeb5e99a8ee383a9e383b3e382afe382b7e382b9e38386e383a0e38082e5b08fe8a68fe6a8a1e38386e3838ae383b3e38388e59091e38191e3808268747470733a2f2f6170692e67696674657272612e636f6d2f72616e6b2f73747564696f2d70726f2d6d61782f656d6572616c642e6a736f6eae558decf2e9c74b6790144120387f8f42428d14d8bd9b23c4f0dd0014ae227468747470733a2f2f6170692e67696674657272612e636f6d2f72616e6b2f73747564696f2f626567696e6e65722e6a736f6e",
  "linkReferences": {},
  "deployedLinkReferences": {}
}